{
  "_format": "hh-sol-artifact-1",
  "contractName": "PediScreenTreasury",
  "sourceName": "contracts/PediScreenTreasury.sol",
  "abi": [
    {
      "inputs": [
        {
          "internalType": "address",
          "name": "_pediscToken",
          "type": "address"
        },
        {
          "internalType": "address",
          "name": "_nativeTreasury",
          "type": "address"
        },
        {
          "internalType": "address",
          "name": "_screeningRegistry",
          "type": "address"
        },
        {
          "internalType": "address[]",
          "name": "_initialClinicians",
          "type": "address[]"
        }
      ],
      "stateMutability": "nonpayable",
      "type": "constructor"
    },
    {
      "inputs": [],
      "name": "AccessControlBadConfirmation",
      "type": "error"
    },
    {
      "inputs": [
        {
          "internalType": "address",
          "name": "account",
          "type": "address"
        },
        {
          "internalType": "bytes32",
          "name": "neededRole",
          "type": "bytes32"
        }
      ],
      "name": "AccessControlUnauthorizedAccount",
      "type": "error"
    },
    {
      "inputs": [],
      "name": "ReentrancyGuardReentrantCall",
      "type": "error"
    },
    {
      "anonymous": false,
      "inputs": [
        {
          "indexed": true,
          "internalType": "address",
          "name": "clinician",
          "type": "address"
        },
        {
          "indexed": false,
          "internalType": "uint256",
          "name": "index",
          "type": "uint256"
        }
      ],
      "name": "ClinicianAdded",
      "type": "event"
    },
    {
      "anonymous": false,
      "inputs": [
        {
          "indexed": true,
          "internalType": "uint256",
          "name": "proposalId",
          "type": "uint256"
        },
        {
          "indexed": true,
          "internalType": "address",
          "name": "clinician",
          "type": "address"
        }
      ],
      "name": "ProposalApproved",
      "type": "event"
    },
    {
      "anonymous": false,
      "inputs": [
        {
          "indexed": true,
          "internalType": "uint256",
          "name": "proposalId",
          "type": "uint256"
        },
        {
          "indexed": true,
          "internalType": "address",
          "name": "proposer",
          "type": "address"
        }
      ],
      "name": "ProposalCancelled",
      "type": "event"
    },
    {
      "anonymous": false,
      "inputs": [
        {
          "indexed": true,
          "internalType": "uint256",
          "name": "proposalId",
          "type": "uint256"
        },
        {
          "indexed": true,
          "internalType": "address",
          "name": "recipient",
          "type": "address"
        },
        {
          "indexed": false,
          "internalType": "uint256",
          "name": "amount",
          "type": "uint256"
        }
      ],
      "name": "ProposalCreated",
      "type": "event"
    },
    {
      "anonymous": false,
      "inputs": [
        {
          "indexed": true,
          "internalType": "uint256",
          "name": "proposalId",
          "type": "uint256"
        },
        {
          "indexed": true,
          "internalType": "address",
          "name": "recipient",
          "type": "address"
        },
        {
          "indexed": false,
          "internalType": "uint256",
          "name": "amount",
          "type": "uint256"
        }
      ],
      "name": "ProposalExecuted",
      "type": "event"
    },
    {
      "anonymous": false,
      "inputs": [
        {
          "indexed": true,
          "internalType": "bytes32",
          "name": "role",
          "type": "bytes32"
        },
        {
          "indexed": true,
          "internalType": "bytes32",
          "name": "previousAdminRole",
          "type": "bytes32"
        },
        {
          "indexed": true,
          "internalType": "bytes32",
          "name": "newAdminRole",
          "type": "bytes32"
        }
      ],
      "name": "RoleAdminChanged",
      "type": "event"
    },
    {
      "anonymous": false,
      "inputs": [
        {
          "indexed": true,
          "internalType": "bytes32",
          "name": "role",
          "type": "bytes32"
        },
        {
          "indexed": true,
          "internalType": "address",
          "name": "account",
          "type": "address"
        },
        {
          "indexed": true,
          "internalType": "address",
          "name": "sender",
          "type": "address"
        }
      ],
      "name": "RoleGranted",
      "type": "event"
    },
    {
      "anonymous": false,
      "inputs": [
        {
          "indexed": true,
          "internalType": "bytes32",
          "name": "role",
          "type": "bytes32"
        },
        {
          "indexed": true,
          "internalType": "address",
          "name": "account",
          "type": "address"
        },
        {
          "indexed": true,
          "internalType": "address",
          "name": "sender",
          "type": "address"
        }
      ],
      "name": "RoleRevoked",
      "type": "event"
    },
    {
      "anonymous": false,
      "inputs": [
        {
          "indexed": true,
          "internalType": "address",
          "name": "registry",
          "type": "address"
        }
      ],
      "name": "ScreeningRegistrySet",
      "type": "event"
    },
    {
      "stateMutability": "payable",
      "type": "fallback"
    },
    {
      "inputs": [],
      "name": "ADMIN_ROLE",
      "outputs": [
        {
          "internalType": "bytes32",
          "name": "",
          "type": "bytes32"
        }
      ],
      "stateMutability": "view",
      "type": "function"
    },
    {
      "inputs": [],
      "name": "CLINICIAN_ROLE",
      "outputs": [
        {
          "internalType": "bytes32",
          "name": "",
          "type": "bytes32"
        }
      ],
      "stateMutability": "view",
      "type": "function"
    },
    {
      "inputs": [],
      "name": "DEFAULT_ADMIN_ROLE",
      "outputs": [
        {
          "internalType": "bytes32",
          "name": "",
          "type": "bytes32"
        }
      ],
      "stateMutability": "view",
      "type": "function"
    },
    {
      "inputs": [],
      "name": "MAX_CLINICIANS",
      "outputs": [
        {
          "internalType": "uint256",
          "name": "",
          "type": "uint256"
        }
      ],
      "stateMutability": "view",
      "type": "function"
    },
    {
      "inputs": [],
      "name": "PEDISC_TOKEN",
      "outputs": [
        {
          "internalType": "address",
          "name": "",
          "type": "address"
        }
      ],
      "stateMutability": "view",
      "type": "function"
    },
    {
      "inputs": [],
      "name": "PROPOSAL_EXECUTION_DELAY",
      "outputs": [
        {
          "internalType": "uint256",
          "name": "",
          "type": "uint256"
        }
      ],
      "stateMutability": "view",
      "type": "function"
    },
    {
      "inputs": [],
      "name": "QUORUM_THRESHOLD",
      "outputs": [
        {
          "internalType": "uint256",
          "name": "",
          "type": "uint256"
        }
      ],
      "stateMutability": "view",
      "type": "function"
    },
    {
      "inputs": [
        {
          "internalType": "address",
          "name": "clinician",
          "type": "address"
        }
      ],
      "name": "addClinician",
      "outputs": [],
      "stateMutability": "nonpayable",
      "type": "function"
    },
    {
      "inputs": [
        {
          "internalType": "uint256",
          "name": "proposalId",
          "type": "uint256"
        }
      ],
      "name": "approveProposal",
      "outputs": [],
      "stateMutability": "nonpayable",
      "type": "function"
    },
    {
      "inputs": [
        {
          "internalType": "uint256",
          "name": "proposalId",
          "type": "uint256"
        }
      ],
      "name": "cancelProposal",
      "outputs": [],
      "stateMutability": "nonpayable",
      "type": "function"
    },
    {
      "inputs": [
        {
          "internalType": "uint256",
          "name": "",
          "type": "uint256"
        }
      ],
      "name": "clinicians",
      "outputs": [
        {
          "internalType": "address",
          "name": "",
          "type": "address"
        }
      ],
      "stateMutability": "view",
      "type": "function"
    },
    {
      "inputs": [
        {
          "internalType": "address",
          "name": "token",
          "type": "address"
        },
        {
          "internalType": "uint256",
          "name": "amount",
          "type": "uint256"
        }
      ],
      "name": "emergencyWithdraw",
      "outputs": [],
      "stateMutability": "nonpayable",
      "type": "function"
    },
    {
      "inputs": [
        {
          "internalType": "uint256",
          "name": "proposalId",
          "type": "uint256"
        }
      ],
      "name": "executeProposal",
      "outputs": [],
      "stateMutability": "nonpayable",
      "type": "function"
    },
    {
      "inputs": [],
      "name": "getActiveProposals",
      "outputs": [
        {
          "internalType": "uint256[]",
          "name": "",
          "type": "uint256[]"
        }
      ],
      "stateMutability": "view",
      "type": "function"
    },
    {
      "inputs": [
        {
          "internalType": "uint256",
          "name": "proposalId",
          "type": "uint256"
        }
      ],
      "name": "getProposal",
      "outputs": [
        {
          "internalType": "address",
          "name": "recipient",
          "type": "address"
        },
        {
          "internalType": "uint256",
          "name": "amount",
          "type": "uint256"
        },
        {
          "internalType": "string",
          "name": "currency",
          "type": "string"
        },
        {
          "internalType": "uint256",
          "name": "screeningId",
          "type": "uint256"
        },
        {
          "internalType": "string",
          "name": "description",
          "type": "string"
        },
        {
          "internalType": "uint256",
          "name": "approvals",
          "type": "uint256"
        },
        {
          "internalType": "bool",
          "name": "executed",
          "type": "bool"
        },
        {
          "internalType": "bool",
          "name": "cancelled",
          "type": "bool"
        },
        {
          "internalType": "uint256",
          "name": "executionTime",
          "type": "uint256"
        }
      ],
      "stateMutability": "view",
      "type": "function"
    },
    {
      "inputs": [],
      "name": "getProposalCount",
      "outputs": [
        {
          "internalType": "uint256",
          "name": "",
          "type": "uint256"
        }
      ],
      "stateMutability": "view",
      "type": "function"
    },
    {
      "inputs": [
        {
          "internalType": "bytes32",
          "name": "role",
          "type": "bytes32"
        }
      ],
      "name": "getRoleAdmin",
      "outputs": [
        {
          "internalType": "bytes32",
          "name": "",
          "type": "bytes32"
        }
      ],
      "stateMutability": "view",
      "type": "function"
    },
    {
      "inputs": [
        {
          "internalType": "bytes32",
          "name": "role",
          "type": "bytes32"
        },
        {
          "internalType": "address",
          "name": "account",
          "type": "address"
        }
      ],
      "name": "grantRole",
      "outputs": [],
      "stateMutability": "nonpayable",
      "type": "function"
    },
    {
      "inputs": [
        {
          "internalType": "bytes32",
          "name": "role",
          "type": "bytes32"
        },
        {
          "internalType": "address",
          "name": "account",
          "type": "address"
        }
      ],
      "name": "hasRole",
      "outputs": [
        {
          "internalType": "bool",
          "name": "",
          "type": "bool"
        }
      ],
      "stateMutability": "view",
      "type": "function"
    },
    {
      "inputs": [],
      "name": "nativeTreasury",
      "outputs": [
        {
          "internalType": "address",
          "name": "",
          "type": "address"
        }
      ],
      "stateMutability": "view",
      "type": "function"
    },
    {
      "inputs": [],
      "name": "numClinicians",
      "outputs": [
        {
          "internalType": "uint256",
          "name": "",
          "type": "uint256"
        }
      ],
      "stateMutability": "view",
      "type": "function"
    },
    {
      "inputs": [
        {
          "internalType": "uint256",
          "name": "",
          "type": "uint256"
        },
        {
          "internalType": "address",
          "name": "",
          "type": "address"
        }
      ],
      "name": "proposalApprovals",
      "outputs": [
        {
          "internalType": "bool",
          "name": "",
          "type": "bool"
        }
      ],
      "stateMutability": "view",
      "type": "function"
    },
    {
      "inputs": [
        {
          "internalType": "uint256",
          "name": "",
          "type": "uint256"
        }
      ],
      "name": "proposals",
      "outputs": [
        {
          "internalType": "uint256",
          "name": "id",
          "type": "uint256"
        },
        {
          "internalType": "address payable",
          "name": "recipient",
          "type": "address"
        },
        {
          "internalType": "uint256",
          "name": "amount",
          "type": "uint256"
        },
        {
          "internalType": "string",
          "name": "currency",
          "type": "string"
        },
        {
          "internalType": "uint256",
          "name": "screeningId",
          "type": "uint256"
        },
        {
          "internalType": "string",
          "name": "description",
          "type": "string"
        },
        {
          "internalType": "address",
          "name": "proposer",
          "type": "address"
        },
        {
          "internalType": "uint256",
          "name": "createdAt",
          "type": "uint256"
        },
        {
          "internalType": "uint256",
          "name": "executionTime",
          "type": "uint256"
        },
        {
          "internalType": "uint256",
          "name": "approvals",
          "type": "uint256"
        },
        {
          "internalType": "bool",
          "name": "executed",
          "type": "bool"
        },
        {
          "internalType": "bool",
          "name": "cancelled",
          "type": "bool"
        }
      ],
      "stateMutability": "view",
      "type": "function"
    },
    {
      "inputs": [
        {
          "internalType": "address",
          "name": "chwWallet",
          "type": "address"
        },
        {
          "internalType": "uint256",
          "name": "screeningTokenId",
          "type": "uint256"
        },
        {
          "internalType": "uint256",
          "name": "paymentAmount",
          "type": "uint256"
        }
      ],
      "name": "proposeCHWPayment",
      "outputs": [
        {
          "internalType": "uint256",
          "name": "",
          "type": "uint256"
        }
      ],
      "stateMutability": "nonpayable",
      "type": "function"
    },
    {
      "inputs": [
        {
          "internalType": "address payable",
          "name": "recipient",
          "type": "address"
        },
        {
          "internalType": "uint256",
          "name": "amount",
          "type": "uint256"
        },
        {
          "internalType": "string",
          "name": "currency",
          "type": "string"
        },
        {
          "internalType": "uint256",
          "name": "screeningId",
          "type": "uint256"
        },
        {
          "internalType": "string",
          "name": "description",
          "type": "string"
        }
      ],
      "name": "proposePayment",
      "outputs": [
        {
          "internalType": "uint256",
          "name": "",
          "type": "uint256"
        }
      ],
      "stateMutability": "nonpayable",
      "type": "function"
    },
    {
      "inputs": [
        {
          "internalType": "bytes32",
          "name": "role",
          "type": "bytes32"
        },
        {
          "internalType": "address",
          "name": "callerConfirmation",
          "type": "address"
        }
      ],
      "name": "renounceRole",
      "outputs": [],
      "stateMutability": "nonpayable",
      "type": "function"
    },
    {
      "inputs": [
        {
          "internalType": "bytes32",
          "name": "role",
          "type": "bytes32"
        },
        {
          "internalType": "address",
          "name": "account",
          "type": "address"
        }
      ],
      "name": "revokeRole",
      "outputs": [],
      "stateMutability": "nonpayable",
      "type": "function"
    },
    {
      "inputs": [],
      "name": "screeningRegistry",
      "outputs": [
        {
          "internalType": "address",
          "name": "",
          "type": "address"
        }
      ],
      "stateMutability": "view",
      "type": "function"
    },
    {
      "inputs": [
        {
          "internalType": "address",
          "name": "_screeningRegistry",
          "type": "address"
        }
      ],
      "name": "setScreeningRegistry",
      "outputs": [],
      "stateMutability": "nonpayable",
      "type": "function"
    },
    {
      "inputs": [
        {
          "internalType": "bytes4",
          "name": "interfaceId",
          "type": "bytes4"
        }
      ],
      "name": "supportsInterface",
      "outputs": [
        {
          "internalType": "bool",
          "name": "",
          "type": "bool"
        }
      ],
      "stateMutability": "view",
      "type": "function"
    },
    {
      "stateMutability": "payable",
      "type": "receive"
    }
  ],
  "bytecode": "0x60c0604052346102d5576122ba80380380610019816102ed565b9283398101906080818303126102d55761003281610312565b61003e60208301610312565b9061004b60408401610312565b606084015190936001600160401b0382116102d557019380601f860112156102d5578451946001600160401b0386116102d9578560051b906020806100918185016102ed565b8099815201928201019283116102d557602001905b8282106102bd57505050600180556003845111610278576001600160a01b038116156102425760805260a052600280546001600160a01b0319166001600160a01b03929092169190911790556100fb33610326565b506101053361039c565b505f5b815181101561021a576020600582901b83018101516001600160a01b03165f8181525f51602061227a5f395f51905f5290925260409091205490919060ff166101e15760075460038110156101cd5760040180546001600160a01b031916831790556101738261042f565b5060075491600183018060075583116101b9577f5a531b9e8caf4376852c69b715d095e6e22e99fb10a374dd7f14594227827cc56020600194604051908152a201610108565b634e487b7160e01b5f52601160045260245ffd5b634e487b7160e01b5f52603260045260245ffd5b60405162461bcd60e51b815260206004820152601160248201527020b63932b0b23c9031b634b734b1b4b0b760791b6044820152606490fd5b604051611d7790816104c38239608051818181610903015261108f015260a051816104390152f35b60405162461bcd60e51b815260206004820152600e60248201526d496e76616c69642050454449534360901b6044820152606490fd5b60405162461bcd60e51b815260206004820152601b60248201527f546f6f206d616e7920696e697469616c20636c696e696369616e7300000000006044820152606490fd5b602080916102ca84610312565b8152019101906100a6565b5f80fd5b634e487b7160e01b5f52604160045260245ffd5b6040519190601f01601f191682016001600160401b038111838210176102d957604052565b51906001600160a01b03821682036102d557565b6001600160a01b0381165f9081525f51602061229a5f395f51905f52602052604090205460ff16610397576001600160a01b03165f8181525f51602061229a5f395f51905f5260205260408120805460ff191660011790553391905f51602061223a5f395f51905f528180a4600190565b505f90565b6001600160a01b0381165f9081525f51602061225a5f395f51905f52602052604090205460ff16610397576001600160a01b03165f8181525f51602061225a5f395f51905f5260205260408120805460ff191660011790553391907fa49807205ce4d355092ef5a8a18f56e8913cf4a201fbe287825b095693c21775905f51602061223a5f395f51905f529080a4600190565b6001600160a01b0381165f9081525f51602061227a5f395f51905f52602052604090205460ff16610397576001600160a01b03165f8181525f51602061227a5f395f51905f5260205260408120805460ff191660011790553391907fe497b4ad79a67650fca774cf0812e4505f07dd6d87a3c1afc29076ccc8bbcefe905f51602061223a5f395f51905f529080a460019056fe60806040526004361015610010575b005b5f3560e01c8063013cf08b146112dd57806301ffc9a7146112875780630d61b51914610f44578063248a9ca314610f1a5780632e5cc1b014610ee45780632f2ff15d14610ea7578063354d6f2714610d3857806336568abe14610cf45780633c3cb45814610b325780634733c27114610ae95780635584c4f91461096a5780635e510b601461094f57806365e62fa4146109325780636a800cea146108ee57806375b238fc146108b457806379111f03146108995780637ac812391461087c5780637b3db42b146107b85780637e405c751461079057806391d148541461074857806395ccea671461064d57806398951b56146104bc578063a217fddf146104a2578063a5817e1314610468578063b2ec387214610424578063c08cc02d14610407578063c7f758a814610344578063d547741f14610302578063e0a8f6f5146101c85763e6b0b29e0361000e57346101c45760203660031901126101c457610177611512565b61017f61173d565b600280546001600160a01b0319166001600160a01b039290921691821790557f79b418ad3e91bdb210250d533626a82188a13dfb242260d298d9300f1c0856615f80a2005b5f80fd5b346101c45760203660031901126101c4576004356101e9600354821061158a565b805f52600860205261020560ff600a60405f20015416156115c9565b805f52600860205261022460ff600a60405f20015460081c1615611608565b5f81815260086020526040902060068101546001600160a01b031633036102ce57600881015442101561028957600a01805461ff00191661010017905533907f74c34a008ce735d9fcf0bd03a9b238d212ad4c441c020661f4ffbb6442645b855f80a3005b60405162461bcd60e51b815260206004820152601960248201527f43616e6e6f742063616e63656c2061667465722064656c6179000000000000006044820152606490fd5b60405162461bcd60e51b815260206004820152600c60248201526b2737ba10383937b837b9b2b960a11b6044820152606490fd5b346101c45760403660031901126101c45761000e6004356103216114fc565b9061033f61033a825f525f602052600160405f20015490565b6117ac565b611917565b346101c45760203660031901126101c4576004355f52600860205260405f2060018060a01b0360018201541660028201549160048101549060ff6009820154926103e2600a840154916008850154946103cf6103ae60056103a760038501611438565b9301611438565b916040519a8b9a8b5260208b015261012060408b01526101208a01906114d8565b91606089015287820360808901526114d8565b9360a0860152818116151560c086015260081c16151560e08401526101008301520390f35b346101c4575f3660031901126101c4576020600354604051908152f35b346101c4575f3660031901126101c4576040517f00000000000000000000000000000000000000000000000000000000000000006001600160a01b03168152602090f35b346101c4575f3660031901126101c45760206040517fe497b4ad79a67650fca774cf0812e4505f07dd6d87a3c1afc29076ccc8bbcefe8152f35b346101c4575f3660031901126101c45760206040515f8152f35b346101c45760203660031901126101c457335f9081525f516020611d225f395f51905f526020526040902054600435906104f89060ff16611640565b610505600354821061158a565b805f52600860205261052160ff600a60405f20015416156115c9565b805f52600860205261054060ff600a60405f20015460081c1615611608565b805f52600860205260405f206008810154421015610608575f82815260096020908152604080832033845290915290205460ff166105d357600990825f528160205260405f2060018060a01b0333165f5260205260405f20600160ff19825416179055016001815401905533907f049c28adfe50bcf1b76fd95273b6a24566b9f377e52fddc653c3355248dad07a5f80a3005b60405162461bcd60e51b815260206004820152600d60248201526c105b1c9958591e481d9bdd1959609a1b6044820152606490fd5b60405162461bcd60e51b815260206004820152601760248201527f457865637574696f6e20706572696f64207061737365640000000000000000006044820152606490fd5b346101c45760403660031901126101c4575f610667611512565b6024359061067361173d565b6001600160a01b0316801583146106d3575081808092335af161069461170e565b501561069c57005b60405162461bcd60e51b815260206004820152600f60248201526e15da5d1a191c985dc819985a5b1959608a1b6044820152606490fd5b6044602092604051948593849263a9059cbb60e01b845233600485015260248401525af1801561073d5761000e915f9161070e575b506116d0565b610730915060203d602011610736575b6107288183611402565b8101906116b8565b82610708565b503d61071e565b6040513d5f823e3d90fd5b346101c45760403660031901126101c4576107616114fc565b6004355f525f60205260405f209060018060a01b03165f52602052602060ff60405f2054166040519015158152f35b346101c4575f3660031901126101c4576002546040516001600160a01b039091168152602090f35b346101c45760a03660031901126101c4576004356001600160a01b03811681036101c45760443567ffffffffffffffff81116101c4576107fc903690600401611544565b6084359067ffffffffffffffff82116101c457602092610823610874933690600401611544565b7fe497b4ad79a67650fca774cf0812e4505f07dd6d87a3c1afc29076ccc8bbcefe5f908152808652604080822033835287529020549092906108679060ff16611640565b6064359160243590611a44565b604051908152f35b346101c4575f3660031901126101c4576020600754604051908152f35b346101c4575f3660031901126101c457602060405160038152f35b346101c4575f3660031901126101c45760206040517fa49807205ce4d355092ef5a8a18f56e8913cf4a201fbe287825b095693c217758152f35b346101c4575f3660031901126101c4576040517f00000000000000000000000000000000000000000000000000000000000000006001600160a01b03168152602090f35b346101c4575f3660031901126101c45760206040516202a3008152f35b346101c4575f3660031901126101c457602060405160028152f35b346101c4575f3660031901126101c4575f5f600354905b818110610a7f57506109ab610995836116a0565b926109a36040519485611402565b8084526116a0565b602083019190601f19013683375f905f5b818110610a07578385604051918291602083019060208452518091526040830191905f5b8181106109ee575050500390f35b82518452859450602093840193909201916001016109e0565b805f52600860205260ff600a60405f200154161580610a62575b610a2e575b6001016109bc565b918451811015610a4e57600581901b850160200183905260010191610a26565b634e487b7160e01b5f52603260045260245ffd5b50805f52600860205260ff600a60405f20015460081c1615610a21565b805f52600860205260ff600a60405f200154161580610acc575b610aa6575b600101610981565b915f198114610ab85760010191610a9e565b634e487b7160e01b5f52601160045260245ffd5b50805f52600860205260ff600a60405f20015460081c1615610a99565b346101c45760403660031901126101c457610b026114fc565b6004355f52600960205260405f209060018060a01b03165f52602052602060ff60405f2054166040519015158152f35b346101c45760603660031901126101c457610b4b611512565b335f9081525f516020611d225f395f51905f52602052604090205460243590610b769060ff16611640565b6002546001600160a01b0316918215610cbc576020602493604051948580926331a9108f60e11b82528660048301525afa92831561073d575f93610c78575b506001600160a01b039081169216829003610c3d576020818193610c2b603b610be061087496611997565b6040519586917f434857205061796d656e7420666f722053637265656e696e6720230000000000828401528051918291018484015e81015f838201520301601f198101855284611402565b610c3361167c565b9060443590611a44565b60405162461bcd60e51b815260206004820152601360248201527210d215c8191bd95cdb89dd081bdddb88139195606a1b6044820152606490fd5b9092506020813d602011610cb4575b81610c9460209383611402565b810103126101c457516001600160a01b03811681036101c4579183610bb5565b3d9150610c87565b60405162461bcd60e51b815260206004820152601060248201526f149959da5cdd1c9e481b9bdd081cd95d60821b6044820152606490fd5b346101c45760403660031901126101c457610d0d6114fc565b336001600160a01b03821603610d295761000e90600435611917565b63334bd91960e11b5f5260045ffd5b346101c45760203660031901126101c457610d51611512565b610d5961173d565b6007546003811015610e69576001600160a01b038216918215610e32575f8381525f516020611d225f395f51905f52602052604090205460ff16610df957610dba91600401836bffffffffffffffffffffffff60a01b8254161790556117e4565b5060075460018101806007558111610ab85760207f5a531b9e8caf4376852c69b715d095e6e22e99fb10a374dd7f14594227827cc591604051908152a2005b60405162461bcd60e51b815260206004820152601160248201527020b63932b0b23c9031b634b734b1b4b0b760791b6044820152606490fd5b60405162461bcd60e51b815260206004820152600f60248201526e496e76616c6964206164647265737360881b6044820152606490fd5b60405162461bcd60e51b815260206004820152601660248201527513585e0818db1a5b9a58da585b9cc81c995858da195960521b6044820152606490fd5b346101c45760403660031901126101c45761000e600435610ec66114fc565b90610edf61033a825f525f602052600160405f20015490565b61188f565b346101c45760203660031901126101c45760043560038110156101c457600401546040516001600160a01b039091168152602090f35b346101c45760203660031901126101c45760206108746004355f525f602052600160405f20015490565b346101c45760203660031901126101c457600435600260015414611278576002600155610f74600354821061158a565b805f526008602052610f9060ff600a60405f20015416156115c9565b805f526008602052610faf60ff600a60405f20015460081c1615611608565b805f52600860205260405f20600260098201541061123a576008015442106111fe57805f52600860205260405f2090600a820160018154610ff360ff8216156115c9565b60ff191617905560028201546001830154604051600390940180546001600160a01b039092169490815f611026856113ca565b9283835260208301956001811690815f146111df575060011461119b575b5061105192500382611402565b51902061105c61167c565b60208151910120145f1461111e5760405163a9059cbb60e01b81526004810184905260248101829052906020826044815f7f00000000000000000000000000000000000000000000000000000000000000006001600160a01b03165af190811561073d576110f46020927f3b7c90df35b419337cff0919fe91849006607bb66c4373623f06f9d48c1ebb98945f9161110157506116d0565b604051908152a360018055005b6111189150843d8611610736576107288183611402565b87610708565b5f80808084875af161112e61170e565b501561115d5760207f3b7c90df35b419337cff0919fe91849006607bb66c4373623f06f9d48c1ebb98916110f4565b60405162461bcd60e51b815260206004820152601660248201527513985d1a5d99481d1c985b9cd9995c8819985a5b195960521b6044820152606490fd5b90505f9291925260205f20905f915b8183106111c35750509060206110519282010188611044565b60209193508060019154838588010152019101909183926111aa565b60ff191687525061105193151560051b83016020019150899050611044565b60405162461bcd60e51b8152602060048201526014602482015273546f6f206561726c7920746f206578656375746560601b6044820152606490fd5b60405162461bcd60e51b8152602060048201526016602482015275496e73756666696369656e7420617070726f76616c7360501b6044820152606490fd5b633ee5aeb560e01b5f5260045ffd5b346101c45760203660031901126101c45760043563ffffffff60e01b81168091036101c457602090637965db0b60e01b81149081156112cc575b506040519015158152f35b6301ffc9a760e01b149050826112c1565b346101c45760203660031901126101c4576004355f526008602052602060405f2080549060ff60018060a01b0360018301541660028301549261132260038201611438565b9360048201549461139861133860058501611438565b9660018060a01b0360068601541697611385600787015494600888015496600a60098a0154990154996040519e8f9e8f908152015260408d015261018060608d01526101808c01906114d8565b9160808b015289820360a08b01526114d8565b9560c088015260e0870152610100860152610120850152818116151561014085015260081c1615156101608301520390f35b90600182811c921680156113f8575b60208310146113e457565b634e487b7160e01b5f52602260045260245ffd5b91607f16916113d9565b90601f8019910116810190811067ffffffffffffffff82111761142457604052565b634e487b7160e01b5f52604160045260245ffd5b9060405191825f82549261144b846113ca565b80845293600181169081156114b65750600114611472575b5061147092500383611402565b565b90505f9291925260205f20905f915b81831061149a575050906020611470928201015f611463565b6020919350806001915483858901015201910190918492611481565b90506020925061147094915060ff191682840152151560051b8201015f611463565b805180835260209291819084018484015e5f828201840152601f01601f1916010190565b602435906001600160a01b03821682036101c457565b600435906001600160a01b03821682036101c457565b67ffffffffffffffff811161142457601f01601f191660200190565b81601f820112156101c45780359061155b82611528565b926115696040519485611402565b828452602083830101116101c457815f926020809301838601378301015290565b1561159157565b60405162461bcd60e51b815260206004820152601060248201526f125b9d985b1a59081c1c9bdc1bdcd85b60821b6044820152606490fd5b156115d057565b60405162461bcd60e51b815260206004820152601060248201526f105b1c9958591e48195e1958dd5d195960821b6044820152606490fd5b1561160f57565b60405162461bcd60e51b815260206004820152600960248201526810d85b98d95b1b195960ba1b6044820152606490fd5b1561164757565b60405162461bcd60e51b815260206004820152600d60248201526c2737ba1031b634b734b1b4b0b760991b6044820152606490fd5b6040519061168b604083611402565b600682526550454449534360d01b6020830152565b67ffffffffffffffff81116114245760051b60200190565b908160209103126101c4575180151581036101c45790565b156116d757565b60405162461bcd60e51b815260206004820152600f60248201526e151c985b9cd9995c8819985a5b1959608a1b6044820152606490fd5b3d15611738573d9061171f82611528565b9161172d6040519384611402565b82523d5f602084013e565b606090565b335f9081527f7d7ffb7a348e1c6a02869081a26547b49160dd3df72d1d75a570eb9b698292ec602052604090205460ff161561177557565b63e2517d3f60e01b5f52336004527fa49807205ce4d355092ef5a8a18f56e8913cf4a201fbe287825b095693c2177560245260445ffd5b5f8181526020818152604080832033845290915290205460ff16156117ce5750565b63e2517d3f60e01b5f523360045260245260445ffd5b6001600160a01b0381165f9081525f516020611d225f395f51905f52602052604090205460ff1661188a576001600160a01b03165f8181525f516020611d225f395f51905f5260205260408120805460ff191660011790553391907fe497b4ad79a67650fca774cf0812e4505f07dd6d87a3c1afc29076ccc8bbcefe907f2f8788117e7eff1d82e926ec794901d17c78024a50270940304540a733656f0d9080a4600190565b505f90565b5f818152602081815260408083206001600160a01b038616845290915290205460ff16611911575f818152602081815260408083206001600160a01b0395909516808452949091528120805460ff19166001179055339291907f2f8788117e7eff1d82e926ec794901d17c78024a50270940304540a733656f0d9080a4600190565b50505f90565b5f818152602081815260408083206001600160a01b038616845290915290205460ff1615611911575f818152602081815260408083206001600160a01b0395909516808452949091528120805460ff19169055339291907ff6391f5c32d9c69d2a47ea670b442974b53935d1edc7fd64eb21e047a839171b9080a4600190565b8015611a24575f81805b611a1557506119af81611528565b906119bd6040519283611402565b808252601f196119cc82611528565b013660208401375b808315611a0e575f1901928251841015610a4e57600a9160308383060160f81b6001600160f81b0319165f1a908401601f015304916119d4565b5050905090565b906001600a91019104806119a1565b50604051611a33604082611402565b60018152600360fc1b602082015290565b919092936003549460018601600355855f52600860205260405f20928684556001840160018060a01b0386166bffffffffffffffffffffffff60a01b825416179055856002850155600384019080519067ffffffffffffffff8211611424578190611aaf84546113ca565b601f8111611cd1575b50602090601f8311600114611c6e575f92611c63575b50508160011b915f199060031b1c19161790555b60048301558051600583019167ffffffffffffffff8211611424578190611b0984546113ca565b601f8111611c13575b50602090601f8311600114611bb0575f92611ba5575b50508160011b915f199060031b1c19161790555b6006810180546001600160a01b0319163317905542600782018190556202a300810191908210610ab857600801556040519182526001600160a01b03169082907f3417b456fad6209c73445d5efd446d686e75e4560f0f50c13b5a5cde976447b490602090a390565b015190505f80611b28565b5f8581528281209350601f198516905b818110611bfb5750908460019594939210611be3575b505050811b019055611b3c565b01515f1960f88460031b161c191690555f8080611bd6565b92936020600181928786015181550195019301611bc0565b909150835f5260205f20601f840160051c81019160208510611c59575b90601f859493920160051c01905b818110611c4b5750611b12565b5f8155849350600101611c3e565b9091508190611c30565b015190505f80611ace565b5f8581528281209350601f198516905b818110611cb95750908460019594939210611ca1575b505050811b019055611ae2565b01515f1960f88460031b161c191690555f8080611c94565b92936020600181928786015181550195019301611c7e565b909150835f5260205f20601f840160051c81019160208510611d17575b90601f859493920160051c01905b818110611d095750611ab8565b5f8155849350600101611cfc565b9091508190611cee56fe2f566f68ba58ef18aabfedad873b1a7cc8301257f2194d930cbc8f55c091e338a2646970667358221220e6f3517c1337dc3a1b1837968712b1f15dcab92437c97c750a1bdc8a8316292c64736f6c634300081b00332f8788117e7eff1d82e926ec794901d17c78024a50270940304540a733656f0d7d7ffb7a348e1c6a02869081a26547b49160dd3df72d1d75a570eb9b698292ec2f566f68ba58ef18aabfedad873b1a7cc8301257f2194d930cbc8f55c091e338ad3228b676f7d3cd4284a5443f17f1962b36e491b30a40b2405849e597ba5fb5",
  "linkReferences": {},
  "deployedLinkReferences": {}
}