{
  "_format": "hh-sol-artifact-1",
  "contractName": "PediScreenL2DrugTrace",
  "sourceName": "contracts/PediScreenL2DrugTrace.sol",
  "abi": [
    {
      "inputs": [],
      "stateMutability": "nonpayable",
      "type": "constructor"
    },
    {
      "inputs": [],
      "name": "AccessControlBadConfirmation",
      "type": "error"
    },
    {
      "inputs": [
        {
          "internalType": "address",
          "name": "account",
          "type": "address"
        },
        {
          "internalType": "bytes32",
          "name": "neededRole",
          "type": "bytes32"
        }
      ],
      "name": "AccessControlUnauthorizedAccount",
      "type": "error"
    },
    {
      "inputs": [],
      "name": "ReentrancyGuardReentrantCall",
      "type": "error"
    },
    {
      "anonymous": false,
      "inputs": [
        {
          "indexed": true,
          "internalType": "uint256",
          "name": "batchId",
          "type": "uint256"
        },
        {
          "indexed": false,
          "internalType": "uint8",
          "name": "shardId",
          "type": "uint8"
        },
        {
          "indexed": false,
          "internalType": "bytes32",
          "name": "merkleRoot",
          "type": "bytes32"
        }
      ],
      "name": "BatchProcessed",
      "type": "event"
    },
    {
      "anonymous": false,
      "inputs": [
        {
          "indexed": true,
          "internalType": "bytes32",
          "name": "role",
          "type": "bytes32"
        },
        {
          "indexed": true,
          "internalType": "bytes32",
          "name": "previousAdminRole",
          "type": "bytes32"
        },
        {
          "indexed": true,
          "internalType": "bytes32",
          "name": "newAdminRole",
          "type": "bytes32"
        }
      ],
      "name": "RoleAdminChanged",
      "type": "event"
    },
    {
      "anonymous": false,
      "inputs": [
        {
          "indexed": true,
          "internalType": "bytes32",
          "name": "role",
          "type": "bytes32"
        },
        {
          "indexed": true,
          "internalType": "address",
          "name": "account",
          "type": "address"
        },
        {
          "indexed": true,
          "internalType": "address",
          "name": "sender",
          "type": "address"
        }
      ],
      "name": "RoleGranted",
      "type": "event"
    },
    {
      "anonymous": false,
      "inputs": [
        {
          "indexed": true,
          "internalType": "bytes32",
          "name": "role",
          "type": "bytes32"
        },
        {
          "indexed": true,
          "internalType": "address",
          "name": "account",
          "type": "address"
        },
        {
          "indexed": true,
          "internalType": "address",
          "name": "sender",
          "type": "address"
        }
      ],
      "name": "RoleRevoked",
      "type": "event"
    },
    {
      "anonymous": false,
      "inputs": [
        {
          "indexed": true,
          "internalType": "uint8",
          "name": "shardId",
          "type": "uint8"
        },
        {
          "indexed": false,
          "internalType": "uint256",
          "name": "lastBatchId",
          "type": "uint256"
        }
      ],
      "name": "ShardSettledL1",
      "type": "event"
    },
    {
      "inputs": [],
      "name": "BATCH_ROLE",
      "outputs": [
        {
          "internalType": "bytes32",
          "name": "",
          "type": "bytes32"
        }
      ],
      "stateMutability": "view",
      "type": "function"
    },
    {
      "inputs": [],
      "name": "BATCH_SIZE",
      "outputs": [
        {
          "internalType": "uint256",
          "name": "",
          "type": "uint256"
        }
      ],
      "stateMutability": "view",
      "type": "function"
    },
    {
      "inputs": [],
      "name": "DEFAULT_ADMIN_ROLE",
      "outputs": [
        {
          "internalType": "bytes32",
          "name": "",
          "type": "bytes32"
        }
      ],
      "stateMutability": "view",
      "type": "function"
    },
    {
      "inputs": [],
      "name": "IOT_ROLE",
      "outputs": [
        {
          "internalType": "bytes32",
          "name": "",
          "type": "bytes32"
        }
      ],
      "stateMutability": "view",
      "type": "function"
    },
    {
      "inputs": [],
      "name": "SHARD_COUNT",
      "outputs": [
        {
          "internalType": "uint256",
          "name": "",
          "type": "uint256"
        }
      ],
      "stateMutability": "view",
      "type": "function"
    },
    {
      "inputs": [],
      "name": "batchCounter",
      "outputs": [
        {
          "internalType": "uint256",
          "name": "",
          "type": "uint256"
        }
      ],
      "stateMutability": "view",
      "type": "function"
    },
    {
      "inputs": [
        {
          "internalType": "uint8",
          "name": "_shardId",
          "type": "uint8"
        },
        {
          "internalType": "bytes32[]",
          "name": "_serialHashes",
          "type": "bytes32[]"
        },
        {
          "internalType": "int16[]",
          "name": "_temperatures",
          "type": "int16[]"
        },
        {
          "internalType": "uint256[]",
          "name": "_timestamps",
          "type": "uint256[]"
        }
      ],
      "name": "batchTemperatureUpdate",
      "outputs": [],
      "stateMutability": "nonpayable",
      "type": "function"
    },
    {
      "inputs": [
        {
          "internalType": "uint8",
          "name": "_shardId",
          "type": "uint8"
        },
        {
          "internalType": "uint256[]",
          "name": "_batchIds",
          "type": "uint256[]"
        },
        {
          "internalType": "string[]",
          "name": "",
          "type": "string[]"
        }
      ],
      "name": "batchVerify",
      "outputs": [
        {
          "components": [
            {
              "internalType": "bool",
              "name": "authentic",
              "type": "bool"
            },
            {
              "internalType": "bool",
              "name": "temperatureCompliant",
              "type": "bool"
            },
            {
              "internalType": "uint256",
              "name": "excursions",
              "type": "uint256"
            }
          ],
          "internalType": "struct PediScreenL2DrugTrace.BatchVerification",
          "name": "",
          "type": "tuple"
        }
      ],
      "stateMutability": "view",
      "type": "function"
    },
    {
      "inputs": [
        {
          "internalType": "uint256",
          "name": "",
          "type": "uint256"
        }
      ],
      "name": "batches",
      "outputs": [
        {
          "internalType": "uint256",
          "name": "batchId",
          "type": "uint256"
        },
        {
          "internalType": "uint8",
          "name": "shardId",
          "type": "uint8"
        }
      ],
      "stateMutability": "view",
      "type": "function"
    },
    {
      "inputs": [
        {
          "internalType": "bytes32",
          "name": "role",
          "type": "bytes32"
        }
      ],
      "name": "getRoleAdmin",
      "outputs": [
        {
          "internalType": "bytes32",
          "name": "",
          "type": "bytes32"
        }
      ],
      "stateMutability": "view",
      "type": "function"
    },
    {
      "inputs": [
        {
          "internalType": "bytes32",
          "name": "role",
          "type": "bytes32"
        },
        {
          "internalType": "address",
          "name": "account",
          "type": "address"
        }
      ],
      "name": "grantRole",
      "outputs": [],
      "stateMutability": "nonpayable",
      "type": "function"
    },
    {
      "inputs": [
        {
          "internalType": "bytes32",
          "name": "role",
          "type": "bytes32"
        },
        {
          "internalType": "address",
          "name": "account",
          "type": "address"
        }
      ],
      "name": "hasRole",
      "outputs": [
        {
          "internalType": "bool",
          "name": "",
          "type": "bool"
        }
      ],
      "stateMutability": "view",
      "type": "function"
    },
    {
      "inputs": [
        {
          "internalType": "bytes32",
          "name": "role",
          "type": "bytes32"
        },
        {
          "internalType": "address",
          "name": "callerConfirmation",
          "type": "address"
        }
      ],
      "name": "renounceRole",
      "outputs": [],
      "stateMutability": "nonpayable",
      "type": "function"
    },
    {
      "inputs": [
        {
          "internalType": "bytes32",
          "name": "role",
          "type": "bytes32"
        },
        {
          "internalType": "address",
          "name": "account",
          "type": "address"
        }
      ],
      "name": "revokeRole",
      "outputs": [],
      "stateMutability": "nonpayable",
      "type": "function"
    },
    {
      "inputs": [
        {
          "internalType": "uint8",
          "name": "_shardId",
          "type": "uint8"
        }
      ],
      "name": "settleShardL1",
      "outputs": [],
      "stateMutability": "nonpayable",
      "type": "function"
    },
    {
      "inputs": [
        {
          "internalType": "uint8",
          "name": "",
          "type": "uint8"
        }
      ],
      "name": "shardStates",
      "outputs": [
        {
          "internalType": "uint256",
          "name": "lastBatchId",
          "type": "uint256"
        },
        {
          "internalType": "bytes32",
          "name": "merkleRoot",
          "type": "bytes32"
        },
        {
          "internalType": "bool",
          "name": "settledL1",
          "type": "bool"
        }
      ],
      "stateMutability": "view",
      "type": "function"
    },
    {
      "inputs": [
        {
          "internalType": "bytes4",
          "name": "interfaceId",
          "type": "bytes4"
        }
      ],
      "name": "supportsInterface",
      "outputs": [
        {
          "internalType": "bool",
          "name": "",
          "type": "bool"
        }
      ],
      "stateMutability": "view",
      "type": "function"
    }
  ],
  "bytecode": "0x60806040523461003a57600180556100163361003e565b50610020336100b4565b5061002a33610147565b5060405161120890816101db8239f35b5f80fd5b6001600160a01b0381165f9081525f5160206114235f395f51905f52602052604090205460ff166100af576001600160a01b03165f8181525f5160206114235f395f51905f5260205260408120805460ff191660011790553391905f5160206113e35f395f51905f528180a4600190565b505f90565b6001600160a01b0381165f9081525f5160206114435f395f51905f52602052604090205460ff166100af576001600160a01b03165f8181525f5160206114435f395f51905f5260205260408120805460ff191660011790553391907f20d9bb381123487c7458dc4b1e41409eafb0e74092b8def477c5c636cc4f4b73905f5160206113e35f395f51905f529080a4600190565b6001600160a01b0381165f9081525f5160206114035f395f51905f52602052604090205460ff166100af576001600160a01b03165f8181525f5160206114035f395f51905f5260205260408120805460ff191660011790553391907ff21f1334b5763f7f78b6339c7f4681d4ab0a688d513ffdda46178bbb94863dd3905f5160206113e35f395f51905f529080a460019056fe6080806040526004361015610012575f80fd5b5f3560e01c908163016ad78f14610ee15750806301ffc9a714610e8b578063057daff914610e51578063248a9ca314610e1f5780632f2ff15d14610df057806336568abe14610dba57806349faa4d414610d9e5780635cf4ac6014610ccd57806368233eef14610cb05780638057419214610c62578063914c10571461070a57806391d14854146106cf578063a217fddf146106b5578063a2b5766014610162578063b32c4d8d1461012c578063d547741f146100f65763f1438968146100d7575f80fd5b346100f2575f3660031901126100f257602060405160108152f35b5f80fd5b346100f25761012a61010736610f19565b90610125610120825f525f602052600160405f20015490565b611092565b611152565b005b346100f25760203660031901126100f2576004355f5260036020526040805f2060ff600482549201541682519182526020820152f35b346100f25760603660031901126100f25761017b610f3f565b6024356001600160401b0381116100f25761019a903690600401610f4f565b906044356001600160401b0381116100f2576101ba903690600401610f4f565b50505f604080516101ca81610fbc565b82815282602082015201526064821161067d576040516101e981610fbc565b5f8152602081016001815260ff60408301955f8752165f52600260205260405f20604060ff600282519361021c85610fbc565b8054855260018101546020860152015416910190151581525f5b85811015610656578060051b8501355f52600360205260405f206040519061025d82610fa1565b8054825260018101604051808260208294549384815201905f5260205f20925f905b80821061063a57505061029492500382610fd7565b60208301526002810191604051808460208296549384815201905f5260205f20925f905b80600f83011061056e5761034e94549181811061055b575b818110610545575b818110610530575b81811061051a575b818110610504575b8181106104ee575b8181106104d8575b8181106104c2575b8181106104ac575b818110610496575b818110610480575b81811061046a575b818110610454575b81811061043e575b818110610428575b10610417575b500384610fd7565b6040810192835260038201916040519283602082549182815201915f5260205f20905f905b8082106103ff5750505060ff600485949361039660019998976080950387610fd7565b856060860152015416910152516103af575b5001610236565b611f406103bc8251611071565b51840b139081156103e5575b506103d4575b886103a8565b6103de8851610f7f565b88526103ce565b516113871991506103f590611071565b51830b12896103c8565b90919260016020819286548152019401920190610373565b60f01d60010b81526020018d610346565b9260206001918460e01c830b8152019301610340565b9260206001918460d01c830b8152019301610338565b9260206001918460c01c830b8152019301610330565b9260206001918460b01c830b8152019301610328565b9260206001918460a01c830b8152019301610320565b9260206001918460901c830b8152019301610318565b9260206001918460801c830b8152019301610310565b9260206001918460701c830b8152019301610308565b9260206001918460601c830b8152019301610300565b9260206001918460501c830b81520193016102f8565b9260206001918460401c830b81520193016102f0565b9260206001918460301c830b81520193016102e8565b92602060019184821c830b81520193016102e0565b9260206001918460101c830b81520193016102d8565b92602060019184830b81520193016102d0565b916010919350610200600191865480840b825280851c840b60208301528060201c840b60408301528060301c840b60608301528060401c840b60808301528060501c840b60a08301528060601c840b60c08301528060701c840b60e08301528060801c840b6101008301528060901c840b6101208301528060a01c840b6101408301528060b01c840b6101608301528060c01c840b6101808301528060d01c840b6101a08301528060e01c840b6101c083015260f01d830b6101e08201520194019201869293916102b8565b916001919350602082918654815201940192018492939161027f565b60608488858551151580935281511581526040519283525115156020830152516040820152f35b60405162461bcd60e51b815260206004820152601060248201526f546f6f206d616e79206261746368657360801b6044820152606490fd5b346100f2575f3660031901126100f25760206040515f8152f35b346100f2576106dd36610f19565b905f525f60205260405f209060018060a01b03165f52602052602060ff60405f2054166040519015158152f35b346100f25760803660031901126100f257610723610f3f565b6024356001600160401b0381116100f257610742903690600401610f4f565b90916044356001600160401b0381116100f257610763903690600401610f4f565b9390926064356001600160401b0381116100f257610785903690600401610f4f565b335f9081527ff985eeb86d20cd88edfbb0272519a12179dc9b918d24ba4e05617cd11d3796516020526040902054909691949060ff1615610c2b576127108303610bf15760ff16936010851015610bbc57600454956107e387610f7f565b600455604051916107f383610fa1565b87835261080136868861100f565b936020840194855261081281610ff8565b926108206040519485610fd7565b818452602084019160051b8101903682116100f257915b818310610ba2575050506040830191825261085189610ff8565b9861085f6040519a8b610fd7565b808a5260208a019060051b8201913683116100f257905b828210610b9257505050606082019788526080820192868452875f52600360205260405f2092518355600183019051908151916001600160401b038311610a6b57600160401b8311610a6b578154838355808410610b6c575b50602001905f5260205f205f5b838110610b5857505050506002820190518051906001600160401b038211610a6b57600160401b8211610a6b576020908354838555808410610b0a575b5001915f5260205f208160041c915f5b838110610aca5750600f198116900380610a7f575b505050506003810196518051906001600160401b038211610a6b57600160401b8211610a6b576020908954838b55808410610a50575b5001975f5260205f20975f5b828110610a3c575050509060ff60046109a99594930191511660ff19825416179055369161100f565b60405160208101918260208251919201905f5b818110610a2657877f1811bbf8ebf9ca60a441f9a6c3ed20d55182ed722ef2454d6d4fe258ca95f21160408989896109fd818b03601f198101835282610fd7565b5190205f82815260026020908152848220879055908490206001018290558351928352820152a2005b82518452602093840193909201916001016109bc565b60019060208351930192818c015501610980565b610a65908b5f5284845f20918201910161105b565b8a610974565b634e487b7160e01b5f52604160045260245ffd5b925f935f5b818110610a995750505001558780808061093e565b9091946020610ac06001928851840b9085851b61ffff809160031b9316831b921b19161790565b9601929101610a84565b5f5f5b60108110610ae2575083820155600101610929565b865190969160019160209161ffff60048b901b81811b199092169216901b1792019601610acd565b610b3890855f52835f20600f80870160041c820192601e8860011b1680610b3e575b500160041c019061105b565b8b610919565b5f198501908154905f19908a0360031b1c1690555f610b2c565b6001906020845194019381840155016108dc565b825f528360205f2091820191015b818110610b8757506108cf565b5f8155600101610b7a565b8135815260209182019101610876565b82358060010b81036100f257815260209283019201610837565b60405162461bcd60e51b815260206004820152600d60248201526c125b9d985b1a59081cda185c99609a1b6044820152606490fd5b60405162461bcd60e51b8152602060048201526012602482015271496e76616c69642062617463682073697a6560701b6044820152606490fd5b63e2517d3f60e01b5f52336004527f20d9bb381123487c7458dc4b1e41409eafb0e74092b8def477c5c636cc4f4b7360245260445ffd5b346100f25760203660031901126100f25760ff610c7d610f3f565b165f526002602052606060405f2080549060ff600260018301549201541690604051928352602083015215156040820152f35b346100f2575f3660031901126100f2576020600454604051908152f35b346100f25760203660031901126100f257610ce6610f3f565b335f9081527f57ab13ad148b16366dea3517a7e7518dfe450d9187c3145c1816f86df790c91f602052604090205460ff1615610d675760ff16805f5260026020527f087850406cb3cdb9cbaf0115fb2c58eaa0c875d5bd970eeb1fcd2efaf4bc8b14602060405f2060028101600160ff1982541617905554604051908152a2005b63e2517d3f60e01b5f52336004527ff21f1334b5763f7f78b6339c7f4681d4ab0a688d513ffdda46178bbb94863dd360245260445ffd5b346100f2575f3660031901126100f25760206040516127108152f35b346100f257610dc836610f19565b336001600160a01b03821603610de15761012a91611152565b63334bd91960e11b5f5260045ffd5b346100f25761012a610e0136610f19565b90610e1a610120825f525f602052600160405f20015490565b6110ca565b346100f25760203660031901126100f2576020610e496004355f525f602052600160405f20015490565b604051908152f35b346100f2575f3660031901126100f25760206040517ff21f1334b5763f7f78b6339c7f4681d4ab0a688d513ffdda46178bbb94863dd38152f35b346100f25760203660031901126100f25760043563ffffffff60e01b81168091036100f257602090637965db0b60e01b8114908115610ed0575b506040519015158152f35b6301ffc9a760e01b14905082610ec5565b346100f2575f3660031901126100f257807f20d9bb381123487c7458dc4b1e41409eafb0e74092b8def477c5c636cc4f4b7360209252f35b60409060031901126100f257600435906024356001600160a01b03811681036100f25790565b6004359060ff821682036100f257565b9181601f840112156100f2578235916001600160401b0383116100f2576020808501948460051b0101116100f257565b5f198114610f8d5760010190565b634e487b7160e01b5f52601160045260245ffd5b60a081019081106001600160401b03821117610a6b57604052565b606081019081106001600160401b03821117610a6b57604052565b90601f801991011681019081106001600160401b03821117610a6b57604052565b6001600160401b038111610a6b5760051b60200190565b92919061101b81610ff8565b936110296040519586610fd7565b602085838152019160051b81019283116100f257905b82821061104b57505050565b813581526020918201910161103f565b818110611066575050565b5f815560010161105b565b80511561107e5760200190565b634e487b7160e01b5f52603260045260245ffd5b5f8181526020818152604080832033845290915290205460ff16156110b45750565b63e2517d3f60e01b5f523360045260245260445ffd5b5f818152602081815260408083206001600160a01b038616845290915290205460ff1661114c575f818152602081815260408083206001600160a01b0395909516808452949091528120805460ff19166001179055339291907f2f8788117e7eff1d82e926ec794901d17c78024a50270940304540a733656f0d9080a4600190565b50505f90565b5f818152602081815260408083206001600160a01b038616845290915290205460ff161561114c575f818152602081815260408083206001600160a01b0395909516808452949091528120805460ff19169055339291907ff6391f5c32d9c69d2a47ea670b442974b53935d1edc7fd64eb21e047a839171b9080a460019056fea2646970667358221220e2b89ea8e6aa20e83cdcf0a2702f37541b8b8f8a3ca84f11fd20c82cead2722264736f6c634300081b00332f8788117e7eff1d82e926ec794901d17c78024a50270940304540a733656f0d57ab13ad148b16366dea3517a7e7518dfe450d9187c3145c1816f86df790c91fad3228b676f7d3cd4284a5443f17f1962b36e491b30a40b2405849e597ba5fb5f985eeb86d20cd88edfbb0272519a12179dc9b918d24ba4e05617cd11d379651",
  "linkReferences": {},
  "deployedLinkReferences": {}
}