{
  "_format": "hh-sol-artifact-1",
  "contractName": "PEDIRewardToken",
  "sourceName": "contracts/PEDIRewardToken.sol",
  "abi": [
    {
      "inputs": [
        {
          "internalType": "address",
          "name": "fedCoordinator",
          "type": "address"
        }
      ],
      "stateMutability": "nonpayable",
      "type": "constructor"
    },
    {
      "inputs": [],
      "name": "AccessControlBadConfirmation",
      "type": "error"
    },
    {
      "inputs": [
        {
          "internalType": "address",
          "name": "account",
          "type": "address"
        },
        {
          "internalType": "bytes32",
          "name": "neededRole",
          "type": "bytes32"
        }
      ],
      "name": "AccessControlUnauthorizedAccount",
      "type": "error"
    },
    {
      "inputs": [
        {
          "internalType": "address",
          "name": "spender",
          "type": "address"
        },
        {
          "internalType": "uint256",
          "name": "allowance",
          "type": "uint256"
        },
        {
          "internalType": "uint256",
          "name": "needed",
          "type": "uint256"
        }
      ],
      "name": "ERC20InsufficientAllowance",
      "type": "error"
    },
    {
      "inputs": [
        {
          "internalType": "address",
          "name": "sender",
          "type": "address"
        },
        {
          "internalType": "uint256",
          "name": "balance",
          "type": "uint256"
        },
        {
          "internalType": "uint256",
          "name": "needed",
          "type": "uint256"
        }
      ],
      "name": "ERC20InsufficientBalance",
      "type": "error"
    },
    {
      "inputs": [
        {
          "internalType": "address",
          "name": "approver",
          "type": "address"
        }
      ],
      "name": "ERC20InvalidApprover",
      "type": "error"
    },
    {
      "inputs": [
        {
          "internalType": "address",
          "name": "receiver",
          "type": "address"
        }
      ],
      "name": "ERC20InvalidReceiver",
      "type": "error"
    },
    {
      "inputs": [
        {
          "internalType": "address",
          "name": "sender",
          "type": "address"
        }
      ],
      "name": "ERC20InvalidSender",
      "type": "error"
    },
    {
      "inputs": [
        {
          "internalType": "address",
          "name": "spender",
          "type": "address"
        }
      ],
      "name": "ERC20InvalidSpender",
      "type": "error"
    },
    {
      "anonymous": false,
      "inputs": [
        {
          "indexed": true,
          "internalType": "address",
          "name": "owner",
          "type": "address"
        },
        {
          "indexed": true,
          "internalType": "address",
          "name": "spender",
          "type": "address"
        },
        {
          "indexed": false,
          "internalType": "uint256",
          "name": "value",
          "type": "uint256"
        }
      ],
      "name": "Approval",
      "type": "event"
    },
    {
      "anonymous": false,
      "inputs": [
        {
          "indexed": true,
          "internalType": "bytes32",
          "name": "role",
          "type": "bytes32"
        },
        {
          "indexed": true,
          "internalType": "bytes32",
          "name": "previousAdminRole",
          "type": "bytes32"
        },
        {
          "indexed": true,
          "internalType": "bytes32",
          "name": "newAdminRole",
          "type": "bytes32"
        }
      ],
      "name": "RoleAdminChanged",
      "type": "event"
    },
    {
      "anonymous": false,
      "inputs": [
        {
          "indexed": true,
          "internalType": "bytes32",
          "name": "role",
          "type": "bytes32"
        },
        {
          "indexed": true,
          "internalType": "address",
          "name": "account",
          "type": "address"
        },
        {
          "indexed": true,
          "internalType": "address",
          "name": "sender",
          "type": "address"
        }
      ],
      "name": "RoleGranted",
      "type": "event"
    },
    {
      "anonymous": false,
      "inputs": [
        {
          "indexed": true,
          "internalType": "bytes32",
          "name": "role",
          "type": "bytes32"
        },
        {
          "indexed": true,
          "internalType": "address",
          "name": "account",
          "type": "address"
        },
        {
          "indexed": true,
          "internalType": "address",
          "name": "sender",
          "type": "address"
        }
      ],
      "name": "RoleRevoked",
      "type": "event"
    },
    {
      "anonymous": false,
      "inputs": [
        {
          "indexed": true,
          "internalType": "address",
          "name": "from",
          "type": "address"
        },
        {
          "indexed": true,
          "internalType": "address",
          "name": "to",
          "type": "address"
        },
        {
          "indexed": false,
          "internalType": "uint256",
          "name": "value",
          "type": "uint256"
        }
      ],
      "name": "Transfer",
      "type": "event"
    },
    {
      "inputs": [],
      "name": "DEFAULT_ADMIN_ROLE",
      "outputs": [
        {
          "internalType": "bytes32",
          "name": "",
          "type": "bytes32"
        }
      ],
      "stateMutability": "view",
      "type": "function"
    },
    {
      "inputs": [],
      "name": "MINTER_ROLE",
      "outputs": [
        {
          "internalType": "bytes32",
          "name": "",
          "type": "bytes32"
        }
      ],
      "stateMutability": "view",
      "type": "function"
    },
    {
      "inputs": [
        {
          "internalType": "address",
          "name": "owner",
          "type": "address"
        },
        {
          "internalType": "address",
          "name": "spender",
          "type": "address"
        }
      ],
      "name": "allowance",
      "outputs": [
        {
          "internalType": "uint256",
          "name": "",
          "type": "uint256"
        }
      ],
      "stateMutability": "view",
      "type": "function"
    },
    {
      "inputs": [
        {
          "internalType": "address",
          "name": "spender",
          "type": "address"
        },
        {
          "internalType": "uint256",
          "name": "value",
          "type": "uint256"
        }
      ],
      "name": "approve",
      "outputs": [
        {
          "internalType": "bool",
          "name": "",
          "type": "bool"
        }
      ],
      "stateMutability": "nonpayable",
      "type": "function"
    },
    {
      "inputs": [
        {
          "internalType": "address",
          "name": "account",
          "type": "address"
        }
      ],
      "name": "balanceOf",
      "outputs": [
        {
          "internalType": "uint256",
          "name": "",
          "type": "uint256"
        }
      ],
      "stateMutability": "view",
      "type": "function"
    },
    {
      "inputs": [],
      "name": "decimals",
      "outputs": [
        {
          "internalType": "uint8",
          "name": "",
          "type": "uint8"
        }
      ],
      "stateMutability": "view",
      "type": "function"
    },
    {
      "inputs": [
        {
          "internalType": "bytes32",
          "name": "role",
          "type": "bytes32"
        }
      ],
      "name": "getRoleAdmin",
      "outputs": [
        {
          "internalType": "bytes32",
          "name": "",
          "type": "bytes32"
        }
      ],
      "stateMutability": "view",
      "type": "function"
    },
    {
      "inputs": [
        {
          "internalType": "bytes32",
          "name": "role",
          "type": "bytes32"
        },
        {
          "internalType": "address",
          "name": "account",
          "type": "address"
        }
      ],
      "name": "grantRole",
      "outputs": [],
      "stateMutability": "nonpayable",
      "type": "function"
    },
    {
      "inputs": [
        {
          "internalType": "bytes32",
          "name": "role",
          "type": "bytes32"
        },
        {
          "internalType": "address",
          "name": "account",
          "type": "address"
        }
      ],
      "name": "hasRole",
      "outputs": [
        {
          "internalType": "bool",
          "name": "",
          "type": "bool"
        }
      ],
      "stateMutability": "view",
      "type": "function"
    },
    {
      "inputs": [
        {
          "internalType": "address",
          "name": "to",
          "type": "address"
        },
        {
          "internalType": "uint256",
          "name": "amount",
          "type": "uint256"
        }
      ],
      "name": "mint",
      "outputs": [],
      "stateMutability": "nonpayable",
      "type": "function"
    },
    {
      "inputs": [],
      "name": "name",
      "outputs": [
        {
          "internalType": "string",
          "name": "",
          "type": "string"
        }
      ],
      "stateMutability": "view",
      "type": "function"
    },
    {
      "inputs": [
        {
          "internalType": "bytes32",
          "name": "role",
          "type": "bytes32"
        },
        {
          "internalType": "address",
          "name": "callerConfirmation",
          "type": "address"
        }
      ],
      "name": "renounceRole",
      "outputs": [],
      "stateMutability": "nonpayable",
      "type": "function"
    },
    {
      "inputs": [
        {
          "internalType": "address",
          "name": "account",
          "type": "address"
        }
      ],
      "name": "revokeMinter",
      "outputs": [],
      "stateMutability": "nonpayable",
      "type": "function"
    },
    {
      "inputs": [
        {
          "internalType": "bytes32",
          "name": "role",
          "type": "bytes32"
        },
        {
          "internalType": "address",
          "name": "account",
          "type": "address"
        }
      ],
      "name": "revokeRole",
      "outputs": [],
      "stateMutability": "nonpayable",
      "type": "function"
    },
    {
      "inputs": [
        {
          "internalType": "bytes4",
          "name": "interfaceId",
          "type": "bytes4"
        }
      ],
      "name": "supportsInterface",
      "outputs": [
        {
          "internalType": "bool",
          "name": "",
          "type": "bool"
        }
      ],
      "stateMutability": "view",
      "type": "function"
    },
    {
      "inputs": [],
      "name": "symbol",
      "outputs": [
        {
          "internalType": "string",
          "name": "",
          "type": "string"
        }
      ],
      "stateMutability": "view",
      "type": "function"
    },
    {
      "inputs": [],
      "name": "totalSupply",
      "outputs": [
        {
          "internalType": "uint256",
          "name": "",
          "type": "uint256"
        }
      ],
      "stateMutability": "view",
      "type": "function"
    },
    {
      "inputs": [
        {
          "internalType": "address",
          "name": "to",
          "type": "address"
        },
        {
          "internalType": "uint256",
          "name": "value",
          "type": "uint256"
        }
      ],
      "name": "transfer",
      "outputs": [
        {
          "internalType": "bool",
          "name": "",
          "type": "bool"
        }
      ],
      "stateMutability": "nonpayable",
      "type": "function"
    },
    {
      "inputs": [
        {
          "internalType": "address",
          "name": "from",
          "type": "address"
        },
        {
          "internalType": "address",
          "name": "to",
          "type": "address"
        },
        {
          "internalType": "uint256",
          "name": "value",
          "type": "uint256"
        }
      ],
      "name": "transferFrom",
      "outputs": [
        {
          "internalType": "bool",
          "name": "",
          "type": "bool"
        }
      ],
      "stateMutability": "nonpayable",
      "type": "function"
    }
  ],
  "bytecode": "0x608060405234610355576110d16020813803918261001c81610359565b93849283398101031261035557516001600160a01b0381168103610355576100446040610359565b90601482527f5065646953637265656e2046656465726174656400000000000000000000000060208301526100796040610359565b60048152635045444960e01b602082015282519091906001600160401b03811161026657600354600181811c9116801561034b575b602082101461024857601f81116102e8575b506020601f821160011461028557819293945f9261027a575b50508160011b915f199060031b1c1916176003555b8151916001600160401b03831161026657600454600181811c9116801561025c575b602082101461024857601f81116101e5575b50602090601f841160011461017d5761016293915f9183610172575b50508160011b915f199060031b1c1916176004555b61015c3361037e565b506103f4565b50604051610be990816104888239f35b015190505f8061013e565b90601f1984169160045f52815f20925f5b8181106101cd57509160019391866101629794106101b5575b505050811b01600455610153565b01515f1960f88460031b161c191690555f80806101a7565b9293602060018192878601518155019501930161018e565b60045f527f8a35acfbc15ff81a39ae7d344fd709f28e8600b4aa8c65c6b64bfe7fe36bd19b601f850160051c8101916020861061023e575b601f0160051c01905b8181106102335750610122565b5f8155600101610226565b909150819061021d565b634e487b7160e01b5f52602260045260245ffd5b90607f1690610110565b634e487b7160e01b5f52604160045260245ffd5b015190505f806100d9565b601f1982169060035f52805f20915f5b8181106102d0575095836001959697106102b8575b505050811b016003556100ee565b01515f1960f88460031b161c191690555f80806102aa565b9192602060018192868b015181550194019201610295565b60035f527fc2575a0e9e593c00f959f8c92f12db2869c3395a3b0502d05e2516446f71f85b601f830160051c81019160208410610341575b601f0160051c01905b81811061033657506100c0565b5f8155600101610329565b9091508190610320565b90607f16906100ae565b5f80fd5b6040519190601f01601f191682016001600160401b0381118382101761026657604052565b6001600160a01b0381165f9081525f5160206110b15f395f51905f52602052604090205460ff166103ef576001600160a01b03165f8181525f5160206110b15f395f51905f5260205260408120805460ff191660011790553391905f5160206110715f395f51905f528180a4600190565b505f90565b6001600160a01b0381165f9081525f5160206110915f395f51905f52602052604090205460ff166103ef576001600160a01b03165f8181525f5160206110915f395f51905f5260205260408120805460ff191660011790553391907f9f2df0fed2c77648de5860a4cc508cd0818c85b8b8a1ab4ceeef8d981c8956a6905f5160206110715f395f51905f529080a460019056fe6080806040526004361015610012575f80fd5b5f3560e01c90816301ffc9a7146108475750806306fdde0314610775578063095ea7b3146106f357806318160ddd146106d657806323b872dd146105f7578063248a9ca3146105c45780632f2ff15d14610586578063313ce5671461056b57806336568abe1461052757806340c10f191461041557806370a08231146103de57806391d148541461039557806395d89b411461027a578063a217fddf14610260578063a9059cbb1461022f578063cfbd4885146101c0578063d539139314610186578063d547741f146101415763dd62ed3e146100ed575f80fd5b3461013d57604036600319011261013d576101066108c4565b61010e6108da565b6001600160a01b039182165f908152600160209081526040808320949093168252928352819020549051908152f35b5f80fd5b3461013d57604036600319011261013d576101846004356101606108da565b9061017f61017a825f526005602052600160405f20015490565b61099a565b610b2f565b005b3461013d575f36600319011261013d5760206040517f9f2df0fed2c77648de5860a4cc508cd0818c85b8b8a1ab4ceeef8d981c8956a68152f35b3461013d57602036600319011261013d576101d96108c4565b335f9081527f05b8ccbb9d4d8fb16ea74ce3c29a41f1b461fbdaff4714a0d9a8eb05499746bc602052604090205460ff16156102185761018490610a60565b63e2517d3f60e01b5f52336004525f60245260445ffd5b3461013d57604036600319011261013d5761025561024b6108c4565b60243590336108f0565b602060405160018152f35b3461013d575f36600319011261013d5760206040515f8152f35b3461013d575f36600319011261013d576040515f6004548060011c9060018116801561038b575b6020831081146103775782855290811561035b5750600114610306575b50819003601f01601f191681019067ffffffffffffffff8211818310176102f2576102ee8291826040528261089a565b0390f35b634e487b7160e01b5f52604160045260245ffd5b905060045f527f8a35acfbc15ff81a39ae7d344fd709f28e8600b4aa8c65c6b64bfe7fe36bd19b5f905b828210610345575060209150820101826102be565b6001816020925483858801015201910190610330565b90506020925060ff191682840152151560051b820101826102be565b634e487b7160e01b5f52602260045260245ffd5b91607f16916102a1565b3461013d57604036600319011261013d576103ae6108da565b6004355f52600560205260405f209060018060a01b03165f52602052602060ff60405f2054166040519015158152f35b3461013d57602036600319011261013d576001600160a01b036103ff6108c4565b165f525f602052602060405f2054604051908152f35b3461013d57604036600319011261013d5761042e6108c4565b335f9081527f15a28d26fa1bf736cf7edc9922607171ccb09c3c73b808e7772a3013e068a5226020526040902054602435919060ff16156104f0576001600160a01b03169081156104dd57600254908082018092116104c95760207fddf252ad1be2c89b69c2b068fc378daa952ba7f163c4a11628f55a4df523b3ef915f9360025584845283825260408420818154019055604051908152a3005b634e487b7160e01b5f52601160045260245ffd5b63ec442f0560e01b5f525f60045260245ffd5b63e2517d3f60e01b5f52336004527f9f2df0fed2c77648de5860a4cc508cd0818c85b8b8a1ab4ceeef8d981c8956a660245260445ffd5b3461013d57604036600319011261013d576105406108da565b336001600160a01b0382160361055c5761018490600435610b2f565b63334bd91960e11b5f5260045ffd5b3461013d575f36600319011261013d57602060405160128152f35b3461013d57604036600319011261013d576101846004356105a56108da565b906105bf61017a825f526005602052600160405f20015490565b6109d4565b3461013d57602036600319011261013d5760206105ef6004355f526005602052600160405f20015490565b604051908152f35b3461013d57606036600319011261013d576106106108c4565b6106186108da565b6001600160a01b0382165f818152600160209081526040808320338452909152902054909260443592915f198110610656575b5061025593506108f0565b8381106106bb5784156106a857331561069557610255945f52600160205260405f2060018060a01b0333165f526020528360405f20910390558461064b565b634a1406b160e11b5f525f60045260245ffd5b63e602df0560e01b5f525f60045260245ffd5b8390637dc7a0d960e11b5f523360045260245260445260645ffd5b3461013d575f36600319011261013d576020600254604051908152f35b3461013d57604036600319011261013d5761070c6108c4565b6024359033156106a8576001600160a01b031690811561069557335f52600160205260405f20825f526020528060405f20556040519081527f8c5be1e5ebec7d5bd14f71427d1e84f3dd0314c0f7b2291e5b200ac8c7c3b92560203392a3602060405160018152f35b3461013d575f36600319011261013d576040515f6003548060011c9060018116801561083d575b6020831081146103775782855290811561035b57506001146107e85750819003601f01601f191681019067ffffffffffffffff8211818310176102f2576102ee8291826040528261089a565b905060035f527fc2575a0e9e593c00f959f8c92f12db2869c3395a3b0502d05e2516446f71f85b5f905b828210610827575060209150820101826102be565b6001816020925483858801015201910190610812565b91607f169161079c565b3461013d57602036600319011261013d576004359063ffffffff60e01b821680920361013d57602091637965db0b60e01b8114908115610889575b5015158152f35b6301ffc9a760e01b14905083610882565b602060409281835280519182918282860152018484015e5f828201840152601f01601f1916010190565b600435906001600160a01b038216820361013d57565b602435906001600160a01b038216820361013d57565b6001600160a01b0316908115610987576001600160a01b03169182156104dd57815f525f60205260405f205481811061096e57817fddf252ad1be2c89b69c2b068fc378daa952ba7f163c4a11628f55a4df523b3ef92602092855f525f84520360405f2055845f525f825260405f20818154019055604051908152a3565b8263391434e360e21b5f5260045260245260445260645ffd5b634b637e8f60e11b5f525f60045260245ffd5b5f81815260056020908152604080832033845290915290205460ff16156109be5750565b63e2517d3f60e01b5f523360045260245260445ffd5b5f8181526005602090815260408083206001600160a01b038616845290915290205460ff16610a5a575f8181526005602090815260408083206001600160a01b0395909516808452949091528120805460ff19166001179055339291907f2f8788117e7eff1d82e926ec794901d17c78024a50270940304540a733656f0d9080a4600190565b50505f90565b6001600160a01b0381165f9081527f15a28d26fa1bf736cf7edc9922607171ccb09c3c73b808e7772a3013e068a522602052604090205460ff1615610b2a576001600160a01b03165f8181527f15a28d26fa1bf736cf7edc9922607171ccb09c3c73b808e7772a3013e068a52260205260408120805460ff191690553391907f9f2df0fed2c77648de5860a4cc508cd0818c85b8b8a1ab4ceeef8d981c8956a6907ff6391f5c32d9c69d2a47ea670b442974b53935d1edc7fd64eb21e047a839171b9080a4600190565b505f90565b5f8181526005602090815260408083206001600160a01b038616845290915290205460ff1615610a5a575f8181526005602090815260408083206001600160a01b0395909516808452949091528120805460ff19169055339291907ff6391f5c32d9c69d2a47ea670b442974b53935d1edc7fd64eb21e047a839171b9080a460019056fea264697066735822122097999a4dfe5e01d2991b736607b9d5b1f3ca7b817d8f1c352682cf16bf22eca664736f6c634300081b00332f8788117e7eff1d82e926ec794901d17c78024a50270940304540a733656f0d15a28d26fa1bf736cf7edc9922607171ccb09c3c73b808e7772a3013e068a52205b8ccbb9d4d8fb16ea74ce3c29a41f1b461fbdaff4714a0d9a8eb05499746bc",
  "linkReferences": {},
  "deployedLinkReferences": {}
}