{
  "_format": "hh-sol-artifact-1",
  "contractName": "PaymentEscrow",
  "sourceName": "contracts/PaymentEscrow.sol",
  "abi": [
    {
      "inputs": [
        {
          "internalType": "address",
          "name": "_usdc",
          "type": "address"
        },
        {
          "internalType": "address",
          "name": "_feeRecipient",
          "type": "address"
        }
      ],
      "stateMutability": "nonpayable",
      "type": "constructor"
    },
    {
      "inputs": [],
      "name": "AccessControlBadConfirmation",
      "type": "error"
    },
    {
      "inputs": [
        {
          "internalType": "address",
          "name": "account",
          "type": "address"
        },
        {
          "internalType": "bytes32",
          "name": "neededRole",
          "type": "bytes32"
        }
      ],
      "name": "AccessControlUnauthorizedAccount",
      "type": "error"
    },
    {
      "inputs": [],
      "name": "ReentrancyGuardReentrantCall",
      "type": "error"
    },
    {
      "anonymous": false,
      "inputs": [
        {
          "indexed": true,
          "internalType": "uint256",
          "name": "screeningId",
          "type": "uint256"
        },
        {
          "indexed": false,
          "internalType": "uint256",
          "name": "amount",
          "type": "uint256"
        },
        {
          "indexed": true,
          "internalType": "address",
          "name": "clinician",
          "type": "address"
        }
      ],
      "name": "PaymentReleased",
      "type": "event"
    },
    {
      "anonymous": false,
      "inputs": [
        {
          "indexed": true,
          "internalType": "bytes32",
          "name": "role",
          "type": "bytes32"
        },
        {
          "indexed": true,
          "internalType": "bytes32",
          "name": "previousAdminRole",
          "type": "bytes32"
        },
        {
          "indexed": true,
          "internalType": "bytes32",
          "name": "newAdminRole",
          "type": "bytes32"
        }
      ],
      "name": "RoleAdminChanged",
      "type": "event"
    },
    {
      "anonymous": false,
      "inputs": [
        {
          "indexed": true,
          "internalType": "bytes32",
          "name": "role",
          "type": "bytes32"
        },
        {
          "indexed": true,
          "internalType": "address",
          "name": "account",
          "type": "address"
        },
        {
          "indexed": true,
          "internalType": "address",
          "name": "sender",
          "type": "address"
        }
      ],
      "name": "RoleGranted",
      "type": "event"
    },
    {
      "anonymous": false,
      "inputs": [
        {
          "indexed": true,
          "internalType": "bytes32",
          "name": "role",
          "type": "bytes32"
        },
        {
          "indexed": true,
          "internalType": "address",
          "name": "account",
          "type": "address"
        },
        {
          "indexed": true,
          "internalType": "address",
          "name": "sender",
          "type": "address"
        }
      ],
      "name": "RoleRevoked",
      "type": "event"
    },
    {
      "inputs": [],
      "name": "BASIS_POINTS",
      "outputs": [
        {
          "internalType": "uint256",
          "name": "",
          "type": "uint256"
        }
      ],
      "stateMutability": "view",
      "type": "function"
    },
    {
      "inputs": [],
      "name": "CLINICIAN_ROLE",
      "outputs": [
        {
          "internalType": "bytes32",
          "name": "",
          "type": "bytes32"
        }
      ],
      "stateMutability": "view",
      "type": "function"
    },
    {
      "inputs": [],
      "name": "DEFAULT_ADMIN_ROLE",
      "outputs": [
        {
          "internalType": "bytes32",
          "name": "",
          "type": "bytes32"
        }
      ],
      "stateMutability": "view",
      "type": "function"
    },
    {
      "inputs": [],
      "name": "FEE_BASIS_POINTS",
      "outputs": [
        {
          "internalType": "uint256",
          "name": "",
          "type": "uint256"
        }
      ],
      "stateMutability": "view",
      "type": "function"
    },
    {
      "inputs": [
        {
          "internalType": "uint256[]",
          "name": "screeningIds",
          "type": "uint256[]"
        },
        {
          "internalType": "uint256[]",
          "name": "amounts",
          "type": "uint256[]"
        },
        {
          "internalType": "address[]",
          "name": "clinicians",
          "type": "address[]"
        }
      ],
      "name": "batchPayClinicians",
      "outputs": [],
      "stateMutability": "nonpayable",
      "type": "function"
    },
    {
      "inputs": [
        {
          "internalType": "address",
          "name": "",
          "type": "address"
        }
      ],
      "name": "clinicianBalances",
      "outputs": [
        {
          "internalType": "uint256",
          "name": "",
          "type": "uint256"
        }
      ],
      "stateMutability": "view",
      "type": "function"
    },
    {
      "inputs": [],
      "name": "feeRecipient",
      "outputs": [
        {
          "internalType": "address",
          "name": "",
          "type": "address"
        }
      ],
      "stateMutability": "view",
      "type": "function"
    },
    {
      "inputs": [
        {
          "internalType": "bytes32",
          "name": "role",
          "type": "bytes32"
        }
      ],
      "name": "getRoleAdmin",
      "outputs": [
        {
          "internalType": "bytes32",
          "name": "",
          "type": "bytes32"
        }
      ],
      "stateMutability": "view",
      "type": "function"
    },
    {
      "inputs": [
        {
          "internalType": "bytes32",
          "name": "role",
          "type": "bytes32"
        },
        {
          "internalType": "address",
          "name": "account",
          "type": "address"
        }
      ],
      "name": "grantRole",
      "outputs": [],
      "stateMutability": "nonpayable",
      "type": "function"
    },
    {
      "inputs": [
        {
          "internalType": "bytes32",
          "name": "role",
          "type": "bytes32"
        },
        {
          "internalType": "address",
          "name": "account",
          "type": "address"
        }
      ],
      "name": "hasRole",
      "outputs": [
        {
          "internalType": "bool",
          "name": "",
          "type": "bool"
        }
      ],
      "stateMutability": "view",
      "type": "function"
    },
    {
      "inputs": [
        {
          "internalType": "uint256",
          "name": "screeningId",
          "type": "uint256"
        },
        {
          "internalType": "uint256",
          "name": "amount",
          "type": "uint256"
        },
        {
          "internalType": "address",
          "name": "clinician",
          "type": "address"
        }
      ],
      "name": "payClinician",
      "outputs": [],
      "stateMutability": "nonpayable",
      "type": "function"
    },
    {
      "inputs": [
        {
          "internalType": "bytes32",
          "name": "role",
          "type": "bytes32"
        },
        {
          "internalType": "address",
          "name": "callerConfirmation",
          "type": "address"
        }
      ],
      "name": "renounceRole",
      "outputs": [],
      "stateMutability": "nonpayable",
      "type": "function"
    },
    {
      "inputs": [
        {
          "internalType": "bytes32",
          "name": "role",
          "type": "bytes32"
        },
        {
          "internalType": "address",
          "name": "account",
          "type": "address"
        }
      ],
      "name": "revokeRole",
      "outputs": [],
      "stateMutability": "nonpayable",
      "type": "function"
    },
    {
      "inputs": [
        {
          "internalType": "uint256",
          "name": "",
          "type": "uint256"
        }
      ],
      "name": "screeningPayments",
      "outputs": [
        {
          "internalType": "uint256",
          "name": "",
          "type": "uint256"
        }
      ],
      "stateMutability": "view",
      "type": "function"
    },
    {
      "inputs": [
        {
          "internalType": "bytes4",
          "name": "interfaceId",
          "type": "bytes4"
        }
      ],
      "name": "supportsInterface",
      "outputs": [
        {
          "internalType": "bool",
          "name": "",
          "type": "bool"
        }
      ],
      "stateMutability": "view",
      "type": "function"
    },
    {
      "inputs": [],
      "name": "usdc",
      "outputs": [
        {
          "internalType": "contract IERC20",
          "name": "",
          "type": "address"
        }
      ],
      "stateMutability": "view",
      "type": "function"
    },
    {
      "inputs": [
        {
          "internalType": "address",
          "name": "clinician",
          "type": "address"
        }
      ],
      "name": "withdraw",
      "outputs": [],
      "stateMutability": "nonpayable",
      "type": "function"
    }
  ],
  "bytecode": "0x60a0346100a957601f610d0338819003918201601f19168301916001600160401b038311848410176100ad5780849260409485528339810103126100a957610052602061004b836100c1565b92016100c1565b600180556001600160a01b03918216608052600480546001600160a01b03191691909216179055610082336100d5565b50604051610b84908161015f82396080518181816103f201528181610546015261094b0152f35b5f80fd5b634e487b7160e01b5f52604160045260245ffd5b51906001600160a01b03821682036100a957565b6001600160a01b0381165f9081525f516020610ce35f395f51905f52602052604090205460ff16610159576001600160a01b03165f8181525f516020610ce35f395f51905f5260205260408120805460ff191660011790553391907f2f8788117e7eff1d82e926ec794901d17c78024a50270940304540a733656f0d8180a4600190565b505f9056fe6080806040526004361015610012575f80fd5b5f3560e01c90816301ffc9a71461062857508063248a9ca3146105f65780632f2ff15d146105b957806336568abe146105755780633e413bee14610531578063469048401461050957806350beb647146104d157806351cff8d91461037e57806391d1485414610336578063a217fddf1461031c578063a525ad3c14610301578063a5817e13146102c7578063a61497b614610286578063d547741f14610242578063df7fba9114610121578063e1f1c4a7146101055763efbb4d60146100d7575f80fd5b34610101576020366003190112610101576004355f526003602052602060405f2054604051908152f35b5f80fd5b34610101575f3660031901126101015760206040516127108152f35b346101015760603660031901126101015760043567ffffffffffffffff8111610101576101529036906004016106a7565b60243567ffffffffffffffff8111610101576101729036906004016106a7565b9260443567ffffffffffffffff8111610101576101939036906004016106a7565b61019e95919561088a565b81851480610239575b15610203575f5b8581106101bb5760018055005b6101c6818786610726565b35906101d3818588610726565b35916101e082858b610726565b356001600160a01b0381168103610101576001936101fd926108aa565b016101ae565b60405162461bcd60e51b815260206004820152600e60248201526d082e4e4c2f240dad2e6dac2e8c6d60931b6044820152606490fd5b508082146101a7565b346101015760403660031901126101015761028460043561026161067b565b9061027f61027a825f525f602052600160405f20015490565b61074a565b61080a565b005b34610101576060366003190112610101576044356001600160a01b0381168103610101576102c1906102b661088a565b6024356004356108aa565b60018055005b34610101575f3660031901126101015760206040517fe497b4ad79a67650fca774cf0812e4505f07dd6d87a3c1afc29076ccc8bbcefe8152f35b34610101575f36600319011261010157602060405160c88152f35b34610101575f3660031901126101015760206040515f8152f35b346101015760403660031901126101015761034f61067b565b6004355f525f60205260405f209060018060a01b03165f52602052602060ff60405f2054166040519015158152f35b3461010157602036600319011261010157610397610691565b61039f61088a565b6001600160a01b03165f81815260026020526040902054801561049f57815f5260026020525f60408120556040519163a9059cbb60e01b8352600483015260248201526020816044815f60018060a01b037f0000000000000000000000000000000000000000000000000000000000000000165af1908115610494575f91610465575b501561042e5760018055005b60405162461bcd60e51b815260206004820152600f60248201526e151c985b9cd9995c8819985a5b1959608a1b6044820152606490fd5b610487915060203d60201161048d575b61047f81836106d8565b81019061070e565b81610422565b503d610475565b6040513d5f823e3d90fd5b60405162461bcd60e51b815260206004820152600a6024820152694e6f2062616c616e636560b01b6044820152606490fd5b34610101576020366003190112610101576001600160a01b036104f2610691565b165f526002602052602060405f2054604051908152f35b34610101575f366003190112610101576004546040516001600160a01b039091168152602090f35b34610101575f366003190112610101576040517f00000000000000000000000000000000000000000000000000000000000000006001600160a01b03168152602090f35b346101015760403660031901126101015761058e61067b565b336001600160a01b038216036105aa576102849060043561080a565b63334bd91960e11b5f5260045ffd5b34610101576040366003190112610101576102846004356105d861067b565b906105f161027a825f525f602052600160405f20015490565b610782565b346101015760203660031901126101015760206106206004355f525f602052600160405f20015490565b604051908152f35b34610101576020366003190112610101576004359063ffffffff60e01b821680920361010157602091637965db0b60e01b811490811561066a575b5015158152f35b6301ffc9a760e01b14905083610663565b602435906001600160a01b038216820361010157565b600435906001600160a01b038216820361010157565b9181601f840112156101015782359167ffffffffffffffff8311610101576020808501948460051b01011161010157565b90601f8019910116810190811067ffffffffffffffff8211176106fa57604052565b634e487b7160e01b5f52604160045260245ffd5b90816020910312610101575180151581036101015790565b91908110156107365760051b0190565b634e487b7160e01b5f52603260045260245ffd5b5f8181526020818152604080832033845290915290205460ff161561076c5750565b63e2517d3f60e01b5f523360045260245260445ffd5b5f818152602081815260408083206001600160a01b038616845290915290205460ff16610804575f818152602081815260408083206001600160a01b0395909516808452949091528120805460ff19166001179055339291907f2f8788117e7eff1d82e926ec794901d17c78024a50270940304540a733656f0d9080a4600190565b50505f90565b5f818152602081815260408083206001600160a01b038616845290915290205460ff1615610804575f818152602081815260408083206001600160a01b0395909516808452949091528120805460ff19169055339291907ff6391f5c32d9c69d2a47ea670b442974b53935d1edc7fd64eb21e047a839171b9080a4600190565b60026001541461089b576002600155565b633ee5aeb560e01b5f5260045ffd5b90918215610b14576001600160a01b0381165f9081527f2f566f68ba58ef18aabfedad873b1a7cc8301257f2194d930cbc8f55c091e338602052604090205460ff1615610adf5760c8830283810460c803610acb576127109004808403938411610acb575f838152600360209081526040808320879055516323b872dd60e01b81523360048201526001600160a01b038581166024830152604482018890527f0000000000000000000000000000000000000000000000000000000000000000169290919082906064908290865af1908115610494575f91610aac575b5015610a7057600480546040516323b872dd60e01b815233928101929092526001600160a01b031660248201526044810192909252602090829060649082905f905af1908115610494575f91610a51575b5015610a16576040519283526001600160a01b0316917fb398ec266cae176bd0a8d43b35200da0bb13c5620ad5e1663abdc3967a4ee50f90602090a3565b60405162461bcd60e51b8152602060048201526013602482015272119959481d1c985b9cd9995c8819985a5b1959606a1b6044820152606490fd5b610a6a915060203d60201161048d5761047f81836106d8565b5f6109d8565b60405162461bcd60e51b81526020600482015260146024820152731554d110c81d1c985b9cd9995c8819985a5b195960621b6044820152606490fd5b610ac5915060203d60201161048d5761047f81836106d8565b5f610987565b634e487b7160e01b5f52601160045260245ffd5b60405162461bcd60e51b815260206004820152600d60248201526c2737ba1031b634b734b1b4b0b760991b6044820152606490fd5b60405162461bcd60e51b81526020600482015260126024820152710416d6f756e74206d757374206265203e20360741b6044820152606490fdfea2646970667358221220bdaa25585dbb1d425d6fcad31a81edf706f573af823c752a402445c06d638d5164736f6c634300081b0033ad3228b676f7d3cd4284a5443f17f1962b36e491b30a40b2405849e597ba5fb5",
  "linkReferences": {},
  "deployedLinkReferences": {}
}