{
  "_format": "hh-sol-artifact-1",
  "contractName": "PediScreenXrayRegistry",
  "sourceName": "contracts/PediScreenXrayRegistry.sol",
  "abi": [
    {
      "anonymous": false,
      "inputs": [
        {
          "indexed": true,
          "internalType": "bytes32",
          "name": "screeningId",
          "type": "bytes32"
        },
        {
          "indexed": false,
          "internalType": "string",
          "name": "ipfsCid",
          "type": "string"
        },
        {
          "indexed": false,
          "internalType": "string",
          "name": "riskLevel",
          "type": "string"
        }
      ],
      "name": "XrayStored",
      "type": "event"
    },
    {
      "inputs": [
        {
          "internalType": "bytes32",
          "name": "screeningId",
          "type": "bytes32"
        }
      ],
      "name": "getXray",
      "outputs": [
        {
          "internalType": "bytes32",
          "name": "id",
          "type": "bytes32"
        },
        {
          "internalType": "string",
          "name": "ipfsCid",
          "type": "string"
        },
        {
          "internalType": "address",
          "name": "uploader",
          "type": "address"
        },
        {
          "internalType": "uint256",
          "name": "timestamp",
          "type": "uint256"
        },
        {
          "internalType": "string",
          "name": "riskLevel",
          "type": "string"
        }
      ],
      "stateMutability": "view",
      "type": "function"
    },
    {
      "inputs": [],
      "name": "recordCount",
      "outputs": [
        {
          "internalType": "uint256",
          "name": "",
          "type": "uint256"
        }
      ],
      "stateMutability": "view",
      "type": "function"
    },
    {
      "inputs": [
        {
          "internalType": "bytes32",
          "name": "screeningId",
          "type": "bytes32"
        },
        {
          "internalType": "string",
          "name": "ipfsCid",
          "type": "string"
        },
        {
          "internalType": "string",
          "name": "riskLevel",
          "type": "string"
        }
      ],
      "name": "storeXrayHash",
      "outputs": [],
      "stateMutability": "nonpayable",
      "type": "function"
    },
    {
      "inputs": [
        {
          "internalType": "bytes32",
          "name": "",
          "type": "bytes32"
        }
      ],
      "name": "xrays",
      "outputs": [
        {
          "internalType": "bytes32",
          "name": "screeningId",
          "type": "bytes32"
        },
        {
          "internalType": "string",
          "name": "ipfsCid",
          "type": "string"
        },
        {
          "internalType": "address",
          "name": "uploader",
          "type": "address"
        },
        {
          "internalType": "uint256",
          "name": "timestamp",
          "type": "uint256"
        },
        {
          "internalType": "string",
          "name": "riskLevel",
          "type": "string"
        }
      ],
      "stateMutability": "view",
      "type": "function"
    }
  ],
  "bytecode": "0x608080604052346015576106d8908161001a8239f35b5f80fdfe6080806040526004361015610012575f80fd5b5f3560e01c9081633ea6d98c146101165750806367a464ff146100c7578063900407bc146100aa5763d2c296cb14610048575f80fd5b346100a65760203660031901126100a6576004355f525f60205260405f2080546100a260018060a01b036002840154166003840154610095600461008e60018801610533565b9601610533565b91604051958695866105f7565b0390f35b5f80fd5b346100a6575f3660031901126100a6576020600154604051908152f35b346100a65760203660031901126100a6576004355f525f60205260405f2080546100a26100f660018401610533565b9260018060a01b0360028201541690610095600460038301549201610533565b346100a65760603660031901126100a6576004359060243567ffffffffffffffff81116100a65761014b9036906004016104ab565b60443567ffffffffffffffff81116100a65761016b9036906004016104ab565b9360a0810181811067ffffffffffffffff8211176103de5760405285815261019436848661063c565b90602081019182526040810133815260608201904282526101b636898761063c565b9360808401948552895f525f60205260405f209351845560018401905180519067ffffffffffffffff82116103de576101ef83546104d9565b601f8111610466575b50602090601f83116001146103fd5760049695949392915f91836103f2575b50508160011b915f199060031b1c19161790555b600283019060018060a01b039051166bffffffffffffffffffffffff60a01b82541617905551600382015501905180519067ffffffffffffffff82116103de57819061027784546104d9565b601f811161038e575b50602090601f831160011461032b575f92610320575b50508160011b915f199060031b1c19161790555b600154905f19821461030c577f4516b4a6fdf7f49850dc26ca824c36ecf32112fd5e28af3b8311acaed979286394600161030793016001556102f9604051958695604087526040870191610682565b918483036020860152610682565b0390a2005b634e487b7160e01b5f52601160045260245ffd5b015190508880610296565b5f8581528281209350601f198516905b818110610376575090846001959493921061035e575b505050811b0190556102aa565b01515f1960f88460031b161c19169055888080610351565b9293602060018192878601518155019501930161033b565b909150835f5260205f20601f840160051c810191602085106103d4575b90601f859493920160051c01905b8181106103c65750610280565b5f81558493506001016103b9565b90915081906103ab565b634e487b7160e01b5f52604160045260245ffd5b015190508d80610217565b90601f19831691845f52815f20925f5b81811061044e575091600193918560049a999897969410610436575b505050811b01905561022b565b01515f1960f88460031b161c191690558d8080610429565b9293602060018192878601518155019501930161040d565b835f5260205f20601f840160051c810191602085106104a1575b601f0160051c01905b81811061049657506101f8565b5f8155600101610489565b9091508190610480565b9181601f840112156100a65782359167ffffffffffffffff83116100a657602083818601950101116100a657565b90600182811c92168015610507575b60208310146104f357565b634e487b7160e01b5f52602260045260245ffd5b91607f16916104e8565b90601f8019910116810190811067ffffffffffffffff8211176103de57604052565b9060405191825f825492610546846104d9565b80845293600181169081156105b1575060011461056d575b5061056b92500383610511565b565b90505f9291925260205f20905f915b81831061059557505090602061056b928201015f61055e565b602091935080600191548385890101520191019091849261057c565b90506020925061056b94915060ff191682840152151560051b8201015f61055e565b805180835260209291819084018484015e5f828201840152601f01601f1916010190565b916106169061063996949592845260a0602085015260a08401906105d3565b6001600160a01b03909416604083015260608201528083036080909101526105d3565b90565b92919267ffffffffffffffff82116103de5760405191610666601f8201601f191660200184610511565b8294818452818301116100a6578281602093845f960137010152565b908060209392818452848401375f828201840152601f01601f191601019056fea26469706673582212206ab4daa13e6f278c000e818804432984b34cd8626a250888d1f611cd65824d2c64736f6c634300081b0033",
  "linkReferences": {},
  "deployedLinkReferences": {}
}