{
  "_format": "hh-sol-artifact-1",
  "contractName": "PediScreenL1Settlement",
  "sourceName": "contracts/PediScreenL1Settlement.sol",
  "abi": [
    {
      "inputs": [
        {
          "internalType": "uint8[]",
          "name": "_shardIds",
          "type": "uint8[]"
        },
        {
          "internalType": "bytes32[]",
          "name": "_roots",
          "type": "bytes32[]"
        }
      ],
      "name": "settleShards",
      "outputs": [],
      "stateMutability": "nonpayable",
      "type": "function"
    },
    {
      "inputs": [
        {
          "internalType": "uint8",
          "name": "",
          "type": "uint8"
        }
      ],
      "name": "shardRoots",
      "outputs": [
        {
          "internalType": "bytes32",
          "name": "",
          "type": "bytes32"
        }
      ],
      "stateMutability": "view",
      "type": "function"
    },
    {
      "inputs": [
        {
          "internalType": "uint8",
          "name": "_shardId",
          "type": "uint8"
        },
        {
          "internalType": "bytes32",
          "name": "_merkleRoot",
          "type": "bytes32"
        }
      ],
      "name": "verifyBatch",
      "outputs": [
        {
          "internalType": "bool",
          "name": "",
          "type": "bool"
        }
      ],
      "stateMutability": "view",
      "type": "function"
    }
  ],
  "bytecode": "0x6080806040523460155761025f908161001a8239f35b5f80fdfe6080806040526004361015610012575f80fd5b5f3560e01c908163918c9aa91461019757508063ab077609146100765763e0d64ab61461003d575f80fd5b346100725760403660031901126100725760ff6100586101c4565b165f525f602052602060243560405f205414604051908152f35b5f80fd5b346100725760403660031901126100725760043567ffffffffffffffff8111610072576100a79036906004016101d4565b60243567ffffffffffffffff8111610072576100c79036906004016101d4565b9060108303610159576010820361011d575f5b601081106100e457005b6100ef818484610205565b35906100fc818688610205565b359160ff8316809303610072576001925f525f60205260405f2055016100da565b60405162461bcd60e51b8152602060048201526014602482015273092dcecc2d8d2c840e4dedee8e640d8cadccee8d60631b6044820152606490fd5b60405162461bcd60e51b81526020600482015260166024820152754d75737420736574746c6520616c6c2073686172647360501b6044820152606490fd5b346100725760203660031901126100725760209060ff6101b56101c4565b165f525f825260405f20548152f35b6004359060ff8216820361007257565b9181601f840112156100725782359167ffffffffffffffff8311610072576020808501948460051b01011161007257565b91908110156102155760051b0190565b634e487b7160e01b5f52603260045260245ffdfea264697066735822122005e245eab3511212801600707b3487f0863ec7162cbfa362bdf636f6c25e315c64736f6c634300081b0033",
  "linkReferences": {},
  "deployedLinkReferences": {}
}