{
  "_format": "hh-sol-artifact-1",
  "contractName": "PediScreenOracle",
  "sourceName": "contracts/PediScreenOracle.sol",
  "abi": [
    {
      "inputs": [
        {
          "internalType": "address",
          "name": "_router",
          "type": "address"
        }
      ],
      "stateMutability": "nonpayable",
      "type": "constructor"
    },
    {
      "inputs": [],
      "name": "EmptyRequest",
      "type": "error"
    },
    {
      "inputs": [],
      "name": "InvalidScreening",
      "type": "error"
    },
    {
      "inputs": [],
      "name": "OnlyRouter",
      "type": "error"
    },
    {
      "inputs": [
        {
          "internalType": "address",
          "name": "owner",
          "type": "address"
        }
      ],
      "name": "OwnableInvalidOwner",
      "type": "error"
    },
    {
      "inputs": [
        {
          "internalType": "address",
          "name": "account",
          "type": "address"
        }
      ],
      "name": "OwnableUnauthorizedAccount",
      "type": "error"
    },
    {
      "anonymous": false,
      "inputs": [
        {
          "indexed": false,
          "internalType": "uint64",
          "name": "subscriptionId",
          "type": "uint64"
        },
        {
          "indexed": false,
          "internalType": "uint32",
          "name": "callbackGasLimit",
          "type": "uint32"
        },
        {
          "indexed": false,
          "internalType": "bytes32",
          "name": "donId",
          "type": "bytes32"
        }
      ],
      "name": "ConfigUpdated",
      "type": "event"
    },
    {
      "anonymous": false,
      "inputs": [
        {
          "indexed": true,
          "internalType": "address",
          "name": "previousOwner",
          "type": "address"
        },
        {
          "indexed": true,
          "internalType": "address",
          "name": "newOwner",
          "type": "address"
        }
      ],
      "name": "OwnershipTransferred",
      "type": "event"
    },
    {
      "anonymous": false,
      "inputs": [
        {
          "indexed": true,
          "internalType": "uint256",
          "name": "screeningId",
          "type": "uint256"
        },
        {
          "indexed": false,
          "internalType": "bytes",
          "name": "err",
          "type": "bytes"
        }
      ],
      "name": "ScreeningFailed",
      "type": "event"
    },
    {
      "anonymous": false,
      "inputs": [
        {
          "indexed": true,
          "internalType": "bytes32",
          "name": "requestId",
          "type": "bytes32"
        },
        {
          "indexed": true,
          "internalType": "uint256",
          "name": "screeningId",
          "type": "uint256"
        },
        {
          "indexed": false,
          "internalType": "string",
          "name": "childId",
          "type": "string"
        },
        {
          "indexed": false,
          "internalType": "string",
          "name": "ipfsCid",
          "type": "string"
        }
      ],
      "name": "ScreeningRequested",
      "type": "event"
    },
    {
      "anonymous": false,
      "inputs": [
        {
          "indexed": true,
          "internalType": "uint256",
          "name": "screeningId",
          "type": "uint256"
        },
        {
          "indexed": false,
          "internalType": "string",
          "name": "childId",
          "type": "string"
        },
        {
          "indexed": false,
          "internalType": "uint8",
          "name": "riskLevel",
          "type": "uint8"
        },
        {
          "indexed": false,
          "internalType": "uint16",
          "name": "confidence",
          "type": "uint16"
        },
        {
          "indexed": false,
          "internalType": "string",
          "name": "ipfsCid",
          "type": "string"
        },
        {
          "indexed": false,
          "internalType": "uint256",
          "name": "timestamp",
          "type": "uint256"
        }
      ],
      "name": "ScreeningVerified",
      "type": "event"
    },
    {
      "inputs": [],
      "name": "callbackGasLimit",
      "outputs": [
        {
          "internalType": "uint32",
          "name": "",
          "type": "uint32"
        }
      ],
      "stateMutability": "view",
      "type": "function"
    },
    {
      "inputs": [],
      "name": "donId",
      "outputs": [
        {
          "internalType": "bytes32",
          "name": "",
          "type": "bytes32"
        }
      ],
      "stateMutability": "view",
      "type": "function"
    },
    {
      "inputs": [
        {
          "internalType": "string",
          "name": "_childIdHash",
          "type": "string"
        }
      ],
      "name": "getLatestScreening",
      "outputs": [
        {
          "internalType": "uint8",
          "name": "riskLevel",
          "type": "uint8"
        },
        {
          "internalType": "uint16",
          "name": "confidence",
          "type": "uint16"
        },
        {
          "internalType": "uint256",
          "name": "timestamp",
          "type": "uint256"
        }
      ],
      "stateMutability": "view",
      "type": "function"
    },
    {
      "inputs": [
        {
          "internalType": "uint256",
          "name": "screeningId",
          "type": "uint256"
        }
      ],
      "name": "getScreening",
      "outputs": [
        {
          "components": [
            {
              "internalType": "string",
              "name": "childId",
              "type": "string"
            },
            {
              "internalType": "uint8",
              "name": "riskLevel",
              "type": "uint8"
            },
            {
              "internalType": "uint16",
              "name": "confidence",
              "type": "uint16"
            },
            {
              "internalType": "string",
              "name": "ipfsCid",
              "type": "string"
            },
            {
              "internalType": "bool",
              "name": "verified",
              "type": "bool"
            },
            {
              "internalType": "bool",
              "name": "failed",
              "type": "bool"
            },
            {
              "internalType": "uint256",
              "name": "timestamp",
              "type": "uint256"
            }
          ],
          "internalType": "struct PediScreenOracle.ScreeningRecord",
          "name": "",
          "type": "tuple"
        }
      ],
      "stateMutability": "view",
      "type": "function"
    },
    {
      "inputs": [
        {
          "internalType": "string",
          "name": "_screeningHash",
          "type": "string"
        }
      ],
      "name": "getScreeningResult",
      "outputs": [
        {
          "internalType": "uint8",
          "name": "riskLevel",
          "type": "uint8"
        },
        {
          "internalType": "uint16",
          "name": "confidence",
          "type": "uint16"
        },
        {
          "internalType": "uint256",
          "name": "timestamp",
          "type": "uint256"
        },
        {
          "internalType": "string",
          "name": "childIdHash",
          "type": "string"
        },
        {
          "internalType": "string",
          "name": "ipfsHash",
          "type": "string"
        }
      ],
      "stateMutability": "view",
      "type": "function"
    },
    {
      "inputs": [
        {
          "internalType": "bytes32",
          "name": "requestId",
          "type": "bytes32"
        },
        {
          "internalType": "bytes",
          "name": "response",
          "type": "bytes"
        },
        {
          "internalType": "bytes",
          "name": "err",
          "type": "bytes"
        }
      ],
      "name": "handleOracleFulfillment",
      "outputs": [],
      "stateMutability": "nonpayable",
      "type": "function"
    },
    {
      "inputs": [
        {
          "internalType": "bytes32",
          "name": "",
          "type": "bytes32"
        }
      ],
      "name": "ipfsHashToScreeningId",
      "outputs": [
        {
          "internalType": "uint256",
          "name": "",
          "type": "uint256"
        }
      ],
      "stateMutability": "view",
      "type": "function"
    },
    {
      "inputs": [],
      "name": "lastRequestId",
      "outputs": [
        {
          "internalType": "bytes32",
          "name": "",
          "type": "bytes32"
        }
      ],
      "stateMutability": "view",
      "type": "function"
    },
    {
      "inputs": [
        {
          "internalType": "string",
          "name": "",
          "type": "string"
        }
      ],
      "name": "latestScreeningByChild",
      "outputs": [
        {
          "internalType": "uint256",
          "name": "",
          "type": "uint256"
        }
      ],
      "stateMutability": "view",
      "type": "function"
    },
    {
      "inputs": [],
      "name": "owner",
      "outputs": [
        {
          "internalType": "address",
          "name": "",
          "type": "address"
        }
      ],
      "stateMutability": "view",
      "type": "function"
    },
    {
      "inputs": [],
      "name": "renounceOwnership",
      "outputs": [],
      "stateMutability": "nonpayable",
      "type": "function"
    },
    {
      "inputs": [
        {
          "internalType": "string",
          "name": "_childId",
          "type": "string"
        },
        {
          "internalType": "string",
          "name": "_ipfsCid",
          "type": "string"
        },
        {
          "internalType": "bytes",
          "name": "_cborRequestData",
          "type": "bytes"
        }
      ],
      "name": "requestScreeningVerification",
      "outputs": [
        {
          "internalType": "bytes32",
          "name": "requestId",
          "type": "bytes32"
        }
      ],
      "stateMutability": "nonpayable",
      "type": "function"
    },
    {
      "inputs": [
        {
          "internalType": "bytes32",
          "name": "",
          "type": "bytes32"
        }
      ],
      "name": "requestToScreeningId",
      "outputs": [
        {
          "internalType": "uint256",
          "name": "",
          "type": "uint256"
        }
      ],
      "stateMutability": "view",
      "type": "function"
    },
    {
      "inputs": [],
      "name": "router",
      "outputs": [
        {
          "internalType": "contract IFunctionsRouter",
          "name": "",
          "type": "address"
        }
      ],
      "stateMutability": "view",
      "type": "function"
    },
    {
      "inputs": [],
      "name": "screeningCounter",
      "outputs": [
        {
          "internalType": "uint256",
          "name": "",
          "type": "uint256"
        }
      ],
      "stateMutability": "view",
      "type": "function"
    },
    {
      "inputs": [
        {
          "internalType": "uint256",
          "name": "",
          "type": "uint256"
        }
      ],
      "name": "screenings",
      "outputs": [
        {
          "internalType": "string",
          "name": "childId",
          "type": "string"
        },
        {
          "internalType": "uint8",
          "name": "riskLevel",
          "type": "uint8"
        },
        {
          "internalType": "uint16",
          "name": "confidence",
          "type": "uint16"
        },
        {
          "internalType": "string",
          "name": "ipfsCid",
          "type": "string"
        },
        {
          "internalType": "bool",
          "name": "verified",
          "type": "bool"
        },
        {
          "internalType": "bool",
          "name": "failed",
          "type": "bool"
        },
        {
          "internalType": "uint256",
          "name": "timestamp",
          "type": "uint256"
        }
      ],
      "stateMutability": "view",
      "type": "function"
    },
    {
      "inputs": [
        {
          "internalType": "uint64",
          "name": "_subscriptionId",
          "type": "uint64"
        },
        {
          "internalType": "uint32",
          "name": "_callbackGasLimit",
          "type": "uint32"
        },
        {
          "internalType": "bytes32",
          "name": "_donId",
          "type": "bytes32"
        }
      ],
      "name": "setConfig",
      "outputs": [],
      "stateMutability": "nonpayable",
      "type": "function"
    },
    {
      "inputs": [],
      "name": "subscriptionId",
      "outputs": [
        {
          "internalType": "uint64",
          "name": "",
          "type": "uint64"
        }
      ],
      "stateMutability": "view",
      "type": "function"
    },
    {
      "inputs": [
        {
          "internalType": "address",
          "name": "newOwner",
          "type": "address"
        }
      ],
      "name": "transferOwnership",
      "outputs": [],
      "stateMutability": "nonpayable",
      "type": "function"
    }
  ],
  "bytecode": "0x60a0346100d857601f61153038819003918201601f19168301916001600160401b038311848410176100dc578084926020946040528339810103126100d857516001600160a01b038116908190036100d85733156100c5575f8054336001600160a01b0319821681178355604051939290916001600160a01b0316907f8be0079c531659141344cd1fd0a4f28419497f9722a3daafe3b4186f6b6457e09080a360805261143f90816100f18239608051818181610177015281816106820152610b7d0152f35b631e4fbdf760e01b5f525f60045260245ffd5b5f80fd5b634e487b7160e01b5f52604160045260245ffdfe6080806040526004361015610012575f80fd5b5f3560e01c9081630417ba7c14610bf05750806309c1ba2e14610bc85780630ca7617514610b2b57806324f7469714610b0c5780633374e0d114610ab5578063715018a614610a5e5780637337f587146109bb5780638d3181dc146109665780638da5cb5b1461093f5780638dbe7b9d146109225780639e1273f814610428578063c87d0a4714610379578063cf51ac651461035c578063f2fde38b146102d3578063f76b7b45146101a6578063f887ea4014610162578063fc2a88c314610145578063ff3cb94c1461011b5763ff8cd416146100ed575f80fd5b34610117576020366003190112610117576004355f526006602052602060405f2054604051908152f35b5f80fd5b34610117576020366003190112610117576004355f526005602052602060405f2054604051908152f35b34610117575f366003190112610117576020600354604051908152f35b34610117575f366003190112610117576040517f00000000000000000000000000000000000000000000000000000000000000006001600160a01b03168152602090f35b34610117576020366003190112610117575f60c06040516101c681610db9565b606081528260208201528260408201526060808201528260808201528260a082015201526004355f52600460205261029760405f206040519061020882610db9565b61021181610df5565b825260018101546020830160ff8216815261ffff604085019260081c1682526102b861023f60028501610df5565b916060860192835260038501549261ffff6004608089019760ff87161515895260ff60a08b019760081c161515875201549560c0890196875260ff6040519a8b9a60208c525160e060208d01526101008c0190610d5d565b94511660408a01525116606088015251868203601f19016080880152610d5d565b9251151560a085015251151560c08401525160e08301520390f35b34610117576020366003190112610117576004356001600160a01b03811690819003610117576103016113e3565b8015610349575f80546001600160a01b03198116831782556001600160a01b0316907f8be0079c531659141344cd1fd0a4f28419497f9722a3daafe3b4186f6b6457e09080a3005b631e4fbdf760e01b5f525f60045260245ffd5b34610117575f366003190112610117576020600254604051908152f35b34610117576060366003190112610117576004356001600160401b03811690818103610117576024359163ffffffff831692838103610117577fda8e2fab8ab46a6a3078466ab4fa6b3588e72f8d13a0fe005902614c37317edd93606093604435926103e36113e3565b5f549063ffffffff60e01b9060e01b16916001600160401b0360a01b9060a01b169060018060a01b031617175f558160015560405192835260208301526040820152a1005b34610117576060366003190112610117576004356001600160401b03811161011757610458903690600401610d30565b906024356001600160401b03811161011757610478903690600401610d30565b91906044356001600160401b03811161011757610499903690600401610d30565b93908415610913576002545f1981146108ff5760010194856002556040516104c081610db9565b6104cb368988610e95565b8152602081015f815260408201905f82526104e7368789610e95565b906060840191825260808401915f835260a08501915f835260c08601945f86528c5f52600460205260405f2096518051906001600160401b038211610830576105308954610d81565b601f81116108ba575b50602090601f831160011461084f57918061059c95949261ffff945f92610844575b50508160011b915f199060031b1c19161789555b60ff8060018b019451161660ff19845416178355511662ffff0082549160081b169062ffff001916179055565b51805160028601916001600160401b038211610830576105bc8354610d81565b601f81116107eb575b50602090601f831160011461077557928261066d9e9d9c9b9a9896936004969360209b99965f9261076a575b50508160011b915f199060031b1c19161790555b600385019151151560ff8019845416911617825551151561ff0082549160081b169061ff001916179055519101555f54600154604051998a9485946334856c7960e11b86526001600160401b038560a01c166004870152608060248701526084860191610f3d565b60e09290921c6044840152606483015203815f7f00000000000000000000000000000000000000000000000000000000000000006001600160a01b03165af194851561075f575f95610726575b509160209561071b7f15fd45baa407fd98bfbedf4a481747622547b1aa5cf8108e9d9ed758b341fe42938795865f5260058a528760405f20558660035561070e604051958695604087526040870191610f3d565b918483038b860152610f3d565b0390a3604051908152f35b919450916020823d602011610757575b8161074360209383610dd4565b8101031261011757905193909160206106ba565b3d9150610736565b6040513d5f823e3d90fd5b015190505f806105f1565b90601f19831691845f52815f20925f5b8181106107d357509361066d9f9e9d9c9b9997949360209b9996936001938360049a97106107bb575b505050811b019055610605565b01515f1960f88460031b161c191690555f80806107ae565b92936020600181928786015181550195019301610785565b835f5260205f20601f840160051c81019160208510610826575b601f0160051c01905b81811061081b57506105c5565b5f815560010161080e565b9091508190610805565b634e487b7160e01b5f52604160045260245ffd5b015190505f8061055b565b90601f198316918a5f52815f20925f5b8181106108a2575092600192859261ffff9661059c9998961061088a575b505050811b01895561056f565b01515f1960f88460031b161c191690555f808061087d565b9293602060018192878601518155019501930161085f565b895f5260205f20601f840160051c810191602085106108f5575b601f0160051c01905b8181106108ea5750610539565b5f81556001016108dd565b90915081906108d4565b634e487b7160e01b5f52601160045260245ffd5b632e11048160e11b5f5260045ffd5b34610117575f366003190112610117576020600154604051908152f35b34610117575f366003190112610117575f546040516001600160a01b039091168152602090f35b34610117576020366003190112610117576004356001600160401b0381116101175760208061099a81933690600401610eda565b604051928184925191829101835e8101600781520301902054604051908152f35b34610117576020366003190112610117576004355f526004602052610a2060405f206109e681610df5565b90600181015460ff610a3f6109fd60028501610df5565b92600460038601549501549361ffff60405198899860e08a5260e08a0190610d5d565b9285811660208a015260081c1660408801528682036060880152610d5d565b928181161515608086015260081c16151560a084015260c08301520390f35b34610117575f36600319011261011757610a766113e3565b5f80546001600160a01b0319811682556001600160a01b03167f8be0079c531659141344cd1fd0a4f28419497f9722a3daafe3b4186f6b6457e08280a3005b34610117576020366003190112610117576004356001600160401b0381116101175761ffff610af3610aed6060933690600401610d30565b9061136f565b91929060ff604051941684521660208301526040820152f35b34610117575f3660031901126101175760205f5460e01c604051908152f35b34610117576060366003190112610117576024356001600160401b03811161011757610b5b903690600401610d30565b6044356001600160401b03811161011757610b7a903690600401610d30565b917f00000000000000000000000000000000000000000000000000000000000000006001600160a01b03163303610bb957610bb793600435610f5d565b005b639e41bdd760e01b5f5260045ffd5b34610117575f3660031901126101175760206001600160401b035f5460a01c16604051908152f35b34610117576020366003190112610117576004356001600160401b03811161011757610c456020610c2684933690600401610d30565b80838693970196873781015f838201520301601f198101835282610dd4565b5190205f52600660205260405f20548015610cf5575f52600460205261ffff60405f20610c81600382015460ff81169081610ce6575b50610ef8565b610ce2600182015491610cd4600482015491610ca86002610ca183610df5565b9201610df5565b92604051968660ff899816885260081c166020870152604086015260a0606086015260a0850190610d5d565b908382036080850152610d5d565b0390f35b60ff915060081c161584610c7b565b60405162461bcd60e51b815260206004820152601360248201527214d8dc99595b9a5b99c81b9bdd08199bdd5b99606a1b6044820152606490fd5b9181601f84011215610117578235916001600160401b038311610117576020838186019501011161011757565b805180835260209291819084018484015e5f828201840152601f01601f1916010190565b90600182811c92168015610daf575b6020831014610d9b57565b634e487b7160e01b5f52602260045260245ffd5b91607f1691610d90565b60e081019081106001600160401b0382111761083057604052565b90601f801991011681019081106001600160401b0382111761083057604052565b9060405191825f825492610e0884610d81565b8084529360018116908115610e735750600114610e2f575b50610e2d92500383610dd4565b565b90505f9291925260205f20905f915b818310610e57575050906020610e2d928201015f610e20565b6020919350806001915483858901015201910190918492610e3e565b905060209250610e2d94915060ff191682840152151560051b8201015f610e20565b9291926001600160401b0382116108305760405191610ebe601f8201601f191660200184610dd4565b829481845281830111610117578281602093845f960137010152565b9080601f8301121561011757816020610ef593359101610e95565b90565b15610eff57565b60405162461bcd60e51b815260206004820152601660248201527514d8dc99595b9a5b99c81b9bdd081d995c9a599a595960521b6044820152606490fd5b908060209392818452848401375f828201840152601f01601f1916010190565b9290925f52600560205260405f205493841561136057806112f857505081016060828203126101175781359060ff82168092036101175760208301359261ffff8416918285036101175760408201356001600160401b03811161011757610fc49201610eda565b92845f526004602052610ffb60405f2091600183018560ff198254161781559062ffff0082549160081b169062ffff001916179055565b83516001600160401b038111610830576110158254610d81565b601f81116112b3575b506020601f8211600114611250579080600293925f91611245575b508160011b915f199060031b1c19161781555b60038101600160ff19825416179055426004820155019060405160208101905f8185549161107983610d81565b926001811690811561122a57506001146111ec575b6110a1925003601f198101835282610dd4565b5190205f5260066020528460405f205584604051602081875180838a01835e81016007815203019020556110e06040519460a0865260a0860190610d5d565b926020850152604084015282820360608401525f9181549161110183610d81565b80835292600181169081156111a8575060011461114b575b50505090807f1ca5668fba632a0f2b5cdea9468acde95606d8f9f517325b221738b342d7abd7924260808301520390a2565b909192505f5260205f20915f925b81841061118e57505001602001817f1ca5668fba632a0f2b5cdea9468acde95606d8f9f517325b221738b342d7abd75f611119565b600181602092959395548385870101520191019290611159565b86955060209392507f1ca5668fba632a0f2b5cdea9468acde95606d8f9f517325b221738b342d7abd79694915060ff191683830152151560051b010191925f611119565b5050845f528160205f205f905b83821061121057505060206110a19282010161108e565b6020919250806001915483858801015201910183916111f9565b60ff19168652506110a192801515028201602001905061108e565b90508601515f611039565b601f19821690835f52805f20915f5b81811061129b57509183916002959460019410611283575b5050811b01815561104c565b8801515f1960f88460031b161c191690555f80611277565b9192602060018192868c01518155019401920161125f565b825f5260205f20601f830160051c810191602084106112ee575b601f0160051c01905b8181106112e3575061101e565b5f81556001016112d6565b90915081906112cd565b5f8581526004602081815260409283902060038101805461ff0019166101001790554292019190915590518181527f5b9913db2f7011233f91304c5c7e593561a08a0585d70f451557fe6a96219ed295509350839261135b929184019190610f3d565b0390a2565b637d68a18b60e11b5f5260045ffd5b602090826040519384928337810160078152030190205480156113da575f52600460205260405f20906113b0600383015460ff811690816113cb5750610ef8565b600460018301549201549061ffff60ff84169360081c169190565b60ff915060081c16155f610c7b565b505f905f905f90565b5f546001600160a01b031633036113f657565b63118cdaa760e01b5f523360045260245ffdfea264697066735822122031015ef8fb5e24051863074d62696472aaf628e1256526d03441f5400be4dc7e64736f6c634300081b0033",
  "linkReferences": {},
  "deployedLinkReferences": {}
}