{
  "_format": "hh-sol-artifact-1",
  "contractName": "PediScreenFHIRBridge",
  "sourceName": "contracts/PediScreenFHIRBridge.sol",
  "abi": [
    {
      "inputs": [],
      "stateMutability": "nonpayable",
      "type": "constructor"
    },
    {
      "inputs": [
        {
          "internalType": "address",
          "name": "owner",
          "type": "address"
        }
      ],
      "name": "OwnableInvalidOwner",
      "type": "error"
    },
    {
      "inputs": [
        {
          "internalType": "address",
          "name": "account",
          "type": "address"
        }
      ],
      "name": "OwnableUnauthorizedAccount",
      "type": "error"
    },
    {
      "anonymous": false,
      "inputs": [
        {
          "indexed": true,
          "internalType": "address",
          "name": "ehrServer",
          "type": "address"
        },
        {
          "indexed": false,
          "internalType": "bool",
          "name": "authorized",
          "type": "bool"
        }
      ],
      "name": "EHRAuthorized",
      "type": "event"
    },
    {
      "anonymous": false,
      "inputs": [
        {
          "indexed": true,
          "internalType": "bytes32",
          "name": "fhirHash",
          "type": "bytes32"
        },
        {
          "indexed": false,
          "internalType": "string",
          "name": "fhirServer",
          "type": "string"
        },
        {
          "indexed": false,
          "internalType": "string",
          "name": "resourceId",
          "type": "string"
        }
      ],
      "name": "FHIRObservationCreated",
      "type": "event"
    },
    {
      "anonymous": false,
      "inputs": [
        {
          "indexed": true,
          "internalType": "address",
          "name": "previousOwner",
          "type": "address"
        },
        {
          "indexed": true,
          "internalType": "address",
          "name": "newOwner",
          "type": "address"
        }
      ],
      "name": "OwnershipTransferred",
      "type": "event"
    },
    {
      "inputs": [
        {
          "internalType": "address",
          "name": "",
          "type": "address"
        }
      ],
      "name": "authorizedEHRs",
      "outputs": [
        {
          "internalType": "bool",
          "name": "",
          "type": "bool"
        }
      ],
      "stateMutability": "view",
      "type": "function"
    },
    {
      "inputs": [
        {
          "internalType": "bytes32",
          "name": "_fhirHash",
          "type": "bytes32"
        },
        {
          "internalType": "string",
          "name": "_fhirServer",
          "type": "string"
        },
        {
          "internalType": "string",
          "name": "_resourceId",
          "type": "string"
        }
      ],
      "name": "confirmFHIRObservation",
      "outputs": [],
      "stateMutability": "nonpayable",
      "type": "function"
    },
    {
      "inputs": [
        {
          "internalType": "bytes32",
          "name": "",
          "type": "bytes32"
        }
      ],
      "name": "fhirRecords",
      "outputs": [
        {
          "internalType": "bytes32",
          "name": "fhirHash",
          "type": "bytes32"
        },
        {
          "internalType": "string",
          "name": "fhirServer",
          "type": "string"
        },
        {
          "internalType": "string",
          "name": "resourceId",
          "type": "string"
        },
        {
          "internalType": "uint256",
          "name": "timestamp",
          "type": "uint256"
        },
        {
          "internalType": "bool",
          "name": "ehrConfirmed",
          "type": "bool"
        }
      ],
      "stateMutability": "view",
      "type": "function"
    },
    {
      "inputs": [
        {
          "internalType": "bytes32",
          "name": "_fhirHash",
          "type": "bytes32"
        }
      ],
      "name": "getFHIRRecord",
      "outputs": [
        {
          "internalType": "string",
          "name": "fhirServer",
          "type": "string"
        },
        {
          "internalType": "string",
          "name": "resourceId",
          "type": "string"
        },
        {
          "internalType": "uint256",
          "name": "timestamp",
          "type": "uint256"
        },
        {
          "internalType": "bool",
          "name": "ehrConfirmed",
          "type": "bool"
        }
      ],
      "stateMutability": "view",
      "type": "function"
    },
    {
      "inputs": [
        {
          "internalType": "bytes32",
          "name": "_fhirHash",
          "type": "bytes32"
        }
      ],
      "name": "isEHRConfirmed",
      "outputs": [
        {
          "internalType": "bool",
          "name": "",
          "type": "bool"
        }
      ],
      "stateMutability": "view",
      "type": "function"
    },
    {
      "inputs": [],
      "name": "owner",
      "outputs": [
        {
          "internalType": "address",
          "name": "",
          "type": "address"
        }
      ],
      "stateMutability": "view",
      "type": "function"
    },
    {
      "inputs": [],
      "name": "renounceOwnership",
      "outputs": [],
      "stateMutability": "nonpayable",
      "type": "function"
    },
    {
      "inputs": [
        {
          "internalType": "address",
          "name": "ehrServer",
          "type": "address"
        },
        {
          "internalType": "bool",
          "name": "authorized",
          "type": "bool"
        }
      ],
      "name": "setAuthorizedEHR",
      "outputs": [],
      "stateMutability": "nonpayable",
      "type": "function"
    },
    {
      "inputs": [
        {
          "internalType": "address",
          "name": "newOwner",
          "type": "address"
        }
      ],
      "name": "transferOwnership",
      "outputs": [],
      "stateMutability": "nonpayable",
      "type": "function"
    }
  ],
  "bytecode": "0x608080604052346071573315605e575f8054336001600160a01b0319821681178355916001600160a01b03909116907f8be0079c531659141344cd1fd0a4f28419497f9722a3daafe3b4186f6b6457e09080a3610a4490816100768239f35b631e4fbdf760e01b5f525f60045260245ffd5b5f80fdfe60806040526004361015610011575f80fd5b5f3560e01c80634596ccba14610743578063715018a6146106ec5780638da5cb5b146106c55780638e11e2e21461063f5780639d50f9951461060d578063a81f070614610562578063b70f772a14610142578063f2fde38b146100bd5763fcaed05f1461007c575f80fd5b346100b95760203660031901126100b9576001600160a01b0361009d610804565b165f526002602052602060ff60405f2054166040519015158152f35b5f80fd5b346100b95760203660031901126100b9576100d6610804565b6100de6109e8565b6001600160a01b0316801561012f575f80546001600160a01b03198116831782556001600160a01b0316907f8be0079c531659141344cd1fd0a4f28419497f9722a3daafe3b4186f6b6457e09080a3005b631e4fbdf760e01b5f525f60045260245ffd5b346100b95760603660031901126100b95760043560243567ffffffffffffffff81116100b957610176903690600401610954565b919060443567ffffffffffffffff81116100b957610198903690600401610954565b9390335f52600260205260ff60405f2054161561052a5781151580610521575b156104eb576040516101c981610852565b8481526101d7368486610982565b602082019081526101e9368885610982565b604083019081526060830190428252608084019260018452885f52600160205260405f209451855560018501905180519067ffffffffffffffff8211610419578190610235845461081a565b601f811161049b575b50602090601f8311600114610438575f9261042d575b50508160011b915f199060031b1c19161790555b518051600285019167ffffffffffffffff821161041957610289835461081a565b601f81116103d4575b50602090601f83116001146103415793610331979693836004947fdf039055aa7434fb377ef87877f26f314d53db88a3e0c5e04eb6e0015bd994f99d9e989461030c985f92610336575b50508160011b915f199060031b1c19161790555b51600384015551151591019060ff801983541691151516179055565b6103236040519586956040875260408701916109c8565b9184830360208601526109c8565b0390a2005b015190508f806102dc565b90601f19831691845f52815f20925f5b8181106103bc5750847fdf039055aa7434fb377ef87877f26f314d53db88a3e0c5e04eb6e0015bd994f99d9e989461030c98946103319c9b9894600498600195106103a4575b505050811b0190556102f0565b01515f1960f88460031b161c191690558f8080610397565b92936020600181928786015181550195019301610351565b835f5260205f20601f840160051c8101916020851061040f575b601f0160051c01905b8181106104045750610292565b5f81556001016103f7565b90915081906103ee565b634e487b7160e01b5f52604160045260245ffd5b015190508c80610254565b5f8581528281209350601f198516905b818110610483575090846001959493921061046b575b505050811b019055610268565b01515f1960f88460031b161c191690558c808061045e565b92936020600181928786015181550195019301610448565b909150835f5260205f20601f840160051c810191602085106104e1575b90601f859493920160051c01905b8181106104d3575061023e565b5f81558493506001016104c6565b90915081906104b8565b60405162461bcd60e51b815260206004820152600e60248201526d496e76616c696420706172616d7360901b6044820152606490fd5b508415156101b8565b60405162461bcd60e51b815260206004820152601060248201526f2ab730baba3437b934bd32b21022a42960811b6044820152606490fd5b346100b95760203660031901126100b9576004355f5260016020526105f060405f206040519061059182610852565b8054825260806105fe6105a660018401610890565b602085019081526105b960028501610890565b9485604082015260ff6004600387015496876060850152015416151593849101525193604051958695608087526080870190610930565b908582036020870152610930565b91604084015260608301520390f35b346100b95760203660031901126100b9576004355f526001602052602060ff600460405f200154166040519015158152f35b346100b95760203660031901126100b9576004355f52600160205260405f20805461066c60018301610890565b9161067960028201610890565b6106b460ff6004600385015494015416916106a6604051968796875260a0602088015260a0870190610930565b908582036040870152610930565b916060840152151560808301520390f35b346100b9575f3660031901126100b9575f546040516001600160a01b039091168152602090f35b346100b9575f3660031901126100b9576107046109e8565b5f80546001600160a01b0319811682556001600160a01b03167f8be0079c531659141344cd1fd0a4f28419497f9722a3daafe3b4186f6b6457e08280a3005b346100b95760403660031901126100b95761075c610804565b60243590811515908183036100b9576107736109e8565b6001600160a01b03169182156107d0577ff382016035a07c1c6c0287d024b1307e29a1295aadef4f120fcd6d02fac50eae916107c7602092855f526002845260405f209060ff801983541691151516179055565b604051908152a2005b60405162461bcd60e51b815260206004820152600c60248201526b5a65726f206164647265737360a01b6044820152606490fd5b600435906001600160a01b03821682036100b957565b90600182811c92168015610848575b602083101461083457565b634e487b7160e01b5f52602260045260245ffd5b91607f1691610829565b60a0810190811067ffffffffffffffff82111761041957604052565b90601f8019910116810190811067ffffffffffffffff82111761041957604052565b9060405191825f8254926108a38461081a565b808452936001811690811561090e57506001146108ca575b506108c89250038361086e565b565b90505f9291925260205f20905f915b8183106108f25750509060206108c8928201015f6108bb565b60209193508060019154838589010152019101909184926108d9565b9050602092506108c894915060ff191682840152151560051b8201015f6108bb565b805180835260209291819084018484015e5f828201840152601f01601f1916010190565b9181601f840112156100b95782359167ffffffffffffffff83116100b957602083818601950101116100b957565b92919267ffffffffffffffff821161041957604051916109ac601f8201601f19166020018461086e565b8294818452818301116100b9578281602093845f960137010152565b908060209392818452848401375f828201840152601f01601f1916010190565b5f546001600160a01b031633036109fb57565b63118cdaa760e01b5f523360045260245ffdfea2646970667358221220450cdae9fd74de28e385042c43a31f693222d8095e08eae21464bcb91c43a7d164736f6c634300081b0033",
  "linkReferences": {},
  "deployedLinkReferences": {}
}