{
  "_format": "hh-sol-artifact-1",
  "contractName": "ConsentNFT",
  "sourceName": "contracts/ConsentNFT.sol",
  "abi": [
    {
      "inputs": [],
      "stateMutability": "nonpayable",
      "type": "constructor"
    },
    {
      "inputs": [],
      "name": "AccessControlBadConfirmation",
      "type": "error"
    },
    {
      "inputs": [
        {
          "internalType": "address",
          "name": "account",
          "type": "address"
        },
        {
          "internalType": "bytes32",
          "name": "neededRole",
          "type": "bytes32"
        }
      ],
      "name": "AccessControlUnauthorizedAccount",
      "type": "error"
    },
    {
      "inputs": [],
      "name": "ECDSAInvalidSignature",
      "type": "error"
    },
    {
      "inputs": [
        {
          "internalType": "uint256",
          "name": "length",
          "type": "uint256"
        }
      ],
      "name": "ECDSAInvalidSignatureLength",
      "type": "error"
    },
    {
      "inputs": [
        {
          "internalType": "bytes32",
          "name": "s",
          "type": "bytes32"
        }
      ],
      "name": "ECDSAInvalidSignatureS",
      "type": "error"
    },
    {
      "inputs": [
        {
          "internalType": "address",
          "name": "sender",
          "type": "address"
        },
        {
          "internalType": "uint256",
          "name": "tokenId",
          "type": "uint256"
        },
        {
          "internalType": "address",
          "name": "owner",
          "type": "address"
        }
      ],
      "name": "ERC721IncorrectOwner",
      "type": "error"
    },
    {
      "inputs": [
        {
          "internalType": "address",
          "name": "operator",
          "type": "address"
        },
        {
          "internalType": "uint256",
          "name": "tokenId",
          "type": "uint256"
        }
      ],
      "name": "ERC721InsufficientApproval",
      "type": "error"
    },
    {
      "inputs": [
        {
          "internalType": "address",
          "name": "approver",
          "type": "address"
        }
      ],
      "name": "ERC721InvalidApprover",
      "type": "error"
    },
    {
      "inputs": [
        {
          "internalType": "address",
          "name": "operator",
          "type": "address"
        }
      ],
      "name": "ERC721InvalidOperator",
      "type": "error"
    },
    {
      "inputs": [
        {
          "internalType": "address",
          "name": "owner",
          "type": "address"
        }
      ],
      "name": "ERC721InvalidOwner",
      "type": "error"
    },
    {
      "inputs": [
        {
          "internalType": "address",
          "name": "receiver",
          "type": "address"
        }
      ],
      "name": "ERC721InvalidReceiver",
      "type": "error"
    },
    {
      "inputs": [
        {
          "internalType": "address",
          "name": "sender",
          "type": "address"
        }
      ],
      "name": "ERC721InvalidSender",
      "type": "error"
    },
    {
      "inputs": [
        {
          "internalType": "uint256",
          "name": "tokenId",
          "type": "uint256"
        }
      ],
      "name": "ERC721NonexistentToken",
      "type": "error"
    },
    {
      "anonymous": false,
      "inputs": [
        {
          "indexed": true,
          "internalType": "uint256",
          "name": "tokenId",
          "type": "uint256"
        },
        {
          "indexed": true,
          "internalType": "address",
          "name": "patient",
          "type": "address"
        },
        {
          "indexed": true,
          "internalType": "address",
          "name": "viewer",
          "type": "address"
        },
        {
          "indexed": false,
          "internalType": "uint256",
          "name": "expiresAt",
          "type": "uint256"
        }
      ],
      "name": "AccessGranted",
      "type": "event"
    },
    {
      "anonymous": false,
      "inputs": [
        {
          "indexed": true,
          "internalType": "uint256",
          "name": "tokenId",
          "type": "uint256"
        },
        {
          "indexed": true,
          "internalType": "address",
          "name": "patient",
          "type": "address"
        },
        {
          "indexed": true,
          "internalType": "address",
          "name": "viewer",
          "type": "address"
        }
      ],
      "name": "AccessRevoked",
      "type": "event"
    },
    {
      "anonymous": false,
      "inputs": [
        {
          "indexed": true,
          "internalType": "address",
          "name": "owner",
          "type": "address"
        },
        {
          "indexed": true,
          "internalType": "address",
          "name": "approved",
          "type": "address"
        },
        {
          "indexed": true,
          "internalType": "uint256",
          "name": "tokenId",
          "type": "uint256"
        }
      ],
      "name": "Approval",
      "type": "event"
    },
    {
      "anonymous": false,
      "inputs": [
        {
          "indexed": true,
          "internalType": "address",
          "name": "owner",
          "type": "address"
        },
        {
          "indexed": true,
          "internalType": "address",
          "name": "operator",
          "type": "address"
        },
        {
          "indexed": false,
          "internalType": "bool",
          "name": "approved",
          "type": "bool"
        }
      ],
      "name": "ApprovalForAll",
      "type": "event"
    },
    {
      "anonymous": false,
      "inputs": [
        {
          "indexed": true,
          "internalType": "uint256",
          "name": "tokenId",
          "type": "uint256"
        },
        {
          "indexed": true,
          "internalType": "address",
          "name": "patient",
          "type": "address"
        },
        {
          "indexed": false,
          "internalType": "string",
          "name": "ipfsHash",
          "type": "string"
        },
        {
          "indexed": false,
          "internalType": "uint256",
          "name": "expiresAt",
          "type": "uint256"
        }
      ],
      "name": "ConsentNFTMinted",
      "type": "event"
    },
    {
      "anonymous": false,
      "inputs": [
        {
          "indexed": true,
          "internalType": "uint256",
          "name": "tokenId",
          "type": "uint256"
        },
        {
          "indexed": true,
          "internalType": "address",
          "name": "patient",
          "type": "address"
        }
      ],
      "name": "ConsentRevoked",
      "type": "event"
    },
    {
      "anonymous": false,
      "inputs": [
        {
          "indexed": true,
          "internalType": "bytes32",
          "name": "role",
          "type": "bytes32"
        },
        {
          "indexed": true,
          "internalType": "bytes32",
          "name": "previousAdminRole",
          "type": "bytes32"
        },
        {
          "indexed": true,
          "internalType": "bytes32",
          "name": "newAdminRole",
          "type": "bytes32"
        }
      ],
      "name": "RoleAdminChanged",
      "type": "event"
    },
    {
      "anonymous": false,
      "inputs": [
        {
          "indexed": true,
          "internalType": "bytes32",
          "name": "role",
          "type": "bytes32"
        },
        {
          "indexed": true,
          "internalType": "address",
          "name": "account",
          "type": "address"
        },
        {
          "indexed": true,
          "internalType": "address",
          "name": "sender",
          "type": "address"
        }
      ],
      "name": "RoleGranted",
      "type": "event"
    },
    {
      "anonymous": false,
      "inputs": [
        {
          "indexed": true,
          "internalType": "bytes32",
          "name": "role",
          "type": "bytes32"
        },
        {
          "indexed": true,
          "internalType": "address",
          "name": "account",
          "type": "address"
        },
        {
          "indexed": true,
          "internalType": "address",
          "name": "sender",
          "type": "address"
        }
      ],
      "name": "RoleRevoked",
      "type": "event"
    },
    {
      "anonymous": false,
      "inputs": [
        {
          "indexed": true,
          "internalType": "address",
          "name": "from",
          "type": "address"
        },
        {
          "indexed": true,
          "internalType": "address",
          "name": "to",
          "type": "address"
        },
        {
          "indexed": true,
          "internalType": "uint256",
          "name": "tokenId",
          "type": "uint256"
        }
      ],
      "name": "Transfer",
      "type": "event"
    },
    {
      "inputs": [],
      "name": "DEFAULT_ADMIN_ROLE",
      "outputs": [
        {
          "internalType": "bytes32",
          "name": "",
          "type": "bytes32"
        }
      ],
      "stateMutability": "view",
      "type": "function"
    },
    {
      "inputs": [],
      "name": "MINTER_ROLE",
      "outputs": [
        {
          "internalType": "bytes32",
          "name": "",
          "type": "bytes32"
        }
      ],
      "stateMutability": "view",
      "type": "function"
    },
    {
      "inputs": [
        {
          "internalType": "address",
          "name": "to",
          "type": "address"
        },
        {
          "internalType": "uint256",
          "name": "tokenId",
          "type": "uint256"
        }
      ],
      "name": "approve",
      "outputs": [],
      "stateMutability": "nonpayable",
      "type": "function"
    },
    {
      "inputs": [
        {
          "internalType": "address",
          "name": "owner",
          "type": "address"
        }
      ],
      "name": "balanceOf",
      "outputs": [
        {
          "internalType": "uint256",
          "name": "",
          "type": "uint256"
        }
      ],
      "stateMutability": "view",
      "type": "function"
    },
    {
      "inputs": [
        {
          "internalType": "uint256",
          "name": "tokenId",
          "type": "uint256"
        },
        {
          "internalType": "address",
          "name": "viewer",
          "type": "address"
        }
      ],
      "name": "canViewRecord",
      "outputs": [
        {
          "internalType": "bool",
          "name": "",
          "type": "bool"
        }
      ],
      "stateMutability": "view",
      "type": "function"
    },
    {
      "inputs": [
        {
          "internalType": "uint256",
          "name": "",
          "type": "uint256"
        }
      ],
      "name": "consentActive",
      "outputs": [
        {
          "internalType": "bool",
          "name": "",
          "type": "bool"
        }
      ],
      "stateMutability": "view",
      "type": "function"
    },
    {
      "inputs": [
        {
          "internalType": "uint256",
          "name": "",
          "type": "uint256"
        }
      ],
      "name": "consentExpiresAt",
      "outputs": [
        {
          "internalType": "uint256",
          "name": "",
          "type": "uint256"
        }
      ],
      "stateMutability": "view",
      "type": "function"
    },
    {
      "inputs": [
        {
          "internalType": "uint256",
          "name": "tokenId",
          "type": "uint256"
        }
      ],
      "name": "getApproved",
      "outputs": [
        {
          "internalType": "address",
          "name": "",
          "type": "address"
        }
      ],
      "stateMutability": "view",
      "type": "function"
    },
    {
      "inputs": [
        {
          "internalType": "address",
          "name": "patient",
          "type": "address"
        }
      ],
      "name": "getPatientTokens",
      "outputs": [
        {
          "internalType": "uint256[]",
          "name": "",
          "type": "uint256[]"
        }
      ],
      "stateMutability": "view",
      "type": "function"
    },
    {
      "inputs": [
        {
          "internalType": "bytes32",
          "name": "role",
          "type": "bytes32"
        }
      ],
      "name": "getRoleAdmin",
      "outputs": [
        {
          "internalType": "bytes32",
          "name": "",
          "type": "bytes32"
        }
      ],
      "stateMutability": "view",
      "type": "function"
    },
    {
      "inputs": [
        {
          "internalType": "bytes32",
          "name": "role",
          "type": "bytes32"
        },
        {
          "internalType": "address",
          "name": "account",
          "type": "address"
        }
      ],
      "name": "grantRole",
      "outputs": [],
      "stateMutability": "nonpayable",
      "type": "function"
    },
    {
      "inputs": [
        {
          "internalType": "uint256",
          "name": "tokenId",
          "type": "uint256"
        },
        {
          "internalType": "address",
          "name": "viewer",
          "type": "address"
        },
        {
          "internalType": "uint256",
          "name": "viewerExpirySeconds",
          "type": "uint256"
        }
      ],
      "name": "grantViewerAccess",
      "outputs": [],
      "stateMutability": "nonpayable",
      "type": "function"
    },
    {
      "inputs": [
        {
          "internalType": "bytes32",
          "name": "role",
          "type": "bytes32"
        },
        {
          "internalType": "address",
          "name": "account",
          "type": "address"
        }
      ],
      "name": "hasRole",
      "outputs": [
        {
          "internalType": "bool",
          "name": "",
          "type": "bool"
        }
      ],
      "stateMutability": "view",
      "type": "function"
    },
    {
      "inputs": [
        {
          "internalType": "address",
          "name": "owner",
          "type": "address"
        },
        {
          "internalType": "address",
          "name": "operator",
          "type": "address"
        }
      ],
      "name": "isApprovedForAll",
      "outputs": [
        {
          "internalType": "bool",
          "name": "",
          "type": "bool"
        }
      ],
      "stateMutability": "view",
      "type": "function"
    },
    {
      "inputs": [
        {
          "components": [
            {
              "internalType": "string",
              "name": "encryptedIPFSHash",
              "type": "string"
            },
            {
              "internalType": "string",
              "name": "dataKeyHash",
              "type": "string"
            },
            {
              "internalType": "uint256",
              "name": "boneAgeMonths",
              "type": "uint256"
            },
            {
              "internalType": "bool",
              "name": "hasFracture",
              "type": "bool"
            },
            {
              "internalType": "string",
              "name": "aiModelVersion",
              "type": "string"
            },
            {
              "internalType": "uint256",
              "name": "confidence",
              "type": "uint256"
            },
            {
              "internalType": "address",
              "name": "clinician",
              "type": "address"
            },
            {
              "internalType": "uint256",
              "name": "createdAt",
              "type": "uint256"
            }
          ],
          "internalType": "struct ConsentNFT.MedicalRecord",
          "name": "record",
          "type": "tuple"
        },
        {
          "internalType": "uint256",
          "name": "consentExpirySeconds",
          "type": "uint256"
        },
        {
          "internalType": "bytes",
          "name": "patientSignature",
          "type": "bytes"
        }
      ],
      "name": "mintConsentNFT",
      "outputs": [],
      "stateMutability": "nonpayable",
      "type": "function"
    },
    {
      "inputs": [],
      "name": "name",
      "outputs": [
        {
          "internalType": "string",
          "name": "",
          "type": "string"
        }
      ],
      "stateMutability": "view",
      "type": "function"
    },
    {
      "inputs": [
        {
          "internalType": "uint256",
          "name": "tokenId",
          "type": "uint256"
        }
      ],
      "name": "ownerOf",
      "outputs": [
        {
          "internalType": "address",
          "name": "",
          "type": "address"
        }
      ],
      "stateMutability": "view",
      "type": "function"
    },
    {
      "inputs": [
        {
          "internalType": "uint256",
          "name": "",
          "type": "uint256"
        }
      ],
      "name": "records",
      "outputs": [
        {
          "internalType": "string",
          "name": "encryptedIPFSHash",
          "type": "string"
        },
        {
          "internalType": "string",
          "name": "dataKeyHash",
          "type": "string"
        },
        {
          "internalType": "uint256",
          "name": "boneAgeMonths",
          "type": "uint256"
        },
        {
          "internalType": "bool",
          "name": "hasFracture",
          "type": "bool"
        },
        {
          "internalType": "string",
          "name": "aiModelVersion",
          "type": "string"
        },
        {
          "internalType": "uint256",
          "name": "confidence",
          "type": "uint256"
        },
        {
          "internalType": "address",
          "name": "clinician",
          "type": "address"
        },
        {
          "internalType": "uint256",
          "name": "createdAt",
          "type": "uint256"
        }
      ],
      "stateMutability": "view",
      "type": "function"
    },
    {
      "inputs": [
        {
          "internalType": "bytes32",
          "name": "role",
          "type": "bytes32"
        },
        {
          "internalType": "address",
          "name": "callerConfirmation",
          "type": "address"
        }
      ],
      "name": "renounceRole",
      "outputs": [],
      "stateMutability": "nonpayable",
      "type": "function"
    },
    {
      "inputs": [
        {
          "internalType": "uint256",
          "name": "tokenId",
          "type": "uint256"
        }
      ],
      "name": "revokeAllConsent",
      "outputs": [],
      "stateMutability": "nonpayable",
      "type": "function"
    },
    {
      "inputs": [
        {
          "internalType": "bytes32",
          "name": "role",
          "type": "bytes32"
        },
        {
          "internalType": "address",
          "name": "account",
          "type": "address"
        }
      ],
      "name": "revokeRole",
      "outputs": [],
      "stateMutability": "nonpayable",
      "type": "function"
    },
    {
      "inputs": [
        {
          "internalType": "uint256",
          "name": "tokenId",
          "type": "uint256"
        },
        {
          "internalType": "address",
          "name": "viewer",
          "type": "address"
        }
      ],
      "name": "revokeViewerAccess",
      "outputs": [],
      "stateMutability": "nonpayable",
      "type": "function"
    },
    {
      "inputs": [
        {
          "internalType": "address",
          "name": "from",
          "type": "address"
        },
        {
          "internalType": "address",
          "name": "to",
          "type": "address"
        },
        {
          "internalType": "uint256",
          "name": "tokenId",
          "type": "uint256"
        }
      ],
      "name": "safeTransferFrom",
      "outputs": [],
      "stateMutability": "nonpayable",
      "type": "function"
    },
    {
      "inputs": [
        {
          "internalType": "address",
          "name": "from",
          "type": "address"
        },
        {
          "internalType": "address",
          "name": "to",
          "type": "address"
        },
        {
          "internalType": "uint256",
          "name": "tokenId",
          "type": "uint256"
        },
        {
          "internalType": "bytes",
          "name": "data",
          "type": "bytes"
        }
      ],
      "name": "safeTransferFrom",
      "outputs": [],
      "stateMutability": "nonpayable",
      "type": "function"
    },
    {
      "inputs": [
        {
          "internalType": "address",
          "name": "operator",
          "type": "address"
        },
        {
          "internalType": "bool",
          "name": "approved",
          "type": "bool"
        }
      ],
      "name": "setApprovalForAll",
      "outputs": [],
      "stateMutability": "nonpayable",
      "type": "function"
    },
    {
      "inputs": [
        {
          "internalType": "bytes4",
          "name": "interfaceId",
          "type": "bytes4"
        }
      ],
      "name": "supportsInterface",
      "outputs": [
        {
          "internalType": "bool",
          "name": "",
          "type": "bool"
        }
      ],
      "stateMutability": "view",
      "type": "function"
    },
    {
      "inputs": [],
      "name": "symbol",
      "outputs": [
        {
          "internalType": "string",
          "name": "",
          "type": "string"
        }
      ],
      "stateMutability": "view",
      "type": "function"
    },
    {
      "inputs": [
        {
          "internalType": "uint256",
          "name": "tokenId",
          "type": "uint256"
        }
      ],
      "name": "tokenURI",
      "outputs": [
        {
          "internalType": "string",
          "name": "",
          "type": "string"
        }
      ],
      "stateMutability": "view",
      "type": "function"
    },
    {
      "inputs": [
        {
          "internalType": "address",
          "name": "from",
          "type": "address"
        },
        {
          "internalType": "address",
          "name": "to",
          "type": "address"
        },
        {
          "internalType": "uint256",
          "name": "tokenId",
          "type": "uint256"
        }
      ],
      "name": "transferFrom",
      "outputs": [],
      "stateMutability": "nonpayable",
      "type": "function"
    },
    {
      "inputs": [
        {
          "internalType": "uint256",
          "name": "",
          "type": "uint256"
        },
        {
          "internalType": "address",
          "name": "",
          "type": "address"
        }
      ],
      "name": "viewerExpiry",
      "outputs": [
        {
          "internalType": "uint256",
          "name": "",
          "type": "uint256"
        }
      ],
      "stateMutability": "view",
      "type": "function"
    }
  ],
  "bytecode": "0x60806040523461032f57604080519081016001600160401b0381118282101761024557604090815260118252701419591a54d8dc99595b90dbdb9cd95b9d607a1b602083015280519081016001600160401b038111828210176102455760405260098152681414d0d3d394d1539560ba1b602082015281516001600160401b038111610245575f54600181811c91168015610325575b602082101461022757601f81116102c3575b50602092601f821160011461026457928192935f92610259575b50508160011b915f199060031b1c1916175f555b80516001600160401b03811161024557600154600181811c9116801561023b575b602082101461022757601f81116101c4575b50602091601f8211600114610164579181925f92610159575b50508160011b915f199060031b1c1916176001555b61013f33610333565b50610149336103a9565b50604051611e4e908161043d8239f35b015190505f80610121565b601f1982169260015f52805f20915f5b8581106101ac57508360019510610194575b505050811b01600155610136565b01515f1960f88460031b161c191690555f8080610186565b91926020600181928685015181550194019201610174565b60015f527fb10e2d527612073b26eecdfd717e6a320cf44b4afac2b0732d9fcbe2b7fa0cf6601f830160051c8101916020841061021d575b601f0160051c01905b8181106102125750610108565b5f8155600101610205565b90915081906101fc565b634e487b7160e01b5f52602260045260245ffd5b90607f16906100f6565b634e487b7160e01b5f52604160045260245ffd5b015190505f806100c1565b601f198216935f8052805f20915f5b8681106102ab5750836001959610610293575b505050811b015f556100d5565b01515f1960f88460031b161c191690555f8080610286565b91926020600181928685015181550194019201610273565b5f80527f290decd9548b62a8d60345a988386fc84ba6bc95484008f6362f93160ef3e563601f830160051c8101916020841061031b575b601f0160051c01905b81811061031057506100a7565b5f8155600101610303565b90915081906102fa565b90607f1690610095565b5f80fd5b6001600160a01b0381165f9081525f5160206122cb5f395f51905f52602052604090205460ff166103a4576001600160a01b03165f8181525f5160206122cb5f395f51905f5260205260408120805460ff191660011790553391905f51602061228b5f395f51905f528180a4600190565b505f90565b6001600160a01b0381165f9081525f5160206122ab5f395f51905f52602052604090205460ff166103a4576001600160a01b03165f8181525f5160206122ab5f395f51905f5260205260408120805460ff191660011790553391907f9f2df0fed2c77648de5860a4cc508cd0818c85b8b8a1ab4ceeef8d981c8956a6905f51602061228b5f395f51905f529080a460019056fe6080806040526004361015610012575f80fd5b5f905f3560e01c90816301ffc9a7146115145750806306fdde0314611472578063081812fc14611436578063095ea7b31461134c5780631310e2ef1461122157806323b872dd1461120a578063248a9ca3146111d75780632f2ff15d1461119957806334461067146110d557806336568abe1461109157806342842e0e14611062578063580711b1146107dd5780636352211e146107ad5780636cdf6be61461073457806370a08231146106e35780638681f4471461062f57806388feb06e1461060057806391d14854146105b757806392782c171461054b57806395d89b411461046d578063a217fddf14610453578063a22cb465146103af578063a43a765914610385578063a5c5983a14610355578063b88d4fde146102e7578063c87b56dd1461028a578063d53913931461024f578063d547741f14610207578063de6f7a69146101c25763e985e9c514610168575f80fd5b346101bf5760403660031901126101bf5760406101836115bd565b9161018c6115d3565b9260018060a01b031681526005602052209060018060a01b03165f52602052602060ff60405f2054166040519015158152f35b80fd5b50346101bf5760403660031901126101bf5760406101de6115d3565b916004358152600b602052209060018060a01b03165f52602052602060405f2054604051908152f35b50346101bf5760403660031901126101bf5761024b6004356102276115d3565b90610246610241825f526006602052600160405f20015490565b611a63565b611b23565b5080f35b50346101bf57806003193601126101bf5760206040517f9f2df0fed2c77648de5860a4cc508cd0818c85b8b8a1ab4ceeef8d981c8956a68152f35b346102e35760203660031901126102e3576102a6600435611a2f565b505f6040516102b660208261165b565b526102df6040516102c860208261165b565b5f8152604051918291602083526020830190611599565b0390f35b5f80fd5b346102e35760803660031901126102e3576103006115bd565b6103086115d3565b906044356064359267ffffffffffffffff84116102e357366023850112156102e357610341610353943690602481600401359101611739565b9261034d8383836117ce565b33611ba7565b005b346102e35760403660031901126102e357602061037b6103736115d3565b6004356119bb565b6040519015158152f35b346102e35760203660031901126102e3576004355f52600a602052602060405f2054604051908152f35b346102e35760403660031901126102e3576103c86115bd565b60243590811515908183036102e3576001600160a01b03169182156104405761041290335f52600560205260405f20845f5260205260405f209060ff801983541691151516179055565b6040519081527f17307eab39ab6107e8899845ad3d59bd9653f200f220920489ca2b5937696c3160203392a3005b82630b61174360e31b5f5260045260245ffd5b346102e3575f3660031901126102e35760206040515f8152f35b346102e3575f3660031901126102e3576040515f60015461048d81611623565b808452906001811690811561052757506001146104c9575b6102df836104b58185038261165b565b604051918291602083526020830190611599565b60015f9081527fb10e2d527612073b26eecdfd717e6a320cf44b4afac2b0732d9fcbe2b7fa0cf6939250905b80821061050d575090915081016020016104b56104a5565b9192600181602092548385880101520191019092916104f5565b60ff191660208086019190915291151560051b840190910191506104b590506104a5565b346102e35760203660031901126102e35760043561057b61056b82611a2f565b6001600160a01b0316331461176f565b805f52600960205260405f2060ff19815416905533907fbdf496d41407769ff71ececae6537542760506406fb62a651e7ac685c637bd835f80a3005b346102e35760403660031901126102e3576105d06115d3565b6004355f52600660205260405f209060018060a01b03165f52602052602060ff60405f2054166040519015158152f35b346102e35760203660031901126102e3576004355f526009602052602060ff60405f2054166040519015158152f35b346102e35760203660031901126102e3576001600160a01b036106506115bd565b165f52600c60205260405f20604051806020835491828152019081935f5260205f20905f5b8181106106cd575050508161068b91038261165b565b604051918291602083019060208452518091526040830191905f5b8181106106b4575050500390f35b82518452859450602093840193909201916001016106a6565b8254845260209093019260019283019201610675565b346102e35760203660031901126102e3576001600160a01b036107046115bd565b168015610721575f526003602052602060405f2054604051908152f35b6322718ad960e21b5f525f60045260245ffd5b346102e35760403660031901126102e3576004356107506115d3565b61075c61056b83611a2f565b815f52600b60205260405f2060018060a01b0382165f526020525f604081205560018060a01b03169033907f260547d4038414ef72f081dcde91825693dff9bc433178f3e92ad36e0cd227505f80a4005b346102e35760203660031901126102e35760206107cb600435611a2f565b6040516001600160a01b039091168152f35b346102e35760603660031901126102e35760043567ffffffffffffffff81116102e3578060040161010060031983360301126102e357602435906044359267ffffffffffffffff84116102e357366023850112156102e35783600401359267ffffffffffffffff84116102e35736602485870101116102e357610860838061195b565b9490956024840191610872838761195b565b6044870135996064880199926108878b61198e565b90604051938493602085019660a0885260c08601906108a59261199b565b90601f198583030160408601526108bb9261199b565b908c6060840152151560808301528760a083015203601f19810182526108e1908261165b565b51902060405160208101917f19457468657265756d205369676e6564204d6573736167653a0a3332000000008352603c820152603c8152610923605c8261165b565b51902091610935913691602401611739565b61093e91611cdd565b61094791611d17565b336001600160a01b039091160361101d576007549460018601600755602096604051610973898261165b565b5f8152331561100a575f88815260028a5260409020546001600160a01b03168015159081610fd9575b335f81815260038d526040808220805460010190558c825260028e52812080546001600160a01b031916831790558b919083907fddf252ad1be2c89b69c2b068fc378daa952ba7f163c4a11628f55a4df523b3ef9080a450610fc65788333b610ebb575b5050865f526008885260405f2092610a18878061195b565b9067ffffffffffffffff8211610c69578190610a348754611623565b601f8111610e6d575b505f90601f8311600114610e04575f92610df9575b50508160011b915f199060031b1c19161784555b610a7460018501918861195b565b9067ffffffffffffffff8211610c6957610a8e8354611623565b601f8111610db6575b505f90601f8311600114610d47579180610aec969492610ad796945f92610d3c575b50508160011b915f199060031b1c19161790555b600285015561198e565b600383019060ff801983541691151516179055565b60048101610afd608485018661195b565b9067ffffffffffffffff8211610c69578190610b198454611623565b601f8111610cee575b505f90601f8311600114610c88575f92610c7d575b50508160011b915f199060031b1c19161790555b60a4830135600582015560c4830135926001600160a01b03841684036102e35760e4600791610bb895600685019060018060a01b03166bffffffffffffffffffffffff60a01b8254161790550135910155835f526009855260405f20600160ff19825416179055426117ad565b825f52600a845260405f2055335f52600c835260405f209081549068010000000000000000821015610c695760018201808455821015610c555783610c26927f0d089217fa0dba5fe0295a71dd2964f5c011b68945aaa0b136736a376f708231945f52865f2001558061195b565b90835f52600a8552610c4960405f2054916040519360408552604085019161199b565b948201528033940390a3005b634e487b7160e01b5f52603260045260245ffd5b634e487b7160e01b5f52604160045260245ffd5b013590508980610b37565b909150601f19831691845f528a5f20925f5b8c828210610cd8575050908460019594939210610cbf575b505050811b019055610b4b565b01355f19600384901b60f8161c19169055898080610cb2565b6001849682939587013581550195019201610c9a565b909150835f52895f20601f840160051c8101918b8510610d32575b90601f859493920160051c01905b818110610d245750610b22565b5f8155849350600101610d17565b9091508190610d09565b013590508d80610ab9565b5f8481528c81209290601f198516908e5b828210610d9e575050926001928592610ad79896610aec9a989610610d85575b505050811b019055610acd565b01355f19600384901b60f8161c191690558d8080610d78565b80600185978294968801358155019601930190610d58565b835f528b5f20601f840160051c8101918d8510610def575b601f0160051c01905b818110610de45750610a97565b5f8155600101610dd7565b9091508190610dce565b013590508b80610a52565b5f8881528d81209350909190601f198516908e5b828210610e55575050908460019594939210610e3c575b505050811b018455610a66565b01355f19600384901b60f8161c191690558b8080610e2f565b80600185978294968801358155019601930190610e18565b909150865f528b5f20601f840160051c8101918d8510610eb1575b90601f859493920160051c01905b818110610ea35750610a3d565b5f8155849350600101610e96565b9091508190610e88565b610ef39160405180938192630a85bd0160e11b83523360048401525f60248401528c6044840152608060648401526084830190611599565b03815f335af15f9181610f86575b50610f5557883d15610f4d573d90610f188261171d565b91610f26604051938461165b565b82523d5f8284013e5b81519182610f4a57633250574960e11b5f523360045260245ffd5b01fd5b606090610f2f565b6001600160e01b03191663757a42ff60e11b01610f73578888610a00565b633250574960e11b5f523360045260245ffd5b9091508981813d8311610fbf575b610f9e818361165b565b810103126102e357516001600160e01b0319811681036102e357908a610f01565b503d610f94565b6339e3563760e11b5f525f60045260245ffd5b5f8a81526004602052604080822080546001600160a01b031916905582825260038d52902080545f1901905561099c565b633250574960e11b5f525f60045260245ffd5b60405162461bcd60e51b815260206004820152601960248201527f496e76616c69642070617469656e74207369676e6174757265000000000000006044820152606490fd5b346102e357610353611073366115e9565b906040519261108360208561165b565b5f845261034d8383836117ce565b346102e35760403660031901126102e3576110aa6115d3565b336001600160a01b038216036110c65761035390600435611b23565b63334bd91960e11b5f5260045ffd5b346102e35760203660031901126102e3576004355f52600860205261115d60405f206111008161167d565b9061110d6001820161167d565b60028201549161118560ff6003830154169361112b6004840161167d565b60058401549561116b600760018060a01b03600688015416960154966040519a8b9a6101008c526101008c0190611599565b908a820360208c0152611599565b926040890152151560608801528682036080880152611599565b9260a085015260c084015260e08301520390f35b346102e35760403660031901126102e3576103536004356111b86115d3565b906111d2610241825f526006602052600160405f20015490565b611a9d565b346102e35760203660031901126102e35760206112026004355f526006602052600160405f20015490565b604051908152f35b346102e35761035361121b366115e9565b916117ce565b346102e35760603660031901126102e35760043561123d6115d3565b61124961056b83611a2f565b815f52600960205260ff60405f2054161561131457815f52600a60205260405f20544210156112d65761127e604435426117ad565b90825f52600b60205260405f2060018060a01b0382165f526020528160405f205560405191825260018060a01b0316917f9ffcf664651d52310aeb78c0f8382ca5078d2de7d3cf618cb5ce6e5cabf0099260203393a4005b60405162461bcd60e51b815260206004820152601660248201527511db1bd8985b0818dbdb9cd95b9d08195e1c1a5c995960521b6044820152606490fd5b60405162461bcd60e51b815260206004820152601060248201526f436f6e73656e7420696e61637469766560801b6044820152606490fd5b346102e35760403660031901126102e3576113656115bd565b60243561137181611a2f565b33151580611423575b806113f6575b6113e35781906001600160a01b0384811691167f8c5be1e5ebec7d5bd14f71427d1e84f3dd0314c0f7b2291e5b200ac8c7c3b9255f80a45f90815260046020526040902080546001600160a01b0319166001600160a01b03909216919091179055005b63a9fbf51f60e01b5f523360045260245ffd5b506001600160a01b0381165f90815260056020908152604080832033845290915290205460ff1615611380565b506001600160a01b03811633141561137a565b346102e35760203660031901126102e35760043561145381611a2f565b505f526004602052602060018060a01b0360405f205416604051908152f35b346102e3575f3660031901126102e3576040515f5f5461149181611623565b808452906001811690811561052757506001146114b8576102df836104b58185038261165b565b5f8080527f290decd9548b62a8d60345a988386fc84ba6bc95484008f6362f93160ef3e563939250905b8082106114fa575090915081016020016104b56104a5565b9192600181602092548385880101520191019092916114e2565b346102e35760203660031901126102e3576004359063ffffffff60e01b82168092036102e357602091637965db0b60e01b8114908115611556575b5015158152f35b6380ac58cd60e01b811491508115611588575b8115611577575b508361154f565b6301ffc9a760e01b14905083611570565b635b5e139f60e01b81149150611569565b805180835260209291819084018484015e5f828201840152601f01601f1916010190565b600435906001600160a01b03821682036102e357565b602435906001600160a01b03821682036102e357565b60609060031901126102e3576004356001600160a01b03811681036102e357906024356001600160a01b03811681036102e3579060443590565b90600182811c92168015611651575b602083101461163d57565b634e487b7160e01b5f52602260045260245ffd5b91607f1691611632565b90601f8019910116810190811067ffffffffffffffff821117610c6957604052565b9060405191825f82549261169084611623565b80845293600181169081156116fb57506001146116b7575b506116b59250038361165b565b565b90505f9291925260205f20905f915b8183106116df5750509060206116b5928201015f6116a8565b60209193508060019154838589010152019101909184926116c6565b9050602092506116b594915060ff191682840152151560051b8201015f6116a8565b67ffffffffffffffff8111610c6957601f01601f191660200190565b9291926117458261171d565b91611753604051938461165b565b8294818452818301116102e3578281602093845f960137010152565b1561177657565b60405162461bcd60e51b815260206004820152600f60248201526e2737ba103a37b5b2b71037bbb732b960891b6044820152606490fd5b919082018092116117ba57565b634e487b7160e01b5f52601160045260245ffd5b6001600160a01b039091169190821561100a575f828152600260205260409020546001600160a01b0316928290331515806118c6575b5084611893575b805f52600360205260405f2060018154019055815f52600260205260405f20816bffffffffffffffffffffffff60a01b825416179055847fddf252ad1be2c89b69c2b068fc378daa952ba7f163c4a11628f55a4df523b3ef5f80a46001600160a01b031680830361187b57505050565b6364283d7b60e01b5f5260045260245260445260645ffd5b5f82815260046020526040902080546001600160a01b0319169055845f52600360205260405f205f19815401905561180b565b9091508061190a575b156118dc5782905f611804565b82846118f457637e27328960e01b5f5260045260245ffd5b63177e802f60e01b5f523360045260245260445ffd5b503384148015611939575b806118cf57505f838152600460205260409020546001600160a01b031633146118cf565b505f84815260056020908152604080832033845290915290205460ff16611915565b903590601e19813603018212156102e3570180359067ffffffffffffffff82116102e3576020019181360383136102e357565b3580151581036102e35790565b908060209392818452848401375f828201840152601f01601f1916010190565b6119c481611a2f565b6001600160a01b03838116911614611a2857805f52600960205260ff60405f20541615611a2257805f52600a60205260405f2054421015611a22575f52600b60205260405f209060018060a01b03165f5260205260405f2054421090565b50505f90565b5050600190565b5f818152600260205260409020546001600160a01b0316908115611a51575090565b637e27328960e01b5f5260045260245ffd5b5f81815260066020908152604080832033845290915290205460ff1615611a875750565b63e2517d3f60e01b5f523360045260245260445ffd5b5f8181526006602090815260408083206001600160a01b038616845290915290205460ff16611a22575f8181526006602090815260408083206001600160a01b0395909516808452949091528120805460ff19166001179055339291907f2f8788117e7eff1d82e926ec794901d17c78024a50270940304540a733656f0d9080a4600190565b5f8181526006602090815260408083206001600160a01b038616845290915290205460ff1615611a22575f8181526006602090815260408083206001600160a01b0395909516808452949091528120805460ff19169055339291907ff6391f5c32d9c69d2a47ea670b442974b53935d1edc7fd64eb21e047a839171b9080a4600190565b823b611bb5575b5050505050565b604051630a85bd0160e11b81526001600160a01b039182166004820152918116602483015260448201939093526080606482015291169160209082908190611c01906084830190611599565b03815f865af15f9181611c98575b50611c6457503d15611c5d573d611c258161171d565b90611c33604051928361165b565b81523d5f602083013e5b80519081611c585782633250574960e11b5f5260045260245ffd5b602001fd5b6060611c3d565b6001600160e01b03191663757a42ff60e11b01611c8657505f80808080611bae565b633250574960e11b5f5260045260245ffd5b9091506020813d602011611cd5575b81611cb46020938361165b565b810103126102e357516001600160e01b0319811681036102e357905f611c0f565b3d9150611ca7565b8151919060418303611d0d57611d069250602082015190606060408401519301515f1a90611d8b565b9192909190565b50505f9160029190565b6004811015611d775780611d29575050565b60018103611d405763f645eedf60e01b5f5260045ffd5b60028103611d5b575063fce698f760e01b5f5260045260245ffd5b600314611d655750565b6335e2f38360e21b5f5260045260245ffd5b634e487b7160e01b5f52602160045260245ffd5b91907f7fffffffffffffffffffffffffffffff5d576e7357a4501ddfe92f46681b20a08411611e0d579160209360809260ff5f9560405194855216868401526040830152606082015282805260015afa15611e02575f516001600160a01b03811615611df857905f905f90565b505f906001905f90565b6040513d5f823e3d90fd5b5050505f916003919056fea2646970667358221220c2d11d08fa84f2e9266b7abedd57a9da0a26c309fb2fb86cf274964af50cfe7964736f6c634300081b00332f8788117e7eff1d82e926ec794901d17c78024a50270940304540a733656f0d3195c024b2ddd6d9b8f6c836aa52f67fe69376c8903d009b80229b3ce4425f5154cdd369e4e8a8515e52ca72ec816c2101831ad1f18bf44102ed171459c9b4f8",
  "linkReferences": {},
  "deployedLinkReferences": {}
}