{
  "_format": "hh-sol-artifact-1",
  "contractName": "HealthChainPOC",
  "sourceName": "contracts/HealthChainPOC.sol",
  "abi": [
    {
      "inputs": [],
      "stateMutability": "nonpayable",
      "type": "constructor"
    },
    {
      "inputs": [],
      "name": "AccessControlBadConfirmation",
      "type": "error"
    },
    {
      "inputs": [
        {
          "internalType": "address",
          "name": "account",
          "type": "address"
        },
        {
          "internalType": "bytes32",
          "name": "neededRole",
          "type": "bytes32"
        }
      ],
      "name": "AccessControlUnauthorizedAccount",
      "type": "error"
    },
    {
      "inputs": [],
      "name": "ECDSAInvalidSignature",
      "type": "error"
    },
    {
      "inputs": [
        {
          "internalType": "uint256",
          "name": "length",
          "type": "uint256"
        }
      ],
      "name": "ECDSAInvalidSignatureLength",
      "type": "error"
    },
    {
      "inputs": [
        {
          "internalType": "bytes32",
          "name": "s",
          "type": "bytes32"
        }
      ],
      "name": "ECDSAInvalidSignatureS",
      "type": "error"
    },
    {
      "inputs": [],
      "name": "ReentrancyGuardReentrantCall",
      "type": "error"
    },
    {
      "anonymous": false,
      "inputs": [
        {
          "indexed": true,
          "internalType": "bytes32",
          "name": "recordHash",
          "type": "bytes32"
        },
        {
          "indexed": true,
          "internalType": "address",
          "name": "patient",
          "type": "address"
        },
        {
          "indexed": false,
          "internalType": "address[]",
          "name": "parties",
          "type": "address[]"
        }
      ],
      "name": "ConsentGranted",
      "type": "event"
    },
    {
      "anonymous": false,
      "inputs": [
        {
          "indexed": true,
          "internalType": "bytes32",
          "name": "recordHash",
          "type": "bytes32"
        },
        {
          "indexed": true,
          "internalType": "address",
          "name": "accessor",
          "type": "address"
        }
      ],
      "name": "RecordAccessed",
      "type": "event"
    },
    {
      "anonymous": false,
      "inputs": [
        {
          "indexed": true,
          "internalType": "bytes32",
          "name": "recordHash",
          "type": "bytes32"
        },
        {
          "indexed": false,
          "internalType": "string",
          "name": "patientId",
          "type": "string"
        },
        {
          "indexed": false,
          "internalType": "string",
          "name": "recordType",
          "type": "string"
        }
      ],
      "name": "RecordCreated",
      "type": "event"
    },
    {
      "anonymous": false,
      "inputs": [
        {
          "indexed": true,
          "internalType": "bytes32",
          "name": "role",
          "type": "bytes32"
        },
        {
          "indexed": true,
          "internalType": "bytes32",
          "name": "previousAdminRole",
          "type": "bytes32"
        },
        {
          "indexed": true,
          "internalType": "bytes32",
          "name": "newAdminRole",
          "type": "bytes32"
        }
      ],
      "name": "RoleAdminChanged",
      "type": "event"
    },
    {
      "anonymous": false,
      "inputs": [
        {
          "indexed": true,
          "internalType": "bytes32",
          "name": "role",
          "type": "bytes32"
        },
        {
          "indexed": true,
          "internalType": "address",
          "name": "account",
          "type": "address"
        },
        {
          "indexed": true,
          "internalType": "address",
          "name": "sender",
          "type": "address"
        }
      ],
      "name": "RoleGranted",
      "type": "event"
    },
    {
      "anonymous": false,
      "inputs": [
        {
          "indexed": true,
          "internalType": "bytes32",
          "name": "role",
          "type": "bytes32"
        },
        {
          "indexed": true,
          "internalType": "address",
          "name": "account",
          "type": "address"
        },
        {
          "indexed": true,
          "internalType": "address",
          "name": "sender",
          "type": "address"
        }
      ],
      "name": "RoleRevoked",
      "type": "event"
    },
    {
      "inputs": [],
      "name": "CHW_ROLE",
      "outputs": [
        {
          "internalType": "bytes32",
          "name": "",
          "type": "bytes32"
        }
      ],
      "stateMutability": "view",
      "type": "function"
    },
    {
      "inputs": [],
      "name": "CLINIC_ROLE",
      "outputs": [
        {
          "internalType": "bytes32",
          "name": "",
          "type": "bytes32"
        }
      ],
      "stateMutability": "view",
      "type": "function"
    },
    {
      "inputs": [],
      "name": "DEFAULT_ADMIN_ROLE",
      "outputs": [
        {
          "internalType": "bytes32",
          "name": "",
          "type": "bytes32"
        }
      ],
      "stateMutability": "view",
      "type": "function"
    },
    {
      "inputs": [],
      "name": "EHR_ROLE",
      "outputs": [
        {
          "internalType": "bytes32",
          "name": "",
          "type": "bytes32"
        }
      ],
      "stateMutability": "view",
      "type": "function"
    },
    {
      "inputs": [],
      "name": "PATIENT_ROLE",
      "outputs": [
        {
          "internalType": "bytes32",
          "name": "",
          "type": "bytes32"
        }
      ],
      "stateMutability": "view",
      "type": "function"
    },
    {
      "inputs": [
        {
          "internalType": "bytes32",
          "name": "_recordHash",
          "type": "bytes32"
        }
      ],
      "name": "accessRecord",
      "outputs": [
        {
          "components": [
            {
              "internalType": "bytes32",
              "name": "recordHash",
              "type": "bytes32"
            },
            {
              "internalType": "string",
              "name": "patientId",
              "type": "string"
            },
            {
              "internalType": "string",
              "name": "recordType",
              "type": "string"
            },
            {
              "internalType": "address",
              "name": "owner",
              "type": "address"
            },
            {
              "internalType": "uint256",
              "name": "createdAt",
              "type": "uint256"
            },
            {
              "internalType": "bool",
              "name": "active",
              "type": "bool"
            }
          ],
          "internalType": "struct HealthChainPOC.PatientRecord",
          "name": "",
          "type": "tuple"
        }
      ],
      "stateMutability": "nonpayable",
      "type": "function"
    },
    {
      "inputs": [
        {
          "internalType": "bytes32",
          "name": "",
          "type": "bytes32"
        }
      ],
      "name": "consents",
      "outputs": [
        {
          "internalType": "bytes32",
          "name": "recordHash",
          "type": "bytes32"
        },
        {
          "internalType": "address",
          "name": "patient",
          "type": "address"
        },
        {
          "internalType": "uint256",
          "name": "expiry",
          "type": "uint256"
        },
        {
          "internalType": "bool",
          "name": "revoked",
          "type": "bool"
        }
      ],
      "stateMutability": "view",
      "type": "function"
    },
    {
      "inputs": [
        {
          "internalType": "bytes32",
          "name": "_recordHash",
          "type": "bytes32"
        },
        {
          "internalType": "string",
          "name": "_patientId",
          "type": "string"
        },
        {
          "internalType": "string",
          "name": "_recordType",
          "type": "string"
        },
        {
          "internalType": "bytes",
          "name": "_signature",
          "type": "bytes"
        }
      ],
      "name": "createPatientRecord",
      "outputs": [],
      "stateMutability": "nonpayable",
      "type": "function"
    },
    {
      "inputs": [
        {
          "internalType": "bytes32",
          "name": "_recordHash",
          "type": "bytes32"
        }
      ],
      "name": "getRecord",
      "outputs": [
        {
          "components": [
            {
              "internalType": "bytes32",
              "name": "recordHash",
              "type": "bytes32"
            },
            {
              "internalType": "string",
              "name": "patientId",
              "type": "string"
            },
            {
              "internalType": "string",
              "name": "recordType",
              "type": "string"
            },
            {
              "internalType": "address",
              "name": "owner",
              "type": "address"
            },
            {
              "internalType": "uint256",
              "name": "createdAt",
              "type": "uint256"
            },
            {
              "internalType": "bool",
              "name": "active",
              "type": "bool"
            }
          ],
          "internalType": "struct HealthChainPOC.PatientRecord",
          "name": "",
          "type": "tuple"
        }
      ],
      "stateMutability": "view",
      "type": "function"
    },
    {
      "inputs": [
        {
          "internalType": "bytes32",
          "name": "role",
          "type": "bytes32"
        }
      ],
      "name": "getRoleAdmin",
      "outputs": [
        {
          "internalType": "bytes32",
          "name": "",
          "type": "bytes32"
        }
      ],
      "stateMutability": "view",
      "type": "function"
    },
    {
      "inputs": [
        {
          "internalType": "bytes32",
          "name": "_recordHash",
          "type": "bytes32"
        },
        {
          "internalType": "address[]",
          "name": "_authorizedParties",
          "type": "address[]"
        },
        {
          "internalType": "uint256",
          "name": "_expiry",
          "type": "uint256"
        }
      ],
      "name": "grantConsent",
      "outputs": [],
      "stateMutability": "nonpayable",
      "type": "function"
    },
    {
      "inputs": [
        {
          "internalType": "bytes32",
          "name": "role",
          "type": "bytes32"
        },
        {
          "internalType": "address",
          "name": "account",
          "type": "address"
        }
      ],
      "name": "grantRole",
      "outputs": [],
      "stateMutability": "nonpayable",
      "type": "function"
    },
    {
      "inputs": [
        {
          "internalType": "bytes32",
          "name": "role",
          "type": "bytes32"
        },
        {
          "internalType": "address",
          "name": "account",
          "type": "address"
        }
      ],
      "name": "hasRole",
      "outputs": [
        {
          "internalType": "bool",
          "name": "",
          "type": "bool"
        }
      ],
      "stateMutability": "view",
      "type": "function"
    },
    {
      "inputs": [
        {
          "internalType": "string",
          "name": "",
          "type": "string"
        }
      ],
      "name": "patientIdToHash",
      "outputs": [
        {
          "internalType": "bytes32",
          "name": "",
          "type": "bytes32"
        }
      ],
      "stateMutability": "view",
      "type": "function"
    },
    {
      "inputs": [],
      "name": "recordCounter",
      "outputs": [
        {
          "internalType": "uint256",
          "name": "",
          "type": "uint256"
        }
      ],
      "stateMutability": "view",
      "type": "function"
    },
    {
      "inputs": [
        {
          "internalType": "bytes32",
          "name": "",
          "type": "bytes32"
        }
      ],
      "name": "records",
      "outputs": [
        {
          "internalType": "bytes32",
          "name": "recordHash",
          "type": "bytes32"
        },
        {
          "internalType": "string",
          "name": "patientId",
          "type": "string"
        },
        {
          "internalType": "string",
          "name": "recordType",
          "type": "string"
        },
        {
          "internalType": "address",
          "name": "owner",
          "type": "address"
        },
        {
          "internalType": "uint256",
          "name": "createdAt",
          "type": "uint256"
        },
        {
          "internalType": "bool",
          "name": "active",
          "type": "bool"
        }
      ],
      "stateMutability": "view",
      "type": "function"
    },
    {
      "inputs": [
        {
          "internalType": "bytes32",
          "name": "role",
          "type": "bytes32"
        },
        {
          "internalType": "address",
          "name": "callerConfirmation",
          "type": "address"
        }
      ],
      "name": "renounceRole",
      "outputs": [],
      "stateMutability": "nonpayable",
      "type": "function"
    },
    {
      "inputs": [
        {
          "internalType": "bytes32",
          "name": "_recordHash",
          "type": "bytes32"
        }
      ],
      "name": "revokeConsent",
      "outputs": [],
      "stateMutability": "nonpayable",
      "type": "function"
    },
    {
      "inputs": [
        {
          "internalType": "bytes32",
          "name": "role",
          "type": "bytes32"
        },
        {
          "internalType": "address",
          "name": "account",
          "type": "address"
        }
      ],
      "name": "revokeRole",
      "outputs": [],
      "stateMutability": "nonpayable",
      "type": "function"
    },
    {
      "inputs": [
        {
          "internalType": "bytes4",
          "name": "interfaceId",
          "type": "bytes4"
        }
      ],
      "name": "supportsInterface",
      "outputs": [
        {
          "internalType": "bool",
          "name": "",
          "type": "bool"
        }
      ],
      "stateMutability": "view",
      "type": "function"
    },
    {
      "inputs": [
        {
          "internalType": "bytes32",
          "name": "_recordHash",
          "type": "bytes32"
        },
        {
          "internalType": "bytes32",
          "name": "_ipfsHash",
          "type": "bytes32"
        }
      ],
      "name": "verifyRecord",
      "outputs": [
        {
          "internalType": "bool",
          "name": "",
          "type": "bool"
        }
      ],
      "stateMutability": "view",
      "type": "function"
    }
  ],
  "bytecode": "0x608060405234610030576001805561001633610034565b50610020336100aa565b50604051611853908161013e8239f35b5f80fd5b6001600160a01b0381165f9081525f5160206119d15f395f51905f52602052604090205460ff166100a5576001600160a01b03165f8181525f5160206119d15f395f51905f5260205260408120805460ff191660011790553391905f5160206119915f395f51905f528180a4600190565b505f90565b6001600160a01b0381165f9081525f5160206119b15f395f51905f52602052604090205460ff166100a5576001600160a01b03165f8181525f5160206119b15f395f51905f5260205260408120805460ff191660011790553391907f9efc0a7fafb21c086158c5f7dcd98228d1a5084171f592f282dee4bd9c546fa6905f5160206119915f395f51905f529080a460019056fe60806040526004361015610011575f80fd5b5f3560e01c806301e64725146111b457806301ffc9a71461115f57806307a0315d146110785780630884b8c214611012578063213681cd14610f7e578063248a9ca314610f4c5780632f2ff15d14610f0f57806336568abe14610ecb5780635cc3e2aa1461096b57806360f0a7551461067f5780637599be5d146106625780637d15f5341461038a57806382673e771461035057806391d1485414610308578063a217fddf146102ee578063ac5cb97d146102b4578063b0ff5f911461027a578063b3d8ccbd14610221578063b93d3124146101e7578063d547741f146101a35763f838585f14610100575f80fd5b3461019f57604036600319011261019f576004355f526002602052602060405f2060ff60056040519261013284611285565b80548452610142600182016112dc565b85850152610152600282016112dc565b604085015260038101546001600160a01b0316606085015260048101546080850152015416151560a082018190529081610192575b506040519015158152f35b516024351490505f610187565b5f80fd5b3461019f57604036600319011261019f576101e56004356101c261144a565b906101e06101db825f525f602052600160405f20015490565b611582565b611642565b005b3461019f575f36600319011261019f5760206040517f9efc0a7fafb21c086158c5f7dcd98228d1a5084171f592f282dee4bd9c546fa68152f35b3461019f57602036600319011261019f576004355f526003602052608060405f2080549060018060a01b036001820154169060ff6004600383015492015416916040519384526020840152604083015215156060820152f35b3461019f575f36600319011261019f5760206040517f166ba593f07c7cc0986b3adfaf3fbd9267ec81bc2bc89184c103bf24b8e4cb808152f35b3461019f575f36600319011261019f5760206040517f72606200fac42b7dc86b75901d61ecfab2a4a1a6eded478b97a428094891abed8152f35b3461019f575f36600319011261019f5760206040515f8152f35b3461019f57604036600319011261019f5761032161144a565b6004355f525f60205260405f209060018060a01b03165f52602052602060ff60405f2054166040519015158152f35b3461019f575f36600319011261019f5760206040517f1976159518e32c975351d3eb18509d62ab7629098636e52c6ce63466e939167f8152f35b3461019f57602036600319011261019f576004356103a66114dc565b506103af6116c2565b805f52600260205260405f2090604051916103c983611285565b805483526103d9600182016112dc565b60208401526103ea600282016112dc565b604084015261042560ff600560018060a01b0360038501541693606087019485526004810154608088015201541615158060a0860152611544565b82511561062a57815f52600360205260405f209060405191610446836112a0565b8054835260018060a01b036001820154166020840152600281019260405180948591602082549182815201915f5260205f20905f5b81811061060857505050608092916104949103866112bb565b6040810194855260ff600460038501549460608401958652015416151591829101526105d1575142101561059a57516001600160a01b03163314908115610551575b50156105195761051560405192839233907faf955274c24cc716137f739397c52d2550f46987ecbbaa90b6e0126fc715d0c75f80a360018055826113e5565b0390f35b60405162461bcd60e51b815260206004820152601060248201526f4e6f206163636573732072696768747360801b6044820152606490fd5b51805192915f5b8481101561059057600581901b8301602001516001600160a01b0316331461058257600101610558565b505050905060015b836104d6565b509192505061058a565b60405162461bcd60e51b815260206004820152600f60248201526e10dbdb9cd95b9d08195e1c1a5c9959608a1b6044820152606490fd5b60405162461bcd60e51b815260206004820152600f60248201526e10dbdb9cd95b9d081c995d9bdad959608a1b6044820152606490fd5b82546001600160a01b031684528894506020909301926001928301920161047b565b60405162461bcd60e51b815260206004820152601060248201526f149958dbdc99081b9bdd08199bdd5b9960821b6044820152606490fd5b3461019f575f36600319011261019f576020600554604051908152f35b3461019f57606036600319011261019f576024356004356001600160401b03821161019f573660238301121561019f5781600401356001600160401b03811161019f57602483019260248260051b8092010136811161019f576044356106e36116c2565b845f5260026020526106fe60ff600560405f20015416611544565b845f52600260205260018060a01b03600360405f2001541633148015610934575b610728906114a1565b428111156108fe576040519261073d846112a0565b858452602084019233845261075860206040519301836112bb565b85825287602083015b8282106108e6575050506040848101918252606085019283525f6080860181815288825260036020529190209451855592516001850180546001600160a01b0319166001600160a01b03929092169190911790555180519060028501906001600160401b0383116108d2576801000000000000000083116108d25760209082548484558085106108b7575b5001905f5260205f205f5b83811061089a5750505050610826929160049151600384015551151591019060ff801983541691151516179055565b60405190806020830160208452526040820193905f5b81811061087457505050807f293f7b6e3926235a5feab3add9f4916ff03e64179a6c54fb4b6ecd76c27c32129133940390a360018055005b909194602080600192838060a01b0361088c8a611460565b16815201960192910161083c565b82516001600160a01b0316818301556020909201916001016107f7565b6108cc90845f5285845f20918201910161150e565b8a6107ec565b634e487b7160e01b5f52604160045260245ffd5b602080916108f384611460565b815201910190610761565b60405162461bcd60e51b815260206004820152600e60248201526d496e76616c69642065787069727960901b6044820152606490fd5b50335f9081527f01269c68c28a67305f4a2d47532888d6c961251cfcb06c9cdb6066d32b24b320602052604090205460ff1661071f565b3461019f57608036600319011261019f576004356024356001600160401b03811161019f5761099e903690600401611474565b906044356001600160401b03811161019f576109be903690600401611474565b92906064356001600160401b03811161019f576109df903690600401611474565b335f9081527fa805411f761e02533bc805c2a6525586c65abf18c4a607ff6e517175e492b7b6602052604090205490919060ff1615610e9457610a206116c2565b8315610e5a57865f52600260205260405f2054610e2557610aa691610a97610a9d9260405160208101908b825246604082015260408152610a626060826112bb565b5190207f19457468657265756d205369676e6564204d6573736167653a0a3332000000005f52601c52603c5f209236916113a0565b906116e2565b9092919261171c565b336001600160a01b0390911603610dec57604051610ac381611285565b858152610ad13684866113a0565b60208201908152610ae33687856113a0565b6040830190815260608301338152608084019142835260a0850193600185528a5f52600260205260405f20955186556001860190518051906001600160401b0382116108d2578190610b35845461124d565b601f8111610dbc575b50602090601f8311600114610d59575f92610d4e575b50508160011b915f199060031b1c19161790555b51805160028601916001600160401b0382116108d257610b88835461124d565b601f8111610d13575b50602090601f8311600114610ca65791806005969492610c0a999896945f92610c9b575b50508160011b915f199060031b1c19161790555b516003850180546001600160a01b039092166001600160a01b0319909216919091179055516004840155519101805460ff191691151560ff16919091179055565b8460405183858237602081858101600481520301902055600554905f198214610c87577f53b7f00184e5162fec7945d01f79c655fbc206a76ef6a97d49ca5fcd5bb77865946001610c7e9301600555610c70604051958695604087526040870191611524565b918483036020860152611524565b0390a260018055005b634e487b7160e01b5f52601160045260245ffd5b015190508e80610bb5565b90601f19831691845f52815f20925f5b818110610cfb5750926001928592610c0a9b9a989660059a989610610ce3575b505050811b019055610bc9565b01515f1960f88460031b161c191690558e8080610cd6565b92936020600181928786015181550195019301610cb6565b610d3e90845f5260205f20601f850160051c81019160208610610d44575b601f0160051c019061150e565b8c610b91565b9091508190610d31565b015190508d80610b54565b5f8581528281209350601f198516905b818110610da45750908460019594939210610d8c575b505050811b019055610b68565b01515f1960f88460031b161c191690558d8080610d7f565b92936020600181928786015181550195019301610d69565b610de690855f5260205f20601f850160051c81019160208610610d4457601f0160051c019061150e565b8e610b3e565b60405162461bcd60e51b8152602060048201526011602482015270496e76616c6964207369676e617475726560781b6044820152606490fd5b60405162461bcd60e51b815260206004820152600d60248201526c5265636f72642065786973747360981b6044820152606490fd5b60405162461bcd60e51b8152602060048201526012602482015271125b9d985b1a59081c185d1a595b9d08125160721b6044820152606490fd5b63e2517d3f60e01b5f52336004527f9efc0a7fafb21c086158c5f7dcd98228d1a5084171f592f282dee4bd9c546fa660245260445ffd5b3461019f57604036600319011261019f57610ee461144a565b336001600160a01b03821603610f00576101e590600435611642565b63334bd91960e11b5f5260045ffd5b3461019f57604036600319011261019f576101e5600435610f2e61144a565b90610f476101db825f525f602052600160405f20015490565b6115ba565b3461019f57602036600319011261019f576020610f766004355f525f602052600160405f20015490565b604051908152f35b3461019f57602036600319011261019f57610f976114dc565b506004355f52600260205261051560405f2060ff600560405192610fba84611285565b80548452610fca600182016112dc565b6020850152610fdb600282016112dc565b604085015260018060a01b03600382015416606085015260048101546080850152015416151560a0820152604051918291826113e5565b3461019f57602036600319011261019f576004356001600160401b03811161019f573660238201121561019f57602080611057819336906024816004013591016113a0565b604051928184925191829101835e8101600481520301902054604051908152f35b3461019f57602036600319011261019f57600435805f52600360205260405f2080541561112d576004915f52600260205260018060a01b03600360405f2001541633148015611117575b80156110e0575b6110d2906114a1565b01805460ff19166001179055005b50335f9081527f01269c68c28a67305f4a2d47532888d6c961251cfcb06c9cdb6066d32b24b320602052604090205460ff166110c9565b5060018101546001600160a01b031633146110c2565b60405162461bcd60e51b815260206004820152600a602482015269139bc818dbdb9cd95b9d60b21b6044820152606490fd5b3461019f57602036600319011261019f5760043563ffffffff60e01b811680910361019f57602090637965db0b60e01b81149081156111a357506040519015158152f35b6301ffc9a760e01b14905082610187565b3461019f57602036600319011261019f576004355f52600260205260405f2080546111e1600183016112dc565b916111ee600282016112dc565b60018060a01b036003830154169161123760ff600560048401549301541692611229604051978897885260c0602089015260c088019061137c565b90868203604088015261137c565b9260608501526080840152151560a08301520390f35b90600182811c9216801561127b575b602083101461126757565b634e487b7160e01b5f52602260045260245ffd5b91607f169161125c565b60c081019081106001600160401b038211176108d257604052565b60a081019081106001600160401b038211176108d257604052565b90601f801991011681019081106001600160401b038211176108d257604052565b9060405191825f8254926112ef8461124d565b808452936001811690811561135a5750600114611316575b50611314925003836112bb565b565b90505f9291925260205f20905f915b81831061133e575050906020611314928201015f611307565b6020919350806001915483858901015201910190918492611325565b90506020925061131494915060ff191682840152151560051b8201015f611307565b805180835260209291819084018484015e5f828201840152601f01601f1916010190565b9291926001600160401b0382116108d257604051916113c9601f8201601f1916602001846112bb565b82948184528183011161019f578281602093845f960137010152565b602081528151602082015260c060a061142561140f602086015184604087015260e086019061137c565b6040860151858203601f1901606087015261137c565b93600180831b0360608201511660808501526080810151828501520151151591015290565b602435906001600160a01b038216820361019f57565b35906001600160a01b038216820361019f57565b9181601f8401121561019f578235916001600160401b03831161019f576020838186019501011161019f57565b156114a857565b60405162461bcd60e51b815260206004820152600c60248201526b155b985d5d1a1bdc9a5e995960a21b6044820152606490fd5b604051906114e982611285565b5f60a08382815260606020820152606060408201528260608201528260808201520152565b818110611519575050565b5f815560010161150e565b908060209392818452848401375f828201840152601f01601f1916010190565b1561154b57565b60405162461bcd60e51b815260206004820152600f60248201526e5265636f726420696e61637469766560881b6044820152606490fd5b5f8181526020818152604080832033845290915290205460ff16156115a45750565b63e2517d3f60e01b5f523360045260245260445ffd5b5f818152602081815260408083206001600160a01b038616845290915290205460ff1661163c575f818152602081815260408083206001600160a01b0395909516808452949091528120805460ff19166001179055339291907f2f8788117e7eff1d82e926ec794901d17c78024a50270940304540a733656f0d9080a4600190565b50505f90565b5f818152602081815260408083206001600160a01b038616845290915290205460ff161561163c575f818152602081815260408083206001600160a01b0395909516808452949091528120805460ff19169055339291907ff6391f5c32d9c69d2a47ea670b442974b53935d1edc7fd64eb21e047a839171b9080a4600190565b6002600154146116d3576002600155565b633ee5aeb560e01b5f5260045ffd5b81519190604183036117125761170b9250602082015190606060408401519301515f1a90611790565b9192909190565b50505f9160029190565b600481101561177c578061172e575050565b600181036117455763f645eedf60e01b5f5260045ffd5b60028103611760575063fce698f760e01b5f5260045260245ffd5b60031461176a5750565b6335e2f38360e21b5f5260045260245ffd5b634e487b7160e01b5f52602160045260245ffd5b91907f7fffffffffffffffffffffffffffffff5d576e7357a4501ddfe92f46681b20a08411611812579160209360809260ff5f9560405194855216868401526040830152606082015282805260015afa15611807575f516001600160a01b038116156117fd57905f905f90565b505f906001905f90565b6040513d5f823e3d90fd5b5050505f916003919056fea264697066735822122022648a2a0dd3dce568e0d09993f71f5fdb5c768f549deaa26ef9e21e6f7a245864736f6c634300081b00332f8788117e7eff1d82e926ec794901d17c78024a50270940304540a733656f0da805411f761e02533bc805c2a6525586c65abf18c4a607ff6e517175e492b7b6ad3228b676f7d3cd4284a5443f17f1962b36e491b30a40b2405849e597ba5fb5",
  "linkReferences": {},
  "deployedLinkReferences": {}
}