{
  "_format": "hh-sol-artifact-1",
  "contractName": "PediScreenAI",
  "sourceName": "contracts/PediScreenAI.sol",
  "abi": [
    {
      "inputs": [],
      "stateMutability": "nonpayable",
      "type": "constructor"
    },
    {
      "inputs": [],
      "name": "ECDSAInvalidSignature",
      "type": "error"
    },
    {
      "inputs": [
        {
          "internalType": "uint256",
          "name": "length",
          "type": "uint256"
        }
      ],
      "name": "ECDSAInvalidSignatureLength",
      "type": "error"
    },
    {
      "inputs": [
        {
          "internalType": "bytes32",
          "name": "s",
          "type": "bytes32"
        }
      ],
      "name": "ECDSAInvalidSignatureS",
      "type": "error"
    },
    {
      "inputs": [],
      "name": "InvalidShortString",
      "type": "error"
    },
    {
      "inputs": [
        {
          "internalType": "address",
          "name": "owner",
          "type": "address"
        }
      ],
      "name": "OwnableInvalidOwner",
      "type": "error"
    },
    {
      "inputs": [
        {
          "internalType": "address",
          "name": "account",
          "type": "address"
        }
      ],
      "name": "OwnableUnauthorizedAccount",
      "type": "error"
    },
    {
      "inputs": [],
      "name": "ReentrancyGuardReentrantCall",
      "type": "error"
    },
    {
      "inputs": [
        {
          "internalType": "string",
          "name": "str",
          "type": "string"
        }
      ],
      "name": "StringTooLong",
      "type": "error"
    },
    {
      "anonymous": false,
      "inputs": [
        {
          "indexed": true,
          "internalType": "uint256",
          "name": "batchId",
          "type": "uint256"
        },
        {
          "indexed": false,
          "internalType": "bytes32",
          "name": "merkleRoot",
          "type": "bytes32"
        },
        {
          "indexed": false,
          "internalType": "uint256",
          "name": "recordCount",
          "type": "uint256"
        }
      ],
      "name": "BatchRootVerified",
      "type": "event"
    },
    {
      "anonymous": false,
      "inputs": [],
      "name": "EIP712DomainChanged",
      "type": "event"
    },
    {
      "anonymous": false,
      "inputs": [
        {
          "indexed": true,
          "internalType": "uint256",
          "name": "batchId",
          "type": "uint256"
        },
        {
          "indexed": true,
          "internalType": "bytes32",
          "name": "dataHash",
          "type": "bytes32"
        },
        {
          "indexed": true,
          "internalType": "address",
          "name": "patient",
          "type": "address"
        },
        {
          "indexed": false,
          "internalType": "uint32",
          "name": "childAge",
          "type": "uint32"
        },
        {
          "indexed": false,
          "internalType": "uint8",
          "name": "riskLevel",
          "type": "uint8"
        }
      ],
      "name": "MedicalHashSubmitted",
      "type": "event"
    },
    {
      "anonymous": false,
      "inputs": [
        {
          "indexed": true,
          "internalType": "address",
          "name": "previousOwner",
          "type": "address"
        },
        {
          "indexed": true,
          "internalType": "address",
          "name": "newOwner",
          "type": "address"
        }
      ],
      "name": "OwnershipTransferred",
      "type": "event"
    },
    {
      "anonymous": false,
      "inputs": [
        {
          "indexed": true,
          "internalType": "uint256",
          "name": "batchId",
          "type": "uint256"
        },
        {
          "indexed": false,
          "internalType": "bytes32",
          "name": "zkProofHash",
          "type": "bytes32"
        }
      ],
      "name": "ZKProofSubmitted",
      "type": "event"
    },
    {
      "inputs": [],
      "name": "MEDICAL_PREFIX",
      "outputs": [
        {
          "internalType": "bytes32",
          "name": "",
          "type": "bytes32"
        }
      ],
      "stateMutability": "view",
      "type": "function"
    },
    {
      "inputs": [],
      "name": "SCREENING_TYPEHASH",
      "outputs": [
        {
          "internalType": "bytes32",
          "name": "",
          "type": "bytes32"
        }
      ],
      "stateMutability": "view",
      "type": "function"
    },
    {
      "inputs": [],
      "name": "batchCount",
      "outputs": [
        {
          "internalType": "uint256",
          "name": "",
          "type": "uint256"
        }
      ],
      "stateMutability": "view",
      "type": "function"
    },
    {
      "inputs": [
        {
          "internalType": "uint256",
          "name": "",
          "type": "uint256"
        }
      ],
      "name": "batchRoots",
      "outputs": [
        {
          "internalType": "bytes32",
          "name": "",
          "type": "bytes32"
        }
      ],
      "stateMutability": "view",
      "type": "function"
    },
    {
      "inputs": [
        {
          "internalType": "uint256",
          "name": "",
          "type": "uint256"
        }
      ],
      "name": "batches",
      "outputs": [
        {
          "internalType": "bytes32",
          "name": "merkleRoot",
          "type": "bytes32"
        },
        {
          "internalType": "uint256",
          "name": "recordCount",
          "type": "uint256"
        },
        {
          "internalType": "uint40",
          "name": "batchTimestamp",
          "type": "uint40"
        },
        {
          "internalType": "bool",
          "name": "zkVerified",
          "type": "bool"
        },
        {
          "internalType": "address",
          "name": "submitter",
          "type": "address"
        }
      ],
      "stateMutability": "view",
      "type": "function"
    },
    {
      "inputs": [],
      "name": "eip712Domain",
      "outputs": [
        {
          "internalType": "bytes1",
          "name": "fields",
          "type": "bytes1"
        },
        {
          "internalType": "string",
          "name": "name",
          "type": "string"
        },
        {
          "internalType": "string",
          "name": "version",
          "type": "string"
        },
        {
          "internalType": "uint256",
          "name": "chainId",
          "type": "uint256"
        },
        {
          "internalType": "address",
          "name": "verifyingContract",
          "type": "address"
        },
        {
          "internalType": "bytes32",
          "name": "salt",
          "type": "bytes32"
        },
        {
          "internalType": "uint256[]",
          "name": "extensions",
          "type": "uint256[]"
        }
      ],
      "stateMutability": "view",
      "type": "function"
    },
    {
      "inputs": [
        {
          "internalType": "bytes32",
          "name": "",
          "type": "bytes32"
        }
      ],
      "name": "hashToBatch",
      "outputs": [
        {
          "internalType": "uint256",
          "name": "",
          "type": "uint256"
        }
      ],
      "stateMutability": "view",
      "type": "function"
    },
    {
      "inputs": [],
      "name": "owner",
      "outputs": [
        {
          "internalType": "address",
          "name": "",
          "type": "address"
        }
      ],
      "stateMutability": "view",
      "type": "function"
    },
    {
      "inputs": [
        {
          "internalType": "address",
          "name": "",
          "type": "address"
        },
        {
          "internalType": "uint256",
          "name": "",
          "type": "uint256"
        }
      ],
      "name": "patientRecords",
      "outputs": [
        {
          "internalType": "bool",
          "name": "",
          "type": "bool"
        }
      ],
      "stateMutability": "view",
      "type": "function"
    },
    {
      "inputs": [
        {
          "components": [
            {
              "internalType": "bytes32",
              "name": "dataHash",
              "type": "bytes32"
            },
            {
              "internalType": "uint32",
              "name": "childAge",
              "type": "uint32"
            },
            {
              "internalType": "uint8",
              "name": "riskLevel",
              "type": "uint8"
            },
            {
              "internalType": "uint16",
              "name": "domainId",
              "type": "uint16"
            },
            {
              "internalType": "uint40",
              "name": "timestamp",
              "type": "uint40"
            },
            {
              "internalType": "uint16",
              "name": "clinicId",
              "type": "uint16"
            },
            {
              "internalType": "address",
              "name": "patient",
              "type": "address"
            }
          ],
          "internalType": "struct PediScreenAI.PackedMedicalHash",
          "name": "record",
          "type": "tuple"
        },
        {
          "internalType": "uint256",
          "name": "screeningId",
          "type": "uint256"
        },
        {
          "internalType": "bytes",
          "name": "signature",
          "type": "bytes"
        }
      ],
      "name": "recoverSigner",
      "outputs": [
        {
          "internalType": "address",
          "name": "",
          "type": "address"
        }
      ],
      "stateMutability": "view",
      "type": "function"
    },
    {
      "inputs": [],
      "name": "renounceOwnership",
      "outputs": [],
      "stateMutability": "nonpayable",
      "type": "function"
    },
    {
      "inputs": [
        {
          "components": [
            {
              "internalType": "bytes32",
              "name": "dataHash",
              "type": "bytes32"
            },
            {
              "internalType": "uint32",
              "name": "childAge",
              "type": "uint32"
            },
            {
              "internalType": "uint8",
              "name": "riskLevel",
              "type": "uint8"
            },
            {
              "internalType": "uint16",
              "name": "domainId",
              "type": "uint16"
            },
            {
              "internalType": "uint40",
              "name": "timestamp",
              "type": "uint40"
            },
            {
              "internalType": "uint16",
              "name": "clinicId",
              "type": "uint16"
            },
            {
              "internalType": "address",
              "name": "patient",
              "type": "address"
            }
          ],
          "internalType": "struct PediScreenAI.PackedMedicalHash[]",
          "name": "records",
          "type": "tuple[]"
        },
        {
          "internalType": "bytes32[][]",
          "name": "merkleProofs",
          "type": "bytes32[][]"
        },
        {
          "internalType": "bytes32",
          "name": "merkleRoot",
          "type": "bytes32"
        },
        {
          "internalType": "bytes[]",
          "name": "signatures",
          "type": "bytes[]"
        }
      ],
      "name": "submitScreeningBatch",
      "outputs": [
        {
          "internalType": "uint256",
          "name": "batchId",
          "type": "uint256"
        }
      ],
      "stateMutability": "nonpayable",
      "type": "function"
    },
    {
      "inputs": [
        {
          "internalType": "uint256",
          "name": "_batchId",
          "type": "uint256"
        },
        {
          "internalType": "uint256[8]",
          "name": "proofA",
          "type": "uint256[8]"
        },
        {
          "internalType": "uint256[2]",
          "name": "proofB",
          "type": "uint256[2]"
        },
        {
          "internalType": "uint256[2]",
          "name": "proofC",
          "type": "uint256[2]"
        },
        {
          "internalType": "uint256[1]",
          "name": "publicInputs",
          "type": "uint256[1]"
        }
      ],
      "name": "submitZKProof",
      "outputs": [],
      "stateMutability": "nonpayable",
      "type": "function"
    },
    {
      "inputs": [],
      "name": "totalRecords",
      "outputs": [
        {
          "internalType": "uint256",
          "name": "",
          "type": "uint256"
        }
      ],
      "stateMutability": "view",
      "type": "function"
    },
    {
      "inputs": [
        {
          "internalType": "address",
          "name": "newOwner",
          "type": "address"
        }
      ],
      "name": "transferOwnership",
      "outputs": [],
      "stateMutability": "nonpayable",
      "type": "function"
    },
    {
      "inputs": [
        {
          "internalType": "uint256",
          "name": "fromId",
          "type": "uint256"
        },
        {
          "internalType": "uint256",
          "name": "toId",
          "type": "uint256"
        }
      ],
      "name": "verifyBatchRange",
      "outputs": [
        {
          "internalType": "uint256",
          "name": "validBatches",
          "type": "uint256"
        },
        {
          "internalType": "uint256",
          "name": "totalRecordsInRange",
          "type": "uint256"
        }
      ],
      "stateMutability": "view",
      "type": "function"
    },
    {
      "inputs": [
        {
          "internalType": "uint256",
          "name": "_batchId",
          "type": "uint256"
        },
        {
          "internalType": "uint256",
          "name": "",
          "type": "uint256"
        },
        {
          "internalType": "bytes32",
          "name": "recordHash",
          "type": "bytes32"
        },
        {
          "internalType": "bytes32[]",
          "name": "merkleProof",
          "type": "bytes32[]"
        }
      ],
      "name": "verifyMedicalRecord",
      "outputs": [
        {
          "internalType": "bool",
          "name": "isValid",
          "type": "bool"
        },
        {
          "internalType": "bool",
          "name": "zkPrivacy",
          "type": "bool"
        }
      ],
      "stateMutability": "view",
      "type": "function"
    },
    {
      "inputs": [
        {
          "internalType": "address",
          "name": "patient",
          "type": "address"
        },
        {
          "internalType": "uint256",
          "name": "_batchId",
          "type": "uint256"
        }
      ],
      "name": "verifyPatientRecord",
      "outputs": [
        {
          "internalType": "bool",
          "name": "exists",
          "type": "bool"
        }
      ],
      "stateMutability": "view",
      "type": "function"
    },
    {
      "inputs": [
        {
          "internalType": "uint256",
          "name": "",
          "type": "uint256"
        }
      ],
      "name": "zkProofs",
      "outputs": [
        {
          "internalType": "bytes32",
          "name": "",
          "type": "bytes32"
        }
      ],
      "stateMutability": "view",
      "type": "function"
    }
  ],
  "bytecode": "0x6101606040523461018d57604051610018604082610191565b600c815260208101906b5065646953637265656e414960a01b825260405191610042604084610191565b600183526020830191603160f81b8352331561017a575f8054336001600160a01b0319821681178355916001600160a01b03909116907f8be0079c531659141344cd1fd0a4f28419497f9722a3daafe3b4186f6b6457e09080a3600180556100a9816101c8565b610120526100b684610363565b61014052519020918260e05251902080610100524660a0526040519060208201927f8b73c3c69bb8fe3d512ecc4cf759cc79239f7b179b0ffacaa9a75d522b39400f8452604083015260608201524660808201523060a082015260a0815261011f60c082610191565b5190206080523060c052604051611684908161049c823960805181611430015260a051816114ed015260c051816113fa015260e0518161147f015261010051816114a501526101205181610cd901526101405181610d020152f35b631e4fbdf760e01b5f525f60045260245ffd5b5f80fd5b601f909101601f19168101906001600160401b038211908210176101b457604052565b634e487b7160e01b5f52604160045260245ffd5b908151602081105f14610242575090601f8151116102025760208151910151602082106101f3571790565b5f198260200360031b1b161790565b604460209160405192839163305a27a960e01b83528160048401528051918291826024860152018484015e5f828201840152601f01601f19168101030190fd5b6001600160401b0381116101b457600254600181811c91168015610359575b602082101461034557601f8111610312575b50602092601f82116001146102b157928192935f926102a6575b50508160011b915f199060031b1c19161760025560ff90565b015190505f8061028d565b601f1982169360025f52805f20915f5b8681106102fa57508360019596106102e2575b505050811b0160025560ff90565b01515f1960f88460031b161c191690555f80806102d4565b919260206001819286850151815501940192016102c1565b60025f52601f60205f20910160051c810190601f830160051c015b81811061033a5750610273565b5f815560010161032d565b634e487b7160e01b5f52602260045260245ffd5b90607f1690610261565b908151602081105f1461038e575090601f8151116102025760208151910151602082106101f3571790565b6001600160401b0381116101b457600354600181811c91168015610491575b602082101461034557601f811161045e575b50602092601f82116001146103fd57928192935f926103f2575b50508160011b915f199060031b1c19161760035560ff90565b015190505f806103d9565b601f1982169360035f52805f20915f5b868110610446575083600195961061042e575b505050811b0160035560ff90565b01515f1960f88460031b161c191690555f8080610420565b9192602060018192868501518155019401920161040d565b60035f52601f60205f20910160051c810190601f830160051c015b81811061048657506103bf565b5f8155600101610479565b90607f16906103ad56fe6080806040526004361015610012575f80fd5b5f3560e01c90816306f1305614610f8657508063125f897414610f695780632272115814610f2f578063308238e814610f055780635106902414610c5157806368e2f97914610edb578063715018a614610e845780637cf7ab6c14610db957806384b0196e14610cc15780638da5cb5b14610c9a57806394f0df6114610c51578063b32c4d8d14610bea578063bf80ff9014610afd578063c30619f414610a39578063d139beb014610893578063e218fe5b146101da578063ef45f2ad146101b0578063f0063c16146101765763f2fde38b146100ed575f80fd5b3461017257602036600319011261017257610106610fa0565b61010e611136565b6001600160a01b0316801561015f575f80546001600160a01b03198116831782556001600160a01b0316907f8be0079c531659141344cd1fd0a4f28419497f9722a3daafe3b4186f6b6457e09080a3005b631e4fbdf760e01b5f525f60045260245ffd5b5f80fd5b34610172575f3660031901126101725760206040517f1a5842ebcaa06d3d7f2d17666b89b38239fd008ffe8c8ac9c588bff147be92aa8152f35b34610172576020366003190112610172576004355f52600a602052602060405f2054604051908152f35b34610172576080366003190112610172576004356001600160401b0381116101725736602382011215610172578060040135906001600160401b0382116101725736602460e0840283010111610172576024356001600160401b03811161017257610249903690600401610fda565b6044939193356064356001600160401b0381116101725761026e903690600401610fda565b93906002600154146108845760026001555f546001600160a01b031633036108505760648211610819578382036107e3578482036107af57600895919554926102b68461100a565b6008556040516102c581611039565b81815260208082018981524264ffffffffff90811660408086019182525f6060870181815233608089019081528c835260078852838320985189559551600189015592516002979097018054935195516001600160d01b0319909416979094169690961793151560281b65ff0000000000169390931760309190911b6601000000000000600160d01b03161790556004909152812082905536838103601e1990810195918b9003019290915b898110156107615760e081028301908881101561074d578060051b91828d013586811215610172578d01908135916001600160401b03831161017257602001938260051b36038513610172578c84101561074d5788013589811215610172578801918235926001600160401b0384116101725760208101938036038513610172578c946040519260208401946024870135968787526044810198893563ffffffff81168091036101725760408801526064820197883560ff8116809103610172576060890152608483019361ffff610448866111ef565b1660808a015260a48401359164ffffffffff8316809303610172578260a08b015260e460c486019561ffff61047c886111ef565b1660c08d015201998a356001600160a01b038116908190036101725760e082015260e081526104ad61010082611068565b519020809e845f52600760205260405f20549236906104cb926110c5565b916104d59261115c565b15610711578861ffff898d9382878f9760429a63ffffffff61055461054e6105486105427f51465117d8bb97ebc66abd269014cbae529c117567c571b592b882c3342d11209f60ff9765ffff0000000061053161053c936111cc565b60201b16179e6111ad565b9c6111be565b946111cc565b956111cc565b976111db565b986040519b60208d019d8e5260408d01521660608b01521660808901521660a087015260c08601521660e084015260018060a01b031661010083015261012082015261012081526105a761014082611068565b5190206105b26113f7565b906040519161190160f01b835260028301526022820152206105d38461111b565b916105e16040519384611068565b8483526020853692010111610172575f60208561061296610609968387013784010152611513565b9092919261154d565b5f546001600160a01b039081169116036106d85760408c927fa0e497cac4d4c2193ba0f82e667325bc24fe17b3443069317087efba932b40e3926001985f52600660205284835f2055888060a01b0361066a826111db565b16156106c9576106b16106ab61068160ff936111db565b8b8060a01b031698895f526005602052855f20885f52602052855f208c85198254161790556111ad565b926111be565b63ffffffff845193168352166020820152a401610371565b5060ff6106b16106ab33610681565b60405162461bcd60e51b8152602060048201526011602482015270496e76616c6964207369676e617475726560781b6044820152606490fd5b60405162461bcd60e51b815260206004820152601460248201527324b73b30b634b21026b2b935b63290383937b7b360611b6044820152606490fd5b634e487b7160e01b5f52603260045260245ffd5b602087807ff9706f2706a003bb209661b7a35792a3bac706631a24e6586f7f1ae62e9b5cd56040868f6107968160095461102c565b600955825191825286820152a260018055604051908152f35b60405162461bcd60e51b815260206004820152600c60248201526b0a6d2ce40dad2e6dac2e8c6d60a31b6044820152606490fd5b60405162461bcd60e51b815260206004820152600e60248201526d0a0e4dedecc40dad2e6dac2e8c6d60931b6044820152606490fd5b60405162461bcd60e51b815260206004820152600f60248201526e4d617820313030207265636f72647360881b6044820152606490fd5b60405162461bcd60e51b815260206004820152600c60248201526b4f6e6c7920636c696e69637360a01b6044820152606490fd5b633ee5aeb560e01b5f5260045ffd5b3461017257366003190161012081126101725760e01361017257610104356001600160401b03811161017257366023820112156101725780600401356001600160401b038111610172573660248284010111610172576024359063ffffffff82169182810361017257506044359260ff84169384810361017257506064359161ffff831692838103610172575060843564ffffffffff81168091036101725760a4359361ffff851694858103610172575060c4356001600160a01b0381169687820361017257602098610a2798610609985f968c966042965060405194888601967f51465117d8bb97ebc66abd269014cbae529c117567c571b592b882c3342d1120885260043560408801526060870152608086015260a085015260c084015260e083015261010082015260e43561012082015261012081526109d861014082611068565b5190206109e36113f7565b906040519161190160f01b8352600283015260228201522092806024610a088261111b565b96610a166040519889611068565b828852018387013784010152611513565b6040516001600160a01b039091168152f35b34610172576080366003190112610172576064356004356001600160401b03821161017257610aeb610a716040933690600401610fda565b9092610a806008548210611089565b5f526007602052835f20610ae6855194610a9986611039565b60028354938488526001810154602089015201549564ffffffffff8716888201526080606082019760ff8160281c161515895260018060a01b039060301c169101526044359336916110c5565b61115c565b90511515825191151582526020820152f35b34610172576101c036600319011261017257600435366101241161017257366101641161017257366101a41161017257366101c41161017257610b436008548210611089565b6040516020810190610100602483376040610124610120830137604061016461016083013760206101a46101a08301376101a08152610b846101c082611068565b5190205f828152600a602081815260408084209485556007825292839020600201805465ff0000000000191665010000000000179055908152915490519081527f16e6969bcdec982925a77e501026a158291778f93b23936b97a9ee5368e3bd579190a2005b34610172576020366003190112610172576004355f52600760205260a060405f208054906002600182015491015490604051928352602083015264ffffffffff8116604083015260ff8160281c1615156060830152600180841b039060301c166080820152f35b34610172576040366003190112610172576001600160a01b03610c72610fa0565b165f52600560205260405f206024355f52602052602060ff60405f2054166040519015158152f35b34610172575f366003190112610172575f546040516001600160a01b039091168152602090f35b34610172575f36600319011261017257610d5d610cfd7f00000000000000000000000000000000000000000000000000000000000000006111fe565b610d267f0000000000000000000000000000000000000000000000000000000000000000611327565b6020610d6b60405192610d398385611068565b5f84525f368137604051958695600f60f81b875260e08588015260e0870190610fb6565b908582036040870152610fb6565b4660608501523060808501525f60a085015283810360c08501528180845192838152019301915f5b828110610da257505050500390f35b835185528695509381019392810192600101610d93565b34610172576040366003190112610172576024355f5f916008548111610e3f576004355b818110610df4576040838582519182526020820152f35b805f526007602052600160405f200154610e11575b600101610ddd565b9291610e37610e2160019261100a565b93855f5260076020528260405f2001549061102c565b939050610e09565b60405162461bcd60e51b815260206004820152601860248201527f52616e67652065786365656473206261746368436f756e7400000000000000006044820152606490fd5b34610172575f36600319011261017257610e9c611136565b5f80546001600160a01b0319811682556001600160a01b03167f8be0079c531659141344cd1fd0a4f28419497f9722a3daafe3b4186f6b6457e08280a3005b34610172576020366003190112610172576004355f526004602052602060405f2054604051908152f35b34610172576020366003190112610172576004355f526006602052602060405f2054604051908152f35b34610172575f3660031901126101725760206040517f51465117d8bb97ebc66abd269014cbae529c117567c571b592b882c3342d11208152f35b34610172575f366003190112610172576020600954604051908152f35b34610172575f366003190112610172576020906008548152f35b600435906001600160a01b038216820361017257565b805180835260209291819084018484015e5f828201840152601f01601f1916010190565b9181601f84011215610172578235916001600160401b038311610172576020808501948460051b01011161017257565b5f1981146110185760010190565b634e487b7160e01b5f52601160045260245ffd5b9190820180921161101857565b60a081019081106001600160401b0382111761105457604052565b634e487b7160e01b5f52604160045260245ffd5b90601f801991011681019081106001600160401b0382111761105457604052565b1561109057565b60405162461bcd60e51b815260206004820152600d60248201526c092dcecc2d8d2c840c4c2e8c6d609b1b6044820152606490fd5b929190926001600160401b038411611054578360051b9060208083016110ee6040519182611068565b809681520191810192831161017257905b82821061110b57505050565b81358152602091820191016110ff565b6001600160401b03811161105457601f01601f191660200190565b5f546001600160a01b0316330361114957565b63118cdaa760e01b5f523360045260245ffd5b929091905f915b84518310156111a55760208360051b86010151908181105f14611194575f52602052600160405f205b920191611163565b905f52602052600160405f2061118c565b915092501490565b3563ffffffff811681036101725790565b3560ff811681036101725790565b3561ffff811681036101725790565b356001600160a01b03811681036101725790565b359061ffff8216820361017257565b60ff81146112445760ff811690601f82116112355760405191611222604084611068565b6020808452838101919036833783525290565b632cd44ac360e21b5f5260045ffd5b506040515f6002548060011c916001821691821561131d575b6020841083146113095783855284929081156112ea575060011461128b575b61128892500382611068565b90565b5060025f90815290917f405787fa12a823e0f2b7631cc41b3ba8828b3321ca811111fa75cd3aa3bb5ace5b8183106112ce5750509060206112889282010161127c565b60209193508060019154838588010152019101909183926112b6565b6020925061128894915060ff191682840152151560051b82010161127c565b634e487b7160e01b5f52602260045260245ffd5b92607f169261125d565b60ff811461134b5760ff811690601f82116112355760405191611222604084611068565b506040515f6003548060011c91600182169182156113ed575b6020841083146113095783855284929081156112ea575060011461138e5761128892500382611068565b5060035f90815290917fc2575a0e9e593c00f959f8c92f12db2869c3395a3b0502d05e2516446f71f85b5b8183106113d15750509060206112889282010161127c565b60209193508060019154838588010152019101909183926113b9565b92607f1692611364565b307f00000000000000000000000000000000000000000000000000000000000000006001600160a01b031614806114ea575b15611452577f000000000000000000000000000000000000000000000000000000000000000090565b60405160208101907f8b73c3c69bb8fe3d512ecc4cf759cc79239f7b179b0ffacaa9a75d522b39400f82527f000000000000000000000000000000000000000000000000000000000000000060408201527f000000000000000000000000000000000000000000000000000000000000000060608201524660808201523060a082015260a081526114e460c082611068565b51902090565b507f00000000000000000000000000000000000000000000000000000000000000004614611429565b81519190604183036115435761153c9250602082015190606060408401519301515f1a906115c1565b9192909190565b50505f9160029190565b60048110156115ad578061155f575050565b600181036115765763f645eedf60e01b5f5260045ffd5b60028103611591575063fce698f760e01b5f5260045260245ffd5b60031461159b5750565b6335e2f38360e21b5f5260045260245ffd5b634e487b7160e01b5f52602160045260245ffd5b91907f7fffffffffffffffffffffffffffffff5d576e7357a4501ddfe92f46681b20a08411611643579160209360809260ff5f9560405194855216868401526040830152606082015282805260015afa15611638575f516001600160a01b0381161561162e57905f905f90565b505f906001905f90565b6040513d5f823e3d90fd5b5050505f916003919056fea2646970667358221220c4e1f67b241544cd38db2fd4525bb6d4ff4a9816d13315d80432adb3bbd9545164736f6c634300081b0033",
  "linkReferences": {},
  "deployedLinkReferences": {}
}