{
  "_format": "hh-sol-artifact-1",
  "contractName": "PediScreenPolicy",
  "sourceName": "contracts/PediScreenPolicy.sol",
  "abi": [
    {
      "inputs": [
        {
          "internalType": "address",
          "name": "_usdc",
          "type": "address"
        },
        {
          "internalType": "address",
          "name": "_pediOracle",
          "type": "address"
        }
      ],
      "stateMutability": "nonpayable",
      "type": "constructor"
    },
    {
      "inputs": [],
      "name": "AccessControlBadConfirmation",
      "type": "error"
    },
    {
      "inputs": [
        {
          "internalType": "address",
          "name": "account",
          "type": "address"
        },
        {
          "internalType": "bytes32",
          "name": "neededRole",
          "type": "bytes32"
        }
      ],
      "name": "AccessControlUnauthorizedAccount",
      "type": "error"
    },
    {
      "inputs": [],
      "name": "InvalidPolicy",
      "type": "error"
    },
    {
      "inputs": [],
      "name": "NotClaimsProcessor",
      "type": "error"
    },
    {
      "anonymous": false,
      "inputs": [
        {
          "indexed": true,
          "internalType": "address",
          "name": "processor",
          "type": "address"
        }
      ],
      "name": "ClaimsProcessorSet",
      "type": "event"
    },
    {
      "anonymous": false,
      "inputs": [
        {
          "indexed": true,
          "internalType": "uint256",
          "name": "policyId",
          "type": "uint256"
        }
      ],
      "name": "PolicyClaimed",
      "type": "event"
    },
    {
      "anonymous": false,
      "inputs": [
        {
          "indexed": true,
          "internalType": "uint256",
          "name": "policyId",
          "type": "uint256"
        },
        {
          "indexed": true,
          "internalType": "address",
          "name": "holder",
          "type": "address"
        },
        {
          "indexed": false,
          "internalType": "uint256",
          "name": "coverageAmount",
          "type": "uint256"
        },
        {
          "indexed": false,
          "internalType": "uint256",
          "name": "premiumPaid",
          "type": "uint256"
        },
        {
          "indexed": false,
          "internalType": "uint256",
          "name": "expiry",
          "type": "uint256"
        }
      ],
      "name": "PolicyIssued",
      "type": "event"
    },
    {
      "anonymous": false,
      "inputs": [
        {
          "indexed": true,
          "internalType": "bytes32",
          "name": "role",
          "type": "bytes32"
        },
        {
          "indexed": true,
          "internalType": "bytes32",
          "name": "previousAdminRole",
          "type": "bytes32"
        },
        {
          "indexed": true,
          "internalType": "bytes32",
          "name": "newAdminRole",
          "type": "bytes32"
        }
      ],
      "name": "RoleAdminChanged",
      "type": "event"
    },
    {
      "anonymous": false,
      "inputs": [
        {
          "indexed": true,
          "internalType": "bytes32",
          "name": "role",
          "type": "bytes32"
        },
        {
          "indexed": true,
          "internalType": "address",
          "name": "account",
          "type": "address"
        },
        {
          "indexed": true,
          "internalType": "address",
          "name": "sender",
          "type": "address"
        }
      ],
      "name": "RoleGranted",
      "type": "event"
    },
    {
      "anonymous": false,
      "inputs": [
        {
          "indexed": true,
          "internalType": "bytes32",
          "name": "role",
          "type": "bytes32"
        },
        {
          "indexed": true,
          "internalType": "address",
          "name": "account",
          "type": "address"
        },
        {
          "indexed": true,
          "internalType": "address",
          "name": "sender",
          "type": "address"
        }
      ],
      "name": "RoleRevoked",
      "type": "event"
    },
    {
      "inputs": [],
      "name": "ADMIN_ROLE",
      "outputs": [
        {
          "internalType": "bytes32",
          "name": "",
          "type": "bytes32"
        }
      ],
      "stateMutability": "view",
      "type": "function"
    },
    {
      "inputs": [],
      "name": "DEFAULT_ADMIN_ROLE",
      "outputs": [
        {
          "internalType": "bytes32",
          "name": "",
          "type": "bytes32"
        }
      ],
      "stateMutability": "view",
      "type": "function"
    },
    {
      "inputs": [],
      "name": "UNDERWRITER_ROLE",
      "outputs": [
        {
          "internalType": "bytes32",
          "name": "",
          "type": "bytes32"
        }
      ],
      "stateMutability": "view",
      "type": "function"
    },
    {
      "inputs": [],
      "name": "claimsProcessor",
      "outputs": [
        {
          "internalType": "address",
          "name": "",
          "type": "address"
        }
      ],
      "stateMutability": "view",
      "type": "function"
    },
    {
      "inputs": [
        {
          "internalType": "uint256",
          "name": "_policyId",
          "type": "uint256"
        }
      ],
      "name": "getPolicyCoverage",
      "outputs": [
        {
          "internalType": "uint256",
          "name": "",
          "type": "uint256"
        }
      ],
      "stateMutability": "view",
      "type": "function"
    },
    {
      "inputs": [
        {
          "internalType": "bytes32",
          "name": "role",
          "type": "bytes32"
        }
      ],
      "name": "getRoleAdmin",
      "outputs": [
        {
          "internalType": "bytes32",
          "name": "",
          "type": "bytes32"
        }
      ],
      "stateMutability": "view",
      "type": "function"
    },
    {
      "inputs": [
        {
          "internalType": "bytes32",
          "name": "role",
          "type": "bytes32"
        },
        {
          "internalType": "address",
          "name": "account",
          "type": "address"
        }
      ],
      "name": "grantRole",
      "outputs": [],
      "stateMutability": "nonpayable",
      "type": "function"
    },
    {
      "inputs": [
        {
          "internalType": "bytes32",
          "name": "role",
          "type": "bytes32"
        },
        {
          "internalType": "address",
          "name": "account",
          "type": "address"
        }
      ],
      "name": "hasRole",
      "outputs": [
        {
          "internalType": "bool",
          "name": "",
          "type": "bool"
        }
      ],
      "stateMutability": "view",
      "type": "function"
    },
    {
      "inputs": [
        {
          "internalType": "address",
          "name": "",
          "type": "address"
        },
        {
          "internalType": "uint256",
          "name": "",
          "type": "uint256"
        }
      ],
      "name": "holderPolicies",
      "outputs": [
        {
          "internalType": "uint256",
          "name": "",
          "type": "uint256"
        }
      ],
      "stateMutability": "view",
      "type": "function"
    },
    {
      "inputs": [
        {
          "internalType": "uint256",
          "name": "_policyId",
          "type": "uint256"
        }
      ],
      "name": "isPolicyActive",
      "outputs": [
        {
          "internalType": "bool",
          "name": "",
          "type": "bool"
        }
      ],
      "stateMutability": "view",
      "type": "function"
    },
    {
      "inputs": [
        {
          "internalType": "string",
          "name": "_childIdHash",
          "type": "string"
        },
        {
          "internalType": "uint256",
          "name": "_coverageAmount",
          "type": "uint256"
        },
        {
          "internalType": "uint256",
          "name": "_durationMonths",
          "type": "uint256"
        }
      ],
      "name": "issuePolicy",
      "outputs": [],
      "stateMutability": "nonpayable",
      "type": "function"
    },
    {
      "inputs": [
        {
          "internalType": "uint256",
          "name": "_policyId",
          "type": "uint256"
        }
      ],
      "name": "markClaimed",
      "outputs": [],
      "stateMutability": "nonpayable",
      "type": "function"
    },
    {
      "inputs": [],
      "name": "pediOracle",
      "outputs": [
        {
          "internalType": "contract IPediScreenOracle",
          "name": "",
          "type": "address"
        }
      ],
      "stateMutability": "view",
      "type": "function"
    },
    {
      "inputs": [
        {
          "internalType": "uint256",
          "name": "",
          "type": "uint256"
        }
      ],
      "name": "policies",
      "outputs": [
        {
          "internalType": "uint256",
          "name": "policyId",
          "type": "uint256"
        },
        {
          "internalType": "address",
          "name": "holder",
          "type": "address"
        },
        {
          "internalType": "string",
          "name": "childIdHash",
          "type": "string"
        },
        {
          "internalType": "uint256",
          "name": "coverageAmount",
          "type": "uint256"
        },
        {
          "internalType": "uint256",
          "name": "premiumPaid",
          "type": "uint256"
        },
        {
          "internalType": "uint256",
          "name": "expiry",
          "type": "uint256"
        },
        {
          "internalType": "bool",
          "name": "active",
          "type": "bool"
        },
        {
          "internalType": "bool",
          "name": "claimed",
          "type": "bool"
        }
      ],
      "stateMutability": "view",
      "type": "function"
    },
    {
      "inputs": [],
      "name": "policyCounter",
      "outputs": [
        {
          "internalType": "uint256",
          "name": "",
          "type": "uint256"
        }
      ],
      "stateMutability": "view",
      "type": "function"
    },
    {
      "inputs": [
        {
          "internalType": "uint256",
          "name": "_policyId",
          "type": "uint256"
        }
      ],
      "name": "policyHolder",
      "outputs": [
        {
          "internalType": "address",
          "name": "",
          "type": "address"
        }
      ],
      "stateMutability": "view",
      "type": "function"
    },
    {
      "inputs": [
        {
          "internalType": "bytes32",
          "name": "role",
          "type": "bytes32"
        },
        {
          "internalType": "address",
          "name": "callerConfirmation",
          "type": "address"
        }
      ],
      "name": "renounceRole",
      "outputs": [],
      "stateMutability": "nonpayable",
      "type": "function"
    },
    {
      "inputs": [
        {
          "internalType": "bytes32",
          "name": "role",
          "type": "bytes32"
        },
        {
          "internalType": "address",
          "name": "account",
          "type": "address"
        }
      ],
      "name": "revokeRole",
      "outputs": [],
      "stateMutability": "nonpayable",
      "type": "function"
    },
    {
      "inputs": [
        {
          "internalType": "address",
          "name": "_claimsProcessor",
          "type": "address"
        }
      ],
      "name": "setClaimsProcessor",
      "outputs": [],
      "stateMutability": "nonpayable",
      "type": "function"
    },
    {
      "inputs": [
        {
          "internalType": "bytes4",
          "name": "interfaceId",
          "type": "bytes4"
        }
      ],
      "name": "supportsInterface",
      "outputs": [
        {
          "internalType": "bool",
          "name": "",
          "type": "bool"
        }
      ],
      "stateMutability": "view",
      "type": "function"
    },
    {
      "inputs": [],
      "name": "usdc",
      "outputs": [
        {
          "internalType": "contract IERC20",
          "name": "",
          "type": "address"
        }
      ],
      "stateMutability": "view",
      "type": "function"
    }
  ],
  "bytecode": "0x60c0346100ad57601f61120838819003918201601f19168301916001600160401b038311848410176100b15780849260409485528339810103126100ad57610052602061004b836100c5565b92016100c5565b906001600355610061336100d9565b5061006b3361014f565b506001600160a01b039081166080521660a052604051610fc590816101e3823960805181818161027a01526109a4015260a0518181816101eb01526109380152f35b5f80fd5b634e487b7160e01b5f52604160045260245ffd5b51906001600160a01b03821682036100ad57565b6001600160a01b0381165f9081525f5160206111e85f395f51905f52602052604090205460ff1661014a576001600160a01b03165f8181525f5160206111e85f395f51905f5260205260408120805460ff191660011790553391905f5160206111a85f395f51905f528180a4600190565b505f90565b6001600160a01b0381165f9081525f5160206111c85f395f51905f52602052604090205460ff1661014a576001600160a01b03165f8181525f5160206111c85f395f51905f5260205260408120805460ff191660011790553391907fa49807205ce4d355092ef5a8a18f56e8913cf4a201fbe287825b095693c21775905f5160206111a85f395f51905f529080a460019056fe6080806040526004361015610012575f80fd5b5f3560e01c90816301ffc9a714610c4c575080630914fce614610c1f57806319e77f4014610bea578063248a9ca314610bb85780632f2ff15d14610b7b578063348dee6214610ae257806336568abe14610a9e5780633a8e94f5146109d35780633e413bee1461098f578063536a7e4f1461096757806374074f0b1461092357806375b238fc146108e957806391d14854146108a157806395a4dfd214610849578063a217fddf1461082f578063bd8afa4614610770578063d3e89483146106d1578063d52c1bea146106b4578063d547741f14610670578063dc02de56146101415763f01b571a14610103575f80fd5b3461013d575f36600319011261013d5760206040517ff63acc52fa4ad8a2695e14522f3df504db5c225cdd3d3a5acd3569b4445721878152f35b5f80fd5b3461013d57606036600319011261013d5760043567ffffffffffffffff811161013d573660238201121561013d57806004013567ffffffffffffffff811161049d576040519161019b601f8301601f191660200184610d49565b818352366024838301011161013d57815f92602460209301838601378301015260243560443590604051633374e0d160e01b815260206004820152606081806101e76024820188610e0b565b03817f00000000000000000000000000000000000000000000000000000000000000006001600160a01b03165afa80156105e8575f90610623575b60ff169050600281036105f3575061271061024d8361024861ffff6101f45b1685610e2f565b610e2f565b6040516323b872dd60e01b815233600482015230602482015291900460448201819052906020816064815f7f00000000000000000000000000000000000000000000000000000000000000006001600160a01b03165af19081156105e8575f916105ad575b501561056f5760035462278d0084029380850462278d001490151715610489576102dc8442610e42565b906040516102e981610d2c565b81815260208101923384526040820197885260608201868152608083019086825260a0840192835260c08401956001875260e08501955f87525f52600160205260405f2094518555600185019060018060a01b039051166bffffffffffffffffffffffff60a01b825416179055600284019951998a5167ffffffffffffffff811161049d576103788254610cf4565b601f811161052a575b506020601f82116001146104bc578190600698999a9b9c9d5f926104b1575b50508160011b915f199060031b1c19161790555b516003840155516004830155516005820155019151151560ff8019845416911617825551151561ff0082549160081b169061ff001916179055335f52600260205260405f206003549080546801000000000000000081101561049d5761041f91600182018155610ccb565b819291549060031b91821b915f19901b19161790556104416003549342610e42565b9060405192835260208301526040820152817fd93ca75dcb6254718485f83c72225dcd37a74fd9a134ceed01946cf2e920b83d60603393a35f19811461048957600101600355005b634e487b7160e01b5f52601160045260245ffd5b634e487b7160e01b5f52604160045260245ffd5b015190508d806103a0565b601f1982169c835f52815f209d5f5b81811061050d5750916006999a9b9c9d9e918460019594106104f5575b505050811b0190556103b4565b01515f1960f88460031b161c191690558d80806104e8565b919e8f60016020928684930151815501940192019e91929e6104cb565b825f5260205f20601f830160051c81019160208410610565575b601f0160051c01905b81811061055a5750610381565b5f815560010161054d565b9091508190610544565b60405162461bcd60e51b8152602060048201526016602482015275141c995b5a5d5b481c185e5b595b9d0819985a5b195960521b6044820152606490fd5b90506020813d6020116105e0575b816105c860209383610d49565b8101031261013d5751801515810361013d57856102b2565b3d91506105bb565b6040513d5f823e3d90fd5b60010361060f5761271061024d8361024861ffff61012c610241565b61271061024d8361024861ffff6096610241565b506060813d606011610668575b8161063d60609383610d49565b8101031261013d5780519060ff8216820361013d576020015161ffff81160361013d5760ff90610222565b3d9150610630565b3461013d57604036600319011261013d576106b260043561068f610c9f565b906106ad6106a8825f525f602052600160405f20015490565b610e4f565b610f0f565b005b3461013d575f36600319011261013d576020600354604051908152f35b3461013d57602036600319011261013d576004355f52600160205260405f20805460018060a01b036001830154169160ff61070e60028301610d6b565b60038301549260048101546107476006600584015493015493604051988998895260208901526101006040890152610100880190610e0b565b946060870152608086015260a0850152818116151560c085015260081c16151560e08301520390f35b3461013d57602036600319011261013d576004355f526001602052602060405f2060405161079d81610d2c565b8154815260018201546001600160a01b0316838201526107bf60028301610d6b565b6040820152600382015460608201526004820154608082015260066005830154928360a084015201549160ff8084161515938460c085015260081c16159160e0831591015282610824575b508161081c575b506040519015158152f35b905082610811565b42111591508361080a565b3461013d575f36600319011261013d5760206040515f8152f35b3461013d57604036600319011261013d57610862610cb5565b6001600160a01b03165f9081526002602052604090208054602435919082101561013d5760209161089291610ccb565b90549060031b1c604051908152f35b3461013d57604036600319011261013d576108ba610c9f565b6004355f525f60205260405f209060018060a01b03165f52602052602060ff60405f2054166040519015158152f35b3461013d575f36600319011261013d5760206040517fa49807205ce4d355092ef5a8a18f56e8913cf4a201fbe287825b095693c217758152f35b3461013d575f36600319011261013d576040517f00000000000000000000000000000000000000000000000000000000000000006001600160a01b03168152602090f35b3461013d575f36600319011261013d576004546040516001600160a01b039091168152602090f35b3461013d575f36600319011261013d576040517f00000000000000000000000000000000000000000000000000000000000000006001600160a01b03168152602090f35b3461013d57602036600319011261013d576109ec610cb5565b335f9081527f7d7ffb7a348e1c6a02869081a26547b49160dd3df72d1d75a570eb9b698292ec602052604090205460ff1615610a6757600480546001600160a01b0319166001600160a01b039290921691821790557f1e2c2f2c6cc7d385c09b7075337d189cc2e1fbd3bb8d2d2772a28a20a9a49c455f80a2005b63e2517d3f60e01b5f52336004527fa49807205ce4d355092ef5a8a18f56e8913cf4a201fbe287825b095693c2177560245260445ffd5b3461013d57604036600319011261013d57610ab7610c9f565b336001600160a01b03821603610ad3576106b290600435610f0f565b63334bd91960e11b5f5260045ffd5b3461013d57602036600319011261013d57600480549035906001600160a01b03163303610b6c57805f52600160205260405f205415610b5d57805f526001602052600660405f200161010061ff00198254161790557f9b0b73791f0d79c0dc29e8d76b2a6068c41226b28a7947998fdf6213e6ce22725f80a2005b63d06b96b160e01b5f5260045ffd5b634086e4a960e01b5f5260045ffd5b3461013d57604036600319011261013d576106b2600435610b9a610c9f565b90610bb36106a8825f525f602052600160405f20015490565b610e87565b3461013d57602036600319011261013d576020610be26004355f525f602052600160405f20015490565b604051908152f35b3461013d57602036600319011261013d576004355f526001602052602060018060a01b03600160405f20015416604051908152f35b3461013d57602036600319011261013d576004355f5260016020526020600360405f200154604051908152f35b3461013d57602036600319011261013d576004359063ffffffff60e01b821680920361013d57602091637965db0b60e01b8114908115610c8e575b5015158152f35b6301ffc9a760e01b14905083610c87565b602435906001600160a01b038216820361013d57565b600435906001600160a01b038216820361013d57565b8054821015610ce0575f5260205f2001905f90565b634e487b7160e01b5f52603260045260245ffd5b90600182811c92168015610d22575b6020831014610d0e57565b634e487b7160e01b5f52602260045260245ffd5b91607f1691610d03565b610100810190811067ffffffffffffffff82111761049d57604052565b90601f8019910116810190811067ffffffffffffffff82111761049d57604052565b9060405191825f825492610d7e84610cf4565b8084529360018116908115610de95750600114610da5575b50610da392500383610d49565b565b90505f9291925260205f20905f915b818310610dcd575050906020610da3928201015f610d96565b6020919350806001915483858901015201910190918492610db4565b905060209250610da394915060ff191682840152151560051b8201015f610d96565b805180835260209291819084018484015e5f828201840152601f01601f1916010190565b8181029291811591840414171561048957565b9190820180921161048957565b5f8181526020818152604080832033845290915290205460ff1615610e715750565b63e2517d3f60e01b5f523360045260245260445ffd5b5f818152602081815260408083206001600160a01b038616845290915290205460ff16610f09575f818152602081815260408083206001600160a01b0395909516808452949091528120805460ff19166001179055339291907f2f8788117e7eff1d82e926ec794901d17c78024a50270940304540a733656f0d9080a4600190565b50505f90565b5f818152602081815260408083206001600160a01b038616845290915290205460ff1615610f09575f818152602081815260408083206001600160a01b0395909516808452949091528120805460ff19169055339291907ff6391f5c32d9c69d2a47ea670b442974b53935d1edc7fd64eb21e047a839171b9080a460019056fea26469706673582212201c6832fe9ba7a273f39dc6000dec279225028d28f3ce6a028e167b70b05623f464736f6c634300081b00332f8788117e7eff1d82e926ec794901d17c78024a50270940304540a733656f0d7d7ffb7a348e1c6a02869081a26547b49160dd3df72d1d75a570eb9b698292ecad3228b676f7d3cd4284a5443f17f1962b36e491b30a40b2405849e597ba5fb5",
  "linkReferences": {},
  "deployedLinkReferences": {}
}