{
  "_format": "hh-sol-artifact-1",
  "contractName": "PediScreenMerkleBatches",
  "sourceName": "contracts/PediScreenMerkleBatches.sol",
  "abi": [
    {
      "inputs": [],
      "stateMutability": "nonpayable",
      "type": "constructor"
    },
    {
      "inputs": [
        {
          "internalType": "address",
          "name": "owner",
          "type": "address"
        }
      ],
      "name": "OwnableInvalidOwner",
      "type": "error"
    },
    {
      "inputs": [
        {
          "internalType": "address",
          "name": "account",
          "type": "address"
        }
      ],
      "name": "OwnableUnauthorizedAccount",
      "type": "error"
    },
    {
      "anonymous": false,
      "inputs": [
        {
          "indexed": true,
          "internalType": "uint256",
          "name": "batchId",
          "type": "uint256"
        },
        {
          "indexed": true,
          "internalType": "bytes32",
          "name": "merkleRoot",
          "type": "bytes32"
        },
        {
          "indexed": false,
          "internalType": "uint256",
          "name": "recordCount",
          "type": "uint256"
        }
      ],
      "name": "MedicalBatchSubmitted",
      "type": "event"
    },
    {
      "anonymous": false,
      "inputs": [
        {
          "indexed": true,
          "internalType": "address",
          "name": "previousOwner",
          "type": "address"
        },
        {
          "indexed": true,
          "internalType": "address",
          "name": "newOwner",
          "type": "address"
        }
      ],
      "name": "OwnershipTransferred",
      "type": "event"
    },
    {
      "inputs": [],
      "name": "batchCount",
      "outputs": [
        {
          "internalType": "uint256",
          "name": "",
          "type": "uint256"
        }
      ],
      "stateMutability": "view",
      "type": "function"
    },
    {
      "inputs": [
        {
          "internalType": "uint256",
          "name": "",
          "type": "uint256"
        }
      ],
      "name": "batchRoots",
      "outputs": [
        {
          "internalType": "bytes32",
          "name": "",
          "type": "bytes32"
        }
      ],
      "stateMutability": "view",
      "type": "function"
    },
    {
      "inputs": [
        {
          "internalType": "uint256",
          "name": "batchId",
          "type": "uint256"
        }
      ],
      "name": "getBatchRoot",
      "outputs": [
        {
          "internalType": "bytes32",
          "name": "",
          "type": "bytes32"
        }
      ],
      "stateMutability": "view",
      "type": "function"
    },
    {
      "inputs": [],
      "name": "owner",
      "outputs": [
        {
          "internalType": "address",
          "name": "",
          "type": "address"
        }
      ],
      "stateMutability": "view",
      "type": "function"
    },
    {
      "inputs": [],
      "name": "renounceOwnership",
      "outputs": [],
      "stateMutability": "nonpayable",
      "type": "function"
    },
    {
      "inputs": [
        {
          "internalType": "bytes32[]",
          "name": "hashes",
          "type": "bytes32[]"
        },
        {
          "internalType": "bytes32",
          "name": "merkleRoot",
          "type": "bytes32"
        }
      ],
      "name": "submitMedicalBatch",
      "outputs": [],
      "stateMutability": "nonpayable",
      "type": "function"
    },
    {
      "inputs": [
        {
          "internalType": "address",
          "name": "newOwner",
          "type": "address"
        }
      ],
      "name": "transferOwnership",
      "outputs": [],
      "stateMutability": "nonpayable",
      "type": "function"
    },
    {
      "inputs": [
        {
          "internalType": "uint256",
          "name": "batchId",
          "type": "uint256"
        },
        {
          "internalType": "uint256",
          "name": "index",
          "type": "uint256"
        },
        {
          "internalType": "bytes32",
          "name": "recordHash",
          "type": "bytes32"
        },
        {
          "internalType": "bytes32[]",
          "name": "proof",
          "type": "bytes32[]"
        }
      ],
      "name": "verifyRecord",
      "outputs": [
        {
          "internalType": "bool",
          "name": "",
          "type": "bool"
        }
      ],
      "stateMutability": "view",
      "type": "function"
    }
  ],
  "bytecode": "0x608080604052346071573315605e575f8054336001600160a01b0319821681178355916001600160a01b03909116907f8be0079c531659141344cd1fd0a4f28419497f9722a3daafe3b4186f6b6457e09080a36103f090816100768239f35b631e4fbdf760e01b5f525f60045260245ffd5b5f80fdfe6080806040526004361015610012575f80fd5b5f3560e01c90816306f1305614610349575080635f1928be1461027c57806368e2f97914610101578063715018a61461022557806385b5df51146101525780638da5cb5b1461012b578063e2350d63146101015763f2fde38b14610074575f80fd5b346100fd5760203660031901126100fd576004356001600160a01b038116908190036100fd576100a2610394565b80156100ea575f80546001600160a01b03198116831782556001600160a01b0316907f8be0079c531659141344cd1fd0a4f28419497f9722a3daafe3b4186f6b6457e09080a3005b631e4fbdf760e01b5f525f60045260245ffd5b5f80fd5b346100fd5760203660031901126100fd576004355f526001602052602060405f2054604051908152f35b346100fd575f3660031901126100fd575f546040516001600160a01b039091168152602090f35b346100fd5760403660031901126100fd5760043567ffffffffffffffff81116100fd57610183903690600401610363565b6024359150610190610394565b8015158061021a575b156101e2577fea4b03e90447995e83a7517def24261bbc352b411315b2c72ce2938f6b63a9e3602060025492835f52600182528460405f205560018401600255604051908152a3005b60405162461bcd60e51b815260206004820152601060248201526f042617463682073697a6520312d3130360841b6044820152606490fd5b506064811115610199565b346100fd575f3660031901126100fd5761023d610394565b5f80546001600160a01b0319811682556001600160a01b03167f8be0079c531659141344cd1fd0a4f28419497f9722a3daafe3b4186f6b6457e08280a3005b346100fd5760803660031901126100fd5760643567ffffffffffffffff81116100fd576102ad903690600401610363565b6004355f52600160205260405f2054918215610314575f906044355b83831015610307578260051b820135908181105f146102f6575f52602052600160405f205b9201916102c9565b905f52602052600160405f206102ee565b6020908560405191148152f35b60405162461bcd60e51b815260206004820152600d60248201526c0aadcd6dcdeeedc40c4c2e8c6d609b1b6044820152606490fd5b346100fd575f3660031901126100fd576020906002548152f35b9181601f840112156100fd5782359167ffffffffffffffff83116100fd576020808501948460051b0101116100fd57565b5f546001600160a01b031633036103a757565b63118cdaa760e01b5f523360045260245ffdfea2646970667358221220ad9f0b0122923f31b3bbc12c9a69aba3fc85ae687dcb1723646d5183df260b3364736f6c634300081b0033",
  "linkReferences": {},
  "deployedLinkReferences": {}
}