{
  "_format": "hh-sol-artifact-1",
  "contractName": "PediScreenTreasury",
  "sourceName": "contracts/contracts/PediScreenTreasury.sol",
  "abi": [
    {
      "inputs": [
        {
          "internalType": "address",
          "name": "_usdc",
          "type": "address"
        }
      ],
      "stateMutability": "nonpayable",
      "type": "constructor"
    },
    {
      "inputs": [
        {
          "internalType": "address",
          "name": "owner",
          "type": "address"
        }
      ],
      "name": "OwnableInvalidOwner",
      "type": "error"
    },
    {
      "inputs": [
        {
          "internalType": "address",
          "name": "account",
          "type": "address"
        }
      ],
      "name": "OwnableUnauthorizedAccount",
      "type": "error"
    },
    {
      "inputs": [],
      "name": "ReentrancyGuardReentrantCall",
      "type": "error"
    },
    {
      "anonymous": false,
      "inputs": [
        {
          "indexed": true,
          "internalType": "address",
          "name": "chw",
          "type": "address"
        },
        {
          "indexed": false,
          "internalType": "uint256",
          "name": "amount",
          "type": "uint256"
        },
        {
          "indexed": false,
          "internalType": "uint256",
          "name": "screeningId",
          "type": "uint256"
        }
      ],
      "name": "CHWPayoutExecuted",
      "type": "event"
    },
    {
      "anonymous": false,
      "inputs": [
        {
          "indexed": true,
          "internalType": "address",
          "name": "previousOwner",
          "type": "address"
        },
        {
          "indexed": true,
          "internalType": "address",
          "name": "newOwner",
          "type": "address"
        }
      ],
      "name": "OwnershipTransferred",
      "type": "event"
    },
    {
      "anonymous": false,
      "inputs": [
        {
          "indexed": true,
          "internalType": "address",
          "name": "hub",
          "type": "address"
        }
      ],
      "name": "PaymentHubSet",
      "type": "event"
    },
    {
      "inputs": [
        {
          "internalType": "address",
          "name": "chw",
          "type": "address"
        },
        {
          "internalType": "uint256",
          "name": "amount",
          "type": "uint256"
        },
        {
          "internalType": "uint256",
          "name": "screeningId",
          "type": "uint256"
        }
      ],
      "name": "executeCHWPayout",
      "outputs": [],
      "stateMutability": "nonpayable",
      "type": "function"
    },
    {
      "inputs": [
        {
          "internalType": "uint256",
          "name": "amount",
          "type": "uint256"
        }
      ],
      "name": "fundTreasury",
      "outputs": [],
      "stateMutability": "nonpayable",
      "type": "function"
    },
    {
      "inputs": [],
      "name": "owner",
      "outputs": [
        {
          "internalType": "address",
          "name": "",
          "type": "address"
        }
      ],
      "stateMutability": "view",
      "type": "function"
    },
    {
      "inputs": [],
      "name": "paymentHub",
      "outputs": [
        {
          "internalType": "address",
          "name": "",
          "type": "address"
        }
      ],
      "stateMutability": "view",
      "type": "function"
    },
    {
      "inputs": [],
      "name": "renounceOwnership",
      "outputs": [],
      "stateMutability": "nonpayable",
      "type": "function"
    },
    {
      "inputs": [
        {
          "internalType": "address",
          "name": "_paymentHub",
          "type": "address"
        }
      ],
      "name": "setPaymentHub",
      "outputs": [],
      "stateMutability": "nonpayable",
      "type": "function"
    },
    {
      "inputs": [
        {
          "internalType": "address",
          "name": "newOwner",
          "type": "address"
        }
      ],
      "name": "transferOwnership",
      "outputs": [],
      "stateMutability": "nonpayable",
      "type": "function"
    },
    {
      "inputs": [],
      "name": "usdc",
      "outputs": [
        {
          "internalType": "contract IERC20",
          "name": "",
          "type": "address"
        }
      ],
      "stateMutability": "view",
      "type": "function"
    }
  ],
  "bytecode": "0x60a0346100dc57601f61071638819003918201601f19168301916001600160401b038311848410176100e0578084926020946040528339810103126100dc57516001600160a01b038116908190036100dc5760015f5533156100c95760018054336001600160a01b0319821681179092556040519291906001600160a01b03167f8be0079c531659141344cd1fd0a4f28419497f9722a3daafe3b4186f6b6457e05f80a360805261062190816100f58239608051818181610123015281816102ab01526105310152f35b631e4fbdf760e01b5f525f60045260245ffd5b5f80fd5b634e487b7160e01b5f52604160045260245ffdfe6080806040526004361015610012575f80fd5b5f3560e01c9081633e413bee1461051f57508063715018a6146104c45780638da5cb5b1461049c578063c4e61be214610474578063df7d03a01461025a578063f2fde38b146101d4578063f6471f4b146100de5763fff4da1f14610074575f80fd5b346100da5760203660031901126100da5761008d610560565b6100956105c4565b600280546001600160a01b0319166001600160a01b039290921691821790557fa88643e68beb7dea09ddbfe07f18269f31b603e048c9d1cf921437c8d59db3e55f80a2005b5f80fd5b346100da5760203660031901126100da576100f76105c4565b6040516323b872dd60e01b8152336004808301919091523060248301523560448201526020816064815f7f00000000000000000000000000000000000000000000000000000000000000006001600160a01b03165af19081156101c9575f9161019a575b501561016357005b60405162461bcd60e51b815260206004820152600f60248201526e151c985b9cd9995c8819985a5b1959608a1b6044820152606490fd5b6101bc915060203d6020116101c2575b6101b48183610576565b8101906105ac565b8161015b565b503d6101aa565b6040513d5f823e3d90fd5b346100da5760203660031901126100da576101ed610560565b6101f56105c4565b6001600160a01b0316801561024757600180546001600160a01b0319811683179091556001600160a01b03167f8be0079c531659141344cd1fd0a4f28419497f9722a3daafe3b4186f6b6457e05f80a3005b631e4fbdf760e01b5f525f60045260245ffd5b346100da5760603660031901126100da57610273610560565b6024359060025f54146104655760025f819055546001600160a01b0316330361042d576040516370a0823160e01b81523060048201527f00000000000000000000000000000000000000000000000000000000000000006001600160a01b03169190602081602481865afa80156101c95784915f916103f8575b50106103be576001600160a01b031691821561038b5760205f9260446040518095819363a9059cbb60e01b83528860048401528660248401525af19081156101c9577f4e101ac42396a78b2ec4e47029543ebacf3613c8d2bee42613c19df8372569d79260409261036e575b5081519081526044356020820152a260015f55005b6103869060203d6020116101c2576101b48183610576565b610359565b60405162461bcd60e51b815260206004820152600b60248201526a496e76616c69642043485760a81b6044820152606490fd5b60405162461bcd60e51b8152602060048201526012602482015271496e73756666696369656e742066756e647360701b6044820152606490fd5b9150506020813d602011610425575b8161041460209383610576565b810103126100da57839051856102ed565b3d9150610407565b60405162461bcd60e51b815260206004820152601060248201526f27b7363c903830bcb6b2b73a10343ab160811b6044820152606490fd5b633ee5aeb560e01b5f5260045ffd5b346100da575f3660031901126100da576002546040516001600160a01b039091168152602090f35b346100da575f3660031901126100da576001546040516001600160a01b039091168152602090f35b346100da575f3660031901126100da576104dc6105c4565b600180546001600160a01b031981169091555f906001600160a01b03167f8be0079c531659141344cd1fd0a4f28419497f9722a3daafe3b4186f6b6457e08280a3005b346100da575f3660031901126100da577f00000000000000000000000000000000000000000000000000000000000000006001600160a01b03168152602090f35b600435906001600160a01b03821682036100da57565b90601f8019910116810190811067ffffffffffffffff82111761059857604052565b634e487b7160e01b5f52604160045260245ffd5b908160209103126100da575180151581036100da5790565b6001546001600160a01b031633036105d857565b63118cdaa760e01b5f523360045260245ffdfea26469706673582212201ac33545b8c3a39e5fd9682f19ddec11f1aa5bf30b50c1df14789bdbd62f51d564736f6c634300081b0033",
  "linkReferences": {},
  "deployedLinkReferences": {}
}