{
  "_format": "hh-sol-artifact-1",
  "contractName": "PediScreenClaimsProcessor",
  "sourceName": "contracts/PediScreenClaimsProcessor.sol",
  "abi": [
    {
      "inputs": [
        {
          "internalType": "address",
          "name": "_usdc",
          "type": "address"
        },
        {
          "internalType": "address",
          "name": "_pediOracle",
          "type": "address"
        },
        {
          "internalType": "address",
          "name": "_policyContract",
          "type": "address"
        },
        {
          "internalType": "address",
          "name": "_priceFeed",
          "type": "address"
        }
      ],
      "stateMutability": "nonpayable",
      "type": "constructor"
    },
    {
      "inputs": [],
      "name": "AccessControlBadConfirmation",
      "type": "error"
    },
    {
      "inputs": [
        {
          "internalType": "address",
          "name": "account",
          "type": "address"
        },
        {
          "internalType": "bytes32",
          "name": "neededRole",
          "type": "bytes32"
        }
      ],
      "name": "AccessControlUnauthorizedAccount",
      "type": "error"
    },
    {
      "inputs": [],
      "name": "ContractPaused",
      "type": "error"
    },
    {
      "inputs": [],
      "name": "InsufficientPoolFunds",
      "type": "error"
    },
    {
      "inputs": [],
      "name": "ReentrancyGuardReentrantCall",
      "type": "error"
    },
    {
      "anonymous": false,
      "inputs": [
        {
          "indexed": true,
          "internalType": "uint256",
          "name": "claimId",
          "type": "uint256"
        },
        {
          "indexed": false,
          "internalType": "uint256",
          "name": "payoutAmount",
          "type": "uint256"
        },
        {
          "indexed": false,
          "internalType": "string",
          "name": "screeningHash",
          "type": "string"
        }
      ],
      "name": "ClaimAutoApproved",
      "type": "event"
    },
    {
      "anonymous": false,
      "inputs": [
        {
          "indexed": true,
          "internalType": "uint256",
          "name": "claimId",
          "type": "uint256"
        },
        {
          "indexed": true,
          "internalType": "address",
          "name": "recipient",
          "type": "address"
        },
        {
          "indexed": false,
          "internalType": "uint256",
          "name": "amount",
          "type": "uint256"
        }
      ],
      "name": "ClaimPaid",
      "type": "event"
    },
    {
      "anonymous": false,
      "inputs": [
        {
          "indexed": true,
          "internalType": "uint256",
          "name": "claimId",
          "type": "uint256"
        },
        {
          "indexed": true,
          "internalType": "uint256",
          "name": "policyId",
          "type": "uint256"
        },
        {
          "indexed": false,
          "internalType": "uint8",
          "name": "riskLevel",
          "type": "uint8"
        },
        {
          "indexed": false,
          "internalType": "uint16",
          "name": "confidence",
          "type": "uint16"
        }
      ],
      "name": "ClaimSubmitted",
      "type": "event"
    },
    {
      "anonymous": false,
      "inputs": [
        {
          "indexed": true,
          "internalType": "address",
          "name": "funder",
          "type": "address"
        },
        {
          "indexed": false,
          "internalType": "uint256",
          "name": "amount",
          "type": "uint256"
        }
      ],
      "name": "PoolToppedUp",
      "type": "event"
    },
    {
      "anonymous": false,
      "inputs": [
        {
          "indexed": true,
          "internalType": "bytes32",
          "name": "role",
          "type": "bytes32"
        },
        {
          "indexed": true,
          "internalType": "bytes32",
          "name": "previousAdminRole",
          "type": "bytes32"
        },
        {
          "indexed": true,
          "internalType": "bytes32",
          "name": "newAdminRole",
          "type": "bytes32"
        }
      ],
      "name": "RoleAdminChanged",
      "type": "event"
    },
    {
      "anonymous": false,
      "inputs": [
        {
          "indexed": true,
          "internalType": "bytes32",
          "name": "role",
          "type": "bytes32"
        },
        {
          "indexed": true,
          "internalType": "address",
          "name": "account",
          "type": "address"
        },
        {
          "indexed": true,
          "internalType": "address",
          "name": "sender",
          "type": "address"
        }
      ],
      "name": "RoleGranted",
      "type": "event"
    },
    {
      "anonymous": false,
      "inputs": [
        {
          "indexed": true,
          "internalType": "bytes32",
          "name": "role",
          "type": "bytes32"
        },
        {
          "indexed": true,
          "internalType": "address",
          "name": "account",
          "type": "address"
        },
        {
          "indexed": true,
          "internalType": "address",
          "name": "sender",
          "type": "address"
        }
      ],
      "name": "RoleRevoked",
      "type": "event"
    },
    {
      "inputs": [],
      "name": "ADMIN_ROLE",
      "outputs": [
        {
          "internalType": "bytes32",
          "name": "",
          "type": "bytes32"
        }
      ],
      "stateMutability": "view",
      "type": "function"
    },
    {
      "inputs": [],
      "name": "CHW_ROLE",
      "outputs": [
        {
          "internalType": "bytes32",
          "name": "",
          "type": "bytes32"
        }
      ],
      "stateMutability": "view",
      "type": "function"
    },
    {
      "inputs": [],
      "name": "CLAIM_WINDOW_DAYS",
      "outputs": [
        {
          "internalType": "uint256",
          "name": "",
          "type": "uint256"
        }
      ],
      "stateMutability": "view",
      "type": "function"
    },
    {
      "inputs": [],
      "name": "DEFAULT_ADMIN_ROLE",
      "outputs": [
        {
          "internalType": "bytes32",
          "name": "",
          "type": "bytes32"
        }
      ],
      "stateMutability": "view",
      "type": "function"
    },
    {
      "inputs": [],
      "name": "HIGH_RISK_PAYOUT_BASIS",
      "outputs": [
        {
          "internalType": "uint256",
          "name": "",
          "type": "uint256"
        }
      ],
      "stateMutability": "view",
      "type": "function"
    },
    {
      "inputs": [],
      "name": "LOW_RISK_PAYOUT_BASIS",
      "outputs": [
        {
          "internalType": "uint256",
          "name": "",
          "type": "uint256"
        }
      ],
      "stateMutability": "view",
      "type": "function"
    },
    {
      "inputs": [],
      "name": "MEDIUM_RISK_PAYOUT_BASIS",
      "outputs": [
        {
          "internalType": "uint256",
          "name": "",
          "type": "uint256"
        }
      ],
      "stateMutability": "view",
      "type": "function"
    },
    {
      "inputs": [],
      "name": "MIN_CONFIDENCE",
      "outputs": [
        {
          "internalType": "uint256",
          "name": "",
          "type": "uint256"
        }
      ],
      "stateMutability": "view",
      "type": "function"
    },
    {
      "inputs": [],
      "name": "claimCounter",
      "outputs": [
        {
          "internalType": "uint256",
          "name": "",
          "type": "uint256"
        }
      ],
      "stateMutability": "view",
      "type": "function"
    },
    {
      "inputs": [
        {
          "internalType": "uint256",
          "name": "",
          "type": "uint256"
        }
      ],
      "name": "claims",
      "outputs": [
        {
          "internalType": "uint256",
          "name": "claimId",
          "type": "uint256"
        },
        {
          "internalType": "uint256",
          "name": "policyId",
          "type": "uint256"
        },
        {
          "internalType": "address",
          "name": "claimant",
          "type": "address"
        },
        {
          "internalType": "string",
          "name": "screeningHash",
          "type": "string"
        },
        {
          "internalType": "uint8",
          "name": "riskLevel",
          "type": "uint8"
        },
        {
          "internalType": "uint16",
          "name": "confidence",
          "type": "uint16"
        },
        {
          "internalType": "uint256",
          "name": "requestedAmount",
          "type": "uint256"
        },
        {
          "internalType": "uint256",
          "name": "approvedAmount",
          "type": "uint256"
        },
        {
          "internalType": "uint256",
          "name": "screeningTimestamp",
          "type": "uint256"
        },
        {
          "internalType": "bool",
          "name": "processed",
          "type": "bool"
        },
        {
          "internalType": "bool",
          "name": "paid",
          "type": "bool"
        },
        {
          "internalType": "string",
          "name": "proofIpfs",
          "type": "string"
        }
      ],
      "stateMutability": "view",
      "type": "function"
    },
    {
      "inputs": [
        {
          "internalType": "uint256",
          "name": "_amount",
          "type": "uint256"
        }
      ],
      "name": "emergencyWithdraw",
      "outputs": [],
      "stateMutability": "nonpayable",
      "type": "function"
    },
    {
      "inputs": [
        {
          "internalType": "uint256",
          "name": "_claimId",
          "type": "uint256"
        }
      ],
      "name": "executePendingPayout",
      "outputs": [],
      "stateMutability": "nonpayable",
      "type": "function"
    },
    {
      "inputs": [
        {
          "internalType": "bytes32",
          "name": "role",
          "type": "bytes32"
        }
      ],
      "name": "getRoleAdmin",
      "outputs": [
        {
          "internalType": "bytes32",
          "name": "",
          "type": "bytes32"
        }
      ],
      "stateMutability": "view",
      "type": "function"
    },
    {
      "inputs": [
        {
          "internalType": "bytes32",
          "name": "role",
          "type": "bytes32"
        },
        {
          "internalType": "address",
          "name": "account",
          "type": "address"
        }
      ],
      "name": "grantRole",
      "outputs": [],
      "stateMutability": "nonpayable",
      "type": "function"
    },
    {
      "inputs": [
        {
          "internalType": "bytes32",
          "name": "role",
          "type": "bytes32"
        },
        {
          "internalType": "address",
          "name": "account",
          "type": "address"
        }
      ],
      "name": "hasRole",
      "outputs": [
        {
          "internalType": "bool",
          "name": "",
          "type": "bool"
        }
      ],
      "stateMutability": "view",
      "type": "function"
    },
    {
      "inputs": [],
      "name": "paused",
      "outputs": [
        {
          "internalType": "bool",
          "name": "",
          "type": "bool"
        }
      ],
      "stateMutability": "view",
      "type": "function"
    },
    {
      "inputs": [],
      "name": "pediOracle",
      "outputs": [
        {
          "internalType": "contract IPediScreenOracle",
          "name": "",
          "type": "address"
        }
      ],
      "stateMutability": "view",
      "type": "function"
    },
    {
      "inputs": [
        {
          "internalType": "uint256",
          "name": "",
          "type": "uint256"
        }
      ],
      "name": "policyClaims",
      "outputs": [
        {
          "internalType": "uint256",
          "name": "",
          "type": "uint256"
        }
      ],
      "stateMutability": "view",
      "type": "function"
    },
    {
      "inputs": [],
      "name": "policyContract",
      "outputs": [
        {
          "internalType": "contract PediScreenPolicy",
          "name": "",
          "type": "address"
        }
      ],
      "stateMutability": "view",
      "type": "function"
    },
    {
      "inputs": [],
      "name": "poolBalance",
      "outputs": [
        {
          "internalType": "uint256",
          "name": "",
          "type": "uint256"
        }
      ],
      "stateMutability": "view",
      "type": "function"
    },
    {
      "inputs": [],
      "name": "priceFeed",
      "outputs": [
        {
          "internalType": "contract IAggregatorV3",
          "name": "",
          "type": "address"
        }
      ],
      "stateMutability": "view",
      "type": "function"
    },
    {
      "inputs": [
        {
          "internalType": "bytes32",
          "name": "role",
          "type": "bytes32"
        },
        {
          "internalType": "address",
          "name": "callerConfirmation",
          "type": "address"
        }
      ],
      "name": "renounceRole",
      "outputs": [],
      "stateMutability": "nonpayable",
      "type": "function"
    },
    {
      "inputs": [
        {
          "internalType": "bytes32",
          "name": "role",
          "type": "bytes32"
        },
        {
          "internalType": "address",
          "name": "account",
          "type": "address"
        }
      ],
      "name": "revokeRole",
      "outputs": [],
      "stateMutability": "nonpayable",
      "type": "function"
    },
    {
      "inputs": [
        {
          "internalType": "bool",
          "name": "_paused",
          "type": "bool"
        }
      ],
      "name": "setPaused",
      "outputs": [],
      "stateMutability": "nonpayable",
      "type": "function"
    },
    {
      "inputs": [
        {
          "internalType": "uint256",
          "name": "_policyId",
          "type": "uint256"
        },
        {
          "internalType": "string",
          "name": "_screeningHash",
          "type": "string"
        }
      ],
      "name": "submitAutomatedClaim",
      "outputs": [],
      "stateMutability": "nonpayable",
      "type": "function"
    },
    {
      "inputs": [
        {
          "internalType": "uint256",
          "name": "_policyId",
          "type": "uint256"
        },
        {
          "internalType": "string",
          "name": "_screeningHash",
          "type": "string"
        },
        {
          "internalType": "string",
          "name": "_proofIpfs",
          "type": "string"
        },
        {
          "internalType": "uint256",
          "name": "_requestedAmount",
          "type": "uint256"
        }
      ],
      "name": "submitManualClaim",
      "outputs": [],
      "stateMutability": "nonpayable",
      "type": "function"
    },
    {
      "inputs": [
        {
          "internalType": "bytes4",
          "name": "interfaceId",
          "type": "bytes4"
        }
      ],
      "name": "supportsInterface",
      "outputs": [
        {
          "internalType": "bool",
          "name": "",
          "type": "bool"
        }
      ],
      "stateMutability": "view",
      "type": "function"
    },
    {
      "inputs": [
        {
          "internalType": "uint256",
          "name": "_amount",
          "type": "uint256"
        }
      ],
      "name": "topUpPool",
      "outputs": [],
      "stateMutability": "nonpayable",
      "type": "function"
    },
    {
      "inputs": [],
      "name": "usdc",
      "outputs": [
        {
          "internalType": "contract IERC20",
          "name": "",
          "type": "address"
        }
      ],
      "stateMutability": "view",
      "type": "function"
    }
  ],
  "bytecode": "0x6101003461010d57601f61201b38819003918201601f19168301916001600160401b038311848410176101115780849260809460405283398101031261010d5761004881610125565b9061005560208201610125565b61006d606061006660408501610125565b9301610125565b9260015f55600160045561008033610139565b5061008a336101af565b506001600160a01b0390811660805290811660a05290811660c0521660e052604051611d789081610243823960805181818161135701528181611442015281816115830152611c03015260a05181818161049901526105ce015260c0518181816103d70152818161052201528181610e420152611b6f015260e051816104550152f35b5f80fd5b634e487b7160e01b5f52604160045260245ffd5b51906001600160a01b038216820361010d57565b6001600160a01b0381165f9081525f516020611fdb5f395f51905f52602052604090205460ff166101aa576001600160a01b03165f8181525f516020611fdb5f395f51905f5260205260408120805460ff191660011790553391905f516020611fbb5f395f51905f528180a4600190565b505f90565b6001600160a01b0381165f9081525f516020611ffb5f395f51905f52602052604090205460ff166101aa576001600160a01b03165f8181525f516020611ffb5f395f51905f5260205260408120805460ff191660011790553391907fa49807205ce4d355092ef5a8a18f56e8913cf4a201fbe287825b095693c21775905f516020611fbb5f395f51905f529080a460019056fe6080806040526004361015610012575f80fd5b5f3560e01c90816301ffc9a7146116915750806316c38b3c146116595780631db34be814611534578063248a9ca3146115015780632f2ff15d146114d157806334ac6fbe146114a757806336568abe146114715780633e413bee1461142d57806341f93757146114115780634efa8f17146113f45780635312ea8e146113105780635c975abb146112ee5780635e3c253c14610d9457806362b13dee14610d785780636adb16af146104c857806374074f0b14610484578063741bef1a1461044057806375b238fc146104065780637ff06357146103c257806391d1485414610386578063934d80fd1461034357806396365d4414610326578063a217fddf1461030c578063a888c2cd14610225578063a88ba9c714610209578063b93d3124146101cf578063cbc78a6e146101b3578063cd37e6e8146101965763d547741f1461015b575f80fd5b346101925761019061016c366116e4565b9061018b610186825f526001602052600160405f20015490565b6119ae565b611a92565b005b5f80fd5b34610192575f36600319011261019257602060405162278d008152f35b34610192575f366003190112610192576020604051611d4c8152f35b34610192575f3660031901126101925760206040517f9efc0a7fafb21c086158c5f7dcd98228d1a5084171f592f282dee4bd9c546fa68152f35b34610192575f3660031901126101925760206040516109c48152f35b34610192576020366003190112610192576004355f526002602052602060405f20610308815491600181015460ff60018060a01b036002840154169261026d600382016117e3565b93600482015494600583015461ffff6102c160068601549360078701549561029c600960088a015499016117e3565b996040519e8f9e8f908152015260408d015261018060608d01526101808c0190611883565b9786811660808c015260081c1660a08a015260c089015260e0880152610100870152818116151561012087015260081c161515610140850152838203610160850152611883565b0390f35b34610192575f3660031901126101925760206040515f8152f35b34610192575f366003190112610192576020600554604051908152f35b346101925760203660031901126101925761035c6119e8565b60ff6006541661037757610371600435611b16565b60015f55005b63ab35696f60e01b5f5260045ffd5b3461019257610394366116e4565b905f52600160205260405f209060018060a01b03165f52602052602060ff60405f2054166040519015158152f35b34610192575f366003190112610192576040517f00000000000000000000000000000000000000000000000000000000000000006001600160a01b03168152602090f35b34610192575f3660031901126101925760206040517fa49807205ce4d355092ef5a8a18f56e8913cf4a201fbe287825b095693c217758152f35b34610192575f366003190112610192576040517f00000000000000000000000000000000000000000000000000000000000000006001600160a01b03168152602090f35b34610192575f366003190112610192576040517f00000000000000000000000000000000000000000000000000000000000000006001600160a01b03168152602090f35b346101925760403660031901126101925760243567ffffffffffffffff8111610192576104f9903690600401611765565b6105016119e8565b60ff6006541661037757604051635ec57d2360e11b815260048035908201527f00000000000000000000000000000000000000000000000000000000000000006001600160a01b031690602081602481855afa908115610b4d575f91610d49575b5015610d045760405162679dfd60e61b81526004803590820152602081602481855afa908115610b4d575f91610cd5575b50336001600160a01b0390911603610c9c57604051630105ee9f60e21b815260206004820152905f82806105ca6024820187611883565b03817f00000000000000000000000000000000000000000000000000000000000000006001600160a01b03165afa928315610b4d575f5f935f95610c0f575b50611b5861ffff851610610bd25762278d008501808611610ae8574211610b96576004355f52600360205260405f2054610b585760206024936040519485809263048a7e7360e11b825260043560048301525afa928315610b4d575f93610b19575b5060ff8116600203610afc57612710925b838102938185041481151715610ae857600454956040519161069d8361170a565b878352600435602084015233604084015284606084015260ff8416608084015261ffff871660a084015260c0830152612710850460e083015261010082015260016101208201525f6101408201526020956040516106fb8882611727565b5f81526101608301525f526002865260405f2081518155602082015160018201556002810160018060a01b036040840151166bffffffffffffffffffffffff60a01b825416179055606082015180519067ffffffffffffffff8211610a165761076760038401546117ab565b601f8111610aa6575b508890601f8311600114610a3557918061016094926009945f92610a2a575b50508160011b915f199060031b1c19161760038201555b6004810160ff60808601511681549062ffff0060a088015160081b169162ffffff19161717905560c0840151600582015560e08401516006820155610100840151600782015561082c600882016108106101208701511515829060ff801983541691151516179055565b610140860151815461ff00191690151560081b61ff0016179055565b0191015180519067ffffffffffffffff8211610a165761084c83546117ab565b601f81116109d3575b508790601f831160011461093c5761091d986127109561ffff99989585610915967f29bb37d95a8315d4158c5716799b458d15dd8bd21e3989ccff222b4d65c9cea29a966040965f92610931575b50508160011b915f199060031b1c19161790555b600454998a996004355f52600384528a855f205560ff8551931683521682820152887f2d4b0e2a930285b8bac6c67cf25902769620d0edc4408c107204b800fc345b698460043593a381519586950485528401526040830190611883565b0390a2611b16565b6109286004546118eb565b60045560015f55005b015190508e806108a3565b90601f19831691845f52895f20925f5b8181106109bc57509561ffff9998956001867f29bb37d95a8315d4158c5716799b458d15dd8bd21e3989ccff222b4d65c9cea29a9660409661091d9f966109159a6127109d106109a4575b505050811b0190556108b7565b01515f1960f88460031b161c191690558e8080610997565b92938b60018192878601518155019501930161094c565b835f52885f20601f840160051c8101918a8510610a0c575b601f0160051c01905b818110610a015750610855565b5f81556001016109f4565b90915081906109eb565b634e487b7160e01b5f52604160045260245ffd5b015190508b8061078f565b90600384015f52895f20915f5b8b601f1986168210610a9057505092610160949260019260099583601f19811610610a78575b505050811b0160038201556107a6565b01515f1960f88460031b161c191690558b8080610a68565b6001849582939585015181550194019201610a42565b600384015f52895f20601f840160051c81018b8510610ae1575b601f830160051c82018110610ad6575050610770565b5f8155600101610ac0565b5080610ac0565b634e487b7160e01b5f52601160045260245ffd5b60ff8116600103610b1157611d4c5b9261067c565b6109c4610b0b565b9092506020813d602011610b45575b81610b3560209383611727565b810103126101925751918561066b565b3d9150610b28565b6040513d5f823e3d90fd5b60405162461bcd60e51b8152602060048201526016602482015275141bdb1a58de48185b1c9958591e4818db185a5b595960521b6044820152606490fd5b60405162461bcd60e51b815260206004820152601460248201527310db185a5b481dda5b991bddc8195e1c1a5c995960621b6044820152606490fd5b60405162461bcd60e51b8152602060048201526015602482015274414920636f6e666964656e636520746f6f206c6f7760581b6044820152606490fd5b94505091503d805f853e610c238185611727565b83019160a08484031261019257835160ff811681036101925760208501519461ffff8616860361019257604081015194606082015167ffffffffffffffff81116101925781610c739184016118f9565b50608082015167ffffffffffffffff811161019257610c9292016118f9565b5093929385610609565b60405162461bcd60e51b81526020600482015260116024820152702737ba103837b634b1bc903437b63232b960791b6044820152606490fd5b610cf7915060203d602011610cfd575b610cef8183611727565b8101906118cc565b83610593565b503d610ce5565b60405162461bcd60e51b815260206004820152601a60248201527f496e76616c6964206f7220696e61637469766520706f6c6963790000000000006044820152606490fd5b610d6b915060203d602011610d71575b610d638183611727565b8101906118a7565b83610562565b503d610d59565b34610192575f3660031901126101925760206040516127108152f35b346101925760803660031901126101925760043560243567ffffffffffffffff811161019257610dc8903690600401611765565b9060443567ffffffffffffffff811161019257610de9903690600401611765565b335f9081527f64ecd67d2cb00a8fa5b5de3142ba3d5856cd6dd0b1cd0c464fdf61b30ac53a5c602052604090205490929060ff16156112b75760ff6006541661037757604051635ec57d2360e11b8152600481018390527f00000000000000000000000000000000000000000000000000000000000000006001600160a01b03169190602081602481865afa908115610b4d575f91611298575b5015611261576024916020600454916040519485809262679dfd60e61b82528860048301525afa928315610b4d575f93611240575b5060405192610ec68461170a565b8184526020840192858452604085019160018060a01b0316825260608501908152608085015f815260a08601905f825260c0870191606435835260e08801935f85526101008901954287526101208a01985f8a526101408b01985f8a526101608c019d8e525f52600260205260405f209a518b555160018b015560028a019060018060a01b039051166bffffffffffffffffffffffff60a01b82541617905560038901905180519067ffffffffffffffff8211610a1657610f8783546117ab565b601f81116111fb575b50602090601f831160011461118a5791806110329a9896949260099d9c9a9896945f9261117f575b50508160011b915f199060031b1c19161790555b60ff60048a0192511662ffff008354925160081b169162ffffff19161717905551600587015551600686015551600785015561101b6008850192511515839060ff801983541691151516179055565b51815461ff00191690151560081b61ff0016179055565b0191519182519267ffffffffffffffff8411610a165761105282546117ab565b601f811161113a575b50602090601f85116001146110d4576110c494915f91836110c9575b50508160011b915f199060031b1c19161790555b60045490817f2d4b0e2a930285b8bac6c67cf25902769620d0edc4408c107204b800fc345b69604080515f81525f6020820152a36118eb565b600455005b015190508580611077565b90601f19851691835f52815f20925f5b81811061112257509160019391876110c498941061110a575b505050811b01905561108b565b01515f1960f88460031b161c191690558580806110fd565b929360206001819287860151815501950193016110e4565b825f5260205f20601f860160051c81019160208710611175575b601f0160051c01905b81811061116a575061105b565b5f815560010161115d565b9091508190611154565b015190508f80610fb8565b90601f19831691845f52815f20925f5b8181106111e3575092600192859260099f9e9c9a98966110329e9c9a9896106111cb575b505050811b019055610fcc565b01515f1960f88460031b161c191690558f80806111be565b9293602060018192878601518155019501930161119a565b835f5260205f20601f840160051c81019160208510611236575b601f0160051c01905b81811061122b5750610f90565b5f815560010161121e565b9091508190611215565b61125a91935060203d602011610cfd57610cef8183611727565b9185610eb8565b60405162461bcd60e51b815260206004820152600f60248201526e496e61637469766520706f6c69637960881b6044820152606490fd5b6112b1915060203d602011610d7157610d638183611727565b85610e83565b63e2517d3f60e01b5f52336004527f9efc0a7fafb21c086158c5f7dcd98228d1a5084171f592f282dee4bd9c546fa660245260445ffd5b34610192575f36600319011261019257602060ff600654166040519015158152f35b346101925760203660031901126101925760043561132c61193f565b60405163a9059cbb60e01b8152336004820152602481018290526020816044815f6001600160a01b037f0000000000000000000000000000000000000000000000000000000000000000165af1908115610b4d575f916113d5575b501561139e57611399906005546118bf565b600555005b60405162461bcd60e51b815260206004820152600f60248201526e15da5d1a191c985dc819985a5b1959608a1b6044820152606490fd5b6113ee915060203d602011610d7157610d638183611727565b82611387565b34610192575f366003190112610192576020600454604051908152f35b34610192575f366003190112610192576020604051611b588152f35b34610192575f366003190112610192576040517f00000000000000000000000000000000000000000000000000000000000000006001600160a01b03168152602090f35b346101925761147f366116e4565b336001600160a01b038216036114985761019091611a92565b63334bd91960e11b5f5260045ffd5b34610192576020366003190112610192576004355f526003602052602060405f2054604051908152f35b34610192576101906114e2366116e4565b906114fc610186825f526001602052600160405f20015490565b611a06565b3461019257602036600319011261019257602061152c6004355f526001602052600160405f20015490565b604051908152f35b34610192576020366003190112610192576004356115506119e8565b60ff60065416610377576040516323b872dd60e01b8152336004820152306024820152604481018290526020816064815f7f00000000000000000000000000000000000000000000000000000000000000006001600160a01b03165af1908115610b4d575f9161163a575b501561160357600554818101809111610ae8576005556040519081527f1af7da014a17ee00b70f5a5c1b333ccaa59a5bd9fcf6ba8dc5e1e636fc099c7460203392a260015f55005b60405162461bcd60e51b815260206004820152600f60248201526e151c985b9cd9995c8819985a5b1959608a1b6044820152606490fd5b611653915060203d602011610d7157610d638183611727565b826115bb565b34610192576020366003190112610192576004358015158091036101925761167f61193f565b60ff8019600654169116176006555f80f35b34610192576020366003190112610192576004359063ffffffff60e01b821680920361019257602091637965db0b60e01b81149081156116d3575b5015158152f35b6301ffc9a760e01b149050836116cc565b604090600319011261019257600435906024356001600160a01b03811681036101925790565b610180810190811067ffffffffffffffff821117610a1657604052565b90601f8019910116810190811067ffffffffffffffff821117610a1657604052565b67ffffffffffffffff8111610a1657601f01601f191660200190565b81601f820112156101925780359061177c82611749565b9261178a6040519485611727565b8284526020838301011161019257815f926020809301838601378301015290565b90600182811c921680156117d9575b60208310146117c557565b634e487b7160e01b5f52602260045260245ffd5b91607f16916117ba565b9060405191825f8254926117f6846117ab565b8084529360018116908115611861575060011461181d575b5061181b92500383611727565b565b90505f9291925260205f20905f915b81831061184557505090602061181b928201015f61180e565b602091935080600191548385890101520191019091849261182c565b90506020925061181b94915060ff191682840152151560051b8201015f61180e565b805180835260209291819084018484015e5f828201840152601f01601f1916010190565b90816020910312610192575180151581036101925790565b91908203918211610ae857565b9081602091031261019257516001600160a01b03811681036101925790565b5f198114610ae85760010190565b81601f820112156101925780519061191082611749565b9261191e6040519485611727565b8284526020838301011161019257815f9260208093018386015e8301015290565b335f9081527f50efbde2d46c37e9785f1791697f77e94bb7b701e19f1930a668820722d37694602052604090205460ff161561197757565b63e2517d3f60e01b5f52336004527fa49807205ce4d355092ef5a8a18f56e8913cf4a201fbe287825b095693c2177560245260445ffd5b5f81815260016020908152604080832033845290915290205460ff16156119d25750565b63e2517d3f60e01b5f523360045260245260445ffd5b60025f54146119f75760025f55565b633ee5aeb560e01b5f5260045ffd5b5f8181526001602090815260408083206001600160a01b038616845290915290205460ff16611a8c575f8181526001602081815260408084206001600160a01b0396909616808552959091528220805460ff19169091179055339291907f2f8788117e7eff1d82e926ec794901d17c78024a50270940304540a733656f0d9080a4600190565b50505f90565b5f8181526001602090815260408083206001600160a01b038616845290915290205460ff1615611a8c575f8181526001602090815260408083206001600160a01b0395909516808452949091528120805460ff19169055339291907ff6391f5c32d9c69d2a47ea670b442974b53935d1edc7fd64eb21e047a839171b9080a4600190565b5f90805f52600260205260405f20916008830192835460ff81169081611d33575b5015611cf8576005549360068201948554808210611cef57611b58916118bf565b600555805461ff00191661010017905560018101547f00000000000000000000000000000000000000000000000000000000000000006001600160a01b031690813b15610192575f91602483926040519485938492631a46f73160e11b845260048401525af18015610b4d57611cd9575b506002018054845460405163a9059cbb60e01b81526001600160a01b039092166004830152602482015290919060208180604481010381857f00000000000000000000000000000000000000000000000000000000000000006001600160a01b03165af1918215611ccd5791611cae575b5015611c795760207faf3c8fdd75d667f71d36d7840b8ef9086c516c9b047ad6a83a5a66151342123a9160018060a01b039054169354604051908152a3565b60405162461bcd60e51b815260206004820152600d60248201526c14185e5bdd5d0819985a5b1959609a1b6044820152606490fd5b611cc7915060203d602011610d7157610d638183611727565b5f611c3a565b604051903d90823e3d90fd5b611ce69192505f90611727565b5f906002611bc9565b50505050505050565b60405162461bcd60e51b8152602060048201526013602482015272496e76616c696420636c61696d20737461746560681b6044820152606490fd5b60ff915060081c16155f611b3756fea26469706673582212206701090dfefae2a4a75336b1482ed92e36f79e950c734db550b70b21ebea294064736f6c634300081b00332f8788117e7eff1d82e926ec794901d17c78024a50270940304540a733656f0da6eef7e35abe7026729641147f7915573c7e97b47efa546f5f6e3230263bcb4950efbde2d46c37e9785f1791697f77e94bb7b701e19f1930a668820722d37694",
  "linkReferences": {},
  "deployedLinkReferences": {}
}