{
  "_format": "hh-sol-artifact-1",
  "contractName": "PediScreenMultiChannelMaster",
  "sourceName": "contracts/PediScreenMultiChannelMaster.sol",
  "abi": [
    {
      "inputs": [
        {
          "internalType": "address",
          "name": "_usdc",
          "type": "address"
        }
      ],
      "stateMutability": "nonpayable",
      "type": "constructor"
    },
    {
      "inputs": [],
      "name": "ECDSAInvalidSignature",
      "type": "error"
    },
    {
      "inputs": [
        {
          "internalType": "uint256",
          "name": "length",
          "type": "uint256"
        }
      ],
      "name": "ECDSAInvalidSignatureLength",
      "type": "error"
    },
    {
      "inputs": [
        {
          "internalType": "bytes32",
          "name": "s",
          "type": "bytes32"
        }
      ],
      "name": "ECDSAInvalidSignatureS",
      "type": "error"
    },
    {
      "inputs": [],
      "name": "InsufficientBalance",
      "type": "error"
    },
    {
      "inputs": [],
      "name": "InvalidChannel",
      "type": "error"
    },
    {
      "inputs": [],
      "name": "InvalidSignature",
      "type": "error"
    },
    {
      "inputs": [],
      "name": "NoBalance",
      "type": "error"
    },
    {
      "inputs": [],
      "name": "OnlyCHW",
      "type": "error"
    },
    {
      "inputs": [
        {
          "internalType": "address",
          "name": "owner",
          "type": "address"
        }
      ],
      "name": "OwnableInvalidOwner",
      "type": "error"
    },
    {
      "inputs": [
        {
          "internalType": "address",
          "name": "account",
          "type": "address"
        }
      ],
      "name": "OwnableUnauthorizedAccount",
      "type": "error"
    },
    {
      "inputs": [],
      "name": "ReplaySignature",
      "type": "error"
    },
    {
      "inputs": [],
      "name": "TransferFailed",
      "type": "error"
    },
    {
      "inputs": [],
      "name": "UnsupportedCurrency",
      "type": "error"
    },
    {
      "anonymous": false,
      "inputs": [
        {
          "indexed": true,
          "internalType": "bytes32",
          "name": "channelId",
          "type": "bytes32"
        },
        {
          "indexed": true,
          "internalType": "address",
          "name": "chw",
          "type": "address"
        },
        {
          "indexed": false,
          "internalType": "string",
          "name": "currency",
          "type": "string"
        },
        {
          "indexed": false,
          "internalType": "uint256",
          "name": "localAmount",
          "type": "uint256"
        },
        {
          "indexed": false,
          "internalType": "uint256",
          "name": "usdEquivalent",
          "type": "uint256"
        }
      ],
      "name": "ChannelCreated",
      "type": "event"
    },
    {
      "anonymous": false,
      "inputs": [
        {
          "indexed": true,
          "internalType": "bytes32",
          "name": "channelId",
          "type": "bytes32"
        },
        {
          "indexed": false,
          "internalType": "string",
          "name": "currency",
          "type": "string"
        },
        {
          "indexed": false,
          "internalType": "uint256",
          "name": "localAmount",
          "type": "uint256"
        }
      ],
      "name": "ChannelFunded",
      "type": "event"
    },
    {
      "anonymous": false,
      "inputs": [
        {
          "indexed": true,
          "internalType": "bytes32",
          "name": "channelId",
          "type": "bytes32"
        },
        {
          "indexed": false,
          "internalType": "address",
          "name": "to",
          "type": "address"
        },
        {
          "indexed": false,
          "internalType": "uint256",
          "name": "amount",
          "type": "uint256"
        }
      ],
      "name": "ChannelWithdrawn",
      "type": "event"
    },
    {
      "anonymous": false,
      "inputs": [
        {
          "indexed": false,
          "internalType": "string",
          "name": "currency",
          "type": "string"
        },
        {
          "indexed": false,
          "internalType": "uint256",
          "name": "rate",
          "type": "uint256"
        }
      ],
      "name": "CurrencyRateUpdated",
      "type": "event"
    },
    {
      "anonymous": false,
      "inputs": [
        {
          "indexed": false,
          "internalType": "string",
          "name": "currency",
          "type": "string"
        },
        {
          "indexed": false,
          "internalType": "address",
          "name": "token",
          "type": "address"
        }
      ],
      "name": "LocalTokenSet",
      "type": "event"
    },
    {
      "anonymous": false,
      "inputs": [
        {
          "indexed": true,
          "internalType": "address",
          "name": "previousOwner",
          "type": "address"
        },
        {
          "indexed": true,
          "internalType": "address",
          "name": "newOwner",
          "type": "address"
        }
      ],
      "name": "OwnershipTransferred",
      "type": "event"
    },
    {
      "anonymous": false,
      "inputs": [
        {
          "indexed": true,
          "internalType": "bytes32",
          "name": "channelId",
          "type": "bytes32"
        },
        {
          "indexed": false,
          "internalType": "uint256",
          "name": "localPayment",
          "type": "uint256"
        },
        {
          "indexed": false,
          "internalType": "uint256",
          "name": "usdPayment",
          "type": "uint256"
        },
        {
          "indexed": false,
          "internalType": "uint256",
          "name": "newNonce",
          "type": "uint256"
        }
      ],
      "name": "PaymentCredited",
      "type": "event"
    },
    {
      "inputs": [],
      "name": "PAYMENT_USD",
      "outputs": [
        {
          "internalType": "uint256",
          "name": "",
          "type": "uint256"
        }
      ],
      "stateMutability": "view",
      "type": "function"
    },
    {
      "inputs": [],
      "name": "RATE_DECIMALS",
      "outputs": [
        {
          "internalType": "uint256",
          "name": "",
          "type": "uint256"
        }
      ],
      "stateMutability": "view",
      "type": "function"
    },
    {
      "inputs": [
        {
          "internalType": "bytes32",
          "name": "channelId",
          "type": "bytes32"
        },
        {
          "internalType": "uint256",
          "name": "usdAmount",
          "type": "uint256"
        }
      ],
      "name": "addToChannel",
      "outputs": [],
      "stateMutability": "nonpayable",
      "type": "function"
    },
    {
      "inputs": [],
      "name": "channelNonce",
      "outputs": [
        {
          "internalType": "uint256",
          "name": "",
          "type": "uint256"
        }
      ],
      "stateMutability": "view",
      "type": "function"
    },
    {
      "inputs": [
        {
          "internalType": "bytes32",
          "name": "",
          "type": "bytes32"
        }
      ],
      "name": "channels",
      "outputs": [
        {
          "internalType": "address",
          "name": "chw",
          "type": "address"
        },
        {
          "internalType": "string",
          "name": "currency",
          "type": "string"
        },
        {
          "internalType": "uint256",
          "name": "balance",
          "type": "uint256"
        },
        {
          "internalType": "uint256",
          "name": "usdEquivalent",
          "type": "uint256"
        },
        {
          "internalType": "uint256",
          "name": "nonce",
          "type": "uint256"
        },
        {
          "internalType": "bool",
          "name": "active",
          "type": "bool"
        }
      ],
      "stateMutability": "view",
      "type": "function"
    },
    {
      "inputs": [
        {
          "internalType": "bytes32",
          "name": "channelId",
          "type": "bytes32"
        },
        {
          "internalType": "uint256",
          "name": "screenings",
          "type": "uint256"
        },
        {
          "internalType": "bytes",
          "name": "signature",
          "type": "bytes"
        }
      ],
      "name": "creditScreening",
      "outputs": [],
      "stateMutability": "nonpayable",
      "type": "function"
    },
    {
      "inputs": [
        {
          "internalType": "string",
          "name": "",
          "type": "string"
        }
      ],
      "name": "currencyRates",
      "outputs": [
        {
          "internalType": "uint256",
          "name": "",
          "type": "uint256"
        }
      ],
      "stateMutability": "view",
      "type": "function"
    },
    {
      "inputs": [
        {
          "internalType": "address",
          "name": "chw",
          "type": "address"
        },
        {
          "internalType": "string",
          "name": "currency",
          "type": "string"
        },
        {
          "internalType": "uint256",
          "name": "usdAmount",
          "type": "uint256"
        }
      ],
      "name": "fundChannel",
      "outputs": [
        {
          "internalType": "bytes32",
          "name": "channelId",
          "type": "bytes32"
        }
      ],
      "stateMutability": "nonpayable",
      "type": "function"
    },
    {
      "inputs": [
        {
          "internalType": "bytes32",
          "name": "channelId",
          "type": "bytes32"
        }
      ],
      "name": "getChannel",
      "outputs": [
        {
          "internalType": "address",
          "name": "chw",
          "type": "address"
        },
        {
          "internalType": "string",
          "name": "currency",
          "type": "string"
        },
        {
          "internalType": "uint256",
          "name": "balance",
          "type": "uint256"
        },
        {
          "internalType": "uint256",
          "name": "usdEquivalent",
          "type": "uint256"
        },
        {
          "internalType": "uint256",
          "name": "nonce",
          "type": "uint256"
        },
        {
          "internalType": "bool",
          "name": "active",
          "type": "bool"
        }
      ],
      "stateMutability": "view",
      "type": "function"
    },
    {
      "inputs": [
        {
          "internalType": "string",
          "name": "currency",
          "type": "string"
        }
      ],
      "name": "getRate",
      "outputs": [
        {
          "internalType": "uint256",
          "name": "",
          "type": "uint256"
        }
      ],
      "stateMutability": "view",
      "type": "function"
    },
    {
      "inputs": [
        {
          "internalType": "string",
          "name": "",
          "type": "string"
        }
      ],
      "name": "localTokens",
      "outputs": [
        {
          "internalType": "address",
          "name": "",
          "type": "address"
        }
      ],
      "stateMutability": "view",
      "type": "function"
    },
    {
      "inputs": [],
      "name": "owner",
      "outputs": [
        {
          "internalType": "address",
          "name": "",
          "type": "address"
        }
      ],
      "stateMutability": "view",
      "type": "function"
    },
    {
      "inputs": [],
      "name": "renounceOwnership",
      "outputs": [],
      "stateMutability": "nonpayable",
      "type": "function"
    },
    {
      "inputs": [
        {
          "internalType": "string",
          "name": "currency",
          "type": "string"
        },
        {
          "internalType": "uint256",
          "name": "rate",
          "type": "uint256"
        }
      ],
      "name": "setCurrencyRate",
      "outputs": [],
      "stateMutability": "nonpayable",
      "type": "function"
    },
    {
      "inputs": [
        {
          "internalType": "string",
          "name": "currency",
          "type": "string"
        },
        {
          "internalType": "address",
          "name": "token",
          "type": "address"
        }
      ],
      "name": "setLocalToken",
      "outputs": [],
      "stateMutability": "nonpayable",
      "type": "function"
    },
    {
      "inputs": [
        {
          "internalType": "address",
          "name": "newOwner",
          "type": "address"
        }
      ],
      "name": "transferOwnership",
      "outputs": [],
      "stateMutability": "nonpayable",
      "type": "function"
    },
    {
      "inputs": [],
      "name": "usdc",
      "outputs": [
        {
          "internalType": "contract IERC20",
          "name": "",
          "type": "address"
        }
      ],
      "stateMutability": "view",
      "type": "function"
    },
    {
      "inputs": [
        {
          "internalType": "bytes32",
          "name": "",
          "type": "bytes32"
        }
      ],
      "name": "usedSignatures",
      "outputs": [
        {
          "internalType": "bool",
          "name": "",
          "type": "bool"
        }
      ],
      "stateMutability": "view",
      "type": "function"
    },
    {
      "inputs": [
        {
          "internalType": "bytes32",
          "name": "channelId",
          "type": "bytes32"
        },
        {
          "internalType": "address",
          "name": "to",
          "type": "address"
        }
      ],
      "name": "withdraw",
      "outputs": [],
      "stateMutability": "nonpayable",
      "type": "function"
    }
  ],
  "bytecode": "0x60a03461016657601f6115be38819003918201601f19168301916001600160401b0383118484101761016a5780849260209460405283398101031261016657516001600160a01b03811690819003610166573315610153575f8054336001600160a01b031982168117835560405162632ea09460239491939092916001600160a01b03909116907f8be0079c531659141344cd1fd0a4f28419497f9722a3daafe3b4186f6b6457e09080a3608052624b455360e81b81526002600382015220556240164060236040516224a72960e91b8152600260038201522055625a06e060236040516210911560ea1b81526002600382015220556304c4b4006023604051622723a760e91b8152600260038201522055620f42406024604051635553444360e01b815260026004820152205560405161143f908161017f82396080518181816102b40152818161067f0152610c7b0152f35b631e4fbdf760e01b5f525f60045260245ffd5b5f80fd5b634e487b7160e01b5f52604160045260245ffdfe6080806040526004361015610012575f80fd5b5f3560e01c9081631220ce4214610f30575080631b258d5014610d6757806329a135b214610caa5780633e413bee14610c665780635a604c5214610c495780636063e71214610c165780636b92654914610bfa5780636c0daed814610ba8578063715018a614610b515780637a7ebd7b14610af35780637db87df0146108eb578063831c2b821461088957806385a93ecb146108005780638da5cb5b146107d9578063d271f1f5146105f6578063dd836088146105b7578063e3270789146101a5578063f2fde38b146101205763f978fd61146100ed575f80fd5b3461011c57602036600319011261011c576004355f526004602052602060ff60405f2054166040519015158152f35b5f80fd5b3461011c57602036600319011261011c57610139610f60565b610141611293565b6001600160a01b03168015610192575f80546001600160a01b03198116831782556001600160a01b0316907f8be0079c531659141344cd1fd0a4f28419497f9722a3daafe3b4186f6b6457e09080a3005b631e4fbdf760e01b5f525f60045260245ffd5b3461011c57606036600319011261011c576101be610f60565b60243567ffffffffffffffff811161011c576101de903690600401610f76565b9160405183838237602081858101600281520301902054156105a85761020560055461125b565b8060055560405161025581602081019360018060a01b038616855260a0604083015261023560c08301898961121b565b9046606084015242608084015260a083015203601f198101835282610fa4565b51902091620f424061027e6040518684823760208188810160028152030190205460443561123b565b6040516323b872dd60e01b81523360048201523060248201526044803590820152919004906020816064815f6001600160a01b037f0000000000000000000000000000000000000000000000000000000000000000165af1801561059d57610570575b5060405160c0810181811067ffffffffffffffff82111761055c576040526001600160a01b0384168152610316368785610fc6565b6020828101918252604080840185905260443560608501525f60808501819052600160a086018190528982529092529020825181546001600160a01b0319166001600160a01b0391909116178155905180519067ffffffffffffffff821161055c57610385600184015461104b565b601f8111610514575b50918795939160209995938a90601f8311600114610489575f5160206113ea5f395f51905f529899938361047397969460a0946005945f9261047e575b50508160011b915f199060031b1c19161760018201555b60408401516002820155606084015160038201556080840151600482015501910151151560ff80198354169116179055867fc378025b2de7bf17656cd7685d8e161e7c8de4cd146fb9d73aa5a9804c1b0734604051606081528061044a606082018a8a61121b565b818e0187905260443560408301526001600160a01b03909516940390a360405193849384611269565b0390a2604051908152f35b015190508f806103cb565b60018493929a9594015f52895f20905f5b601f19841681106104fa5750926001836005935f5160206113ea5f395f51905f529c9d6104739a99989760a097601f198116106104e2575b505050811b0160018201556103e2565b01515f1960f88460031b161c191690558f80806104d2565b818c015183559a8d019a8c9a506001909201918d0161049a565b600184015f5260205f20601f840160051c81019160208510610552575b601f0160051c01905b818110610547575061038e565b5f815560010161053a565b9091508190610531565b634e487b7160e01b5f52604160045260245ffd5b6105919060203d602011610596575b6105898183610fa4565b810190611203565b6102e1565b503d61057f565b6040513d5f823e3d90fd5b631131fa7160e11b5f5260045ffd5b3461011c5760206105c73661100c565b8160405191805191829101835e600390820190815281900382019020546040516001600160a01b039091168152f35b3461011c57604036600319011261011c57600435602435815f52600160205260405f209060ff6005830154161580156107c5575b6107b6576001820190620f424061064a61064384611179565b548361123b565b6040516323b872dd60e01b815233600482015230602482015260448101849052919004936020826064815f6001600160a01b037f0000000000000000000000000000000000000000000000000000000000000000165af190811561059d576106cf92600392610799575b50600281016106c4878254611286565b905501918254611286565b905560405191604083525f918054906106e78261104b565b918260408701526001811690815f146107675750600114610720575b855f5160206113ea5f395f51905f528680878760208301520390a2005b5f90815260208120929350915b818310610750575050820160600190805f5160206113ea5f395f51905f52610703565b80546060848701015260209092019160010161072d565b60ff191660608088019190915292151560051b860190920193508291505f5160206113ea5f395f51905f529050610703565b6107b19060203d602011610596576105898183610fa4565b6106b4565b63ea3a9a3960e01b5f5260045ffd5b506107d260018301611179565b541561062a565b3461011c575f36600319011261011c575f546040516001600160a01b039091168152602090f35b3461011c57604036600319011261011c5760043567ffffffffffffffff811161011c576108527fee1b39516d8552bfa4daaa84a8cbc1a5c9f809df064417508de7bd898dda6074913690600401610f76565b90610884602435610861611293565b806040518585823760208187810160028152030190205560405193849384611269565b0390a1005b3461011c57602036600319011261011c576004355f52600160205260405f2060018060a01b038154166108e760028301549260038101546004820154906108da600160ff6005860154169401611083565b9560405196879687611123565b0390f35b3461011c57606036600319011261011c5760043560243560443567ffffffffffffffff811161011c57610922903690600401610f76565b91835f52600160205260405f209260ff600585015416158015610adf575b6107b65761c35082029180830461c3501490151715610acb57620f424061097361096c60018701611179565b548461123b565b0491600285019383855410610abc576109fd6109f460048801946109ee865460405160208101918d83528860408301526060820152606081526109b7608082610fa4565b519020947f19457468657265756d205369676e6564204d6573736167653a0a3332000000005f5285601c52603c5f20923691610fc6565b906112b9565b909291926112f3565b86546001600160a01b03908116911603610aad57805f52600460205260ff60405f205416610a9e577f35c7d1b9897171f182d8eac71ec9520628c2f8a34f2dcc7e2d6e12cfa0e91ddc956060956003925f52600460205260405f20600160ff19825416179055610a6e86825461124e565b905501610a7c82825461124e565b9055610a88825461125b565b80925560405192835260208301526040820152a2005b6320d2a10f60e01b5f5260045ffd5b638baa579f60e01b5f5260045ffd5b631e9acf1760e31b5f5260045ffd5b634e487b7160e01b5f52601160045260245ffd5b5083546001600160a01b0316331415610940565b3461011c57602036600319011261011c576004355f52600160205260405f2060018060a01b038154166108e7610b2b60018401611083565b92600281015490600381015460ff60056004840154930154169260405196879687611123565b3461011c575f36600319011261011c57610b69611293565b5f80546001600160a01b0319811682556001600160a01b03167f8be0079c531659141344cd1fd0a4f28419497f9722a3daafe3b4186f6b6457e08280a3005b3461011c57602036600319011261011c5760043567ffffffffffffffff811161011c576020610bdc81923690600401610f76565b91908260405193849283378101600281520301902054604051908152f35b3461011c575f36600319011261011c57602060405161c3508152f35b3461011c5760208080610c283661100c565b604051928184925191829101835e8101600281520301902054604051908152f35b3461011c575f36600319011261011c576020604051620f42408152f35b3461011c575f36600319011261011c576040517f00000000000000000000000000000000000000000000000000000000000000006001600160a01b03168152602090f35b3461011c57604036600319011261011c5760043567ffffffffffffffff811161011c57610cfc7fd3c0c4e37f17de06325398b408edebca03e14849eb82ed316435181f0dd7d25f913690600401610f76565b610d04610f4a565b610d0c611293565b604051828482376003838201908152819003602001902080546001600160a01b0319166001600160a01b03831617905560408051818152938493610d529285019161121b565b6001600160a01b0390911660208301520390a1005b3461011c57604036600319011261011c57600435610d83610f4a565b5f82815260016020526040902080546001600160a01b03163303610f2157600281018054918215610f12575f600192556005810160ff1981541690550160405190815f825492610dd28461104b565b9360018116908115610ef85750600114610ebf575b506003815203602001909120546001600160a01b0316905080610e45575b50604080516001600160a01b0393909316835260208301919091527ffaf409e9e1cba8abb602d8120c43b75d1607945711ea86a77368cfa5d7f6983b91a2005b60405163a9059cbb60e01b81526001600160a01b03841660048201526024810183905290602090829060449082905f905af190811561059d575f91610ea0575b5015610e915783610e05565b6312171d8360e31b5f5260045ffd5b610eb9915060203d602011610596576105898183610fa4565b84610e85565b9150505f528160205f205f905b838210610ee0575050602091810187610de7565b60209192508060019154848701520191018391610ecc565b60ff19168452506020938015150283019150889050610de7565b636165515360e11b5f5260045ffd5b63f861847160e01b5f5260045ffd5b3461011c575f36600319011261011c576020906005548152f35b602435906001600160a01b038216820361011c57565b600435906001600160a01b038216820361011c57565b9181601f8401121561011c5782359167ffffffffffffffff831161011c576020838186019501011161011c57565b90601f8019910116810190811067ffffffffffffffff82111761055c57604052565b92919267ffffffffffffffff821161055c5760405191610ff0601f8201601f191660200184610fa4565b82948184528183011161011c578281602093845f960137010152565b602060031982011261011c576004359067ffffffffffffffff821161011c578060238301121561011c5781602461104893600401359101610fc6565b90565b90600182811c92168015611079575b602083101461106557565b634e487b7160e01b5f52602260045260245ffd5b91607f169161105a565b9060405191825f8254926110968461104b565b808452936001811690811561110157506001146110bd575b506110bb92500383610fa4565b565b90505f9291925260205f20905f915b8183106110e55750509060206110bb928201015f6110ae565b60209193508060019154838589010152019101909184926110cc565b9050602092506110bb94915060ff191682840152151560051b8201015f6110ae565b9491602060e09160a0969399989599600180891b0316885260c08289015280519182918260c08b0152018389015e5f828289010152601f8019910116860101966040860152606085015260808401521515910152565b60405190815f82549261118b8461104b565b93600181169081156111e957506001146111b0575b5060209250600281520301902090565b9150505f528160205f205f905b8382106111d157505060209181015f6111a0565b602091925080600191548487015201910183916111bd565b60ff191684525060209380151502830191505f90506111a0565b9081602091031261011c5751801515810361011c5790565b908060209392818452848401375f828201840152601f01601f1916010190565b81810292918115918404141715610acb57565b91908203918211610acb57565b5f198114610acb5760010190565b9392916020916112819160408752604087019161121b565b930152565b91908201809211610acb57565b5f546001600160a01b031633036112a657565b63118cdaa760e01b5f523360045260245ffd5b81519190604183036112e9576112e29250602082015190606060408401519301515f1a90611367565b9192909190565b50505f9160029190565b60048110156113535780611305575050565b6001810361131c5763f645eedf60e01b5f5260045ffd5b60028103611337575063fce698f760e01b5f5260045260245ffd5b6003146113415750565b6335e2f38360e21b5f5260045260245ffd5b634e487b7160e01b5f52602160045260245ffd5b91907f7fffffffffffffffffffffffffffffff5d576e7357a4501ddfe92f46681b20a084116113de579160209360809260ff5f9560405194855216868401526040830152606082015282805260015afa1561059d575f516001600160a01b038116156113d457905f905f90565b505f906001905f90565b5050505f916003919056fec771affe7ba593bae761ce6542f22afaa57d6ec9e040a367b5c9747cd35867dba26469706673582212202c57f19d845b7bc3e3a173d7772d6f85378e6db9f69df982aab138e32c25d37764736f6c634300081b0033",
  "linkReferences": {},
  "deployedLinkReferences": {}
}