{
  "_format": "hh-sol-artifact-1",
  "contractName": "PediScreenClinicianRegistry",
  "sourceName": "contracts/PediScreenClinicianRegistry.sol",
  "abi": [
    {
      "inputs": [],
      "stateMutability": "nonpayable",
      "type": "constructor"
    },
    {
      "inputs": [],
      "name": "AccessControlBadConfirmation",
      "type": "error"
    },
    {
      "inputs": [
        {
          "internalType": "address",
          "name": "account",
          "type": "address"
        },
        {
          "internalType": "bytes32",
          "name": "neededRole",
          "type": "bytes32"
        }
      ],
      "name": "AccessControlUnauthorizedAccount",
      "type": "error"
    },
    {
      "anonymous": false,
      "inputs": [
        {
          "indexed": true,
          "internalType": "address",
          "name": "clinician",
          "type": "address"
        }
      ],
      "name": "ClinicianDeactivated",
      "type": "event"
    },
    {
      "anonymous": false,
      "inputs": [
        {
          "indexed": true,
          "internalType": "address",
          "name": "clinician",
          "type": "address"
        },
        {
          "indexed": false,
          "internalType": "uint256",
          "name": "reputation",
          "type": "uint256"
        }
      ],
      "name": "ClinicianRegistered",
      "type": "event"
    },
    {
      "anonymous": false,
      "inputs": [
        {
          "indexed": true,
          "internalType": "address",
          "name": "clinician",
          "type": "address"
        },
        {
          "indexed": false,
          "internalType": "uint256",
          "name": "newScore",
          "type": "uint256"
        }
      ],
      "name": "ClinicianReputationUpdated",
      "type": "event"
    },
    {
      "anonymous": false,
      "inputs": [
        {
          "indexed": true,
          "internalType": "bytes32",
          "name": "role",
          "type": "bytes32"
        },
        {
          "indexed": true,
          "internalType": "bytes32",
          "name": "previousAdminRole",
          "type": "bytes32"
        },
        {
          "indexed": true,
          "internalType": "bytes32",
          "name": "newAdminRole",
          "type": "bytes32"
        }
      ],
      "name": "RoleAdminChanged",
      "type": "event"
    },
    {
      "anonymous": false,
      "inputs": [
        {
          "indexed": true,
          "internalType": "bytes32",
          "name": "role",
          "type": "bytes32"
        },
        {
          "indexed": true,
          "internalType": "address",
          "name": "account",
          "type": "address"
        },
        {
          "indexed": true,
          "internalType": "address",
          "name": "sender",
          "type": "address"
        }
      ],
      "name": "RoleGranted",
      "type": "event"
    },
    {
      "anonymous": false,
      "inputs": [
        {
          "indexed": true,
          "internalType": "bytes32",
          "name": "role",
          "type": "bytes32"
        },
        {
          "indexed": true,
          "internalType": "address",
          "name": "account",
          "type": "address"
        },
        {
          "indexed": true,
          "internalType": "address",
          "name": "sender",
          "type": "address"
        }
      ],
      "name": "RoleRevoked",
      "type": "event"
    },
    {
      "inputs": [],
      "name": "DEFAULT_ADMIN_ROLE",
      "outputs": [
        {
          "internalType": "bytes32",
          "name": "",
          "type": "bytes32"
        }
      ],
      "stateMutability": "view",
      "type": "function"
    },
    {
      "inputs": [],
      "name": "REGISTRY_ADMIN",
      "outputs": [
        {
          "internalType": "bytes32",
          "name": "",
          "type": "bytes32"
        }
      ],
      "stateMutability": "view",
      "type": "function"
    },
    {
      "inputs": [
        {
          "internalType": "address",
          "name": "",
          "type": "address"
        }
      ],
      "name": "clinicianReputation",
      "outputs": [
        {
          "internalType": "uint256",
          "name": "",
          "type": "uint256"
        }
      ],
      "stateMutability": "view",
      "type": "function"
    },
    {
      "inputs": [
        {
          "internalType": "address",
          "name": "clinician",
          "type": "address"
        }
      ],
      "name": "deactivateClinician",
      "outputs": [],
      "stateMutability": "nonpayable",
      "type": "function"
    },
    {
      "inputs": [],
      "name": "getClinicians",
      "outputs": [
        {
          "internalType": "address[]",
          "name": "",
          "type": "address[]"
        }
      ],
      "stateMutability": "view",
      "type": "function"
    },
    {
      "inputs": [
        {
          "internalType": "bytes32",
          "name": "role",
          "type": "bytes32"
        }
      ],
      "name": "getRoleAdmin",
      "outputs": [
        {
          "internalType": "bytes32",
          "name": "",
          "type": "bytes32"
        }
      ],
      "stateMutability": "view",
      "type": "function"
    },
    {
      "inputs": [
        {
          "internalType": "bytes32",
          "name": "role",
          "type": "bytes32"
        },
        {
          "internalType": "address",
          "name": "account",
          "type": "address"
        }
      ],
      "name": "grantRole",
      "outputs": [],
      "stateMutability": "nonpayable",
      "type": "function"
    },
    {
      "inputs": [
        {
          "internalType": "bytes32",
          "name": "role",
          "type": "bytes32"
        },
        {
          "internalType": "address",
          "name": "account",
          "type": "address"
        }
      ],
      "name": "hasRole",
      "outputs": [
        {
          "internalType": "bool",
          "name": "",
          "type": "bool"
        }
      ],
      "stateMutability": "view",
      "type": "function"
    },
    {
      "inputs": [
        {
          "internalType": "address",
          "name": "",
          "type": "address"
        }
      ],
      "name": "isActiveClinician",
      "outputs": [
        {
          "internalType": "bool",
          "name": "",
          "type": "bool"
        }
      ],
      "stateMutability": "view",
      "type": "function"
    },
    {
      "inputs": [
        {
          "internalType": "address",
          "name": "clinician",
          "type": "address"
        },
        {
          "internalType": "uint256",
          "name": "initialReputation",
          "type": "uint256"
        }
      ],
      "name": "registerClinician",
      "outputs": [],
      "stateMutability": "nonpayable",
      "type": "function"
    },
    {
      "inputs": [
        {
          "internalType": "bytes32",
          "name": "role",
          "type": "bytes32"
        },
        {
          "internalType": "address",
          "name": "callerConfirmation",
          "type": "address"
        }
      ],
      "name": "renounceRole",
      "outputs": [],
      "stateMutability": "nonpayable",
      "type": "function"
    },
    {
      "inputs": [
        {
          "internalType": "bytes32",
          "name": "role",
          "type": "bytes32"
        },
        {
          "internalType": "address",
          "name": "account",
          "type": "address"
        }
      ],
      "name": "revokeRole",
      "outputs": [],
      "stateMutability": "nonpayable",
      "type": "function"
    },
    {
      "inputs": [
        {
          "internalType": "bytes4",
          "name": "interfaceId",
          "type": "bytes4"
        }
      ],
      "name": "supportsInterface",
      "outputs": [
        {
          "internalType": "bool",
          "name": "",
          "type": "bool"
        }
      ],
      "stateMutability": "view",
      "type": "function"
    },
    {
      "inputs": [
        {
          "internalType": "address",
          "name": "clinician",
          "type": "address"
        },
        {
          "internalType": "uint256",
          "name": "newScore",
          "type": "uint256"
        }
      ],
      "name": "updateClinicianReputation",
      "outputs": [],
      "stateMutability": "nonpayable",
      "type": "function"
    }
  ],
  "bytecode": "0x60806040523461002c5761001233610030565b5061001c336100a6565b506040516109fe908161013a8239f35b5f80fd5b6001600160a01b0381165f9081525f516020610b785f395f51905f52602052604090205460ff166100a1576001600160a01b03165f8181525f516020610b785f395f51905f5260205260408120805460ff191660011790553391905f516020610b385f395f51905f528180a4600190565b505f90565b6001600160a01b0381165f9081525f516020610b585f395f51905f52602052604090205460ff166100a1576001600160a01b03165f8181525f516020610b585f395f51905f5260205260408120805460ff191660011790553391907fbece676c514da111c8b3698f9a0424811c5c874fd0667943c7e3c04054274a3e905f516020610b385f395f51905f529080a460019056fe6080806040526004361015610012575f80fd5b5f3560e01c90816301ffc9a71461062e5750806311f030f91461054657806316cfd7171461042f5780631dd6451f146103f7578063248a9ca3146103c55780632f2ff15d146103885780632f8836f31461034e57806336568abe1461030a578063443f7e90146102cd57806367bb02f21461021657806391d14854146101ce578063a217fddf146101b4578063ac5c354a146100fe5763d547741f146100b6575f80fd5b346100fa5760403660031901126100fa576100f86004356100d5610697565b906100f36100ee825f525f602052600160405f20015490565b61071c565b6107dc565b005b5f80fd5b346100fa5760203660031901126100fa57610117610681565b61011f6106ad565b6001600160a01b03165f8181526003602052604090205460ff161561018257610147816108f5565b50805f52600360205260405f2060ff1981541690557fd58fecc5ae233d2f289657a165592f352b9a5f945698e998201cd76d9a87b3cb5f80a2005b60405162461bcd60e51b815260206004820152600a6024820152694e6f742061637469766560b01b6044820152606490fd5b346100fa575f3660031901126100fa5760206040515f8152f35b346100fa5760403660031901126100fa576101e7610697565b6004355f525f60205260405f209060018060a01b03165f52602052602060ff60405f2054166040519015158152f35b346100fa5760403660031901126100fa5761022f610681565b6024359061023b6106ad565b6001600160a01b03165f8181526003602052604090205490919060ff16156102975760207ff73bfabcbe74f5a72cc8f062f93dcbe22513b93718f50bd2f0d070c69051a9a591835f52600482528060405f2055604051908152a2005b60405162461bcd60e51b815260206004820152600e60248201526d139bdd081c9959da5cdd195c995960921b6044820152606490fd5b346100fa5760203660031901126100fa576001600160a01b036102ee610681565b165f526003602052602060ff60405f2054166040519015158152f35b346100fa5760403660031901126100fa57610323610697565b336001600160a01b0382160361033f576100f8906004356107dc565b63334bd91960e11b5f5260045ffd5b346100fa575f3660031901126100fa5760206040517fbece676c514da111c8b3698f9a0424811c5c874fd0667943c7e3c04054274a3e8152f35b346100fa5760403660031901126100fa576100f86004356103a7610697565b906103c06100ee825f525f602052600160405f20015490565b610754565b346100fa5760203660031901126100fa5760206103ef6004355f525f602052600160405f20015490565b604051908152f35b346100fa5760203660031901126100fa576001600160a01b03610418610681565b165f526004602052602060405f2054604051908152f35b346100fa5760403660031901126100fa57610448610681565b602435906104546106ad565b6001600160a01b03165f8181526003602052604090205490919060ff1661050c5781156104d55760207fa8f309cf9a9ff8941f19075e380482709d1c6ada8ac88984396269c038d9b4b5916104a884610885565b50835f526003825260405f20600160ff19825416179055835f52600482528060405f2055604051908152a2005b60405162461bcd60e51b815260206004820152600f60248201526e496e76616c6964206164647265737360881b6044820152606490fd5b60405162461bcd60e51b8152602060048201526012602482015271105b1c9958591e481c9959da5cdd195c995960721b6044820152606490fd5b346100fa575f3660031901126100fa576040518060206001549182815201809160015f527fb10e2d527612073b26eecdfd717e6a320cf44b4afac2b0732d9fcbe2b7fa0cf6905f5b81811061061857505050829003601f01601f191682019167ffffffffffffffff8311818410176106045790829182604052602083019060208452518091526040830191905f5b8181106105e2575050500390f35b82516001600160a01b03168452859450602093840193909201916001016105d4565b634e487b7160e01b5f52604160045260245ffd5b825484526020909301926001928301920161058e565b346100fa5760203660031901126100fa576004359063ffffffff60e01b82168092036100fa57602091637965db0b60e01b8114908115610670575b5015158152f35b6301ffc9a760e01b14905083610669565b600435906001600160a01b03821682036100fa57565b602435906001600160a01b03821682036100fa57565b335f9081527f575193abbd8d37ba8192b6d364e3b135daa1e485bd76ae034c548500e5acbe15602052604090205460ff16156106e557565b63e2517d3f60e01b5f52336004527fbece676c514da111c8b3698f9a0424811c5c874fd0667943c7e3c04054274a3e60245260445ffd5b5f8181526020818152604080832033845290915290205460ff161561073e5750565b63e2517d3f60e01b5f523360045260245260445ffd5b5f818152602081815260408083206001600160a01b038616845290915290205460ff166107d6575f818152602081815260408083206001600160a01b0395909516808452949091528120805460ff19166001179055339291907f2f8788117e7eff1d82e926ec794901d17c78024a50270940304540a733656f0d9080a4600190565b50505f90565b5f818152602081815260408083206001600160a01b038616845290915290205460ff16156107d6575f818152602081815260408083206001600160a01b0395909516808452949091528120805460ff19169055339291907ff6391f5c32d9c69d2a47ea670b442974b53935d1edc7fd64eb21e047a839171b9080a4600190565b8054821015610871575f5260205f2001905f90565b634e487b7160e01b5f52603260045260245ffd5b805f52600260205260405f2054155f146108f05760015468010000000000000000811015610604576108d96108c3826001859401600155600161085c565b819391549060031b91821b915f19901b19161790565b9055600154905f52600260205260405f2055600190565b505f90565b5f8181526002602052604090205480156107d6575f1981018181116109b4576001545f198101919082116109b45781810361097c575b5050506001548015610968575f190161094581600161085c565b8154905f199060031b1b191690556001555f5260026020525f6040812055600190565b634e487b7160e01b5f52603160045260245ffd5b61099e61098d6108c393600161085c565b90549060031b1c928392600161085c565b90555f52600260205260405f20555f808061092b565b634e487b7160e01b5f52601160045260245ffdfea264697066735822122056e760def5b9f26bd7c8f5b70045172023c5ebf6eed605a70faf365615779eca64736f6c634300081b00332f8788117e7eff1d82e926ec794901d17c78024a50270940304540a733656f0d575193abbd8d37ba8192b6d364e3b135daa1e485bd76ae034c548500e5acbe15ad3228b676f7d3cd4284a5443f17f1962b36e491b30a40b2405849e597ba5fb5",
  "linkReferences": {},
  "deployedLinkReferences": {}
}