{
  "_format": "hh-sol-artifact-1",
  "contractName": "PediScreenTreasury",
  "sourceName": "contracts/Treasury.sol",
  "abi": [
    {
      "inputs": [
        {
          "internalType": "address",
          "name": "_usdc",
          "type": "address"
        }
      ],
      "stateMutability": "nonpayable",
      "type": "constructor"
    },
    {
      "inputs": [],
      "name": "AccessControlBadConfirmation",
      "type": "error"
    },
    {
      "inputs": [
        {
          "internalType": "address",
          "name": "account",
          "type": "address"
        },
        {
          "internalType": "bytes32",
          "name": "neededRole",
          "type": "bytes32"
        }
      ],
      "name": "AccessControlUnauthorizedAccount",
      "type": "error"
    },
    {
      "inputs": [],
      "name": "ReentrancyGuardReentrantCall",
      "type": "error"
    },
    {
      "anonymous": false,
      "inputs": [
        {
          "indexed": false,
          "internalType": "uint256",
          "name": "newRate",
          "type": "uint256"
        }
      ],
      "name": "RateUpdated",
      "type": "event"
    },
    {
      "anonymous": false,
      "inputs": [
        {
          "indexed": true,
          "internalType": "bytes32",
          "name": "role",
          "type": "bytes32"
        },
        {
          "indexed": true,
          "internalType": "bytes32",
          "name": "previousAdminRole",
          "type": "bytes32"
        },
        {
          "indexed": true,
          "internalType": "bytes32",
          "name": "newAdminRole",
          "type": "bytes32"
        }
      ],
      "name": "RoleAdminChanged",
      "type": "event"
    },
    {
      "anonymous": false,
      "inputs": [
        {
          "indexed": true,
          "internalType": "bytes32",
          "name": "role",
          "type": "bytes32"
        },
        {
          "indexed": true,
          "internalType": "address",
          "name": "account",
          "type": "address"
        },
        {
          "indexed": true,
          "internalType": "address",
          "name": "sender",
          "type": "address"
        }
      ],
      "name": "RoleGranted",
      "type": "event"
    },
    {
      "anonymous": false,
      "inputs": [
        {
          "indexed": true,
          "internalType": "bytes32",
          "name": "role",
          "type": "bytes32"
        },
        {
          "indexed": true,
          "internalType": "address",
          "name": "account",
          "type": "address"
        },
        {
          "indexed": true,
          "internalType": "address",
          "name": "sender",
          "type": "address"
        }
      ],
      "name": "RoleRevoked",
      "type": "event"
    },
    {
      "anonymous": false,
      "inputs": [
        {
          "indexed": true,
          "internalType": "address",
          "name": "clinician",
          "type": "address"
        },
        {
          "indexed": false,
          "internalType": "uint256",
          "name": "amount",
          "type": "uint256"
        },
        {
          "indexed": false,
          "internalType": "uint256",
          "name": "screeningId",
          "type": "uint256"
        }
      ],
      "name": "ScreeningPayment",
      "type": "event"
    },
    {
      "anonymous": false,
      "inputs": [
        {
          "indexed": true,
          "internalType": "address",
          "name": "from",
          "type": "address"
        },
        {
          "indexed": false,
          "internalType": "uint256",
          "name": "amount",
          "type": "uint256"
        }
      ],
      "name": "TreasuryFunded",
      "type": "event"
    },
    {
      "inputs": [],
      "name": "DAO_ROLE",
      "outputs": [
        {
          "internalType": "bytes32",
          "name": "",
          "type": "bytes32"
        }
      ],
      "stateMutability": "view",
      "type": "function"
    },
    {
      "inputs": [],
      "name": "DEFAULT_ADMIN_ROLE",
      "outputs": [
        {
          "internalType": "bytes32",
          "name": "",
          "type": "bytes32"
        }
      ],
      "stateMutability": "view",
      "type": "function"
    },
    {
      "inputs": [
        {
          "internalType": "address",
          "name": "",
          "type": "address"
        }
      ],
      "name": "clinicianPendingRewards",
      "outputs": [
        {
          "internalType": "uint256",
          "name": "",
          "type": "uint256"
        }
      ],
      "stateMutability": "view",
      "type": "function"
    },
    {
      "inputs": [
        {
          "internalType": "uint256",
          "name": "amount",
          "type": "uint256"
        }
      ],
      "name": "fundTreasury",
      "outputs": [],
      "stateMutability": "nonpayable",
      "type": "function"
    },
    {
      "inputs": [
        {
          "internalType": "bytes32",
          "name": "role",
          "type": "bytes32"
        }
      ],
      "name": "getRoleAdmin",
      "outputs": [
        {
          "internalType": "bytes32",
          "name": "",
          "type": "bytes32"
        }
      ],
      "stateMutability": "view",
      "type": "function"
    },
    {
      "inputs": [
        {
          "internalType": "bytes32",
          "name": "role",
          "type": "bytes32"
        },
        {
          "internalType": "address",
          "name": "account",
          "type": "address"
        }
      ],
      "name": "grantRole",
      "outputs": [],
      "stateMutability": "nonpayable",
      "type": "function"
    },
    {
      "inputs": [
        {
          "internalType": "bytes32",
          "name": "role",
          "type": "bytes32"
        },
        {
          "internalType": "address",
          "name": "account",
          "type": "address"
        }
      ],
      "name": "hasRole",
      "outputs": [
        {
          "internalType": "bool",
          "name": "",
          "type": "bool"
        }
      ],
      "stateMutability": "view",
      "type": "function"
    },
    {
      "inputs": [
        {
          "internalType": "uint256",
          "name": "screeningId",
          "type": "uint256"
        },
        {
          "internalType": "address",
          "name": "clinician",
          "type": "address"
        }
      ],
      "name": "payClinician",
      "outputs": [],
      "stateMutability": "nonpayable",
      "type": "function"
    },
    {
      "inputs": [
        {
          "internalType": "bytes32",
          "name": "role",
          "type": "bytes32"
        },
        {
          "internalType": "address",
          "name": "callerConfirmation",
          "type": "address"
        }
      ],
      "name": "renounceRole",
      "outputs": [],
      "stateMutability": "nonpayable",
      "type": "function"
    },
    {
      "inputs": [
        {
          "internalType": "bytes32",
          "name": "role",
          "type": "bytes32"
        },
        {
          "internalType": "address",
          "name": "account",
          "type": "address"
        }
      ],
      "name": "revokeRole",
      "outputs": [],
      "stateMutability": "nonpayable",
      "type": "function"
    },
    {
      "inputs": [
        {
          "internalType": "uint256",
          "name": "",
          "type": "uint256"
        }
      ],
      "name": "screeningClinician",
      "outputs": [
        {
          "internalType": "address",
          "name": "",
          "type": "address"
        }
      ],
      "stateMutability": "view",
      "type": "function"
    },
    {
      "inputs": [],
      "name": "screeningRate",
      "outputs": [
        {
          "internalType": "uint256",
          "name": "",
          "type": "uint256"
        }
      ],
      "stateMutability": "view",
      "type": "function"
    },
    {
      "inputs": [
        {
          "internalType": "uint256",
          "name": "newRate",
          "type": "uint256"
        }
      ],
      "name": "setRatePerScreening",
      "outputs": [],
      "stateMutability": "nonpayable",
      "type": "function"
    },
    {
      "inputs": [
        {
          "internalType": "bytes4",
          "name": "interfaceId",
          "type": "bytes4"
        }
      ],
      "name": "supportsInterface",
      "outputs": [
        {
          "internalType": "bool",
          "name": "",
          "type": "bool"
        }
      ],
      "stateMutability": "view",
      "type": "function"
    },
    {
      "inputs": [],
      "name": "totalScreenings",
      "outputs": [
        {
          "internalType": "uint256",
          "name": "",
          "type": "uint256"
        }
      ],
      "stateMutability": "view",
      "type": "function"
    },
    {
      "inputs": [],
      "name": "usdc",
      "outputs": [
        {
          "internalType": "contract IERC20",
          "name": "",
          "type": "address"
        }
      ],
      "stateMutability": "view",
      "type": "function"
    },
    {
      "inputs": [],
      "name": "withdrawRewards",
      "outputs": [],
      "stateMutability": "nonpayable",
      "type": "function"
    }
  ],
  "bytecode": "0x60a03461009857601f610b7b38819003918201601f19168301916001600160401b0383118484101761009c5780849260209460405283398101031261009857516001600160a01b03811690819003610098576001805561c350600255608052610067336100b0565b5061007133610126565b5060405161096190816101ba82396080518181816101170152818161032b01526105e30152f35b5f80fd5b634e487b7160e01b5f52604160045260245ffd5b6001600160a01b0381165f9081525f516020610b5b5f395f51905f52602052604090205460ff16610121576001600160a01b03165f8181525f516020610b5b5f395f51905f5260205260408120805460ff191660011790553391905f516020610b1b5f395f51905f528180a4600190565b505f90565b6001600160a01b0381165f9081525f516020610b3b5f395f51905f52602052604090205460ff16610121576001600160a01b03165f8181525f516020610b3b5f395f51905f5260205260408120805460ff191660011790553391907f3b5d4cc60d3ec3516ee8ae083bd60934f6eb2a6c54b1229985c41bfb092b2603905f516020610b1b5f395f51905f529080a460019056fe6080806040526004361015610012575f80fd5b5f3560e01c90816301ffc9a7146106c557508063248a9ca3146106935780632f2ff15d1461065657806336568abe146106125780633e413bee146105ce5780635ecfa95b1461059c578063742f9e5a146105605780637e348782146105435780638207f1b81461048257806391d148541461043a578063a217fddf14610420578063c1408cba14610403578063c7b8981c146102c2578063d547741f1461027e578063d7ada8f914610232578063e9c26518146101f85763f6471f4b146100d7575f80fd5b346101f45760203660031901126101f4576040516323b872dd60e01b8152336004828101919091523060248301523560448201819052906020816064815f7f00000000000000000000000000000000000000000000000000000000000000006001600160a01b03165af19081156101e9575f916101ba575b5015610183576040519081527fda1785fe1dec267c363b06ae3e02c3e086123f9d611399f7a1cc98492518372e60203392a2005b60405162461bcd60e51b815260206004820152600f60248201526e151c985b9cd9995c8819985a5b1959608a1b6044820152606490fd5b6101dc915060203d6020116101e2575b6101d4818361072e565b810190610764565b5f61014f565b503d6101ca565b6040513d5f823e3d90fd5b5f80fd5b346101f4575f3660031901126101f45760206040517f3b5d4cc60d3ec3516ee8ae083bd60934f6eb2a6c54b1229985c41bfb092b26038152f35b346101f45760203660031901126101f4577fe65c987b2e4668e09ba867026921588005b2b2063607a1e7e7d91683c8f91b7b602060043561027161077c565b80600255604051908152a1005b346101f45760403660031901126101f4576102c060043561029d610718565b906102bb6102b6825f525f602052600160405f20015490565b6107eb565b6108ab565b005b346101f4575f3660031901126101f4576002600154146103f4576002600155335f52600460205260405f205480156103c257335f5260046020525f60408120556040519063a9059cbb60e01b825233600483015260248201526020816044815f60018060a01b037f0000000000000000000000000000000000000000000000000000000000000000165af19081156101e9575f916103a3575b50156103675760018055005b60405162461bcd60e51b81526020600482015260146024820152731554d110c81d1c985b9cd9995c8819985a5b195960621b6044820152606490fd5b6103bc915060203d6020116101e2576101d4818361072e565b8161035b565b60405162461bcd60e51b815260206004820152600a6024820152694e6f207265776172647360b01b6044820152606490fd5b633ee5aeb560e01b5f5260045ffd5b346101f4575f3660031901126101f4576020600254604051908152f35b346101f4575f3660031901126101f45760206040515f8152f35b346101f45760403660031901126101f457610453610718565b6004355f525f60205260405f209060018060a01b03165f52602052602060ff60405f2054166040519015158152f35b346101f45760403660031901126101f45760043561049e610718565b906104a761077c565b6002549160018060a01b031691825f52600460205260405f2080549082820180921161052f57555f82815260056020526040902080546001600160a01b03191684179055600354905f19821461052f577f533533bcdefb52b94a1ce743d4a0de0aefe147369328e540a638a97515d19b6a9260016040930160035582519182526020820152a2005b634e487b7160e01b5f52601160045260245ffd5b346101f4575f3660031901126101f4576020600354604051908152f35b346101f45760203660031901126101f4576004356001600160a01b038116908190036101f4575f526004602052602060405f2054604051908152f35b346101f45760203660031901126101f4576004355f526005602052602060018060a01b0360405f205416604051908152f35b346101f4575f3660031901126101f4576040517f00000000000000000000000000000000000000000000000000000000000000006001600160a01b03168152602090f35b346101f45760403660031901126101f45761062b610718565b336001600160a01b03821603610647576102c0906004356108ab565b63334bd91960e11b5f5260045ffd5b346101f45760403660031901126101f4576102c0600435610675610718565b9061068e6102b6825f525f602052600160405f20015490565b610823565b346101f45760203660031901126101f45760206106bd6004355f525f602052600160405f20015490565b604051908152f35b346101f45760203660031901126101f4576004359063ffffffff60e01b82168092036101f457602091637965db0b60e01b8114908115610707575b5015158152f35b6301ffc9a760e01b14905083610700565b602435906001600160a01b03821682036101f457565b90601f8019910116810190811067ffffffffffffffff82111761075057604052565b634e487b7160e01b5f52604160045260245ffd5b908160209103126101f4575180151581036101f45790565b335f9081527fc39f11a9300b508470eaed31f5842ba08c93181bcbe6a7fe34039aa7f2b80742602052604090205460ff16156107b457565b63e2517d3f60e01b5f52336004527f3b5d4cc60d3ec3516ee8ae083bd60934f6eb2a6c54b1229985c41bfb092b260360245260445ffd5b5f8181526020818152604080832033845290915290205460ff161561080d5750565b63e2517d3f60e01b5f523360045260245260445ffd5b5f818152602081815260408083206001600160a01b038616845290915290205460ff166108a5575f818152602081815260408083206001600160a01b0395909516808452949091528120805460ff19166001179055339291907f2f8788117e7eff1d82e926ec794901d17c78024a50270940304540a733656f0d9080a4600190565b50505f90565b5f818152602081815260408083206001600160a01b038616845290915290205460ff16156108a5575f818152602081815260408083206001600160a01b0395909516808452949091528120805460ff19169055339291907ff6391f5c32d9c69d2a47ea670b442974b53935d1edc7fd64eb21e047a839171b9080a460019056fea26469706673582212208bf014b9555b9926e865ddad6030a066dd017c9f1db02135935e39aabc1c123464736f6c634300081b00332f8788117e7eff1d82e926ec794901d17c78024a50270940304540a733656f0dc39f11a9300b508470eaed31f5842ba08c93181bcbe6a7fe34039aa7f2b80742ad3228b676f7d3cd4284a5443f17f1962b36e491b30a40b2405849e597ba5fb5",
  "linkReferences": {},
  "deployedLinkReferences": {}
}