{
  "_format": "hh-sol-artifact-1",
  "contractName": "PediScreenTreasuryMultiSig",
  "sourceName": "contracts/PediScreenTreasuryMultiSig.sol",
  "abi": [
    {
      "inputs": [
        {
          "internalType": "address",
          "name": "_usdc",
          "type": "address"
        }
      ],
      "stateMutability": "nonpayable",
      "type": "constructor"
    },
    {
      "inputs": [
        {
          "internalType": "address",
          "name": "owner",
          "type": "address"
        }
      ],
      "name": "OwnableInvalidOwner",
      "type": "error"
    },
    {
      "inputs": [
        {
          "internalType": "address",
          "name": "account",
          "type": "address"
        }
      ],
      "name": "OwnableUnauthorizedAccount",
      "type": "error"
    },
    {
      "inputs": [],
      "name": "ReentrancyGuardReentrantCall",
      "type": "error"
    },
    {
      "inputs": [
        {
          "internalType": "address",
          "name": "token",
          "type": "address"
        }
      ],
      "name": "SafeERC20FailedOperation",
      "type": "error"
    },
    {
      "anonymous": false,
      "inputs": [
        {
          "indexed": true,
          "internalType": "address",
          "name": "clinician",
          "type": "address"
        },
        {
          "indexed": false,
          "internalType": "string",
          "name": "licenseHash",
          "type": "string"
        }
      ],
      "name": "ClinicianAdded",
      "type": "event"
    },
    {
      "anonymous": false,
      "inputs": [
        {
          "indexed": true,
          "internalType": "address",
          "name": "clinician",
          "type": "address"
        }
      ],
      "name": "ClinicianRemoved",
      "type": "event"
    },
    {
      "anonymous": false,
      "inputs": [
        {
          "indexed": true,
          "internalType": "address",
          "name": "pauser",
          "type": "address"
        }
      ],
      "name": "EmergencyPaused",
      "type": "event"
    },
    {
      "anonymous": false,
      "inputs": [
        {
          "indexed": true,
          "internalType": "address",
          "name": "previousOwner",
          "type": "address"
        },
        {
          "indexed": true,
          "internalType": "address",
          "name": "newOwner",
          "type": "address"
        }
      ],
      "name": "OwnershipTransferred",
      "type": "event"
    },
    {
      "anonymous": false,
      "inputs": [
        {
          "indexed": true,
          "internalType": "uint256",
          "name": "id",
          "type": "uint256"
        },
        {
          "indexed": true,
          "internalType": "address",
          "name": "clinician",
          "type": "address"
        }
      ],
      "name": "PaymentApproved",
      "type": "event"
    },
    {
      "anonymous": false,
      "inputs": [
        {
          "indexed": true,
          "internalType": "uint256",
          "name": "id",
          "type": "uint256"
        }
      ],
      "name": "PaymentCancelled",
      "type": "event"
    },
    {
      "anonymous": false,
      "inputs": [
        {
          "indexed": true,
          "internalType": "uint256",
          "name": "id",
          "type": "uint256"
        },
        {
          "indexed": true,
          "internalType": "address",
          "name": "recipient",
          "type": "address"
        },
        {
          "indexed": false,
          "internalType": "uint256",
          "name": "amount",
          "type": "uint256"
        }
      ],
      "name": "PaymentExecuted",
      "type": "event"
    },
    {
      "anonymous": false,
      "inputs": [
        {
          "indexed": true,
          "internalType": "uint256",
          "name": "id",
          "type": "uint256"
        },
        {
          "indexed": true,
          "internalType": "address",
          "name": "recipient",
          "type": "address"
        },
        {
          "indexed": false,
          "internalType": "uint256",
          "name": "amount",
          "type": "uint256"
        },
        {
          "indexed": false,
          "internalType": "string",
          "name": "purpose",
          "type": "string"
        }
      ],
      "name": "PaymentRequestCreated",
      "type": "event"
    },
    {
      "anonymous": false,
      "inputs": [
        {
          "indexed": false,
          "internalType": "uint256",
          "name": "newBalance",
          "type": "uint256"
        }
      ],
      "name": "TreasuryBalanceChanged",
      "type": "event"
    },
    {
      "anonymous": false,
      "inputs": [
        {
          "indexed": true,
          "internalType": "address",
          "name": "by",
          "type": "address"
        }
      ],
      "name": "Unpaused",
      "type": "event"
    },
    {
      "inputs": [],
      "name": "APPROVAL_THRESHOLD",
      "outputs": [
        {
          "internalType": "uint256",
          "name": "",
          "type": "uint256"
        }
      ],
      "stateMutability": "view",
      "type": "function"
    },
    {
      "inputs": [],
      "name": "APPROVAL_WINDOW",
      "outputs": [
        {
          "internalType": "uint256",
          "name": "",
          "type": "uint256"
        }
      ],
      "stateMutability": "view",
      "type": "function"
    },
    {
      "inputs": [],
      "name": "EXECUTION_WINDOW",
      "outputs": [
        {
          "internalType": "uint256",
          "name": "",
          "type": "uint256"
        }
      ],
      "stateMutability": "view",
      "type": "function"
    },
    {
      "inputs": [],
      "name": "MAX_CLINICIANS",
      "outputs": [
        {
          "internalType": "uint256",
          "name": "",
          "type": "uint256"
        }
      ],
      "stateMutability": "view",
      "type": "function"
    },
    {
      "inputs": [
        {
          "internalType": "address",
          "name": "_clinician",
          "type": "address"
        },
        {
          "internalType": "string",
          "name": "_licenseHash",
          "type": "string"
        }
      ],
      "name": "addClinician",
      "outputs": [],
      "stateMutability": "nonpayable",
      "type": "function"
    },
    {
      "inputs": [
        {
          "internalType": "uint256",
          "name": "_requestId",
          "type": "uint256"
        }
      ],
      "name": "approvePayment",
      "outputs": [],
      "stateMutability": "nonpayable",
      "type": "function"
    },
    {
      "inputs": [
        {
          "internalType": "uint256",
          "name": "_requestId",
          "type": "uint256"
        }
      ],
      "name": "cancelPayment",
      "outputs": [],
      "stateMutability": "nonpayable",
      "type": "function"
    },
    {
      "inputs": [],
      "name": "clinicianCount",
      "outputs": [
        {
          "internalType": "uint256",
          "name": "",
          "type": "uint256"
        }
      ],
      "stateMutability": "view",
      "type": "function"
    },
    {
      "inputs": [
        {
          "internalType": "address",
          "name": "",
          "type": "address"
        }
      ],
      "name": "clinicianInfo",
      "outputs": [
        {
          "internalType": "bool",
          "name": "active",
          "type": "bool"
        },
        {
          "internalType": "string",
          "name": "licenseHash",
          "type": "string"
        },
        {
          "internalType": "uint256",
          "name": "joinedAt",
          "type": "uint256"
        }
      ],
      "stateMutability": "view",
      "type": "function"
    },
    {
      "inputs": [
        {
          "internalType": "uint256",
          "name": "",
          "type": "uint256"
        }
      ],
      "name": "clinicians",
      "outputs": [
        {
          "internalType": "address",
          "name": "",
          "type": "address"
        }
      ],
      "stateMutability": "view",
      "type": "function"
    },
    {
      "inputs": [
        {
          "internalType": "address",
          "name": "_recipient",
          "type": "address"
        },
        {
          "internalType": "uint256",
          "name": "_amount",
          "type": "uint256"
        },
        {
          "internalType": "string",
          "name": "_purpose",
          "type": "string"
        }
      ],
      "name": "createPaymentRequest",
      "outputs": [],
      "stateMutability": "nonpayable",
      "type": "function"
    },
    {
      "inputs": [
        {
          "internalType": "uint256",
          "name": "_requestId",
          "type": "uint256"
        }
      ],
      "name": "executePayment",
      "outputs": [],
      "stateMutability": "nonpayable",
      "type": "function"
    },
    {
      "inputs": [
        {
          "internalType": "uint256",
          "name": "amount",
          "type": "uint256"
        }
      ],
      "name": "fundTreasury",
      "outputs": [],
      "stateMutability": "nonpayable",
      "type": "function"
    },
    {
      "inputs": [],
      "name": "getClinicians",
      "outputs": [
        {
          "internalType": "address[]",
          "name": "",
          "type": "address[]"
        }
      ],
      "stateMutability": "view",
      "type": "function"
    },
    {
      "inputs": [
        {
          "internalType": "uint256",
          "name": "_requestId",
          "type": "uint256"
        }
      ],
      "name": "getRequestStatus",
      "outputs": [
        {
          "internalType": "address",
          "name": "recipient",
          "type": "address"
        },
        {
          "internalType": "uint256",
          "name": "amount",
          "type": "uint256"
        },
        {
          "internalType": "string",
          "name": "purpose",
          "type": "string"
        },
        {
          "internalType": "uint256",
          "name": "approvals",
          "type": "uint256"
        },
        {
          "internalType": "bool",
          "name": "executed",
          "type": "bool"
        },
        {
          "internalType": "bool",
          "name": "cancelled",
          "type": "bool"
        },
        {
          "internalType": "address[]",
          "name": "approvers",
          "type": "address[]"
        }
      ],
      "stateMutability": "view",
      "type": "function"
    },
    {
      "inputs": [],
      "name": "nextRequestId",
      "outputs": [
        {
          "internalType": "uint256",
          "name": "",
          "type": "uint256"
        }
      ],
      "stateMutability": "view",
      "type": "function"
    },
    {
      "inputs": [],
      "name": "owner",
      "outputs": [
        {
          "internalType": "address",
          "name": "",
          "type": "address"
        }
      ],
      "stateMutability": "view",
      "type": "function"
    },
    {
      "inputs": [],
      "name": "paused",
      "outputs": [
        {
          "internalType": "bool",
          "name": "",
          "type": "bool"
        }
      ],
      "stateMutability": "view",
      "type": "function"
    },
    {
      "inputs": [
        {
          "internalType": "address",
          "name": "",
          "type": "address"
        }
      ],
      "name": "pausers",
      "outputs": [
        {
          "internalType": "bool",
          "name": "",
          "type": "bool"
        }
      ],
      "stateMutability": "view",
      "type": "function"
    },
    {
      "inputs": [
        {
          "internalType": "address",
          "name": "_clinician",
          "type": "address"
        }
      ],
      "name": "removeClinician",
      "outputs": [],
      "stateMutability": "nonpayable",
      "type": "function"
    },
    {
      "inputs": [],
      "name": "renounceOwnership",
      "outputs": [],
      "stateMutability": "nonpayable",
      "type": "function"
    },
    {
      "inputs": [
        {
          "internalType": "uint256",
          "name": "",
          "type": "uint256"
        },
        {
          "internalType": "address",
          "name": "",
          "type": "address"
        }
      ],
      "name": "requestApprovals",
      "outputs": [
        {
          "internalType": "bool",
          "name": "",
          "type": "bool"
        }
      ],
      "stateMutability": "view",
      "type": "function"
    },
    {
      "inputs": [
        {
          "internalType": "uint256",
          "name": "",
          "type": "uint256"
        }
      ],
      "name": "requests",
      "outputs": [
        {
          "internalType": "uint256",
          "name": "id",
          "type": "uint256"
        },
        {
          "internalType": "address",
          "name": "recipient",
          "type": "address"
        },
        {
          "internalType": "uint256",
          "name": "amount",
          "type": "uint256"
        },
        {
          "internalType": "string",
          "name": "purpose",
          "type": "string"
        },
        {
          "internalType": "uint256",
          "name": "nonce",
          "type": "uint256"
        },
        {
          "internalType": "uint256",
          "name": "createdAt",
          "type": "uint256"
        },
        {
          "internalType": "uint256",
          "name": "executedAt",
          "type": "uint256"
        },
        {
          "internalType": "bool",
          "name": "executed",
          "type": "bool"
        },
        {
          "internalType": "bool",
          "name": "cancelled",
          "type": "bool"
        },
        {
          "internalType": "uint256",
          "name": "approvalCount",
          "type": "uint256"
        }
      ],
      "stateMutability": "view",
      "type": "function"
    },
    {
      "inputs": [
        {
          "internalType": "bool",
          "name": "_paused",
          "type": "bool"
        }
      ],
      "name": "setPaused",
      "outputs": [],
      "stateMutability": "nonpayable",
      "type": "function"
    },
    {
      "inputs": [
        {
          "internalType": "address",
          "name": "account",
          "type": "address"
        },
        {
          "internalType": "bool",
          "name": "allowed",
          "type": "bool"
        }
      ],
      "name": "setPauser",
      "outputs": [],
      "stateMutability": "nonpayable",
      "type": "function"
    },
    {
      "inputs": [
        {
          "internalType": "address",
          "name": "newOwner",
          "type": "address"
        }
      ],
      "name": "transferOwnership",
      "outputs": [],
      "stateMutability": "nonpayable",
      "type": "function"
    },
    {
      "inputs": [],
      "name": "treasuryBalance",
      "outputs": [
        {
          "internalType": "uint256",
          "name": "",
          "type": "uint256"
        }
      ],
      "stateMutability": "view",
      "type": "function"
    },
    {
      "inputs": [],
      "name": "usdc",
      "outputs": [
        {
          "internalType": "contract IERC20",
          "name": "",
          "type": "address"
        }
      ],
      "stateMutability": "view",
      "type": "function"
    }
  ],
  "bytecode": "0x60a0604052346102f657604051601f611d9738819003918201601f19168301916001600160401b0383118484101761029e578084926020946040528339810103126102f657516001600160a01b038116908190036102f65760015f5533156102e35760018054336001600160a01b03198216811790925560405191906001600160a01b03167f8be0079c531659141344cd1fd0a4f28419497f9722a3daafe3b4186f6b6457e05f80a381156102b25750608052600280546001600160a01b031916331790556001600755604051606081016001600160401b0381118282101761029e576040908152600182525190602082016001600160401b0381118382101761029e576040525f82526020810191825260408101428152335f52600b60205260405f209151151560ff8019845416911617825560018201925192835160018060401b03811161029e578154600181811c91168015610294575b602082101461028057601f811161023b575b506020601f82116001146101d6578190600295965f926101cb575b50508160011b915f199060031b1c19161790555b51910155604051611a9c90816102fb82396080518181816101760152818161114c015281816111c101526117d80152f35b015190505f80610186565b601f19821695835f52815f20965f5b818110610223575091600296979184600195941061020b575b505050811b01905561019a565b01515f1960f88460031b161c191690555f80806101fe565b838301518955600190980197602093840193016101e5565b825f5260205f20601f830160051c81019160208410610276575b601f0160051c01905b81811061026b575061016b565b5f815560010161025e565b9091508190610255565b634e487b7160e01b5f52602260045260245ffd5b90607f1690610159565b634e487b7160e01b5f52604160045260245ffd5b62461bcd60e51b815260206004820152600c60248201526b496e76616c6964205553444360a01b6044820152606490fd5b631e4fbdf760e01b5f525f60045260245ffd5b5f80fdfe6080806040526004361015610012575f80fd5b5f3560e01c90816302c611d11461139b5750806311f030f914611333578063162a0cf8146112f457806316c38b3c1461126c5780632e5cc1b014611236578063313dab20146111965780633ab342901461117b5780633e413bee146111375780633e65164a1461111a578063481a511e14610fcc5780635c975abb14610faa5780636a84a98514610f8d578063715018a614610f325780637180c8ca14610edb57806379111f0314610ec057806380f51c1214610e8357806381d12c5814610dcc5780638422927d14610d235780638da5cb5b14610cfb5780638e1e38ef14610ca7578063accff8cf14610c3c578063b55b0bb7146108fb578063d8a4676f146107cd578063de14c818146105fe578063e9302d8b146105e1578063ec8c1b54146102f5578063f2fde38b1461026f5763f6471f4b14610150575f80fd5b346102585760203660031901126102585761017060ff600c5416156115ef565b602460207f00000000000000000000000000000000000000000000000000000000000000006101cf6040516323b872dd60e01b8482015233858201523060448201526004356064820152606481526101c960848261143f565b82611a0e565b6040516370a0823160e01b815230600482015292839182906001600160a01b03165afa908115610264575f9161022d575b7f4343d10dc21d66c1ca32d97413ad3bdd0948bf55b2d77b32060e25b4cbc96bc2602083604051908152a1005b90506020813d60201161025c575b816102486020938361143f565b8101031261025857516020610200565b5f80fd5b3d915061023b565b6040513d5f823e3d90fd5b34610258576020366003190112610258576102886113f1565b6102906119e7565b6001600160a01b031680156102e257600180546001600160a01b0319811683179091556001600160a01b03167f8be0079c531659141344cd1fd0a4f28419497f9722a3daafe3b4186f6b6457e05f80a3005b631e4fbdf760e01b5f525f60045260245ffd5b346102585760603660031901126102585761030e6113f1565b6024359060443567ffffffffffffffff811161025857610332903690600401611525565b909161034561034033611708565b6115b1565b61035460ff600c5416156115ef565b61035c61174c565b6001600160a01b03169283156105a857801561057557600854925f1984146105615760018401600855835f52600960205260405f2084815560018101866bffffffffffffffffffffffff60a01b8254161790558260028201556003810167ffffffffffffffff851161054d576103dc856103d68354611407565b83611663565b5f601f86116001146104bf5760086104ab9387969593610435887f8a083cd3a26265c2291377a1039beded717bb48a6544632ac3a93b0d2cc0f03f9a6001965f916104b4575b508160011b915f199060031b1c19161790565b90555b60405160208101904282523360601b60408201528a60548201526054815261046160748261143f565b519020600482015542600582015501555f868152600a60209081526040808320338452825291829020805460ff1916600117905581519485528401819052929384938401916116b2565b0390a360015f55005b90508701358e610422565b601f19861690825f5260205f20915f5b818110610535575093879695936001936008937f8a083cd3a26265c2291377a1039beded717bb48a6544632ac3a93b0d2cc0f03f9a6104ab981061051c575b50508388811b019055610438565b8601355f1960038b901b60f8161c191690558b8061050e565b9192602060018192868a0135815501940192016104cf565b634e487b7160e01b5f52604160045260245ffd5b634e487b7160e01b5f52601160045260245ffd5b60405162461bcd60e51b815260206004820152600b60248201526a16995c9bc8185b5bdd5b9d60aa1b6044820152606490fd5b60405162461bcd60e51b8152602060048201526011602482015270125b9d985b1a59081c9958da5c1a595b9d607a1b6044820152606490fd5b34610258575f36600319011261025857602060405162093a808152f35b346102585760203660031901126102585760043561061e61034033611708565b61062d60ff600c5416156115ef565b61063561174c565b5f81815260096020526040902060018101546001600160a01b03161561078f5760ff600782015461066882821615611624565b60081c1661075e575f828152600a6020908152604080832033845290915290205460ff1661072657600581015462093a808101809111610561576002916106b260089242106116d2565b835f52600a60205260405f2060018060a01b0333165f5260205260405f20600160ff1982541617905501600181540180915533837f7c0257138bc682dcff9eb84d702bf9118b11a37ab9af95828ea7332c078eb93f5f80a31015610717575b60015f55005b6107209061176a565b80610711565b60405162461bcd60e51b815260206004820152601060248201526f105b1c9958591e48185c1c1c9bdd995960821b6044820152606490fd5b60405162461bcd60e51b815260206004820152600960248201526810d85b98d95b1b195960ba1b6044820152606490fd5b60405162461bcd60e51b815260206004820152601660248201527514995c5d595cdd08191bd95cc81b9bdd08195e1a5cdd60521b6044820152606490fd5b3461025857602036600319011261025857600435805f52600960205260405f2060018060a01b036001820154169060028101549261080d60038301611461565b60076008840154930154906108218461156b565b925f905f90600754915b82811061088a5789896108868a8a60ff8b61085e8c6040519889988952602089015260e0604089015260e0880190611501565b9360608701528181161515608087015260081c16151560a085015283820360c08501526113b5565b0390f35b815f52600a60205260405f2060058210156108e75760028201546001600160a01b03165f81815260209290925260409091205460ff166108ce575b5060010161082b565b6001919482916108de828b61159d565b520193906108c5565b634e487b7160e01b5f52603260045260245ffd5b34610258576040366003190112610258576109146113f1565b60243567ffffffffffffffff811161025857610934903690600401611525565b919061093e6119e7565b6007546005811015610bfe576001600160a01b038316928315610bc7578415610b905761096a90611708565b610b585760020180546001600160a01b03191683179055600780546001019055604051926060840167ffffffffffffffff81118582101761054d576040526001845267ffffffffffffffff811161054d57604051936109d3601f8301601f19166020018661143f565b818552368284011161025857818360208701375f602083870101526020810194855260408101428152845f52600b602052610a2160405f2092511515839060ff801983541691151516179055565b60018201955195865167ffffffffffffffff811161054d57610a4d81610a478454611407565b84611663565b6020601f8211600114610ad057816002949392610aa2927f1e19d128176c91eaa0c3409250060dfcd663cdd3b52c4cc3b2fdfce06aa0ae799a9b5f92610ac5575b50508160011b915f199060031b1c19161790565b90555b51910155610ac06040519283926020845260208401916116b2565b0390a2005b015190508b80610a8e565b601f19821698835f52815f20995f5b818110610b40575099600192849260029796957f1e19d128176c91eaa0c3409250060dfcd663cdd3b52c4cc3b2fdfce06aa0ae799c9d10610b28575b505050811b019055610aa5565b01515f1960f88460031b161c191690558a8080610b1b565b838301518c556001909b019a60209384019301610adf565b60405162461bcd60e51b815260206004820152601060248201526f436c696e696369616e2065786973747360801b6044820152606490fd5b60405162461bcd60e51b815260206004820152600f60248201526e496e76616c6964206c6963656e736560881b6044820152606490fd5b60405162461bcd60e51b815260206004820152600f60248201526e496e76616c6964206164647265737360881b6044820152606490fd5b60405162461bcd60e51b815260206004820152601660248201527513585e0818db1a5b9a58da585b9cc81c995858da195960521b6044820152606490fd5b34610258576020366003190112610258576001600160a01b03610c5d6113f1565b165f52600b60205260405f2060ff8154166002610c7c60018401611461565b920154610c9d60405193849315158452606060208501526060840190611501565b9060408301520390f35b34610258576040366003190112610258576024356001600160a01b0381168103610258576004355f52600a60205260405f209060018060a01b03165f52602052602060ff60405f2054166040519015158152f35b34610258575f366003190112610258576001546040516001600160a01b039091168152602090f35b3461025857602036600319011261025857600435610d4361034033611708565b805f526009602052600760405f20018054610d6160ff821615611624565b323303610d995761ff0019166101001790557fb85e553db1cc947378f2f2d6071d3e64a20a8d3896fee3d15a5087372164e97c5f80a2005b60405162461bcd60e51b815260206004820152600b60248201526a4d75737420626520454f4160a81b6044820152606490fd5b34610258576020366003190112610258576004355f52600960205260405f20805460018060a01b0360018301541691600281015460ff610e0e60038401611461565b926004810154936005820154610e5360068401549260086007860154950154966040519a8b9a8b5260208b015260408a015261014060608a0152610140890190611501565b95608088015260a087015260c0860152818116151560e086015260081c1615156101008401526101208301520390f35b34610258576020366003190112610258576001600160a01b03610ea46113f1565b165f52600d602052602060ff60405f2054166040519015158152f35b34610258575f36600319011261025857602060405160058152f35b3461025857604036600319011261025857610ef46113f1565b602435801515810361025857610f3091610f0c6119e7565b60018060a01b03165f52600d60205260405f209060ff801983541691151516179055565b005b34610258575f36600319011261025857610f4a6119e7565b600180546001600160a01b031981169091555f906001600160a01b03167f8be0079c531659141344cd1fd0a4f28419497f9722a3daafe3b4186f6b6457e08280a3005b34610258575f366003190112610258576020600854604051908152f35b34610258575f36600319011261025857602060ff600c54166040519015158152f35b3461025857602036600319011261025857610fe56113f1565b610fed6119e7565b6001600160a01b03165f805b600754808210156111135760058210156108e7576002820180549091906001600160a01b0316851461102f575050600101610ff9565b915091505f19810181811161056157600511156108e7576001015481546001600160a01b0319166001600160a01b03919091161790556007545f19810181811161056157600511156108e757600190810180546001600160a01b0319169055600780545f190190555f828152600b60205260409020805460ff191690555b156110d8577f5b1dc86ac0993159a993a7173260ebe9cae7304eebbd1d1711ae3897232b23c15f80a2005b60405162461bcd60e51b815260206004820152601360248201527210db1a5b9a58da585b881b9bdd08199bdd5b99606a1b6044820152606490fd5b50506110ad565b34610258575f366003190112610258576020604051621275008152f35b34610258575f366003190112610258576040517f00000000000000000000000000000000000000000000000000000000000000006001600160a01b03168152602090f35b34610258575f36600319011261025857602060405160028152f35b34610258575f366003190112610258576040516370a0823160e01b81523060048201526020816024817f00000000000000000000000000000000000000000000000000000000000000006001600160a01b03165afa8015610264575f90611203575b602090604051908152f35b506020813d60201161122e575b8161121d6020938361143f565b8101031261025857602090516111f8565b3d9150611210565b3461025857602036600319011261025857600435600581101561025857600201546040516001600160a01b039091168152602090f35b3461025857602036600319011261025857600435801515808203610258576112926119e7565b60ff8019600c5416911617600c555f146112cd57337fb8fad2fa0ed7a383e747c309ef2c4391d7b65592a48893e57ccc1fab707914565f80a2005b337f5db9ee0a495bf2e6ff9c91a7834c1ba4fdd244a5e8aa4e537bd38aeae4b073aa5f80a2005b346102585760203660031901126102585761131161034033611708565b61132060ff600c5416156115ef565b61132861174c565b61071160043561176a565b34610258575f3660031901126102585760075461134f8161156b565b905f5b81811061136f5760405160208082528190610886908201866113b5565b60058110156108e7576002810154600191906001600160a01b0316611394828661159d565b5201611352565b34610258575f366003190112610258576020906007548152f35b90602080835192838152019201905f5b8181106113d25750505090565b82516001600160a01b03168452602093840193909201916001016113c5565b600435906001600160a01b038216820361025857565b90600182811c92168015611435575b602083101461142157565b634e487b7160e01b5f52602260045260245ffd5b91607f1691611416565b90601f8019910116810190811067ffffffffffffffff82111761054d57604052565b9060405191825f82549261147484611407565b80845293600181169081156114df575060011461149b575b506114999250038361143f565b565b90505f9291925260205f20905f915b8183106114c3575050906020611499928201015f61148c565b60209193508060019154838589010152019101909184926114aa565b90506020925061149994915060ff191682840152151560051b8201015f61148c565b805180835260209291819084018484015e5f828201840152601f01601f1916010190565b9181601f840112156102585782359167ffffffffffffffff8311610258576020838186019501011161025857565b67ffffffffffffffff811161054d5760051b60200190565b9061157582611553565b611582604051918261143f565b8281528092611593601f1991611553565b0190602036910137565b80518210156108e75760209160051b010190565b156115b857565b60405162461bcd60e51b815260206004820152600f60248201526e2737ba10309031b634b734b1b4b0b760891b6044820152606490fd5b156115f657565b60405162461bcd60e51b815260206004820152600660248201526514185d5cd95960d21b6044820152606490fd5b1561162b57565b60405162461bcd60e51b815260206004820152601060248201526f105b1c9958591e48195e1958dd5d195960821b6044820152606490fd5b601f821161167057505050565b5f5260205f20906020601f840160051c830193106116a8575b601f0160051c01905b81811061169d575050565b5f8155600101611692565b9091508190611689565b908060209392818452848401375f828201840152601f01601f1916010190565b156116d957565b60405162461bcd60e51b8152602060048201526007602482015266115e1c1a5c995960ca1b6044820152606490fd5b600754905f5b82811061171c575050505f90565b60058110156108e75760028101546001600160a01b038381169116146117445760010161170e565b505050600190565b60025f541461175b5760025f55565b633ee5aeb560e01b5f5260045ffd5b805f52600960205260405f2060026008820154106119a95760078101805461179560ff821615611624565b600583015490621275008201809211610561576117b560019242106116d2565b60ff19161790554260068201556040516370a0823160e01b8152306004820152917f0000000000000000000000000000000000000000000000000000000000000000916001600160a01b03831691602085602481865afa948515610264575f95611975575b5060028201918254809610611930576020809561189160249860017f7f5bfe3018715b26a7067888a5c42912fbb3485170b8154ea9a448661f2f0de295019260018060a01b03845416916040519263a9059cbb60e01b878501528c84015260448301526044825261188c60648361143f565b611a0e565b5493546040519081526001600160a01b0390941693a36040516370a0823160e01b815230600482015292839182905afa908115610264575f916118fd575b5060207f4343d10dc21d66c1ca32d97413ad3bdd0948bf55b2d77b32060e25b4cbc96bc291604051908152a1565b90506020813d602011611928575b816119186020938361143f565b81010312610258575160206118cf565b3d915061190b565b60405162461bcd60e51b815260206004820152601d60248201527f496e73756666696369656e742074726561737572792062616c616e63650000006044820152606490fd5b9094506020813d6020116119a1575b816119916020938361143f565b810103126102585751935f61181a565b3d9150611984565b60405162461bcd60e51b8152602060048201526016602482015275496e73756666696369656e7420617070726f76616c7360501b6044820152606490fd5b6001546001600160a01b031633036119fb57565b63118cdaa760e01b5f523360045260245ffd5b905f602091828151910182855af115610264575f513d611a5d57506001600160a01b0381163b155b611a3d5750565b635274afe760e01b5f9081526001600160a01b0391909116600452602490fd5b60011415611a3656fea2646970667358221220a9aa8de4a18ab1bc706da87a25bd41a7b7fc731f115f1539f6285261ae66749964736f6c634300081b0033",
  "linkReferences": {},
  "deployedLinkReferences": {}
}