{
  "_format": "hh-sol-artifact-1",
  "contractName": "PediScreenDAO",
  "sourceName": "contracts/PediScreenDAO.sol",
  "abi": [
    {
      "inputs": [
        {
          "internalType": "contract PSDAOToken",
          "name": "_psdaoToken",
          "type": "address"
        },
        {
          "internalType": "contract TimelockController",
          "name": "_timelock",
          "type": "address"
        },
        {
          "internalType": "address",
          "name": "_initialTreasury",
          "type": "address"
        },
        {
          "internalType": "address",
          "name": "_initialRegistry",
          "type": "address"
        }
      ],
      "stateMutability": "nonpayable",
      "type": "constructor"
    },
    {
      "inputs": [],
      "name": "CheckpointUnorderedInsertion",
      "type": "error"
    },
    {
      "inputs": [],
      "name": "FailedCall",
      "type": "error"
    },
    {
      "inputs": [
        {
          "internalType": "address",
          "name": "voter",
          "type": "address"
        }
      ],
      "name": "GovernorAlreadyCastVote",
      "type": "error"
    },
    {
      "inputs": [
        {
          "internalType": "uint256",
          "name": "proposalId",
          "type": "uint256"
        }
      ],
      "name": "GovernorAlreadyQueuedProposal",
      "type": "error"
    },
    {
      "inputs": [],
      "name": "GovernorDisabledDeposit",
      "type": "error"
    },
    {
      "inputs": [
        {
          "internalType": "address",
          "name": "proposer",
          "type": "address"
        },
        {
          "internalType": "uint256",
          "name": "votes",
          "type": "uint256"
        },
        {
          "internalType": "uint256",
          "name": "threshold",
          "type": "uint256"
        }
      ],
      "name": "GovernorInsufficientProposerVotes",
      "type": "error"
    },
    {
      "inputs": [
        {
          "internalType": "uint256",
          "name": "targets",
          "type": "uint256"
        },
        {
          "internalType": "uint256",
          "name": "calldatas",
          "type": "uint256"
        },
        {
          "internalType": "uint256",
          "name": "values",
          "type": "uint256"
        }
      ],
      "name": "GovernorInvalidProposalLength",
      "type": "error"
    },
    {
      "inputs": [
        {
          "internalType": "uint256",
          "name": "quorumNumerator",
          "type": "uint256"
        },
        {
          "internalType": "uint256",
          "name": "quorumDenominator",
          "type": "uint256"
        }
      ],
      "name": "GovernorInvalidQuorumFraction",
      "type": "error"
    },
    {
      "inputs": [
        {
          "internalType": "address",
          "name": "voter",
          "type": "address"
        }
      ],
      "name": "GovernorInvalidSignature",
      "type": "error"
    },
    {
      "inputs": [],
      "name": "GovernorInvalidVoteParams",
      "type": "error"
    },
    {
      "inputs": [],
      "name": "GovernorInvalidVoteType",
      "type": "error"
    },
    {
      "inputs": [
        {
          "internalType": "uint256",
          "name": "votingPeriod",
          "type": "uint256"
        }
      ],
      "name": "GovernorInvalidVotingPeriod",
      "type": "error"
    },
    {
      "inputs": [
        {
          "internalType": "uint256",
          "name": "proposalId",
          "type": "uint256"
        }
      ],
      "name": "GovernorNonexistentProposal",
      "type": "error"
    },
    {
      "inputs": [
        {
          "internalType": "uint256",
          "name": "proposalId",
          "type": "uint256"
        }
      ],
      "name": "GovernorNotQueuedProposal",
      "type": "error"
    },
    {
      "inputs": [
        {
          "internalType": "address",
          "name": "account",
          "type": "address"
        }
      ],
      "name": "GovernorOnlyExecutor",
      "type": "error"
    },
    {
      "inputs": [],
      "name": "GovernorQueueNotImplemented",
      "type": "error"
    },
    {
      "inputs": [
        {
          "internalType": "address",
          "name": "proposer",
          "type": "address"
        }
      ],
      "name": "GovernorRestrictedProposer",
      "type": "error"
    },
    {
      "inputs": [
        {
          "internalType": "uint256",
          "name": "proposalId",
          "type": "uint256"
        },
        {
          "internalType": "address",
          "name": "account",
          "type": "address"
        }
      ],
      "name": "GovernorUnableToCancel",
      "type": "error"
    },
    {
      "inputs": [
        {
          "internalType": "uint256",
          "name": "proposalId",
          "type": "uint256"
        },
        {
          "internalType": "enum IGovernor.ProposalState",
          "name": "current",
          "type": "uint8"
        },
        {
          "internalType": "bytes32",
          "name": "expectedStates",
          "type": "bytes32"
        }
      ],
      "name": "GovernorUnexpectedProposalState",
      "type": "error"
    },
    {
      "inputs": [
        {
          "internalType": "address",
          "name": "account",
          "type": "address"
        },
        {
          "internalType": "uint256",
          "name": "currentNonce",
          "type": "uint256"
        }
      ],
      "name": "InvalidAccountNonce",
      "type": "error"
    },
    {
      "inputs": [],
      "name": "InvalidShortString",
      "type": "error"
    },
    {
      "inputs": [
        {
          "internalType": "uint8",
          "name": "bits",
          "type": "uint8"
        },
        {
          "internalType": "uint256",
          "name": "value",
          "type": "uint256"
        }
      ],
      "name": "SafeCastOverflowedUintDowncast",
      "type": "error"
    },
    {
      "inputs": [
        {
          "internalType": "string",
          "name": "str",
          "type": "string"
        }
      ],
      "name": "StringTooLong",
      "type": "error"
    },
    {
      "anonymous": false,
      "inputs": [
        {
          "indexed": true,
          "internalType": "address",
          "name": "clinician",
          "type": "address"
        }
      ],
      "name": "ClinicianAdded",
      "type": "event"
    },
    {
      "anonymous": false,
      "inputs": [],
      "name": "EIP712DomainChanged",
      "type": "event"
    },
    {
      "anonymous": false,
      "inputs": [
        {
          "indexed": false,
          "internalType": "uint256",
          "name": "proposalId",
          "type": "uint256"
        },
        {
          "indexed": false,
          "internalType": "uint256",
          "name": "amount",
          "type": "uint256"
        }
      ],
      "name": "FundingApproved",
      "type": "event"
    },
    {
      "anonymous": false,
      "inputs": [
        {
          "indexed": false,
          "internalType": "uint256",
          "name": "newRatePerScreening",
          "type": "uint256"
        }
      ],
      "name": "PaymentRateUpdated",
      "type": "event"
    },
    {
      "anonymous": false,
      "inputs": [
        {
          "indexed": false,
          "internalType": "uint256",
          "name": "proposalId",
          "type": "uint256"
        }
      ],
      "name": "ProposalCanceled",
      "type": "event"
    },
    {
      "anonymous": false,
      "inputs": [
        {
          "indexed": false,
          "internalType": "uint256",
          "name": "proposalId",
          "type": "uint256"
        },
        {
          "indexed": false,
          "internalType": "address",
          "name": "proposer",
          "type": "address"
        },
        {
          "indexed": false,
          "internalType": "address[]",
          "name": "targets",
          "type": "address[]"
        },
        {
          "indexed": false,
          "internalType": "uint256[]",
          "name": "values",
          "type": "uint256[]"
        },
        {
          "indexed": false,
          "internalType": "string[]",
          "name": "signatures",
          "type": "string[]"
        },
        {
          "indexed": false,
          "internalType": "bytes[]",
          "name": "calldatas",
          "type": "bytes[]"
        },
        {
          "indexed": false,
          "internalType": "uint256",
          "name": "voteStart",
          "type": "uint256"
        },
        {
          "indexed": false,
          "internalType": "uint256",
          "name": "voteEnd",
          "type": "uint256"
        },
        {
          "indexed": false,
          "internalType": "string",
          "name": "description",
          "type": "string"
        }
      ],
      "name": "ProposalCreated",
      "type": "event"
    },
    {
      "anonymous": false,
      "inputs": [
        {
          "indexed": false,
          "internalType": "uint256",
          "name": "proposalId",
          "type": "uint256"
        }
      ],
      "name": "ProposalExecuted",
      "type": "event"
    },
    {
      "anonymous": false,
      "inputs": [
        {
          "indexed": false,
          "internalType": "uint256",
          "name": "proposalId",
          "type": "uint256"
        },
        {
          "indexed": false,
          "internalType": "uint256",
          "name": "etaSeconds",
          "type": "uint256"
        }
      ],
      "name": "ProposalQueued",
      "type": "event"
    },
    {
      "anonymous": false,
      "inputs": [
        {
          "indexed": false,
          "internalType": "uint256",
          "name": "oldProposalThreshold",
          "type": "uint256"
        },
        {
          "indexed": false,
          "internalType": "uint256",
          "name": "newProposalThreshold",
          "type": "uint256"
        }
      ],
      "name": "ProposalThresholdSet",
      "type": "event"
    },
    {
      "anonymous": false,
      "inputs": [
        {
          "indexed": true,
          "internalType": "address",
          "name": "newRegistry",
          "type": "address"
        },
        {
          "indexed": true,
          "internalType": "address",
          "name": "oldRegistry",
          "type": "address"
        }
      ],
      "name": "ProtocolUpgraded",
      "type": "event"
    },
    {
      "anonymous": false,
      "inputs": [
        {
          "indexed": false,
          "internalType": "uint256",
          "name": "oldQuorumNumerator",
          "type": "uint256"
        },
        {
          "indexed": false,
          "internalType": "uint256",
          "name": "newQuorumNumerator",
          "type": "uint256"
        }
      ],
      "name": "QuorumNumeratorUpdated",
      "type": "event"
    },
    {
      "anonymous": false,
      "inputs": [
        {
          "indexed": true,
          "internalType": "address",
          "name": "registry",
          "type": "address"
        }
      ],
      "name": "ScreeningRegistrySet",
      "type": "event"
    },
    {
      "anonymous": false,
      "inputs": [
        {
          "indexed": false,
          "internalType": "address",
          "name": "oldTimelock",
          "type": "address"
        },
        {
          "indexed": false,
          "internalType": "address",
          "name": "newTimelock",
          "type": "address"
        }
      ],
      "name": "TimelockChange",
      "type": "event"
    },
    {
      "anonymous": false,
      "inputs": [
        {
          "indexed": true,
          "internalType": "address",
          "name": "treasury",
          "type": "address"
        }
      ],
      "name": "TreasurySet",
      "type": "event"
    },
    {
      "anonymous": false,
      "inputs": [
        {
          "indexed": true,
          "internalType": "address",
          "name": "voter",
          "type": "address"
        },
        {
          "indexed": false,
          "internalType": "uint256",
          "name": "proposalId",
          "type": "uint256"
        },
        {
          "indexed": false,
          "internalType": "uint8",
          "name": "support",
          "type": "uint8"
        },
        {
          "indexed": false,
          "internalType": "uint256",
          "name": "weight",
          "type": "uint256"
        },
        {
          "indexed": false,
          "internalType": "string",
          "name": "reason",
          "type": "string"
        }
      ],
      "name": "VoteCast",
      "type": "event"
    },
    {
      "anonymous": false,
      "inputs": [
        {
          "indexed": true,
          "internalType": "address",
          "name": "voter",
          "type": "address"
        },
        {
          "indexed": false,
          "internalType": "uint256",
          "name": "proposalId",
          "type": "uint256"
        },
        {
          "indexed": false,
          "internalType": "uint8",
          "name": "support",
          "type": "uint8"
        },
        {
          "indexed": false,
          "internalType": "uint256",
          "name": "weight",
          "type": "uint256"
        },
        {
          "indexed": false,
          "internalType": "string",
          "name": "reason",
          "type": "string"
        },
        {
          "indexed": false,
          "internalType": "bytes",
          "name": "params",
          "type": "bytes"
        }
      ],
      "name": "VoteCastWithParams",
      "type": "event"
    },
    {
      "anonymous": false,
      "inputs": [
        {
          "indexed": false,
          "internalType": "uint256",
          "name": "oldVotingDelay",
          "type": "uint256"
        },
        {
          "indexed": false,
          "internalType": "uint256",
          "name": "newVotingDelay",
          "type": "uint256"
        }
      ],
      "name": "VotingDelaySet",
      "type": "event"
    },
    {
      "anonymous": false,
      "inputs": [
        {
          "indexed": false,
          "internalType": "uint256",
          "name": "oldVotingPeriod",
          "type": "uint256"
        },
        {
          "indexed": false,
          "internalType": "uint256",
          "name": "newVotingPeriod",
          "type": "uint256"
        }
      ],
      "name": "VotingPeriodSet",
      "type": "event"
    },
    {
      "inputs": [],
      "name": "BALLOT_TYPEHASH",
      "outputs": [
        {
          "internalType": "bytes32",
          "name": "",
          "type": "bytes32"
        }
      ],
      "stateMutability": "view",
      "type": "function"
    },
    {
      "inputs": [],
      "name": "CLOCK_MODE",
      "outputs": [
        {
          "internalType": "string",
          "name": "",
          "type": "string"
        }
      ],
      "stateMutability": "view",
      "type": "function"
    },
    {
      "inputs": [],
      "name": "COUNTING_MODE",
      "outputs": [
        {
          "internalType": "string",
          "name": "",
          "type": "string"
        }
      ],
      "stateMutability": "pure",
      "type": "function"
    },
    {
      "inputs": [],
      "name": "EXTENDED_BALLOT_TYPEHASH",
      "outputs": [
        {
          "internalType": "bytes32",
          "name": "",
          "type": "bytes32"
        }
      ],
      "stateMutability": "view",
      "type": "function"
    },
    {
      "inputs": [
        {
          "internalType": "uint256",
          "name": "proposalId",
          "type": "uint256"
        }
      ],
      "name": "cancel",
      "outputs": [],
      "stateMutability": "nonpayable",
      "type": "function"
    },
    {
      "inputs": [
        {
          "internalType": "address[]",
          "name": "targets",
          "type": "address[]"
        },
        {
          "internalType": "uint256[]",
          "name": "values",
          "type": "uint256[]"
        },
        {
          "internalType": "bytes[]",
          "name": "calldatas",
          "type": "bytes[]"
        },
        {
          "internalType": "bytes32",
          "name": "descriptionHash",
          "type": "bytes32"
        }
      ],
      "name": "cancel",
      "outputs": [
        {
          "internalType": "uint256",
          "name": "",
          "type": "uint256"
        }
      ],
      "stateMutability": "nonpayable",
      "type": "function"
    },
    {
      "inputs": [
        {
          "internalType": "uint256",
          "name": "proposalId",
          "type": "uint256"
        },
        {
          "internalType": "uint8",
          "name": "support",
          "type": "uint8"
        }
      ],
      "name": "castVote",
      "outputs": [
        {
          "internalType": "uint256",
          "name": "",
          "type": "uint256"
        }
      ],
      "stateMutability": "nonpayable",
      "type": "function"
    },
    {
      "inputs": [
        {
          "internalType": "uint256",
          "name": "proposalId",
          "type": "uint256"
        },
        {
          "internalType": "uint8",
          "name": "support",
          "type": "uint8"
        },
        {
          "internalType": "address",
          "name": "voter",
          "type": "address"
        },
        {
          "internalType": "bytes",
          "name": "signature",
          "type": "bytes"
        }
      ],
      "name": "castVoteBySig",
      "outputs": [
        {
          "internalType": "uint256",
          "name": "",
          "type": "uint256"
        }
      ],
      "stateMutability": "nonpayable",
      "type": "function"
    },
    {
      "inputs": [
        {
          "internalType": "uint256",
          "name": "proposalId",
          "type": "uint256"
        },
        {
          "internalType": "uint8",
          "name": "support",
          "type": "uint8"
        },
        {
          "internalType": "string",
          "name": "reason",
          "type": "string"
        }
      ],
      "name": "castVoteWithReason",
      "outputs": [
        {
          "internalType": "uint256",
          "name": "",
          "type": "uint256"
        }
      ],
      "stateMutability": "nonpayable",
      "type": "function"
    },
    {
      "inputs": [
        {
          "internalType": "uint256",
          "name": "proposalId",
          "type": "uint256"
        },
        {
          "internalType": "uint8",
          "name": "support",
          "type": "uint8"
        },
        {
          "internalType": "string",
          "name": "reason",
          "type": "string"
        },
        {
          "internalType": "bytes",
          "name": "params",
          "type": "bytes"
        }
      ],
      "name": "castVoteWithReasonAndParams",
      "outputs": [
        {
          "internalType": "uint256",
          "name": "",
          "type": "uint256"
        }
      ],
      "stateMutability": "nonpayable",
      "type": "function"
    },
    {
      "inputs": [
        {
          "internalType": "uint256",
          "name": "proposalId",
          "type": "uint256"
        },
        {
          "internalType": "uint8",
          "name": "support",
          "type": "uint8"
        },
        {
          "internalType": "address",
          "name": "voter",
          "type": "address"
        },
        {
          "internalType": "string",
          "name": "reason",
          "type": "string"
        },
        {
          "internalType": "bytes",
          "name": "params",
          "type": "bytes"
        },
        {
          "internalType": "bytes",
          "name": "signature",
          "type": "bytes"
        }
      ],
      "name": "castVoteWithReasonAndParamsBySig",
      "outputs": [
        {
          "internalType": "uint256",
          "name": "",
          "type": "uint256"
        }
      ],
      "stateMutability": "nonpayable",
      "type": "function"
    },
    {
      "inputs": [],
      "name": "clock",
      "outputs": [
        {
          "internalType": "uint48",
          "name": "",
          "type": "uint48"
        }
      ],
      "stateMutability": "view",
      "type": "function"
    },
    {
      "inputs": [],
      "name": "eip712Domain",
      "outputs": [
        {
          "internalType": "bytes1",
          "name": "fields",
          "type": "bytes1"
        },
        {
          "internalType": "string",
          "name": "name",
          "type": "string"
        },
        {
          "internalType": "string",
          "name": "version",
          "type": "string"
        },
        {
          "internalType": "uint256",
          "name": "chainId",
          "type": "uint256"
        },
        {
          "internalType": "address",
          "name": "verifyingContract",
          "type": "address"
        },
        {
          "internalType": "bytes32",
          "name": "salt",
          "type": "bytes32"
        },
        {
          "internalType": "uint256[]",
          "name": "extensions",
          "type": "uint256[]"
        }
      ],
      "stateMutability": "view",
      "type": "function"
    },
    {
      "inputs": [
        {
          "internalType": "address[]",
          "name": "targets",
          "type": "address[]"
        },
        {
          "internalType": "uint256[]",
          "name": "values",
          "type": "uint256[]"
        },
        {
          "internalType": "bytes[]",
          "name": "calldatas",
          "type": "bytes[]"
        },
        {
          "internalType": "bytes32",
          "name": "descriptionHash",
          "type": "bytes32"
        }
      ],
      "name": "execute",
      "outputs": [
        {
          "internalType": "uint256",
          "name": "",
          "type": "uint256"
        }
      ],
      "stateMutability": "payable",
      "type": "function"
    },
    {
      "inputs": [
        {
          "internalType": "uint256",
          "name": "proposalId",
          "type": "uint256"
        }
      ],
      "name": "execute",
      "outputs": [],
      "stateMutability": "payable",
      "type": "function"
    },
    {
      "inputs": [
        {
          "internalType": "address",
          "name": "newRegistry",
          "type": "address"
        }
      ],
      "name": "executeRegistryUpgrade",
      "outputs": [],
      "stateMutability": "nonpayable",
      "type": "function"
    },
    {
      "inputs": [
        {
          "internalType": "uint256",
          "name": "proposalId",
          "type": "uint256"
        }
      ],
      "name": "executeTimelockedProposal",
      "outputs": [],
      "stateMutability": "nonpayable",
      "type": "function"
    },
    {
      "inputs": [
        {
          "internalType": "address[]",
          "name": "targets",
          "type": "address[]"
        },
        {
          "internalType": "uint256[]",
          "name": "values",
          "type": "uint256[]"
        },
        {
          "internalType": "bytes[]",
          "name": "calldatas",
          "type": "bytes[]"
        },
        {
          "internalType": "bytes32",
          "name": "descriptionHash",
          "type": "bytes32"
        }
      ],
      "name": "getProposalId",
      "outputs": [
        {
          "internalType": "uint256",
          "name": "",
          "type": "uint256"
        }
      ],
      "stateMutability": "view",
      "type": "function"
    },
    {
      "inputs": [
        {
          "internalType": "address",
          "name": "account",
          "type": "address"
        },
        {
          "internalType": "uint256",
          "name": "timepoint",
          "type": "uint256"
        }
      ],
      "name": "getVotes",
      "outputs": [
        {
          "internalType": "uint256",
          "name": "",
          "type": "uint256"
        }
      ],
      "stateMutability": "view",
      "type": "function"
    },
    {
      "inputs": [
        {
          "internalType": "address",
          "name": "account",
          "type": "address"
        },
        {
          "internalType": "uint256",
          "name": "timepoint",
          "type": "uint256"
        },
        {
          "internalType": "bytes",
          "name": "params",
          "type": "bytes"
        }
      ],
      "name": "getVotesWithParams",
      "outputs": [
        {
          "internalType": "uint256",
          "name": "",
          "type": "uint256"
        }
      ],
      "stateMutability": "view",
      "type": "function"
    },
    {
      "inputs": [
        {
          "internalType": "uint256",
          "name": "proposalId",
          "type": "uint256"
        },
        {
          "internalType": "address",
          "name": "account",
          "type": "address"
        }
      ],
      "name": "hasVoted",
      "outputs": [
        {
          "internalType": "bool",
          "name": "",
          "type": "bool"
        }
      ],
      "stateMutability": "view",
      "type": "function"
    },
    {
      "inputs": [
        {
          "internalType": "address[]",
          "name": "targets",
          "type": "address[]"
        },
        {
          "internalType": "uint256[]",
          "name": "values",
          "type": "uint256[]"
        },
        {
          "internalType": "bytes[]",
          "name": "calldatas",
          "type": "bytes[]"
        },
        {
          "internalType": "bytes32",
          "name": "descriptionHash",
          "type": "bytes32"
        }
      ],
      "name": "hashProposal",
      "outputs": [
        {
          "internalType": "uint256",
          "name": "",
          "type": "uint256"
        }
      ],
      "stateMutability": "pure",
      "type": "function"
    },
    {
      "inputs": [],
      "name": "name",
      "outputs": [
        {
          "internalType": "string",
          "name": "",
          "type": "string"
        }
      ],
      "stateMutability": "view",
      "type": "function"
    },
    {
      "inputs": [
        {
          "internalType": "address",
          "name": "owner",
          "type": "address"
        }
      ],
      "name": "nonces",
      "outputs": [
        {
          "internalType": "uint256",
          "name": "",
          "type": "uint256"
        }
      ],
      "stateMutability": "view",
      "type": "function"
    },
    {
      "inputs": [
        {
          "internalType": "address",
          "name": "",
          "type": "address"
        },
        {
          "internalType": "address",
          "name": "",
          "type": "address"
        },
        {
          "internalType": "uint256[]",
          "name": "",
          "type": "uint256[]"
        },
        {
          "internalType": "uint256[]",
          "name": "",
          "type": "uint256[]"
        },
        {
          "internalType": "bytes",
          "name": "",
          "type": "bytes"
        }
      ],
      "name": "onERC1155BatchReceived",
      "outputs": [
        {
          "internalType": "bytes4",
          "name": "",
          "type": "bytes4"
        }
      ],
      "stateMutability": "nonpayable",
      "type": "function"
    },
    {
      "inputs": [
        {
          "internalType": "address",
          "name": "",
          "type": "address"
        },
        {
          "internalType": "address",
          "name": "",
          "type": "address"
        },
        {
          "internalType": "uint256",
          "name": "",
          "type": "uint256"
        },
        {
          "internalType": "uint256",
          "name": "",
          "type": "uint256"
        },
        {
          "internalType": "bytes",
          "name": "",
          "type": "bytes"
        }
      ],
      "name": "onERC1155Received",
      "outputs": [
        {
          "internalType": "bytes4",
          "name": "",
          "type": "bytes4"
        }
      ],
      "stateMutability": "nonpayable",
      "type": "function"
    },
    {
      "inputs": [
        {
          "internalType": "address",
          "name": "",
          "type": "address"
        },
        {
          "internalType": "address",
          "name": "",
          "type": "address"
        },
        {
          "internalType": "uint256",
          "name": "",
          "type": "uint256"
        },
        {
          "internalType": "bytes",
          "name": "",
          "type": "bytes"
        }
      ],
      "name": "onERC721Received",
      "outputs": [
        {
          "internalType": "bytes4",
          "name": "",
          "type": "bytes4"
        }
      ],
      "stateMutability": "nonpayable",
      "type": "function"
    },
    {
      "inputs": [],
      "name": "proposalCount",
      "outputs": [
        {
          "internalType": "uint256",
          "name": "",
          "type": "uint256"
        }
      ],
      "stateMutability": "view",
      "type": "function"
    },
    {
      "inputs": [
        {
          "internalType": "uint256",
          "name": "proposalId",
          "type": "uint256"
        }
      ],
      "name": "proposalDeadline",
      "outputs": [
        {
          "internalType": "uint256",
          "name": "",
          "type": "uint256"
        }
      ],
      "stateMutability": "view",
      "type": "function"
    },
    {
      "inputs": [
        {
          "internalType": "uint256",
          "name": "proposalId",
          "type": "uint256"
        }
      ],
      "name": "proposalDetails",
      "outputs": [
        {
          "internalType": "address[]",
          "name": "targets",
          "type": "address[]"
        },
        {
          "internalType": "uint256[]",
          "name": "values",
          "type": "uint256[]"
        },
        {
          "internalType": "bytes[]",
          "name": "calldatas",
          "type": "bytes[]"
        },
        {
          "internalType": "bytes32",
          "name": "descriptionHash",
          "type": "bytes32"
        }
      ],
      "stateMutability": "view",
      "type": "function"
    },
    {
      "inputs": [
        {
          "internalType": "uint256",
          "name": "index",
          "type": "uint256"
        }
      ],
      "name": "proposalDetailsAt",
      "outputs": [
        {
          "internalType": "uint256",
          "name": "proposalId",
          "type": "uint256"
        },
        {
          "internalType": "address[]",
          "name": "targets",
          "type": "address[]"
        },
        {
          "internalType": "uint256[]",
          "name": "values",
          "type": "uint256[]"
        },
        {
          "internalType": "bytes[]",
          "name": "calldatas",
          "type": "bytes[]"
        },
        {
          "internalType": "bytes32",
          "name": "descriptionHash",
          "type": "bytes32"
        }
      ],
      "stateMutability": "view",
      "type": "function"
    },
    {
      "inputs": [
        {
          "internalType": "uint256",
          "name": "proposalId",
          "type": "uint256"
        }
      ],
      "name": "proposalEta",
      "outputs": [
        {
          "internalType": "uint256",
          "name": "",
          "type": "uint256"
        }
      ],
      "stateMutability": "view",
      "type": "function"
    },
    {
      "inputs": [
        {
          "internalType": "uint256",
          "name": "proposalId",
          "type": "uint256"
        }
      ],
      "name": "proposalNeedsQueuing",
      "outputs": [
        {
          "internalType": "bool",
          "name": "",
          "type": "bool"
        }
      ],
      "stateMutability": "view",
      "type": "function"
    },
    {
      "inputs": [
        {
          "internalType": "uint256",
          "name": "proposalId",
          "type": "uint256"
        }
      ],
      "name": "proposalProposer",
      "outputs": [
        {
          "internalType": "address",
          "name": "",
          "type": "address"
        }
      ],
      "stateMutability": "view",
      "type": "function"
    },
    {
      "inputs": [
        {
          "internalType": "uint256",
          "name": "proposalId",
          "type": "uint256"
        }
      ],
      "name": "proposalSnapshot",
      "outputs": [
        {
          "internalType": "uint256",
          "name": "",
          "type": "uint256"
        }
      ],
      "stateMutability": "view",
      "type": "function"
    },
    {
      "inputs": [],
      "name": "proposalThreshold",
      "outputs": [
        {
          "internalType": "uint256",
          "name": "",
          "type": "uint256"
        }
      ],
      "stateMutability": "view",
      "type": "function"
    },
    {
      "inputs": [
        {
          "internalType": "uint256",
          "name": "proposalId",
          "type": "uint256"
        }
      ],
      "name": "proposalVotes",
      "outputs": [
        {
          "internalType": "uint256",
          "name": "againstVotes",
          "type": "uint256"
        },
        {
          "internalType": "uint256",
          "name": "forVotes",
          "type": "uint256"
        },
        {
          "internalType": "uint256",
          "name": "abstainVotes",
          "type": "uint256"
        }
      ],
      "stateMutability": "view",
      "type": "function"
    },
    {
      "inputs": [
        {
          "internalType": "address[]",
          "name": "targets",
          "type": "address[]"
        },
        {
          "internalType": "uint256[]",
          "name": "values",
          "type": "uint256[]"
        },
        {
          "internalType": "bytes[]",
          "name": "calldatas",
          "type": "bytes[]"
        },
        {
          "internalType": "string",
          "name": "description",
          "type": "string"
        }
      ],
      "name": "propose",
      "outputs": [
        {
          "internalType": "uint256",
          "name": "",
          "type": "uint256"
        }
      ],
      "stateMutability": "nonpayable",
      "type": "function"
    },
    {
      "inputs": [
        {
          "internalType": "bool",
          "name": "paused",
          "type": "bool"
        }
      ],
      "name": "proposeEmergencyPause",
      "outputs": [
        {
          "internalType": "uint256",
          "name": "",
          "type": "uint256"
        }
      ],
      "stateMutability": "nonpayable",
      "type": "function"
    },
    {
      "inputs": [
        {
          "internalType": "uint256",
          "name": "ratePerScreening",
          "type": "uint256"
        }
      ],
      "name": "proposePaymentRate",
      "outputs": [
        {
          "internalType": "uint256",
          "name": "",
          "type": "uint256"
        }
      ],
      "stateMutability": "nonpayable",
      "type": "function"
    },
    {
      "inputs": [
        {
          "internalType": "address",
          "name": "newRegistry",
          "type": "address"
        }
      ],
      "name": "proposeRegistryUpgrade",
      "outputs": [
        {
          "internalType": "uint256",
          "name": "",
          "type": "uint256"
        }
      ],
      "stateMutability": "nonpayable",
      "type": "function"
    },
    {
      "inputs": [],
      "name": "psdaoToken",
      "outputs": [
        {
          "internalType": "contract PSDAOToken",
          "name": "",
          "type": "address"
        }
      ],
      "stateMutability": "view",
      "type": "function"
    },
    {
      "inputs": [
        {
          "internalType": "address[]",
          "name": "targets",
          "type": "address[]"
        },
        {
          "internalType": "uint256[]",
          "name": "values",
          "type": "uint256[]"
        },
        {
          "internalType": "bytes[]",
          "name": "calldatas",
          "type": "bytes[]"
        },
        {
          "internalType": "bytes32",
          "name": "descriptionHash",
          "type": "bytes32"
        }
      ],
      "name": "queue",
      "outputs": [
        {
          "internalType": "uint256",
          "name": "",
          "type": "uint256"
        }
      ],
      "stateMutability": "nonpayable",
      "type": "function"
    },
    {
      "inputs": [
        {
          "internalType": "uint256",
          "name": "proposalId",
          "type": "uint256"
        }
      ],
      "name": "queue",
      "outputs": [],
      "stateMutability": "nonpayable",
      "type": "function"
    },
    {
      "inputs": [
        {
          "internalType": "uint256",
          "name": "timepoint",
          "type": "uint256"
        }
      ],
      "name": "quorum",
      "outputs": [
        {
          "internalType": "uint256",
          "name": "",
          "type": "uint256"
        }
      ],
      "stateMutability": "view",
      "type": "function"
    },
    {
      "inputs": [],
      "name": "quorumDenominator",
      "outputs": [
        {
          "internalType": "uint256",
          "name": "",
          "type": "uint256"
        }
      ],
      "stateMutability": "view",
      "type": "function"
    },
    {
      "inputs": [
        {
          "internalType": "uint256",
          "name": "timepoint",
          "type": "uint256"
        }
      ],
      "name": "quorumNumerator",
      "outputs": [
        {
          "internalType": "uint256",
          "name": "",
          "type": "uint256"
        }
      ],
      "stateMutability": "view",
      "type": "function"
    },
    {
      "inputs": [],
      "name": "quorumNumerator",
      "outputs": [
        {
          "internalType": "uint256",
          "name": "",
          "type": "uint256"
        }
      ],
      "stateMutability": "view",
      "type": "function"
    },
    {
      "inputs": [
        {
          "internalType": "address",
          "name": "target",
          "type": "address"
        },
        {
          "internalType": "uint256",
          "name": "value",
          "type": "uint256"
        },
        {
          "internalType": "bytes",
          "name": "data",
          "type": "bytes"
        }
      ],
      "name": "relay",
      "outputs": [],
      "stateMutability": "payable",
      "type": "function"
    },
    {
      "inputs": [],
      "name": "screeningRegistry",
      "outputs": [
        {
          "internalType": "address",
          "name": "",
          "type": "address"
        }
      ],
      "stateMutability": "view",
      "type": "function"
    },
    {
      "inputs": [
        {
          "internalType": "bool",
          "name": "",
          "type": "bool"
        }
      ],
      "name": "setEmergencyPause",
      "outputs": [],
      "stateMutability": "nonpayable",
      "type": "function"
    },
    {
      "inputs": [
        {
          "internalType": "uint256",
          "name": "newProposalThreshold",
          "type": "uint256"
        }
      ],
      "name": "setProposalThreshold",
      "outputs": [],
      "stateMutability": "nonpayable",
      "type": "function"
    },
    {
      "inputs": [
        {
          "internalType": "address",
          "name": "_registry",
          "type": "address"
        }
      ],
      "name": "setScreeningRegistry",
      "outputs": [],
      "stateMutability": "nonpayable",
      "type": "function"
    },
    {
      "inputs": [
        {
          "internalType": "address",
          "name": "_treasury",
          "type": "address"
        }
      ],
      "name": "setTreasury",
      "outputs": [],
      "stateMutability": "nonpayable",
      "type": "function"
    },
    {
      "inputs": [
        {
          "internalType": "uint48",
          "name": "newVotingDelay",
          "type": "uint48"
        }
      ],
      "name": "setVotingDelay",
      "outputs": [],
      "stateMutability": "nonpayable",
      "type": "function"
    },
    {
      "inputs": [
        {
          "internalType": "uint32",
          "name": "newVotingPeriod",
          "type": "uint32"
        }
      ],
      "name": "setVotingPeriod",
      "outputs": [],
      "stateMutability": "nonpayable",
      "type": "function"
    },
    {
      "inputs": [
        {
          "internalType": "uint256",
          "name": "proposalId",
          "type": "uint256"
        }
      ],
      "name": "state",
      "outputs": [
        {
          "internalType": "enum IGovernor.ProposalState",
          "name": "",
          "type": "uint8"
        }
      ],
      "stateMutability": "view",
      "type": "function"
    },
    {
      "inputs": [
        {
          "internalType": "bytes4",
          "name": "interfaceId",
          "type": "bytes4"
        }
      ],
      "name": "supportsInterface",
      "outputs": [
        {
          "internalType": "bool",
          "name": "",
          "type": "bool"
        }
      ],
      "stateMutability": "view",
      "type": "function"
    },
    {
      "inputs": [],
      "name": "timelock",
      "outputs": [
        {
          "internalType": "address",
          "name": "",
          "type": "address"
        }
      ],
      "stateMutability": "view",
      "type": "function"
    },
    {
      "inputs": [],
      "name": "token",
      "outputs": [
        {
          "internalType": "contract IERC5805",
          "name": "",
          "type": "address"
        }
      ],
      "stateMutability": "view",
      "type": "function"
    },
    {
      "inputs": [],
      "name": "treasury",
      "outputs": [
        {
          "internalType": "address",
          "name": "",
          "type": "address"
        }
      ],
      "stateMutability": "view",
      "type": "function"
    },
    {
      "inputs": [
        {
          "internalType": "uint256",
          "name": "newQuorumNumerator",
          "type": "uint256"
        }
      ],
      "name": "updateQuorumNumerator",
      "outputs": [],
      "stateMutability": "nonpayable",
      "type": "function"
    },
    {
      "inputs": [
        {
          "internalType": "contract TimelockController",
          "name": "newTimelock",
          "type": "address"
        }
      ],
      "name": "updateTimelock",
      "outputs": [],
      "stateMutability": "nonpayable",
      "type": "function"
    },
    {
      "inputs": [
        {
          "internalType": "address[]",
          "name": "oldProposers",
          "type": "address[]"
        },
        {
          "internalType": "address[]",
          "name": "newProposers",
          "type": "address[]"
        },
        {
          "internalType": "address[]",
          "name": "oldExecutors",
          "type": "address[]"
        },
        {
          "internalType": "address[]",
          "name": "newExecutors",
          "type": "address[]"
        }
      ],
      "name": "updateTimelockRoles",
      "outputs": [],
      "stateMutability": "nonpayable",
      "type": "function"
    },
    {
      "inputs": [],
      "name": "version",
      "outputs": [
        {
          "internalType": "string",
          "name": "",
          "type": "string"
        }
      ],
      "stateMutability": "view",
      "type": "function"
    },
    {
      "inputs": [],
      "name": "votingDelay",
      "outputs": [
        {
          "internalType": "uint256",
          "name": "",
          "type": "uint256"
        }
      ],
      "stateMutability": "view",
      "type": "function"
    },
    {
      "inputs": [],
      "name": "votingPeriod",
      "outputs": [
        {
          "internalType": "uint256",
          "name": "",
          "type": "uint256"
        }
      ],
      "stateMutability": "view",
      "type": "function"
    },
    {
      "stateMutability": "payable",
      "type": "receive"
    }
  ],
  "bytecode": "0x6101a0604052346100bb5761001e61001561011d565b929190916101a8565b604051614f799081610ad482396080518161499e015260a05181614a55015260c05181614968015260e051816149ed01526101005181614a13015261012051816113a1015261014051816113cd01526101605181818161181501528181611e9101528181612139015281816121c2015281816129bf01528181612c430152818161306b01528181613652015261490f01526101805181610e060152f35b5f80fd5b634e487b7160e01b5f52604160045260245ffd5b601f909101601f19168101906001600160401b038211908210176100f657604052565b6100bf565b6040519061010a6040836100d3565b565b6001600160a01b038116036100bb57565b615a4d6080813803918260405193849261013782856100d3565b8339810103126100bb57805161014c8161010c565b60208201519261015b8461010c565b606060408401519361016c8561010c565b0151916101788361010c565b93929190565b6040519061018d6040836100d3565b600e8252565b604051906101a26040836100d3565b60018252565b906102a7906102746101b861017e565b602081016d5065646953637265656e2044414f60901b81526101d8610193565b906020820190603160f81b82526101ee84610658565b610120526101fb83610748565b6101405283519020918260e05251902080610100524660a0526040519060208201927f8b73c3c69bb8fe3d512ecc4cf759cc79239f7b179b0ffacaa9a75d522b39400f8452604083015260608201524660808201523060a082015260a0815261026560c0826100d3565b5190206080523060c052610399565b61027c61057e565b6102846105c9565b61028c61061f565b6001600160a01b038316610160526102a26104d1565b61047e565b610180526001600160a01b0381166102ed575b506001600160a01b0381166102cc5750565b600f80546001600160a01b0319166001600160a01b03909216919091179055565b601080546001600160a01b0319166001600160a01b039092169190911790555f6102ba565b90600182811c92168015610340575b602083101461032c57565b634e487b7160e01b5f52602260045260245ffd5b91607f1691610321565b601f821161035757505050565b5f5260205f20906020601f840160051c8301931061038f575b601f0160051c01905b818110610384575050565b5f8155600101610379565b9091508190610370565b80519091906001600160401b0381116100f6576103c2816103bb600354610312565b600361034a565b602092601f8211600114610402576103f2929382915f926103f7575b50508160011b915f199060031b1c19161790565b600355565b015190505f806103de565b60035f52601f198216937fc2575a0e9e593c00f959f8c92f12db2869c3395a3b0502d05e2516446f71f85b915f5b868110610466575083600195961061044e575b505050811b01600355565b01515f1960f88460031b161c191690555f8080610443565b91926020600181928685015181550194019201610430565b600b54604080516001600160a01b03808416825290931660208401819052927f08f74ea46ef7894f65eabfb5e6e695de773a000b47c529ab559178069b2264019190a16001600160a01b03191617600b55565b600a548061053157505f5b6001600160d01b03166104ed61083a565b7f0553476bf02ef2726e8ce5ced78d63e26e602e4a2257b1f559418e24b46339979160049161051d90839061099b565b5050604080519182526020820192909252a1565b805f1981011161056a57600a5f527fc65a7bb8d6351c1cf70c95a316cc6a92839c986682d98bc35f958f4883f9d2a7015460301c6104dc565b634e487b7160e01b5f52601160045260245ffd5b60016008547fc565b045403dc03c2eea82b81a0465edad9e2e7fc4d97e11421c209da93d7a936040805165ffffffffffff84168152846020820152a165ffffffffffff191617600855565b67b2fa0000000000006008547f7e3f7f0708a84de9203036abaa450dccc85ad5ff52f78c170f3edb55cf5e88286040805163ffffffff8460301c16815261b2fa6020820152a163ffffffff60301b191617600855565b600754604080519182525f60208301527fccb45da8d5717e6c4544694297c4ba5cf151d455c9bb0ed4fc7a38411bc0546191a15f600755565b908151602081105f14610673575090610670906108bb565b90565b6001600160401b0381116100f6576106958161068f5f54610312565b5f61034a565b602092601f82116001146106cb576106c4929382915f926103f75750508160011b915f199060031b1c19161790565b5f5560ff90565b5f8052601f198216937f290decd9548b62a8d60345a988386fc84ba6bc95484008f6362f93160ef3e563915f5b8681106107305750836001959610610718575b505050811b015f5560ff90565b01515f1960f88460031b161c191690555f808061070b565b919260206001819286850151815501940192016106f8565b908151602081105f14610760575090610670906108bb565b6001600160401b0381116100f6576107848161077d600154610312565b600161034a565b602092601f82116001146107bb576107b3929382915f926103f75750508160011b915f199060031b1c19161790565b60015560ff90565b60015f52601f198216937fb10e2d527612073b26eecdfd717e6a320cf44b4afac2b0732d9fcbe2b7fa0cf6915f5b868110610822575083600195961061080a575b505050811b0160015560ff90565b01515f1960f88460031b161c191690555f80806107fc565b919260206001819286850151815501940192016107e9565b610160516040516324776b7d60e21b815290602090829060049082906001600160a01b03165afa5f9181610878575b50610670575061067043610aa4565b9091506020813d6020116108b3575b81610894602093836100d3565b810103126100bb575165ffffffffffff811681036100bb57905f610869565b3d9150610887565b601f8151116108e65760208151910151602082106108d7571790565b5f198260200360031b1b161790565b604460209160405192839163305a27a960e01b83528160048401528051918291826024860152018484015e5f828201840152601f01601f19168101030190fd5b5f1981019190821161056a57565b908154680100000000000000008110156100f65760018101808455811015610987575f9283526020928390208251929093015160301b65ffffffffffff191665ffffffffffff9290921691909117910155565b634e487b7160e01b5f52603260045260245ffd5b600a549192918015610a7b576109b36109dc91610926565b600a5f527fc65a7bb8d6351c1cf70c95a316cc6a92839c986682d98bc35f958f4883f9d2a80190565b9081546109f86109f18265ffffffffffff1690565b9160301c90565b9265ffffffffffff808416921691808311610a6c57869203610a3657610a3292509065ffffffffffff82549181199060301b169116179055565b9190565b5050610a3290610a55610a476100fb565b65ffffffffffff9092168252565b6001600160d01b03851660208201525b600a610934565b632520601d60e01b5f5260045ffd5b50610a9f90610a8b610a476100fb565b6001600160d01b0384166020820152610a65565b5f9190565b65ffffffffffff8111610abc5765ffffffffffff1690565b6306dfcc6560e41b5f52603060045260245260445ffdfe60806040526004361015610022575b3615610018575f80fd5b61002061327d565b005b5f3560e01c806301ffc9a71461044c57806302a251a31461044757806306f3f9e61461044257806306fdde031461043d578063143489d014610438578063150b7a0214610433578063160cbed71461042e57806316e9eaec146104295780632656227d146104245780632d63f6931461041f5780632e82db941461041a5780632fe3e261146104155780633932abb1146104105780633e4f49e61461040b57806340e58ee5146104065780634385963214610401578063452115d6146103fc578063488b66aa146103f75780634bf5d7e9146103f2578063544ffc9c146103ed57806354fd4d50146103e857806356781388146103e35780635b8d0e0d146103de5780635f398a14146103d957806360c4247f146103d457806361d027b3146103cf5780636a0c63c3146103ca57806379051887146103c55780637b3c71d3146103c05780637d5e81e2146103bb5780637e405c75146103b65780637ecebe00146103b157806384b0196e146103ac5780638d0b5306146103a75780638ea15da9146103a25780638ff262e31461039d57806391ddadf41461039857806397c3d334146103935780639a802a6d1461038e578063a7713a7014610389578063a890c91014610384578063a8f8a6681461035c578063a9a952941461037f578063ab58fb8e1461037a578063b1a68eec14610375578063b58131b014610370578063bc197c811461036b578063c01f9e3714610366578063c28bc2fa14610361578063c59057e41461035c578063d33219b414610357578063d8d1a65714610352578063da35c6641461034d578063dd4e2ba514610348578063ddf0b00914610343578063deaaa7cc1461033e578063e540d01d14610339578063e6b0b29e14610334578063eb9019d41461032f578063ece40cc11461032a578063ed405ea314610325578063f0f4426014610320578063f23a6e611461031b578063f2e8b7ad14610316578063f8ce560a14610311578063fc0c546a1461030c5763fe0d94c10361000e576121f1565b6121ad565b612109565b61202b565b611fbe565b611f45565b611f29565b611ed4565b611e2f565b611db6565b611d10565b611cd6565b611c8d565b611c2e565b611c11565b611bde565b611bb6565b611930565b611b4b565b611b2d565b611a80565b611a63565b6119a5565b611968565b61194c565b6118b8565b61188d565b6117a3565b611788565b61175e565b611645565b6115a8565b611449565b611389565b61134e565b611326565b611278565b611223565b6111b1565b6110ca565b6110a2565b611084565b611004565b610f5e565b610ef8565b610ea5565b610e64565b610e35565b610df1565b610dd5565b610d80565b610d30565b610d01565b610cab565b610c71565b610bd0565b610b9b565b610b84565b610b55565b610a2b565b6107e7565b6106de565b610604565b610506565b6104e0565b346104d25760203660031901126104d25760043563ffffffff60e01b81168091036104d2576366defe7760e11b81149081156104c1575b81156104b0575b811561049f575b506040519015158152602090f35b6301ffc9a760e01b1490505f610491565b630271189760e51b8114915061048a565b6332a2ad4360e11b81149150610483565b5f80fd5b5f9103126104d257565b346104d2575f3660031901126104d257602063ffffffff60085460301c16604051908152f35b346104d25760203660031901126104d257600435610522613293565b606481116105b5576001600160d01b0361053a613ab1565b1690610544613056565b916001600160d01b03821161059d577f0553476bf02ef2726e8ce5ced78d63e26e602e4a2257b1f559418e24b463399792610589906001600160d01b038416906147e9565b5050604080519182526020820192909252a1005b506306dfcc6560e41b5f5260d060045260245260445ffd5b63243e544560e01b5f52600452606460245260445ffd5b805180835260209291819084018484015e5f828201840152601f01601f1916010190565b9060206106019281815201906105cc565b90565b346104d2575f3660031901126104d2576040515f60035461062481612208565b80845290600181169081156106ba575060011461065c575b6106588361064c81850382610735565b604051918291826105f0565b0390f35b60035f9081527fc2575a0e9e593c00f959f8c92f12db2869c3395a3b0502d05e2516446f71f85b939250905b8082106106a05750909150810160200161064c61063c565b919260018160209254838588010152019101909291610688565b60ff191660208086019190915291151560051b8401909101915061064c905061063c565b346104d25760203660031901126104d2576004355f526004602052602060018060a01b0360405f205416604051908152f35b6001600160a01b038116036104d257565b634e487b7160e01b5f52604160045260245ffd5b90601f801991011681019081106001600160401b0382111761075657604052565b610721565b6040519061076a608083610735565b565b6040519061076a604083610735565b6001600160401b03811161075657601f01601f191660200190565b9291926107a28261077b565b916107b06040519384610735565b8294818452818301116104d2578281602093845f960137010152565b9080601f830112156104d25781602061060193359101610796565b346104d25760803660031901126104d257610803600435610710565b61080e602435610710565b6064356001600160401b0381116104d25761082d9036906004016107cc565b50600b54306001600160a01b039091160361085457604051630a85bd0160e11b8152602090f35b637485328f60e11b5f5260045ffd5b6001600160401b0381116107565760051b60200190565b9080601f830112156104d257813561089181610863565b9261089f6040519485610735565b81845260208085019260051b8201019283116104d257602001905b8282106108c75750505090565b6020809183356108d681610710565b8152019101906108ba565b9080601f830112156104d25781356108f881610863565b926109066040519485610735565b81845260208085019260051b8201019283116104d257602001905b82821061092e5750505090565b8135815260209182019101610921565b9080601f830112156104d257813561095581610863565b926109636040519485610735565b81845260208085019260051b820101918383116104d25760208201905b83821061098f57505050505090565b81356001600160401b0381116104d2576020916109b1878480948801016107cc565b815201910190610980565b60806003198201126104d2576004356001600160401b0381116104d257816109e69160040161087a565b916024356001600160401b0381116104d25782610a05916004016108e1565b91604435906001600160401b0382116104d257610a249160040161093e565b9060643590565b346104d2576020610a47610a3e366109bc565b929190916122c1565b604051908152f35b90602080835192838152019201905f5b818110610a6c5750505090565b82516001600160a01b0316845260209384019390920191600101610a5f565b90602080835192838152019201905f5b818110610aa85750505090565b8251845260209384019390920191600101610a9b565b9080602083519182815201916020808360051b8301019401925f915b838310610ae957505050505090565b9091929394602080610b07600193601f1986820301875289516105cc565b97019301930191939290610ada565b949392610b42606093610b34610b509460808a5260808a0190610a4f565b9088820360208a0152610a8b565b908682036040880152610abe565b930152565b346104d25760203660031901126104d257610658610b746004356125d3565b9060409492945194859485610b16565b6020610a47610b92366109bc565b92919091612698565b346104d25760203660031901126104d2576004355f526004602052602065ffffffffffff60405f205460a01c16604051908152f35b346104d25760203660031901126104d257600435600d54811015610c6c57610c5490600d5f527fd7b6990105719101dabeb77144f2a3385c8033acd3af97e9423a695e81ad1eb50154610c62610c25826125d3565b9392959091610c46604051978897885260a0602089015260a0880190610a4f565b908682036040880152610a8b565b908482036060860152610abe565b9060808301520390f35b612663565b346104d2575f3660031901126104d25760206040517f3e83946653575f9a39005e1545185629e92736b7528ab20ca3816f315424a8118152f35b346104d2575f3660031901126104d257602065ffffffffffff60085416604051908152f35b634e487b7160e01b5f52602160045260245ffd5b60081115610cee57565b610cd0565b6008811015610cee57602452565b346104d25760203660031901126104d257610d1d600435613465565b6040516008821015610cee576020918152f35b346104d25760203660031901126104d2576004355f52600e60205261002060405f20600381015490610d61816124d6565b90610d7a6002610d7360018401612527565b920161256f565b916127f0565b346104d25760403660031901126104d257602060ff610dc9602435600435610da782610710565b5f5260098452600360405f20019060018060a01b03165f5260205260405f2090565b54166040519015158152f35b346104d2576020610a47610de8366109bc565b929190916127f0565b346104d2575f3660031901126104d2576040517f00000000000000000000000000000000000000000000000000000000000000006001600160a01b03168152602090f35b346104d2575f3660031901126104d257610658610e506129ab565b6040519182916020835260208301906105cc565b346104d25760203660031901126104d2576004355f526009602052606060405f20805490600260018201549101549060405192835260208301526040820152f35b346104d2575f3660031901126104d257610658604051610ec6604082610735565b60018152603160f81b60208201526040519182916020835260208301906105cc565b6024359060ff821682036104d257565b346104d25760403660031901126104d2576020610a47600435610f19610ee8565b60405191610f278584610735565b5f8352339061356e565b9181601f840112156104d2578235916001600160401b0383116104d257602083818601950101116104d257565b346104d25760c03660031901126104d257600435610f7a610ee8565b9060443590610f8882610710565b6064356001600160401b0381116104d257610fa7903690600401610f31565b6084356001600160401b0381116104d257610fc69036906004016107cc565b9160a435946001600160401b0386116104d25761065896610fee610ff49736906004016107cc565b95612a7a565b6040519081529081906020820190565b346104d25760803660031901126104d257600435611020610ee8565b906044356001600160401b0381116104d257611040903690600401610f31565b9190926064356001600160401b0381116104d257611079946110696110719236906004016107cc565b943691610796565b9133906135eb565b604051908152602090f35b346104d25760203660031901126104d2576020610a47600435613726565b346104d2575f3660031901126104d2576010546040516001600160a01b039091168152602090f35b346104d25760203660031901126104d2576004356110e781610710565b600b54611102906001600160a01b039081165b163314612b6a565b600f546001600160a01b0382811692911682811461116457610020927fa0166f01f7973f4fa3f7c5549484ea41329cc8f453c98f3e7f5cd9b5fd081a705f80a360018060a01b03166bffffffffffffffffffffffff60a01b600f541617600f55565b60405162461bcd60e51b815260206004820152601560248201527453616d65207265676973747279206164647265737360581b6044820152606490fd5b65ffffffffffff8116036104d257565b346104d25760203660031901126104d2576004356111ce816111a1565b6111d6613293565b6008547fc565b045403dc03c2eea82b81a0465edad9e2e7fc4d97e11421c209da93d7a93604065ffffffffffff81519481851686521693846020820152a165ffffffffffff191617600855005b346104d25760603660031901126104d25760043561123f610ee8565b90604435906001600160401b0382116104d257602092611270611269610a47943690600401610f31565b3691610796565b91339061356e565b346104d25760803660031901126104d2576004356001600160401b0381116104d2576112a890369060040161087a565b6024356001600160401b0381116104d2576112c79036906004016108e1565b906044356001600160401b0381116104d2576112e790369060040161093e565b90606435916001600160401b0383116104d257366023840112156104d25761065893611320610ff4943690602481600401359101610796565b92612bbc565b346104d2575f3660031901126104d257600f546040516001600160a01b039091168152602090f35b346104d25760203660031901126104d25760043561136b81610710565b60018060a01b03165f526002602052602060405f2054604051908152f35b346104d2575f3660031901126104d25761141b6113c57f0000000000000000000000000000000000000000000000000000000000000000614660565b6106586113f17f00000000000000000000000000000000000000000000000000000000000000006146b8565b6114296113fc612cd8565b91604051958695600f60f81b875260e0602088015260e08701906105cc565b9085820360408701526105cc565b904660608501523060808501525f60a085015283820360c0850152610a8b565b346104d25760203660031901126104d25761065860043561146981610710565b611569611556611477612cf3565b92611480612cf3565b6040946115646115208751946114968987610735565b600186526114ab601f198a0160208801612d15565b6114c7306114b886612677565b6001600160a01b039091169052565b5f6114d186612677565b528851636a0c63c360e01b60208201526001600160a01b038216602482015261150781604481015b03601f198101835282610735565b61151087612677565b5261151a86612677565b506139b7565b87517f557067726164652053637265656e696e67526567697374727920746f200000006020820152958691603d83015b90612d56565b03601f198101865285610735565b612bbc565b90519081529081906020820190565b9181601f840112156104d2578235916001600160401b0383116104d2576020808501948460051b0101116104d257565b346104d25760803660031901126104d2576004356001600160401b0381116104d2576115d8903690600401611578565b6024356001600160401b0381116104d2576115f7903690600401611578565b6044939193356001600160401b0381116104d257611619903690600401611578565b91606435956001600160401b0387116104d25761163d610020973690600401611578565b969095612d68565b346104d25760803660031901126104d257600435611661610ee8565b906044359161166f83610710565b6064356001600160401b0381116104d2576117226116946117269236906004016107cc565b6001600160a01b0386165f90815260026020526040902080546001810190915561171c9060405160208101917ff2aad550cf55f045cb27e9c559f9889fdfb6e6cdaa032301d6ea397784ae51d7835288604083015260ff8816606083015260018060a01b038a16608083015260a082015260a0815261171460c082610735565b519020613e5b565b86613e8b565b1590565b6117415790610ff4916106589361173b61295c565b9261356e565b6394ab6c0760e01b5f526001600160a01b03831660045260245b5ffd5b346104d2575f3660031901126104d2576020611778613056565b65ffffffffffff60405191168152f35b346104d2575f3660031901126104d257602060405160648152f35b346104d25760603660031901126104d2576004356117c081610710565b6024356044356001600160401b0381116104d2576117e29036906004016107cc565b50604051630748d63560e31b81526001600160a01b039283166004820152602481019190915290602090829060449082907f0000000000000000000000000000000000000000000000000000000000000000165afa801561188857610658915f91611859575b506040519081529081906020820190565b61187b915060203d602011611881575b6118738183610735565b81019061302d565b5f611848565b503d611869565b612951565b346104d2575f3660031901126104d25760206001600160d01b036118af613ab1565b16604051908152f35b346104d25760203660031901126104d2576004356118d581610710565b6118dd613293565b600b54604080516001600160a01b03808416825290931660208401819052927f08f74ea46ef7894f65eabfb5e6e695de773a000b47c529ab559178069b2264019190a16001600160a01b03191617600b55005b346104d2576020610a47611943366109bc565b929190916131e6565b346104d25760203660031901126104d257602060405160018152f35b346104d25760203660031901126104d2576020610a476004355f52600460205265ffffffffffff600160405f2001541690565b801515036104d257565b346104d25760203660031901126104d2576106586004356119c58161199b565b6115696119d0612cf3565b6119d8612cf3565b926040938451916119e98684610735565b600183526119fe601f19870160208501612d15565b611a0b306114b886612677565b5f611a1583612677565b52855163d8d1a65760e01b60208201528115156024820152611a3a81604481016114f9565b611a4384612677565b52611a4d83612677565b5015611a5b57611320613116565b6113206130e9565b346104d2575f3660031901126104d2576020600754604051908152f35b346104d25760a03660031901126104d257611a9c600435610710565b611aa7602435610710565b6044356001600160401b0381116104d257611ac69036906004016108e1565b506064356001600160401b0381116104d257611ae69036906004016108e1565b506084356001600160401b0381116104d257611b069036906004016107cc565b50610658611b12613151565b6040516001600160e01b031990911681529081906020820190565b346104d25760203660031901126104d2576020610a47600435613170565b60603660031901126104d257600435611b6381610710565b6024356044356001600160401b0381116104d257610020925f92611b8c84933690600401610f31565b9190611b96613293565b826040519384928337810185815203925af1611bb06131b7565b90613af5565b346104d2575f3660031901126104d257600b546040516001600160a01b039091168152602090f35b346104d25760203660031901126104d257611bfa60043561199b565b600b54610020906001600160a01b03163314612b6a565b346104d2575f3660031901126104d2576020600d54604051908152f35b346104d2575f3660031901126104d257610658604051611c4f604082610735565b602081527f737570706f72743d627261766f2671756f72756d3d666f722c6162737461696e60208201526040519182916020835260208301906105cc565b346104d25760203660031901126104d2576004355f52600e60205261002060405f20600381015490611cbe816124d6565b90611cd06002610d7360018401612527565b916122c1565b346104d2575f3660031901126104d25760206040517ff2aad550cf55f045cb27e9c559f9889fdfb6e6cdaa032301d6ea397784ae51d78152f35b346104d25760203660031901126104d25760043563ffffffff8116908181036104d257611d3b613293565b8115611da35769ffffffff000000000000907f7e3f7f0708a84de9203036abaa450dccc85ad5ff52f78c170f3edb55cf5e882860406008549481519063ffffffff8760301c1682526020820152a160301b169069ffffffff0000000000001916176008555f80f35b63f1cfbf0560e01b5f525f60045260245ffd5b346104d25760203660031901126104d257600435611dd381610710565b600b54611dea906001600160a01b03163314612b6a565b600f80546001600160a01b0319166001600160a01b039290921691821790557f79b418ad3e91bdb210250d533626a82188a13dfb242260d298d9300f1c0856615f80a2005b346104d25760403660031901126104d257600435611e4c81610710565b6024355f604051611e5e602082610735565b52604051630748d63560e31b81526001600160a01b039283166004820152602481019190915290602090829060449082907f0000000000000000000000000000000000000000000000000000000000000000165afa801561188857610658915f9161185957506040519081529081906020820190565b346104d25760203660031901126104d257600435611ef0613293565b60075460408051918252602082018390527fccb45da8d5717e6c4544694297c4ba5cf151d455c9bb0ed4fc7a38411bc0546191a1600755005b346104d25760203660031901126104d257610020600435613245565b346104d25760203660031901126104d257600435611f6281610710565b600b54611f79906001600160a01b03163314612b6a565b601080546001600160a01b0319166001600160a01b039290921691821790557f3c864541ef71378c6229510ed90f376565ee42d9c5e0904a984a9e863e6db44f5f80a2005b346104d25760a03660031901126104d257611fda600435610710565b611fe5602435610710565b6084356001600160401b0381116104d2576120049036906004016107cc565b50600b54306001600160a01b03909116036108545760405163f23a6e6160e01b8152602090f35b346104d25760203660031901126104d257610658610ff46115566004356010546001600160a01b0316906120696001600160a01b0383161515613206565b612071612cf3565b6115646120dd61207f612cf3565b9361209561208b612d31565b966114b886612677565b5f61209f86612677565b5260405163d7ada8f960e01b6020820152602481018290526120c481604481016114f9565b6120cd87612677565b526120d786612677565b50613b29565b60405173029b2ba103830bcb6b2b73a103930ba32903a37960651b602082015295869160348301611550565b346104d25760203660031901126104d257600435604051632394e7a360e21b8152600481018290526020816024817f00000000000000000000000000000000000000000000000000000000000000006001600160a01b03165afa80156118885761065892610ff4925f92612188575b5061218290613726565b90614730565b6121829192506121a69060203d602011611881576118738183610735565b9190612178565b346104d2575f3660031901126104d2576040517f00000000000000000000000000000000000000000000000000000000000000006001600160a01b03168152602090f35b60203660031901126104d257610020600435613245565b90600182811c92168015612236575b602083101461222257565b634e487b7160e01b5f52602260045260245ffd5b91607f1691612217565b5f929181549161224f83612208565b80835292600181169081156122a4575060011461226b57505050565b5f9081526020812093945091925b83831061228a575060209250010190565b600181602092949394548385870101520191019190612279565b915050602093945060ff929192191683830152151560051b010190565b929091926122d1828585846131e6565b936122db8561333b565b50600b546122f9906001600160a01b03165b6001600160a01b031690565b936040519363793d064960e11b8552602085600481895afa948515611888575f956124b5575b503060601b6bffffffffffffffffffffffff191618946020604051809263b1c5f42760e01b825281806123588b89898c60048601613c2e565b03915afa908115611888575f91612496575b5061237d875f52600c60205260405f2090565b55600b54612393906001600160a01b03166122ed565b90813b156104d2575f80946123bf87604051998a97889687956308f2a0bb60e41b875260048701613c57565b03925af1908115611888576123e3926123de9261247c575b50426139aa565b61404b565b65ffffffffffff81161561246d57612467816124487f9a2e42fd6722813d69113e7d0079d3d940171428df7373df9c7f7617cfda289293600161242e875f52600460205260405f2090565b019065ffffffffffff1665ffffffffffff19825416179055565b6040805185815265ffffffffffff909216602083015290918291820190565b0390a190565b634844252360e11b5f5260045ffd5b8061248a5f61249093610735565b806104d6565b5f6123d7565b6124af915060203d602011611881576118738183610735565b5f61236a565b6124cf91955060203d602011611881576118738183610735565b935f61231f565b90604051918281549182825260208201905f5260205f20925f5b81811061250557505061076a92500383610735565b84546001600160a01b03168352600194850194879450602090930192016124f0565b90604051918281549182825260208201905f5260205f20925f5b81811061255657505061076a92500383610735565b8454835260019485019487945060209093019201612541565b90815461257b81610863565b926125896040519485610735565b81845260208401905f5260205f205f915b8383106125a75750505050565b6001602081926040516125c5816125be8189612240565b0382610735565b81520192019201919061259a565b805f52600e60205260405f209160405190608082018281106001600160401b0382111761075657604052612606846124d6565b825261261460018501612527565b9160208101928352600361262a6002870161256f565b95604083019687520154936060820194808652156126515750519151935192519193929190565b636ad0607560e01b5f5260045260245ffd5b634e487b7160e01b5f52603260045260245ffd5b805115610c6c5760200190565b8051821015610c6c5760209160051b010190565b939290916126a8828285886131e6565b926020956126ba6020601017866133bb565b506126e36126d0865f52600460205260405f2090565b805460ff60f01b1916600160f01b179055565b600b54306001600160a01b0390911603612785575b8461270595969750613cb4565b600b54309061271c906001600160a01b03166122ed565b141580612764575b61275b575b6040518181527f712ae1383f79ac853f8d882153778e0260ef8f03b504e2866e0593e04d2b291f908060208101612467565b5f600555612729565b506127806117226005546001600160801b0381169060801c1490565b612724565b925f95929491955b84518110156127e157600190306127b76122ed6127aa848a612684565b516001600160a01b031690565b146127c3575b0161278d565b6127dc6127d08289612684565b518a81519101206133f9565b6127bd565b509195508594909391926126f8565b93929190612800838383886131e6565b9461280a86613465565b6008811015610cee571580612934575b1561291d5761282a9495506131e6565b612835603b826133bb565b5061286061284b825f52600460205260405f2090565b80546001600160f81b0316600160f81b179055565b6040518181527f789cf55be980739dad1d0699b93b58e806b51c9d96619bfa8fe0a28abaa7b30c90602090a161289e815f52600c60205260405f2090565b54806128a9575b5090565b600b546128be906001600160a01b03166122ed565b803b156104d25760405163c4d252f560e01b815260048101929092525f908290602490829084905af1801561188857612904575b505f818152600c602052604081205590565b8061248a5f61291293610735565b5f6128f2565b612ba8565b85638fe5d8a960e01b5f526004523360245260445ffd5b50855f52600460205260018060a01b0360405f205416331461281a565b6040513d5f823e3d90fd5b6040519061296b602083610735565b5f8252565b6040519061297f604083610735565b601d82527f6d6f64653d626c6f636b6e756d6265722666726f6d3d64656661756c740000006020830152565b604051634bf5d7e960e01b81525f816004817f00000000000000000000000000000000000000000000000000000000000000006001600160a01b03165afa5f91816129ff575b506106015750610601612970565b9091503d805f833e612a118183610735565b8101906020818303126104d2578051906001600160401b0382116104d2570181601f820112156104d257805190612a478261077b565b92612a556040519485610735565b828452602083830101116104d257815f9260208093018386015e83010152905f6129f1565b939092919695611722612b3391612b2d8a612a96368789610796565b6001600160a01b0382165f90815260026020526040902080546001810190915590602081519101208b5160208d0120906040519260208401947f3e83946653575f9a39005e1545185629e92736b7528ab20ca3816f315424a81186528d604086015260ff8d16606086015260018060a01b0316608085015260a084015260c083015260e082015260e0815261171461010082610735565b8a613e8b565b612b4e57610601959691612b48913691610796565b926135eb565b6394ab6c0760e01b5f526001600160a01b03871660045260245ffd5b15612b7157565b60405162461bcd60e51b815260206004820152600f60248201526e4f6e6c7920676f7665726e616e636560881b6044820152606490fd5b634e487b7160e01b5f52601160045260245ffd5b9193929093612bcb823361381d565b15612cc5576007549485612be7575b6106019495503393614459565b5f1965ffffffffffff612bf8613056565b160165ffffffffffff81116129185765ffffffffffff16955f604051612c1f602082610735565b52604051630748d63560e31b815233600482015260248101979097526020876044817f00000000000000000000000000000000000000000000000000000000000000006001600160a01b03165afa968715611888575f97612ca4575b50808710612c895750612bda565b636121770b60e11b5f5233600452602487905260445260645ffd5b612cbe91975060203d602011611881576118738183610735565b955f612c7b565b63d9b3955760e01b5f523360045260245ffd5b60405190612ce7602083610735565b5f808352366020840137565b60408051909190612d048382610735565b6001815291601f1901366020840137565b5f5b828110612d2357505050565b606082820152602001612d17565b604080519190612d418184610735565b6001835261076a90601f190160208401612d15565b805191908290602001825e015f815290565b600b549397909590949390929190612d8a906001600160a01b039081166110fa565b600b54612da5906122ed90819081906001600160a01b031681565b9760405196638f61f4f560e01b88526020886004818d5afa928315611888576004985f9461300c575b506040516307bd026560e01b8152986020908a90818e5afa988915611888575f99612feb575b505f5b818110612f79575050505f5b818110612f0b57505050505f5b818110612e9d575050505f5b818110612e2a575050505050565b612e3d612e3882848761303c565b61304c565b90853b156104d257604051632f2ff15d60e01b8152600481018590526001600160a01b039290921660248301525f82604481838a5af191821561188857600192612e89575b5001612e1c565b8061248a5f612e9793610735565b5f612e82565b612eab612e3882848661303c565b90873b156104d25760405163d547741f60e01b8152600481018790526001600160a01b039290921660248301525f82604481838c5af191821561188857600192612ef7575b5001612e10565b8061248a5f612f0593610735565b5f612ef0565b612f19612e3882848761303c565b908a3b156104d257604051632f2ff15d60e01b8152600481018590526001600160a01b039290921660248301525f82604481838f5af191821561188857600192612f65575b5001612e03565b8061248a5f612f7393610735565b5f612f5e565b612f87612e3882848661303c565b908c3b156104d25760405163d547741f60e01b8152600481018790526001600160a01b0390921660248301525f828e8183816044810103925af191821561188857600192612fd7575b5001612df7565b8061248a5f612fe593610735565b5f612fd0565b61300591995060203d602011611881576118738183610735565b975f612df4565b61302691945060203d602011611881576118738183610735565b925f612dce565b908160209103126104d2575190565b9190811015610c6c5760051b0190565b3561060181610710565b6040516324776b7d60e21b81526020816004817f00000000000000000000000000000000000000000000000000000000000000006001600160a01b03165afa5f91816130ac575b5061060157506106014361404b565b9091506020813d6020116130e1575b816130c860209383610735565b810103126104d257516130da816111a1565b905f61309d565b3d91506130bb565b604051906130f8604083610735565b600f82526e14995cdd5b59481c1c9bdd1bd8dbdb608a1b6020830152565b60405190613125604083610735565b601882527f456d657267656e63792070617573652070726f746f636f6c00000000000000006020830152565b600b54306001600160a01b03909116036108545763bc197c8160e01b90565b805f52600460205265ffffffffffff60405f205460a01c16905f52600460205263ffffffff60405f205460d01c160165ffffffffffff81116129185765ffffffffffff1690565b3d156131e1573d906131c88261077b565b916131d66040519384610735565b82523d5f602084013e565b606090565b92906114f961320092604051948593602085019788610b16565b51902090565b1561320d57565b60405162461bcd60e51b815260206004820152601060248201526f151c99585cdd5c9e481b9bdd081cd95d60821b6044820152606490fd5b5f52600e60205261327a60405f20600381015490613262816124d6565b906132746002610d7360018401612527565b91612698565b50565b600b54306001600160a01b039091160361085457565b600b54336001600160a01b03909116036132fc57600b54306001600160a01b03909116036132bd57565b6132c63661077b565b6132d36040519182610735565b3681526020810190365f83375f602036830101525190205b806132f4613bc5565b036132eb5750565b6347096e4760e01b5f523360045260245ffd5b6008811015610cee5760ff600191161b90565b600452606491906008811015610cee576024525f604452565b61334481613465565b9060106133508361330f565b161561335a575090565b6331b75e4d60e01b5f526004526133719150610cf3565b601060445260645ffd5b61338481613465565b9060026133908361330f565b161561339a575090565b6331b75e4d60e01b5f526004526133b19150610cf3565b600260445260645ffd5b906133c582613465565b91816133d08461330f565b16156133db57505090565b6331b75e4d60e01b5f526004526133f182610cf3565b60445260645ffd5b600554908160801c6001600160801b038060018301169316831461343e575f52600660205260405f20556001600160801b036005549181199060801b16911617600555565b634e487b715f5260416020526024601cfd5b908160209103126104d257516106018161199b565b61346e81613d41565b9061347882610ce4565b600582036128a55761349391505f52600c60205260405f2090565b54600b546134a9906001600160a01b03166122ed565b604051632c258a9f60e11b815260048101839052602081602481855afa908115611888575f9161354f575b50156134e1575050600590565b604051632ab0f52960e01b81526004810192909252602090829060249082905afa908115611888575f91613520575b501561351b57600790565b600290565b613542915060203d602011613548575b61353a8183610735565b810190613450565b5f613510565b503d613530565b613568915060203d6020116135485761353a8183610735565b5f6134d4565b91610601939160405193613583602086610735565b5f85526135eb565b93909260ff6135b79361060197958752166020860152604085015260a0606085015260a08401906105cc565b9160808184039101526105cc565b909260ff60809361060196958452166020830152604082015281606082015201906105cc565b929190926135f88161337b565b50805f52600460205265ffffffffffff61361f60405f2065ffffffffffff905460a01c1690565b1693604051630748d63560e31b815260018060a01b03821695866004830152602482015260208160448160018060a01b037f0000000000000000000000000000000000000000000000000000000000000000165afa9081156118885761368f9285915f93613705575b5084613f33565b948051155f146136d257506136cc7fb8e138887d0aa13bab447e82de9d5c1777041ecd21ca36ba824ff1e6c07ddda49386604051948594856135c5565b0390a290565b6136cc907fe2babfbac5889a709b63bb7f598b324e08bc5a4fb9ec647fb3cbc9ec07eb871294876040519586958661358b565b61371f91935060203d602011611881576118738183610735565b915f613688565b65ffffffffffff9080613739600a614010565b9491501611155f1461375357505b6001600160d01b031690565b61375d915061404b565b600a54905f8291600584116137c9575b6137799350600a614c13565b8061378557505f613747565b6137bd6137946137c4926138d8565b600a5f527fc65a7bb8d6351c1cf70c95a316cc6a92839c986682d98bc35f958f4883f9d2a80190565b5460301c90565b613747565b91926137d481614ab5565b81039081116129185761377993600a5f5265ffffffffffff8260205f2001541665ffffffffffff8516105f1461380b57509161376d565b92915061381790613972565b9061376d565b9080516034811061387d5760131981830101516001600160b01b03191669dc8f8d908f908c9a8dc360b01b0161387d5761385c9160291982019061407a565b901591821561386a57505090565b6001600160a01b03918216911614919050565b505050600190565b9061388f8261077b565b61389c6040519182610735565b82815280926138ad601f199161077b565b0190602036910137565b805160011015610c6c5760210190565b908151811015610c6c570160200190565b5f1981019190821161291857565b601303906013821161291857565b9190820391821161291857565b600381901b91906001600160fd1b0381160361291857565b908160011b918083046002149015171561291857565b908160041b918083046010149015171561291857565b60ff8111612918576001901b90565b811561395e570490565b634e487b7160e01b5f52601260045260245ffd5b906001820180921161291857565b600201908160021161291857565b600301908160031161291857565b603001908160301161291857565b9190820180921161291857565b9060405160606139c78183610735565b602a8252601f190136602083013760306139e082612677565b5360786139ec826138b7565b535f5b601481106139fc57509150565b80613a8c613a34613a2e613a21613a1c613a176001976138e6565b613901565b613945565b858060a01b038916613954565b60ff1690565b613a68613a62613a4b613a5b600485901c600f1682565b60f81b6001600160f81b03191690565b93600f1690565b916146ef565b613a86613a7c613a7786613919565b613980565b915f1a91876138c7565b536146ef565b613aaa613aa0613a9b84613919565b61398e565b915f1a91856138c7565b53016139ef565b600a5480613abe57505f90565b805f1981011161291857600a5f527fc65a7bb8d6351c1cf70c95a316cc6a92839c986682d98bc35f958f4883f9d2a7015460301c90565b90919061076a5750805115613b0c57602081519101fd5b63d6bda27560e01b5f5260045ffd5b5f1981146129185760010190565b908115613ba4575f82805b613b89575082613b4382613885565b91905b613b4f57509150565b613b5b613b82916138d8565b93613b6e613a4b613a2e600a840661399c565b5f1a613b7a86856138c7565b53600a900490565b9283613b46565b90613b96613b9e91613b1b565b91600a900490565b80613b34565b9050604051613bb4604082610735565b60018152600360fc1b602082015290565b600554906001600160801b0382169160801c8214613c1c57815f5260066020526001600160801b0380600160405f2054948281165f5260066020525f60408120550116166001600160801b03196005541617600555565b634e487b715f5260316020526024601cfd5b949392610b42608093610b34613c4c9460a08a5260a08a0190610a4f565b935f60608201520152565b9192613c8660a094613c78613c94949998979960c0875260c0870190610a4f565b908582036020870152610a8b565b908382036040850152610abe565b945f606083015260808201520152565b634e487b715f526020526024601cfd5b600b5490949192916001600160a01b03909116906bffffffffffffffffffffffff193060601b16823b156104d257613d065f956040519788968795869563e38335e560e01b8752189260048601613c2e565b039134905af1801561188857613d28575b505f908152600c6020526040812055565b80613d345f8093610735565b8003126104d2575f613d17565b613d53815f52600460205260405f2090565b5460f881901c9060f01c60ff16613e5457613e4e57613d9a613d8f613d80835f52600460205260405f2090565b5460a01c65ffffffffffff1690565b65ffffffffffff1690565b8015613e3a57613dab613d8f613056565b80911015613e3457613dbc82613170565b10613dc75750600190565b613dd3611722826148c9565b8015613e11575b15613de55750600390565b613e03905f52600460205265ffffffffffff600160405f2001541690565b613e0c57600490565b600590565b50613e2f611722825f52600960205260405f20600181015490541090565b613dda565b50505f90565b636ad0607560e01b5f52600482905260245ffd5b50600290565b5050600790565b604290613e66614965565b906040519161190160f01b8352600283015260228201522090565b60041115610cee57565b9190823b613eb35790613e9d91614a7b565b50613ea781613e81565b15918261386a57505090565b915f926114f9613ee985946040519283916020830195630b135d3f60e11b875260248401526040604484015260648301906105cc565b51915afa613ef56131b7565b81613f25575b81613f04575090565b9050613f21630b135d3f60e11b916020808251830101910161302d565b1490565b905060208151101590613efb565b613f48909291925f52600960205260405f2090565b9160038301613f71613f6a83839060018060a01b03165f5260205260405f2090565b5460ff1690565b613ff457613f9560ff9392613fa2929060018060a01b03165f5260205260405f2090565b805460ff19166001179055565b1680613fb95750613fb48282546139aa565b905590565b60018103613fd05750600101613fb48282546139aa565b600203613fe557600201613fb48282546139aa565b6303599be160e11b5f5260045ffd5b6371c6af4960e01b5f526001600160a01b03821660045260245ffd5b805490816140225750505f905f905f90565b815f19810111612918575f525f199060205f2001015460019165ffffffffffff82169160301c90565b65ffffffffffff81116140635765ffffffffffff1690565b6306dfcc6560e41b5f52603060045260245260445ffd5b9190825182118015614101575b6140da5761409481613972565b8211806140e3575b6140a7901515613919565b60280180602811612918576140bc82846138f4565b036140da576140ca92614c79565b90916001600160a01b0390911690565b5050505f905f90565b50602081840101516001600160f01b03191661060f60f31b1461409c565b50818111614087565b600d54600160401b8110156107565760018101600d55600d54811015610c6c57600d5f527fd7b6990105719101dabeb77144f2a3385c8033acd3af97e9423a695e81ad1eb50155565b81811061415e575050565b5f8155600101614153565b9181811061417657505050565b61076a925f5260205f209182019101614153565b8151916001600160401b03831161075657600160401b8311610756576020906141b884845481865585614169565b01905f5260205f205f5b8381106141cf5750505050565b6001906020845194019381840155016141c2565b9190601f81116141f257505050565b61076a925f5260205f20906020601f840160051c8301931061421c575b601f0160051c0190614153565b909150819061420f565b91909182516001600160401b0381116107565761424d816142478454612208565b846141e3565b6020601f821160011461428c57819061427d9394955f92614281575b50508160011b915f199060031b1c19161790565b9055565b015190505f80614269565b601f1982169061429f845f5260205f2090565b915f5b8181106142d9575095836001959697106142c1575b505050811b019055565b01515f1960f88460031b161c191690555f80806142b7565b9192602060018192868b0151815501940192016142a2565b815191600160401b831161075657815483835580841061434b575b50602061431e9101915f5260205f2090565b5f915b83831061432e5750505050565b600160208261433f83945186614226565b01920192019190614321565b825f528360205f2091820191015b818110614366575061430c565b8061437360019254612208565b80614380575b5001614359565b601f8111831461439557505f81555b5f614379565b6143b79083601f6143a9855f5260205f2090565b920160051c82019101614153565b5f818152602081208183555561438f565b9080518051906001600160401b03821161075657600160401b8211610756576020906143f983865481885587614169565b01835f5260205f205f5b83811061443c5750505050606081614424602060039401516001860161418a565b6144356040820151600286016142f1565b0151910155565b82516001600160a01b031681830155602090920191600101614403565b919493948351614471602086019182208385876131e6565b948451845190818114801590614655575b801561464d575b61463057505065ffffffffffff6144ab613d80885f52600460205260405f2090565b16614613577f7d84a6263ae0d98d3329bd7b46bb4e8d6f98cd35a7adb45c274c8b7fd5ebd5e0869798610601976145d2848961450a6144e8613056565b65ffffffffffff614503613d8f65ffffffffffff6008541690565b91166139aa565b8961452961452063ffffffff60085460301c1690565b63ffffffff1690565b6145b061453e885f52600460205260405f2090565b80546001600160a01b0319166001600160a01b038b161781556145876145638661404b565b825465ffffffffffff60a01b191660a09190911b65ffffffffffff60a01b16178255565b61459083614f18565b815463ffffffff60d01b191660d09190911b63ffffffff60d01b16179055565b8c6145c56145be8651614d23565b92856139aa565b94604051998a998a614d58565b0390a16145de8761410a565b519020916145ea61075b565b93845260208401526040830152606082015261460e835f52600e60205260405f2090565b6143c8565b61175b8661462081613465565b6331b75e4d60e01b5f5290613322565b8451630447b05d60e41b5f5260049190915260245260445260645ffd5b508015614489565b508451811415614482565b60ff81146146a65760ff811690601f82116146975760405191614684604084610735565b6020808452838101919036833783525290565b632cd44ac360e21b5f5260045ffd5b50604051610601816125be815f612240565b60ff81146146dc5760ff811690601f82116146975760405191614684604084610735565b50604051610601816125be816001612240565b60f81c600a81106147155760570160ff81116129185760f81b6001600160f81b03191690565b60300160ff81116129185760f81b6001600160f81b03191690565b5f1982820990828102918280821091030390811561479157816064111561478a577f5c28f5c28f5c28f5c28f5c28f5c28f5c28f5c28f5c28f5c28f5c28f5c28f5c29936064910990828211900360fe1b910360021c170290565b6011613ca4565b505060649004919050565b805490600160401b8210156107565760018201808255821015610c6c575f9081526020908190208351939091015160301b65ffffffffffff191665ffffffffffff90931692909217910155565b600a5491929180156148a057613794614801916138d8565b90815461481d6148168265ffffffffffff1690565b9160301c90565b9265ffffffffffff8084169216918083116148915786920361485b5761485792509065ffffffffffff82549181199060301b169116179055565b9190565b50506148579061487a61486c61076c565b65ffffffffffff9092168252565b6001600160d01b03851660208201525b600a61479c565b632520601d60e01b5f5260045ffd5b506148c4906148b061486c61076c565b6001600160d01b038416602082015261488a565b5f9190565b805f52600960205260405f20905f52600460205265ffffffffffff60405f205460a01c16604051632394e7a360e21b815281600482015260208160248160018060a01b037f0000000000000000000000000000000000000000000000000000000000000000165afa8015611888576149609261494f925f92612188575061218290613726565b9160026001820154910154906139aa565b101590565b307f00000000000000000000000000000000000000000000000000000000000000006001600160a01b03161480614a52575b156149c0577f000000000000000000000000000000000000000000000000000000000000000090565b60405160208101907f8b73c3c69bb8fe3d512ecc4cf759cc79239f7b179b0ffacaa9a75d522b39400f82527f000000000000000000000000000000000000000000000000000000000000000060408201527f000000000000000000000000000000000000000000000000000000000000000060608201524660808201523060a082015260a0815261320060c082610735565b507f00000000000000000000000000000000000000000000000000000000000000004614614997565b8151919060418303614aab57614aa49250602082015190606060408401519301515f1a90614e24565b9192909190565b50505f9160029190565b600181111561060157806001600160801b821015614bd6575b614b7c614b72614b68614b5e614b54614b4a614b39614b839760048a600160401b614b889c1015614bc9575b640100000000811015614bbc575b62010000811015614baf575b610100811015614ba2575b6010811015614b95575b1015614b8d575b60030260011c90565b614b43818b613954565b0160011c90565b614b43818a613954565b614b438189613954565b614b438188613954565b614b438187613954565b614b438186613954565b8093613954565b821190565b900390565b60011b614b30565b60041c9160021b91614b29565b60081c9160041b91614b1f565b60101c9160081b91614b14565b60201c9160101b91614b08565b60401c9160201b91614afa565b5050614b88614b83614b7c614b72614b68614b5e614b54614b4a614b39614bfd8a60801c90565b9850600160401b9750614ace9650505050505050565b91905b838210614c235750505090565b9091928083169080841860011c820180921161291857845f5265ffffffffffff8260205f2001541665ffffffffffff8416105f14614c655750925b9190614c16565b939250600181018091116129185791614c5e565b929092614c8584613972565b831180614d05575b614c9f614ca691949293941515613919565b5f956139aa565b915b818310614cb85750505060019190565b9092919360ff614cd9614cd46020888601015160ff60f81b1690565b614ea6565b1690600f8211614cfa5790614cef60019261392f565b019401919290614ca8565b505f94508493505050565b50602084820101516001600160f01b03191661060f60f31b14614c8d565b9061076a614d3083610863565b614d3d6040519182610735565b83815260208194614d50601f1991610863565b019101612d15565b959998969794939192614d9993614d8b92885260018060a01b031660208801526101206040880152610120870190610a4f565b908582036060870152610a8b565b968388036080850152815180895260208901906020808260051b8c01019401915f905b828210614df8575050505061060196975090614ddf9184820360a0860152610abe565b9360c083015260e08201526101008184039101526105cc565b90919294602080614e166001938f601f1990820301865289516105cc565b970192019201909291614dbc565b91907f7fffffffffffffffffffffffffffffff5d576e7357a4501ddfe92f46681b20a08411614e9b579160209360809260ff5f9560405194855216868401526040830152606082015282805260015afa15611888575f516001600160a01b03811615614e9157905f905f90565b505f906001905f90565b5050505f9160039190565b60f81c602f811180614f0e575b15614ec257602f190160ff1690565b6060811180614f04575b15614edb576056190160ff1690565b6040811180614efa575b15614ef4576036190160ff1690565b5060ff90565b5060478110614ee5565b5060678110614ecc565b50603a8110614eb3565b63ffffffff8111614f2c5763ffffffff1690565b6306dfcc6560e41b5f52602060045260245260445ffdfea2646970667358221220a8a5ca7dfe05fb3263f5226338a2374f4ebd5ce161fc681d00d40199b21d823064736f6c634300081b0033",
  "linkReferences": {},
  "deployedLinkReferences": {}
}