{
  "_format": "hh-sol-artifact-1",
  "contractName": "PediScreenAuditRegistry",
  "sourceName": "contracts/PediScreenAuditRegistry.sol",
  "abi": [
    {
      "anonymous": false,
      "inputs": [
        {
          "indexed": true,
          "internalType": "bytes32",
          "name": "screeningIdHash",
          "type": "bytes32"
        },
        {
          "indexed": true,
          "internalType": "bytes32",
          "name": "reportHash",
          "type": "bytes32"
        },
        {
          "indexed": true,
          "internalType": "address",
          "name": "submittedBy",
          "type": "address"
        },
        {
          "indexed": false,
          "internalType": "uint64",
          "name": "createdAt",
          "type": "uint64"
        }
      ],
      "name": "ScreeningRecorded",
      "type": "event"
    },
    {
      "inputs": [
        {
          "internalType": "bytes32",
          "name": "screeningIdHash",
          "type": "bytes32"
        }
      ],
      "name": "exists",
      "outputs": [
        {
          "internalType": "bool",
          "name": "",
          "type": "bool"
        }
      ],
      "stateMutability": "view",
      "type": "function"
    },
    {
      "inputs": [
        {
          "internalType": "bytes32",
          "name": "screeningIdHash",
          "type": "bytes32"
        }
      ],
      "name": "getScreening",
      "outputs": [
        {
          "internalType": "address",
          "name": "submittedBy",
          "type": "address"
        },
        {
          "internalType": "bytes32",
          "name": "_screeningIdHash",
          "type": "bytes32"
        },
        {
          "internalType": "bytes32",
          "name": "_reportHash",
          "type": "bytes32"
        },
        {
          "internalType": "uint64",
          "name": "createdAt",
          "type": "uint64"
        },
        {
          "internalType": "bool",
          "name": "exists",
          "type": "bool"
        }
      ],
      "stateMutability": "view",
      "type": "function"
    },
    {
      "inputs": [
        {
          "internalType": "bytes32",
          "name": "screeningIdHash",
          "type": "bytes32"
        },
        {
          "internalType": "bytes32",
          "name": "reportHash",
          "type": "bytes32"
        }
      ],
      "name": "recordScreening",
      "outputs": [],
      "stateMutability": "nonpayable",
      "type": "function"
    }
  ],
  "bytecode": "0x60808060405234601557610327908161001a8239f35b5f80fdfe6080806040526004361015610012575f80fd5b5f3560e01c90816338a699a41461028d57508063979df5e9146101ff5763b607ac831461003d575f80fd5b346101fb5760403660031901126101fb5760043560243581156101b657801561017c57815f525f60205260ff600360405f20015460401c16610144576100816102bd565b91338352602083019281845267ffffffffffffffff6003604083019285845260608101938342168552608082019760018952865f525f60205260405f209260018060a01b039051166bffffffffffffffffffffffff60a01b84541617835551600183015551600282015501915116938468ff000000000000000083549251151560401b169168ffffffffffffffffff1916171790556040519283527fb57f1296acbbf1c71643c6ebe6e51119ef6cb8189540660cdddf940adf81ab6460203394a4005b60405162461bcd60e51b815260206004820152601060248201526f105b1c9958591e481c9958dbdc99195960821b6044820152606490fd5b60405162461bcd60e51b8152602060048201526012602482015271092dcecc2d8d2c840e4cae0dee4e890c2e6d60731b6044820152606490fd5b60405162461bcd60e51b815260206004820152601760248201527f496e76616c69642073637265656e696e674964486173680000000000000000006044820152606490fd5b5f80fd5b346101fb5760203660031901126101fb576004355f525f60205260a060405f2060806102296102bd565b600180851b03835416928382526001810154806020840152600360028301549283604086015201549260ff67ffffffffffffffff85169485606084015260401c16151594859101526040519485526020850152604084015260608301526080820152f35b346101fb5760203660031901126101fb576020906004355f525f825260ff600360405f20015460401c1615158152f35b6040519060a0820182811067ffffffffffffffff8211176102dd57604052565b634e487b7160e01b5f52604160045260245ffdfea2646970667358221220155e9742779b6e5e71972c298ec1b9facc5bd6e44567748579a03b272105ea0c64736f6c634300081b0033",
  "linkReferences": {},
  "deployedLinkReferences": {}
}