{
  "_format": "hh-sol-artifact-1",
  "contractName": "PediScreenRecords",
  "sourceName": "contracts/PediScreenRecords.sol",
  "abi": [
    {
      "inputs": [],
      "stateMutability": "nonpayable",
      "type": "constructor"
    },
    {
      "inputs": [],
      "name": "AccessControlBadConfirmation",
      "type": "error"
    },
    {
      "inputs": [
        {
          "internalType": "address",
          "name": "account",
          "type": "address"
        },
        {
          "internalType": "bytes32",
          "name": "neededRole",
          "type": "bytes32"
        }
      ],
      "name": "AccessControlUnauthorizedAccount",
      "type": "error"
    },
    {
      "inputs": [],
      "name": "ECDSAInvalidSignature",
      "type": "error"
    },
    {
      "inputs": [
        {
          "internalType": "uint256",
          "name": "length",
          "type": "uint256"
        }
      ],
      "name": "ECDSAInvalidSignatureLength",
      "type": "error"
    },
    {
      "inputs": [
        {
          "internalType": "bytes32",
          "name": "s",
          "type": "bytes32"
        }
      ],
      "name": "ECDSAInvalidSignatureS",
      "type": "error"
    },
    {
      "anonymous": false,
      "inputs": [
        {
          "indexed": true,
          "internalType": "uint256",
          "name": "recordId",
          "type": "uint256"
        },
        {
          "indexed": true,
          "internalType": "address",
          "name": "viewer",
          "type": "address"
        }
      ],
      "name": "AccessLogged",
      "type": "event"
    },
    {
      "anonymous": false,
      "inputs": [
        {
          "indexed": true,
          "internalType": "uint256",
          "name": "recordId",
          "type": "uint256"
        },
        {
          "indexed": true,
          "internalType": "address",
          "name": "viewer",
          "type": "address"
        }
      ],
      "name": "ConsentGranted",
      "type": "event"
    },
    {
      "anonymous": false,
      "inputs": [
        {
          "indexed": true,
          "internalType": "uint256",
          "name": "recordId",
          "type": "uint256"
        },
        {
          "indexed": true,
          "internalType": "address",
          "name": "clinician",
          "type": "address"
        }
      ],
      "name": "EmergencyAccessRequested",
      "type": "event"
    },
    {
      "anonymous": false,
      "inputs": [
        {
          "indexed": true,
          "internalType": "uint256",
          "name": "recordId",
          "type": "uint256"
        },
        {
          "indexed": true,
          "internalType": "address",
          "name": "patient",
          "type": "address"
        },
        {
          "indexed": true,
          "internalType": "address",
          "name": "clinician",
          "type": "address"
        },
        {
          "indexed": false,
          "internalType": "string",
          "name": "encryptedDataHash",
          "type": "string"
        },
        {
          "indexed": false,
          "internalType": "uint8",
          "name": "riskLevel",
          "type": "uint8"
        }
      ],
      "name": "RecordCreated",
      "type": "event"
    },
    {
      "anonymous": false,
      "inputs": [
        {
          "indexed": true,
          "internalType": "bytes32",
          "name": "role",
          "type": "bytes32"
        },
        {
          "indexed": true,
          "internalType": "bytes32",
          "name": "previousAdminRole",
          "type": "bytes32"
        },
        {
          "indexed": true,
          "internalType": "bytes32",
          "name": "newAdminRole",
          "type": "bytes32"
        }
      ],
      "name": "RoleAdminChanged",
      "type": "event"
    },
    {
      "anonymous": false,
      "inputs": [
        {
          "indexed": true,
          "internalType": "bytes32",
          "name": "role",
          "type": "bytes32"
        },
        {
          "indexed": true,
          "internalType": "address",
          "name": "account",
          "type": "address"
        },
        {
          "indexed": true,
          "internalType": "address",
          "name": "sender",
          "type": "address"
        }
      ],
      "name": "RoleGranted",
      "type": "event"
    },
    {
      "anonymous": false,
      "inputs": [
        {
          "indexed": true,
          "internalType": "bytes32",
          "name": "role",
          "type": "bytes32"
        },
        {
          "indexed": true,
          "internalType": "address",
          "name": "account",
          "type": "address"
        },
        {
          "indexed": true,
          "internalType": "address",
          "name": "sender",
          "type": "address"
        }
      ],
      "name": "RoleRevoked",
      "type": "event"
    },
    {
      "inputs": [],
      "name": "AUDITOR_ROLE",
      "outputs": [
        {
          "internalType": "bytes32",
          "name": "",
          "type": "bytes32"
        }
      ],
      "stateMutability": "view",
      "type": "function"
    },
    {
      "inputs": [],
      "name": "CLINICIAN_ROLE",
      "outputs": [
        {
          "internalType": "bytes32",
          "name": "",
          "type": "bytes32"
        }
      ],
      "stateMutability": "view",
      "type": "function"
    },
    {
      "inputs": [],
      "name": "DEFAULT_ADMIN_ROLE",
      "outputs": [
        {
          "internalType": "bytes32",
          "name": "",
          "type": "bytes32"
        }
      ],
      "stateMutability": "view",
      "type": "function"
    },
    {
      "inputs": [],
      "name": "PATIENT_ROLE",
      "outputs": [
        {
          "internalType": "bytes32",
          "name": "",
          "type": "bytes32"
        }
      ],
      "stateMutability": "view",
      "type": "function"
    },
    {
      "inputs": [
        {
          "internalType": "address",
          "name": "patient",
          "type": "address"
        },
        {
          "internalType": "string",
          "name": "encryptedDataHash",
          "type": "string"
        },
        {
          "internalType": "string",
          "name": "screeningDomain",
          "type": "string"
        },
        {
          "internalType": "uint32",
          "name": "childAgeMonths",
          "type": "uint32"
        },
        {
          "internalType": "uint8",
          "name": "riskLevel",
          "type": "uint8"
        },
        {
          "internalType": "uint8",
          "name": "confidence",
          "type": "uint8"
        },
        {
          "internalType": "bytes",
          "name": "clinicianSignature",
          "type": "bytes"
        }
      ],
      "name": "createScreeningRecord",
      "outputs": [],
      "stateMutability": "nonpayable",
      "type": "function"
    },
    {
      "inputs": [
        {
          "internalType": "uint256",
          "name": "",
          "type": "uint256"
        },
        {
          "internalType": "uint256",
          "name": "",
          "type": "uint256"
        }
      ],
      "name": "emergencyAccessRequests",
      "outputs": [
        {
          "internalType": "address",
          "name": "",
          "type": "address"
        }
      ],
      "stateMutability": "view",
      "type": "function"
    },
    {
      "inputs": [],
      "name": "getNextRecordId",
      "outputs": [
        {
          "internalType": "uint256",
          "name": "",
          "type": "uint256"
        }
      ],
      "stateMutability": "view",
      "type": "function"
    },
    {
      "inputs": [
        {
          "internalType": "address",
          "name": "patient",
          "type": "address"
        }
      ],
      "name": "getPatientRecordIds",
      "outputs": [
        {
          "internalType": "uint256[]",
          "name": "",
          "type": "uint256[]"
        }
      ],
      "stateMutability": "view",
      "type": "function"
    },
    {
      "inputs": [
        {
          "internalType": "bytes32",
          "name": "role",
          "type": "bytes32"
        }
      ],
      "name": "getRoleAdmin",
      "outputs": [
        {
          "internalType": "bytes32",
          "name": "",
          "type": "bytes32"
        }
      ],
      "stateMutability": "view",
      "type": "function"
    },
    {
      "inputs": [
        {
          "internalType": "uint256",
          "name": "recordId",
          "type": "uint256"
        },
        {
          "internalType": "address",
          "name": "viewer",
          "type": "address"
        }
      ],
      "name": "grantConsent",
      "outputs": [],
      "stateMutability": "nonpayable",
      "type": "function"
    },
    {
      "inputs": [
        {
          "internalType": "bytes32",
          "name": "role",
          "type": "bytes32"
        },
        {
          "internalType": "address",
          "name": "account",
          "type": "address"
        }
      ],
      "name": "grantRole",
      "outputs": [],
      "stateMutability": "nonpayable",
      "type": "function"
    },
    {
      "inputs": [
        {
          "internalType": "bytes32",
          "name": "role",
          "type": "bytes32"
        },
        {
          "internalType": "address",
          "name": "account",
          "type": "address"
        }
      ],
      "name": "hasRole",
      "outputs": [
        {
          "internalType": "bool",
          "name": "",
          "type": "bool"
        }
      ],
      "stateMutability": "view",
      "type": "function"
    },
    {
      "inputs": [
        {
          "internalType": "uint256",
          "name": "recordId",
          "type": "uint256"
        }
      ],
      "name": "logRecordAccess",
      "outputs": [],
      "stateMutability": "nonpayable",
      "type": "function"
    },
    {
      "inputs": [
        {
          "internalType": "address",
          "name": "",
          "type": "address"
        },
        {
          "internalType": "uint256",
          "name": "",
          "type": "uint256"
        }
      ],
      "name": "patientRecords",
      "outputs": [
        {
          "internalType": "uint256",
          "name": "",
          "type": "uint256"
        }
      ],
      "stateMutability": "view",
      "type": "function"
    },
    {
      "inputs": [
        {
          "internalType": "uint256",
          "name": "",
          "type": "uint256"
        },
        {
          "internalType": "address",
          "name": "",
          "type": "address"
        }
      ],
      "name": "recordAccess",
      "outputs": [
        {
          "internalType": "bool",
          "name": "",
          "type": "bool"
        }
      ],
      "stateMutability": "view",
      "type": "function"
    },
    {
      "inputs": [
        {
          "internalType": "uint256",
          "name": "",
          "type": "uint256"
        }
      ],
      "name": "records",
      "outputs": [
        {
          "internalType": "uint256",
          "name": "recordId",
          "type": "uint256"
        },
        {
          "internalType": "address",
          "name": "patient",
          "type": "address"
        },
        {
          "internalType": "address",
          "name": "clinician",
          "type": "address"
        },
        {
          "internalType": "string",
          "name": "encryptedDataHash",
          "type": "string"
        },
        {
          "internalType": "string",
          "name": "screeningDomain",
          "type": "string"
        },
        {
          "internalType": "uint32",
          "name": "childAgeMonths",
          "type": "uint32"
        },
        {
          "internalType": "uint8",
          "name": "riskLevel",
          "type": "uint8"
        },
        {
          "internalType": "uint8",
          "name": "confidence",
          "type": "uint8"
        },
        {
          "internalType": "uint64",
          "name": "timestamp",
          "type": "uint64"
        },
        {
          "internalType": "bool",
          "name": "patientConsent",
          "type": "bool"
        },
        {
          "internalType": "bool",
          "name": "clinicianSigned",
          "type": "bool"
        },
        {
          "internalType": "address",
          "name": "clinicianSigner",
          "type": "address"
        }
      ],
      "stateMutability": "view",
      "type": "function"
    },
    {
      "inputs": [
        {
          "internalType": "bytes32",
          "name": "role",
          "type": "bytes32"
        },
        {
          "internalType": "address",
          "name": "callerConfirmation",
          "type": "address"
        }
      ],
      "name": "renounceRole",
      "outputs": [],
      "stateMutability": "nonpayable",
      "type": "function"
    },
    {
      "inputs": [
        {
          "internalType": "uint256",
          "name": "recordId",
          "type": "uint256"
        }
      ],
      "name": "requestEmergencyAccess",
      "outputs": [],
      "stateMutability": "nonpayable",
      "type": "function"
    },
    {
      "inputs": [
        {
          "internalType": "bytes32",
          "name": "role",
          "type": "bytes32"
        },
        {
          "internalType": "address",
          "name": "account",
          "type": "address"
        }
      ],
      "name": "revokeRole",
      "outputs": [],
      "stateMutability": "nonpayable",
      "type": "function"
    },
    {
      "inputs": [
        {
          "internalType": "bytes4",
          "name": "interfaceId",
          "type": "bytes4"
        }
      ],
      "name": "supportsInterface",
      "outputs": [
        {
          "internalType": "bool",
          "name": "",
          "type": "bool"
        }
      ],
      "stateMutability": "view",
      "type": "function"
    }
  ],
  "bytecode": "0x608060405234601f57600f336023565b506040516113c790816100ac8239f35b5f80fd5b6001600160a01b0381165f9081525f5160206114735f395f51905f52602052604090205460ff1660a6576001600160a01b03165f8181525f5160206114735f395f51905f5260205260408120805460ff191660011790553391907f2f8788117e7eff1d82e926ec794901d17c78024a50270940304540a733656f0d8180a4600190565b505f9056fe6080806040526004361015610012575f80fd5b5f3560e01c90816301ffc9a714610e6d57508063248a9ca314610e3b5780632f2ff15d14610dfe5780633446106714610cff57806336568abe14610cbb57806348fba5c614610bcf5780636248204e14610b1b5780636e1d616e14610ae1578063709b8cf314610a915780638340fa25146109bf57806391d148541461097757806394f0df611461091f578063a217fddf14610905578063a5817e13146108cb578063a6bd6f4a1461029e578063ac5cb97d14610264578063bb54798814610227578063c459a8ce146101de578063cdff7e00146101405763d547741f146100f8575f80fd5b3461013c57604036600319011261013c5761013a600435610117610ec0565b90610135610130825f525f602052600160405f20015490565b611116565b6111d6565b005b5f80fd5b3461013c57602036600319011261013c5760043561015c6110a7565b805f52600560205260405f208054600160401b8110156101ca576101859160018201815561100a565b81546001600160a01b0360039290921b91821b1916339182901b17909155907f8c31c9ac15b903aab687882099c651ed802ffab7a320cb8e68d456a7016477815f80a3005b634e487b7160e01b5f52604160045260245ffd5b3461013c57604036600319011261013c576101f7610ec0565b6004355f52600460205260405f209060018060a01b03165f52602052602060ff60405f2054166040519015158152f35b3461013c575f36600319011261013c576001546001810180911161025057602090604051908152f35b634e487b7160e01b5f52601160045260245ffd5b3461013c575f36600319011261013c5760206040517f72606200fac42b7dc86b75901d61ecfab2a4a1a6eded478b97a428094891abed8152f35b3461013c5760e036600319011261013c576102b7610ed6565b60243567ffffffffffffffff811161013c576102d7903690600401611033565b9160443567ffffffffffffffff811161013c576102f8903690600401611033565b9190926064359263ffffffff841680940361013c576084359260ff841680940361013c5760a4359460ff861680960361013c5760c43567ffffffffffffffff811161013c5761034b903690600401611033565b96906103556110a7565b600154905f198214610250578a986103d96103df9260016103e89501809c816001556103a460408d838251948592602084019788528484013781015f838201520301601f198101835282610f24565b5190207f19457468657265756d205369676e6564204d6573736167653a0a3332000000005f52601c52603c5f20923691611061565b90611256565b90929192611290565b6001600160a01b0316923384036108865760405194610180860186811067ffffffffffffffff8211176101ca5789938c91604052848852610455602089019460018060a01b03169c8d865261044660408b019433865236908d611061565b9460608b019586523691611061565b6080890190815260a0890196875260c08901938b855260e08a019283526101008a019367ffffffffffffffff421685526101208b01965f88526101408c019860018a526101608d019b8c525f52600260205260405f209b518c5560018060a01b0390511660018c019060018060a01b03166bffffffffffffffffffffffff60a01b82541617905560018060a01b0390511660028b019060018060a01b03166bffffffffffffffffffffffff60a01b82541617905560038a01905180519067ffffffffffffffff82116101ca57819061052d8454610eec565b601f8111610836575b50602090601f83116001146107d3575f926107c8575b50508160011b915f199060031b1c19161790555b51805160048a019167ffffffffffffffff82116101ca576105818354610eec565b601f8111610783575b50602090601f83116001146107165760069a9998979695949392915f918361070b575b50508160011b915f199060031b1c19161790555b9451600589018054935196519251945195516fffffffffffffffffffffffffffffffff1990941663ffffffff9290921691909117602096871b64ff00000000161760289290921b65ff0000000000169190911760309390931b6dffffffffffffffff000000000000169290921792151560701b60ff60701b169290921791151560781b60ff60781b1691909117905590519190920180546001600160a01b0319166001600160a01b03929092169190911790555f85815260039091526040902080549290600160401b8410156101ca57836106c29160017f24a89eb8f285b71cd635ebf7686c3381d256e495450a17ab663a518e3cc73e1e9601815561100a565b81549060031b9086821b915f19901b191617905585604051926040845281604085015260608401375f6060878401015260208201526060813396601f80199101168101030190a4005b015190505f806105ad565b90601f19831691845f52815f20925f5b81811061076b575091600193918560069e9d9c9b9a999897969410610753575b505050811b0190556105c1565b01515f1960f88460031b161c191690555f8080610746565b92936020600181928786015181550195019301610726565b835f5260205f20601f840160051c810191602085106107be575b601f0160051c01905b8181106107b3575061058a565b5f81556001016107a6565b909150819061079d565b015190505f8061054c565b5f8581528281209350601f198516905b81811061081e5750908460019594939210610806575b505050811b019055610560565b01515f1960f88460031b161c191690555f80806107f9565b929360206001819287860151815501950193016107e3565b909150835f5260205f20601f840160051c8101916020851061087c575b90601f859493920160051c01905b81811061086e5750610536565b5f8155849350600101610861565b9091508190610853565b60405162461bcd60e51b815260206004820152601b60248201527f496e76616c696420636c696e696369616e207369676e617475726500000000006044820152606490fd5b3461013c575f36600319011261013c5760206040517fe497b4ad79a67650fca774cf0812e4505f07dd6d87a3c1afc29076ccc8bbcefe8152f35b3461013c575f36600319011261013c5760206040515f8152f35b3461013c57604036600319011261013c57610938610ed6565b6001600160a01b03165f9081526003602052604090208054602435919082101561013c576020916109689161100a565b90549060031b1c604051908152f35b3461013c57604036600319011261013c57610990610ec0565b6004355f525f60205260405f209060018060a01b03165f52602052602060ff60405f2054166040519015158152f35b3461013c57602036600319011261013c57600435805f52600460205260405f2060018060a01b0333165f5260205260ff60405f2054168015610a5a575b15610a295733907f1e783d0b43b1b4c3a0e3534a9b26b4f70f42acc54f28dd229d36f6323c3cb20a5f80a3005b60405162461bcd60e51b81526020600482015260096024820152684e6f2061636365737360b81b6044820152606490fd5b50335f9081527f2f566f68ba58ef18aabfedad873b1a7cc8301257f2194d930cbc8f55c091e338602052604090205460ff166109fc565b3461013c57604036600319011261013c576024356004355f52600560205260405f20805482101561013c57602091610ac89161100a565b905460405160039290921b1c6001600160a01b03168152f35b3461013c575f36600319011261013c5760206040517f59a1c48e5837ad7a7f3dcedcbe129bf3249ec4fbf651fd4f5e2600ead39fe2f58152f35b3461013c57602036600319011261013c576001600160a01b03610b3c610ed6565b165f52600360205260405f20604051806020835491828152019081935f5260205f20905f5b818110610bb95750505081610b77910382610f24565b604051918291602083019060208452518091526040830191905f5b818110610ba0575050500390f35b8251845285945060209384019390920191600101610b92565b8254845260209093019260019283019201610b61565b3461013c57604036600319011261013c57600435610beb610ec0565b5f828152600260205260409020600101546001600160a01b03163303610c82575f8281526004602090815260408083206001600160a01b0394909416808452938252808320805460ff1916600117905584835260029091528120600501805460ff60701b1916600160701b1790559091907ff3a34a7a216f396897a5bd0483c3b0b288e703d61c3c0f3a1c1cf6e04cb3130a9080a3005b60405162461bcd60e51b81526020600482015260116024820152702737ba103830ba34b2b73a1037bbb732b960791b6044820152606490fd5b3461013c57604036600319011261013c57610cd4610ec0565b336001600160a01b03821603610cf05761013a906004356111d6565b63334bd91960e11b5f5260045ffd5b3461013c57602036600319011261013c576004355f52600260205260405f20805460018060a01b036001830154169160018060a01b0360028201541660ff610da3610d4c60038501610f46565b610d95610d5b60048701610f46565b91600587015496600660018060a01b039101541695604051998a998a5260208a015260408901526101806060890152610180880190610fe6565b908682036080880152610fe6565b9263ffffffff811660a0860152818160201c1660c0860152818160281c1660e086015267ffffffffffffffff8160301c16610100860152818160701c16151561012086015260781c1615156101408401526101608301520390f35b3461013c57604036600319011261013c5761013a600435610e1d610ec0565b90610e36610130825f525f602052600160405f20015490565b61114e565b3461013c57602036600319011261013c576020610e656004355f525f602052600160405f20015490565b604051908152f35b3461013c57602036600319011261013c576004359063ffffffff60e01b821680920361013c57602091637965db0b60e01b8114908115610eaf575b5015158152f35b6301ffc9a760e01b14905083610ea8565b602435906001600160a01b038216820361013c57565b600435906001600160a01b038216820361013c57565b90600182811c92168015610f1a575b6020831014610f0657565b634e487b7160e01b5f52602260045260245ffd5b91607f1691610efb565b90601f8019910116810190811067ffffffffffffffff8211176101ca57604052565b9060405191825f825492610f5984610eec565b8084529360018116908115610fc45750600114610f80575b50610f7e92500383610f24565b565b90505f9291925260205f20905f915b818310610fa8575050906020610f7e928201015f610f71565b6020919350806001915483858901015201910190918492610f8f565b905060209250610f7e94915060ff191682840152151560051b8201015f610f71565b805180835260209291819084018484015e5f828201840152601f01601f1916010190565b805482101561101f575f5260205f2001905f90565b634e487b7160e01b5f52603260045260245ffd5b9181601f8401121561013c5782359167ffffffffffffffff831161013c576020838186019501011161013c57565b92919267ffffffffffffffff82116101ca576040519161108b601f8201601f191660200184610f24565b82948184528183011161013c578281602093845f960137010152565b335f9081527f2f566f68ba58ef18aabfedad873b1a7cc8301257f2194d930cbc8f55c091e338602052604090205460ff16156110df57565b63e2517d3f60e01b5f52336004527fe497b4ad79a67650fca774cf0812e4505f07dd6d87a3c1afc29076ccc8bbcefe60245260445ffd5b5f8181526020818152604080832033845290915290205460ff16156111385750565b63e2517d3f60e01b5f523360045260245260445ffd5b5f818152602081815260408083206001600160a01b038616845290915290205460ff166111d0575f818152602081815260408083206001600160a01b0395909516808452949091528120805460ff19166001179055339291907f2f8788117e7eff1d82e926ec794901d17c78024a50270940304540a733656f0d9080a4600190565b50505f90565b5f818152602081815260408083206001600160a01b038616845290915290205460ff16156111d0575f818152602081815260408083206001600160a01b0395909516808452949091528120805460ff19169055339291907ff6391f5c32d9c69d2a47ea670b442974b53935d1edc7fd64eb21e047a839171b9080a4600190565b81519190604183036112865761127f9250602082015190606060408401519301515f1a90611304565b9192909190565b50505f9160029190565b60048110156112f057806112a2575050565b600181036112b95763f645eedf60e01b5f5260045ffd5b600281036112d4575063fce698f760e01b5f5260045260245ffd5b6003146112de5750565b6335e2f38360e21b5f5260045260245ffd5b634e487b7160e01b5f52602160045260245ffd5b91907f7fffffffffffffffffffffffffffffff5d576e7357a4501ddfe92f46681b20a08411611386579160209360809260ff5f9560405194855216868401526040830152606082015282805260015afa1561137b575f516001600160a01b0381161561137157905f905f90565b505f906001905f90565b6040513d5f823e3d90fd5b5050505f916003919056fea2646970667358221220e2d3dfa1cdd353f8180879e6b7b3eb5a24a35f11832c7b89dd9a0660fb94398564736f6c634300081b0033ad3228b676f7d3cd4284a5443f17f1962b36e491b30a40b2405849e597ba5fb5",
  "linkReferences": {},
  "deployedLinkReferences": {}
}