{
  "_format": "hh-sol-artifact-1",
  "contractName": "PediScreenToken",
  "sourceName": "contracts/PediScreenToken.sol",
  "abi": [
    {
      "inputs": [
        {
          "internalType": "address",
          "name": "initialGovernor",
          "type": "address"
        },
        {
          "internalType": "address",
          "name": "ecosystemWallet",
          "type": "address"
        },
        {
          "internalType": "address",
          "name": "liquidityWallet",
          "type": "address"
        },
        {
          "internalType": "address",
          "name": "teamWallet",
          "type": "address"
        },
        {
          "internalType": "address",
          "name": "advisorsWallet",
          "type": "address"
        },
        {
          "internalType": "address",
          "name": "marketingWallet",
          "type": "address"
        },
        {
          "internalType": "address",
          "name": "treasuryWallet",
          "type": "address"
        }
      ],
      "stateMutability": "nonpayable",
      "type": "constructor"
    },
    {
      "inputs": [],
      "name": "AccessControlBadConfirmation",
      "type": "error"
    },
    {
      "inputs": [
        {
          "internalType": "address",
          "name": "account",
          "type": "address"
        },
        {
          "internalType": "bytes32",
          "name": "neededRole",
          "type": "bytes32"
        }
      ],
      "name": "AccessControlUnauthorizedAccount",
      "type": "error"
    },
    {
      "inputs": [],
      "name": "ECDSAInvalidSignature",
      "type": "error"
    },
    {
      "inputs": [
        {
          "internalType": "uint256",
          "name": "length",
          "type": "uint256"
        }
      ],
      "name": "ECDSAInvalidSignatureLength",
      "type": "error"
    },
    {
      "inputs": [
        {
          "internalType": "bytes32",
          "name": "s",
          "type": "bytes32"
        }
      ],
      "name": "ECDSAInvalidSignatureS",
      "type": "error"
    },
    {
      "inputs": [
        {
          "internalType": "address",
          "name": "spender",
          "type": "address"
        },
        {
          "internalType": "uint256",
          "name": "allowance",
          "type": "uint256"
        },
        {
          "internalType": "uint256",
          "name": "needed",
          "type": "uint256"
        }
      ],
      "name": "ERC20InsufficientAllowance",
      "type": "error"
    },
    {
      "inputs": [
        {
          "internalType": "address",
          "name": "sender",
          "type": "address"
        },
        {
          "internalType": "uint256",
          "name": "balance",
          "type": "uint256"
        },
        {
          "internalType": "uint256",
          "name": "needed",
          "type": "uint256"
        }
      ],
      "name": "ERC20InsufficientBalance",
      "type": "error"
    },
    {
      "inputs": [
        {
          "internalType": "address",
          "name": "approver",
          "type": "address"
        }
      ],
      "name": "ERC20InvalidApprover",
      "type": "error"
    },
    {
      "inputs": [
        {
          "internalType": "address",
          "name": "receiver",
          "type": "address"
        }
      ],
      "name": "ERC20InvalidReceiver",
      "type": "error"
    },
    {
      "inputs": [
        {
          "internalType": "address",
          "name": "sender",
          "type": "address"
        }
      ],
      "name": "ERC20InvalidSender",
      "type": "error"
    },
    {
      "inputs": [
        {
          "internalType": "address",
          "name": "spender",
          "type": "address"
        }
      ],
      "name": "ERC20InvalidSpender",
      "type": "error"
    },
    {
      "inputs": [
        {
          "internalType": "uint256",
          "name": "deadline",
          "type": "uint256"
        }
      ],
      "name": "ERC2612ExpiredSignature",
      "type": "error"
    },
    {
      "inputs": [
        {
          "internalType": "address",
          "name": "signer",
          "type": "address"
        },
        {
          "internalType": "address",
          "name": "owner",
          "type": "address"
        }
      ],
      "name": "ERC2612InvalidSigner",
      "type": "error"
    },
    {
      "inputs": [],
      "name": "EnforcedPause",
      "type": "error"
    },
    {
      "inputs": [],
      "name": "ExpectedPause",
      "type": "error"
    },
    {
      "inputs": [
        {
          "internalType": "address",
          "name": "account",
          "type": "address"
        },
        {
          "internalType": "uint256",
          "name": "currentNonce",
          "type": "uint256"
        }
      ],
      "name": "InvalidAccountNonce",
      "type": "error"
    },
    {
      "inputs": [],
      "name": "InvalidShortString",
      "type": "error"
    },
    {
      "inputs": [],
      "name": "ReentrancyGuardReentrantCall",
      "type": "error"
    },
    {
      "inputs": [
        {
          "internalType": "string",
          "name": "str",
          "type": "string"
        }
      ],
      "name": "StringTooLong",
      "type": "error"
    },
    {
      "anonymous": false,
      "inputs": [
        {
          "indexed": true,
          "internalType": "address",
          "name": "owner",
          "type": "address"
        },
        {
          "indexed": true,
          "internalType": "address",
          "name": "spender",
          "type": "address"
        },
        {
          "indexed": false,
          "internalType": "uint256",
          "name": "value",
          "type": "uint256"
        }
      ],
      "name": "Approval",
      "type": "event"
    },
    {
      "anonymous": false,
      "inputs": [],
      "name": "EIP712DomainChanged",
      "type": "event"
    },
    {
      "anonymous": false,
      "inputs": [
        {
          "indexed": true,
          "internalType": "address",
          "name": "proposer",
          "type": "address"
        },
        {
          "indexed": false,
          "internalType": "uint256",
          "name": "proposalId",
          "type": "uint256"
        }
      ],
      "name": "GovernanceProposal",
      "type": "event"
    },
    {
      "anonymous": false,
      "inputs": [
        {
          "indexed": false,
          "internalType": "address",
          "name": "account",
          "type": "address"
        }
      ],
      "name": "Paused",
      "type": "event"
    },
    {
      "anonymous": false,
      "inputs": [
        {
          "indexed": true,
          "internalType": "address",
          "name": "user",
          "type": "address"
        },
        {
          "indexed": false,
          "internalType": "uint256",
          "name": "amount",
          "type": "uint256"
        }
      ],
      "name": "RewardsClaimed",
      "type": "event"
    },
    {
      "anonymous": false,
      "inputs": [
        {
          "indexed": true,
          "internalType": "bytes32",
          "name": "role",
          "type": "bytes32"
        },
        {
          "indexed": true,
          "internalType": "bytes32",
          "name": "previousAdminRole",
          "type": "bytes32"
        },
        {
          "indexed": true,
          "internalType": "bytes32",
          "name": "newAdminRole",
          "type": "bytes32"
        }
      ],
      "name": "RoleAdminChanged",
      "type": "event"
    },
    {
      "anonymous": false,
      "inputs": [
        {
          "indexed": true,
          "internalType": "bytes32",
          "name": "role",
          "type": "bytes32"
        },
        {
          "indexed": true,
          "internalType": "address",
          "name": "account",
          "type": "address"
        },
        {
          "indexed": true,
          "internalType": "address",
          "name": "sender",
          "type": "address"
        }
      ],
      "name": "RoleGranted",
      "type": "event"
    },
    {
      "anonymous": false,
      "inputs": [
        {
          "indexed": true,
          "internalType": "bytes32",
          "name": "role",
          "type": "bytes32"
        },
        {
          "indexed": true,
          "internalType": "address",
          "name": "account",
          "type": "address"
        },
        {
          "indexed": true,
          "internalType": "address",
          "name": "sender",
          "type": "address"
        }
      ],
      "name": "RoleRevoked",
      "type": "event"
    },
    {
      "anonymous": false,
      "inputs": [
        {
          "indexed": true,
          "internalType": "address",
          "name": "user",
          "type": "address"
        },
        {
          "indexed": false,
          "internalType": "uint256",
          "name": "amount",
          "type": "uint256"
        }
      ],
      "name": "TokensLocked",
      "type": "event"
    },
    {
      "anonymous": false,
      "inputs": [
        {
          "indexed": true,
          "internalType": "address",
          "name": "from",
          "type": "address"
        },
        {
          "indexed": true,
          "internalType": "address",
          "name": "to",
          "type": "address"
        },
        {
          "indexed": false,
          "internalType": "uint256",
          "name": "value",
          "type": "uint256"
        }
      ],
      "name": "Transfer",
      "type": "event"
    },
    {
      "anonymous": false,
      "inputs": [
        {
          "indexed": false,
          "internalType": "address",
          "name": "account",
          "type": "address"
        }
      ],
      "name": "Unpaused",
      "type": "event"
    },
    {
      "inputs": [],
      "name": "ADVISORS_SUPPLY",
      "outputs": [
        {
          "internalType": "uint256",
          "name": "",
          "type": "uint256"
        }
      ],
      "stateMutability": "view",
      "type": "function"
    },
    {
      "inputs": [],
      "name": "DEFAULT_ADMIN_ROLE",
      "outputs": [
        {
          "internalType": "bytes32",
          "name": "",
          "type": "bytes32"
        }
      ],
      "stateMutability": "view",
      "type": "function"
    },
    {
      "inputs": [],
      "name": "DOMAIN_SEPARATOR",
      "outputs": [
        {
          "internalType": "bytes32",
          "name": "",
          "type": "bytes32"
        }
      ],
      "stateMutability": "view",
      "type": "function"
    },
    {
      "inputs": [],
      "name": "ECOSYSTEM_SUPPLY",
      "outputs": [
        {
          "internalType": "uint256",
          "name": "",
          "type": "uint256"
        }
      ],
      "stateMutability": "view",
      "type": "function"
    },
    {
      "inputs": [],
      "name": "GOVERNOR_ROLE",
      "outputs": [
        {
          "internalType": "bytes32",
          "name": "",
          "type": "bytes32"
        }
      ],
      "stateMutability": "view",
      "type": "function"
    },
    {
      "inputs": [],
      "name": "LIQUIDITY_SUPPLY",
      "outputs": [
        {
          "internalType": "uint256",
          "name": "",
          "type": "uint256"
        }
      ],
      "stateMutability": "view",
      "type": "function"
    },
    {
      "inputs": [],
      "name": "LOCK_PERIOD",
      "outputs": [
        {
          "internalType": "uint256",
          "name": "",
          "type": "uint256"
        }
      ],
      "stateMutability": "view",
      "type": "function"
    },
    {
      "inputs": [],
      "name": "MARKETING_SUPPLY",
      "outputs": [
        {
          "internalType": "uint256",
          "name": "",
          "type": "uint256"
        }
      ],
      "stateMutability": "view",
      "type": "function"
    },
    {
      "inputs": [],
      "name": "MAX_SUPPLY",
      "outputs": [
        {
          "internalType": "uint256",
          "name": "",
          "type": "uint256"
        }
      ],
      "stateMutability": "view",
      "type": "function"
    },
    {
      "inputs": [],
      "name": "MINTER_ROLE",
      "outputs": [
        {
          "internalType": "bytes32",
          "name": "",
          "type": "bytes32"
        }
      ],
      "stateMutability": "view",
      "type": "function"
    },
    {
      "inputs": [],
      "name": "PAUSER_ROLE",
      "outputs": [
        {
          "internalType": "bytes32",
          "name": "",
          "type": "bytes32"
        }
      ],
      "stateMutability": "view",
      "type": "function"
    },
    {
      "inputs": [],
      "name": "REWARDS_POOL_SUPPLY",
      "outputs": [
        {
          "internalType": "uint256",
          "name": "",
          "type": "uint256"
        }
      ],
      "stateMutability": "view",
      "type": "function"
    },
    {
      "inputs": [],
      "name": "REWARD_RATE_BPS",
      "outputs": [
        {
          "internalType": "uint256",
          "name": "",
          "type": "uint256"
        }
      ],
      "stateMutability": "view",
      "type": "function"
    },
    {
      "inputs": [],
      "name": "TEAM_SUPPLY",
      "outputs": [
        {
          "internalType": "uint256",
          "name": "",
          "type": "uint256"
        }
      ],
      "stateMutability": "view",
      "type": "function"
    },
    {
      "inputs": [],
      "name": "TREASURY_SUPPLY",
      "outputs": [
        {
          "internalType": "uint256",
          "name": "",
          "type": "uint256"
        }
      ],
      "stateMutability": "view",
      "type": "function"
    },
    {
      "inputs": [
        {
          "internalType": "address",
          "name": "owner",
          "type": "address"
        },
        {
          "internalType": "address",
          "name": "spender",
          "type": "address"
        }
      ],
      "name": "allowance",
      "outputs": [
        {
          "internalType": "uint256",
          "name": "",
          "type": "uint256"
        }
      ],
      "stateMutability": "view",
      "type": "function"
    },
    {
      "inputs": [
        {
          "internalType": "address",
          "name": "spender",
          "type": "address"
        },
        {
          "internalType": "uint256",
          "name": "value",
          "type": "uint256"
        }
      ],
      "name": "approve",
      "outputs": [
        {
          "internalType": "bool",
          "name": "",
          "type": "bool"
        }
      ],
      "stateMutability": "nonpayable",
      "type": "function"
    },
    {
      "inputs": [
        {
          "internalType": "address",
          "name": "account",
          "type": "address"
        }
      ],
      "name": "balanceOf",
      "outputs": [
        {
          "internalType": "uint256",
          "name": "",
          "type": "uint256"
        }
      ],
      "stateMutability": "view",
      "type": "function"
    },
    {
      "inputs": [
        {
          "internalType": "uint256",
          "name": "value",
          "type": "uint256"
        }
      ],
      "name": "burn",
      "outputs": [],
      "stateMutability": "nonpayable",
      "type": "function"
    },
    {
      "inputs": [
        {
          "internalType": "address",
          "name": "account",
          "type": "address"
        },
        {
          "internalType": "uint256",
          "name": "value",
          "type": "uint256"
        }
      ],
      "name": "burnFrom",
      "outputs": [],
      "stateMutability": "nonpayable",
      "type": "function"
    },
    {
      "inputs": [],
      "name": "claimRewards",
      "outputs": [],
      "stateMutability": "nonpayable",
      "type": "function"
    },
    {
      "inputs": [],
      "name": "decimals",
      "outputs": [
        {
          "internalType": "uint8",
          "name": "",
          "type": "uint8"
        }
      ],
      "stateMutability": "view",
      "type": "function"
    },
    {
      "inputs": [],
      "name": "eip712Domain",
      "outputs": [
        {
          "internalType": "bytes1",
          "name": "fields",
          "type": "bytes1"
        },
        {
          "internalType": "string",
          "name": "name",
          "type": "string"
        },
        {
          "internalType": "string",
          "name": "version",
          "type": "string"
        },
        {
          "internalType": "uint256",
          "name": "chainId",
          "type": "uint256"
        },
        {
          "internalType": "address",
          "name": "verifyingContract",
          "type": "address"
        },
        {
          "internalType": "bytes32",
          "name": "salt",
          "type": "bytes32"
        },
        {
          "internalType": "uint256[]",
          "name": "extensions",
          "type": "uint256[]"
        }
      ],
      "stateMutability": "view",
      "type": "function"
    },
    {
      "inputs": [
        {
          "internalType": "bytes32",
          "name": "role",
          "type": "bytes32"
        }
      ],
      "name": "getRoleAdmin",
      "outputs": [
        {
          "internalType": "bytes32",
          "name": "",
          "type": "bytes32"
        }
      ],
      "stateMutability": "view",
      "type": "function"
    },
    {
      "inputs": [
        {
          "internalType": "bytes32",
          "name": "role",
          "type": "bytes32"
        },
        {
          "internalType": "address",
          "name": "account",
          "type": "address"
        }
      ],
      "name": "grantRole",
      "outputs": [],
      "stateMutability": "nonpayable",
      "type": "function"
    },
    {
      "inputs": [
        {
          "internalType": "bytes32",
          "name": "role",
          "type": "bytes32"
        },
        {
          "internalType": "address",
          "name": "account",
          "type": "address"
        }
      ],
      "name": "hasRole",
      "outputs": [
        {
          "internalType": "bool",
          "name": "",
          "type": "bool"
        }
      ],
      "stateMutability": "view",
      "type": "function"
    },
    {
      "inputs": [],
      "name": "lastRewardUpdate",
      "outputs": [
        {
          "internalType": "uint256",
          "name": "",
          "type": "uint256"
        }
      ],
      "stateMutability": "view",
      "type": "function"
    },
    {
      "inputs": [
        {
          "internalType": "uint256",
          "name": "amount",
          "type": "uint256"
        }
      ],
      "name": "lock",
      "outputs": [],
      "stateMutability": "nonpayable",
      "type": "function"
    },
    {
      "inputs": [
        {
          "internalType": "address",
          "name": "",
          "type": "address"
        }
      ],
      "name": "lockTimestamps",
      "outputs": [
        {
          "internalType": "uint256",
          "name": "",
          "type": "uint256"
        }
      ],
      "stateMutability": "view",
      "type": "function"
    },
    {
      "inputs": [
        {
          "internalType": "address",
          "name": "",
          "type": "address"
        }
      ],
      "name": "lockedBalances",
      "outputs": [
        {
          "internalType": "uint256",
          "name": "",
          "type": "uint256"
        }
      ],
      "stateMutability": "view",
      "type": "function"
    },
    {
      "inputs": [
        {
          "internalType": "address",
          "name": "to",
          "type": "address"
        },
        {
          "internalType": "uint256",
          "name": "amount",
          "type": "uint256"
        }
      ],
      "name": "mint",
      "outputs": [],
      "stateMutability": "nonpayable",
      "type": "function"
    },
    {
      "inputs": [
        {
          "internalType": "address",
          "name": "to",
          "type": "address"
        },
        {
          "internalType": "uint256",
          "name": "amount",
          "type": "uint256"
        }
      ],
      "name": "mintRewards",
      "outputs": [],
      "stateMutability": "nonpayable",
      "type": "function"
    },
    {
      "inputs": [],
      "name": "name",
      "outputs": [
        {
          "internalType": "string",
          "name": "",
          "type": "string"
        }
      ],
      "stateMutability": "view",
      "type": "function"
    },
    {
      "inputs": [
        {
          "internalType": "address",
          "name": "owner",
          "type": "address"
        }
      ],
      "name": "nonces",
      "outputs": [
        {
          "internalType": "uint256",
          "name": "",
          "type": "uint256"
        }
      ],
      "stateMutability": "view",
      "type": "function"
    },
    {
      "inputs": [],
      "name": "pause",
      "outputs": [],
      "stateMutability": "nonpayable",
      "type": "function"
    },
    {
      "inputs": [],
      "name": "paused",
      "outputs": [
        {
          "internalType": "bool",
          "name": "",
          "type": "bool"
        }
      ],
      "stateMutability": "view",
      "type": "function"
    },
    {
      "inputs": [
        {
          "internalType": "address",
          "name": "owner",
          "type": "address"
        },
        {
          "internalType": "address",
          "name": "spender",
          "type": "address"
        },
        {
          "internalType": "uint256",
          "name": "value",
          "type": "uint256"
        },
        {
          "internalType": "uint256",
          "name": "deadline",
          "type": "uint256"
        },
        {
          "internalType": "uint8",
          "name": "v",
          "type": "uint8"
        },
        {
          "internalType": "bytes32",
          "name": "r",
          "type": "bytes32"
        },
        {
          "internalType": "bytes32",
          "name": "s",
          "type": "bytes32"
        }
      ],
      "name": "permit",
      "outputs": [],
      "stateMutability": "nonpayable",
      "type": "function"
    },
    {
      "inputs": [
        {
          "internalType": "bytes",
          "name": "proposalData",
          "type": "bytes"
        }
      ],
      "name": "proposeUpgrade",
      "outputs": [],
      "stateMutability": "nonpayable",
      "type": "function"
    },
    {
      "inputs": [
        {
          "internalType": "bytes32",
          "name": "role",
          "type": "bytes32"
        },
        {
          "internalType": "address",
          "name": "callerConfirmation",
          "type": "address"
        }
      ],
      "name": "renounceRole",
      "outputs": [],
      "stateMutability": "nonpayable",
      "type": "function"
    },
    {
      "inputs": [
        {
          "internalType": "bytes32",
          "name": "role",
          "type": "bytes32"
        },
        {
          "internalType": "address",
          "name": "account",
          "type": "address"
        }
      ],
      "name": "revokeRole",
      "outputs": [],
      "stateMutability": "nonpayable",
      "type": "function"
    },
    {
      "inputs": [],
      "name": "rewardPool",
      "outputs": [
        {
          "internalType": "uint256",
          "name": "",
          "type": "uint256"
        }
      ],
      "stateMutability": "view",
      "type": "function"
    },
    {
      "inputs": [
        {
          "internalType": "address",
          "name": "",
          "type": "address"
        }
      ],
      "name": "rewardsPending",
      "outputs": [
        {
          "internalType": "uint256",
          "name": "",
          "type": "uint256"
        }
      ],
      "stateMutability": "view",
      "type": "function"
    },
    {
      "inputs": [
        {
          "internalType": "bytes4",
          "name": "interfaceId",
          "type": "bytes4"
        }
      ],
      "name": "supportsInterface",
      "outputs": [
        {
          "internalType": "bool",
          "name": "",
          "type": "bool"
        }
      ],
      "stateMutability": "view",
      "type": "function"
    },
    {
      "inputs": [],
      "name": "symbol",
      "outputs": [
        {
          "internalType": "string",
          "name": "",
          "type": "string"
        }
      ],
      "stateMutability": "view",
      "type": "function"
    },
    {
      "inputs": [
        {
          "internalType": "uint256",
          "name": "amount",
          "type": "uint256"
        }
      ],
      "name": "topUpRewards",
      "outputs": [],
      "stateMutability": "nonpayable",
      "type": "function"
    },
    {
      "inputs": [],
      "name": "totalLocked",
      "outputs": [
        {
          "internalType": "uint256",
          "name": "",
          "type": "uint256"
        }
      ],
      "stateMutability": "view",
      "type": "function"
    },
    {
      "inputs": [],
      "name": "totalSupply",
      "outputs": [
        {
          "internalType": "uint256",
          "name": "",
          "type": "uint256"
        }
      ],
      "stateMutability": "view",
      "type": "function"
    },
    {
      "inputs": [
        {
          "internalType": "address",
          "name": "to",
          "type": "address"
        },
        {
          "internalType": "uint256",
          "name": "value",
          "type": "uint256"
        }
      ],
      "name": "transfer",
      "outputs": [
        {
          "internalType": "bool",
          "name": "",
          "type": "bool"
        }
      ],
      "stateMutability": "nonpayable",
      "type": "function"
    },
    {
      "inputs": [
        {
          "internalType": "address",
          "name": "from",
          "type": "address"
        },
        {
          "internalType": "address",
          "name": "to",
          "type": "address"
        },
        {
          "internalType": "uint256",
          "name": "value",
          "type": "uint256"
        }
      ],
      "name": "transferFrom",
      "outputs": [
        {
          "internalType": "bool",
          "name": "",
          "type": "bool"
        }
      ],
      "stateMutability": "nonpayable",
      "type": "function"
    },
    {
      "inputs": [],
      "name": "unpause",
      "outputs": [],
      "stateMutability": "nonpayable",
      "type": "function"
    }
  ],
  "bytecode": "0x61016080604052346108285760e081612b018038038091610020828561082c565b833981010312610828576100338161084f565b61003f6020830161084f565b9061004c6040840161084f565b6100586060850161084f565b906100656080860161084f565b9261007e60c061007760a0890161084f565b970161084f565b9460405161008d60408261082c565b6013815260208101722832b234a9b1b932b2b71020a4902a37b5b2b760691b8152604051906100bd60408361082c565b60138252722832b234a9b1b932b2b71020a4902a37b5b2b760691b6020830152604051926100ec60408561082c565b60048452635045444960e01b60208501526040519361010c60408661082c565b60018552603160f81b60208601908152845190946001600160401b03821161072b5760035490600182811c9216801561081e575b602083101461070d5781601f8493116107b0575b50602090601f831160011461074a575f9261073f575b50508160011b915f199060031b1c1916176003555b8051906001600160401b03821161072b5760045490600182811c92168015610721575b602083101461070d5781601f84931161069f575b50602090601f8311600114610639575f9261062e575b50508160011b915f199060031b1c1916176004555b6101ea81610b0d565b610120526101f784610c94565b61014052519020918260e05251902080610100524660a0526040519060208201927f8b73c3c69bb8fe3d512ecc4cf759cc79239f7b179b0ffacaa9a75d522b39400f8452604083015260608201524660808201523060a082015260a0815261026060c08261082c565b5190206080523060c0526001600a556001600160a01b038216156105f6576001600160a01b0316908115908115806105e4575b156105ad576102b5906102a533610863565b506102af336108d9565b5061096c565b506102bf336109ff565b5061059a576102cc610dcc565b6102d4610dcc565b6002546b0121836204bc2ce21e000000810180911161058657600255805f525f60205260405f206b0121836204bc2ce21e00000081540190555f5f516020612ac15f395f51905f5260206040516b0121836204bc2ce21e0000008152a36001600160a01b0316801561059a57610348610dcc565b610350610dcc565b6002546aa56fa5b99019a5c8000000810180911161058657600255805f525f60205260405f206aa56fa5b99019a5c800000081540190555f5f516020612ac15f395f51905f5260206040516aa56fa5b99019a5c80000008152a36001600160a01b0316801561059a576103c1610dcc565b6103c9610dcc565b6002546a6342fd08f00f6378000000810180911161058657600255805f525f60205260405f206a6342fd08f00f637800000081540190555f5f516020612ac15f395f51905f5260206040516a6342fd08f00f63780000008152a36001600160a01b031691821561059a5761043b610dcc565b610443610dcc565b600254906a422ca8b0a00a42500000008201809211610586576104b0936104ab92600255805f525f60205260405f206a422ca8b0a00a425000000081540190555f5f516020612ac15f395f51905f5260206040516a422ca8b0a00a42500000008152a3610a92565b610a92565b6a7c13bc4b2c133c56000000600c55301561059a576104cd610dcc565b6104d5610dcc565b6002546a7c13bc4b2c133c56000000810180911161058657600255305f525f60205260405f206a7c13bc4b2c133c5600000081540190556040516a7c13bc4b2c133c5600000081525f5f516020612ac15f395f51905f5260203093a342600d55604051611c599081610de88239608051816116ee015260a051816117ab015260c051816116b8015260e0518161173d01526101005181611763015261012051816109040152610140518161092d0152f35b634e487b7160e01b5f52601160045260245ffd5b63ec442f0560e01b5f525f60045260245ffd5b60405162461bcd60e51b815260206004820152600f60248201526e496e76616c69642077616c6c65747360881b6044820152606490fd5b506001600160a01b0384161515610293565b60405162461bcd60e51b815260206004820152601060248201526f24b73b30b634b21033b7bb32b93737b960811b6044820152606490fd5b015190505f806101cc565b60045f9081528281209350601f198516905b818110610687575090846001959493921061066f575b505050811b016004556101e1565b01515f1960f88460031b161c191690555f8080610661565b9293602060018192878601518155019501930161064b565b60045f529091507f8a35acfbc15ff81a39ae7d344fd709f28e8600b4aa8c65c6b64bfe7fe36bd19b601f840160051c81019160208510610703575b90601f859493920160051c01905b8181106106f557506101b6565b5f81558493506001016106e8565b90915081906106da565b634e487b7160e01b5f52602260045260245ffd5b91607f16916101a2565b634e487b7160e01b5f52604160045260245ffd5b015190505f8061016a565b60035f9081528281209350601f198516905b8181106107985750908460019594939210610780575b505050811b0160035561017f565b01515f1960f88460031b161c191690555f8080610772565b9293602060018192878601518155019501930161075c565b60035f529091507fc2575a0e9e593c00f959f8c92f12db2869c3395a3b0502d05e2516446f71f85b601f840160051c81019160208510610814575b90601f859493920160051c01905b8181106108065750610154565b5f81558493506001016107f9565b90915081906107eb565b91607f1691610140565b5f80fd5b601f909101601f19168101906001600160401b0382119082101761072b57604052565b51906001600160a01b038216820361082857565b6001600160a01b0381165f9081525f516020612ae15f395f51905f52602052604090205460ff166108d4576001600160a01b03165f8181525f516020612ae15f395f51905f5260205260408120805460ff191660011790553391905f516020612a415f395f51905f528180a4600190565b505f90565b6001600160a01b0381165f9081525f516020612a815f395f51905f52602052604090205460ff166108d4576001600160a01b03165f8181525f516020612a815f395f51905f5260205260408120805460ff191660011790553391907f9f2df0fed2c77648de5860a4cc508cd0818c85b8b8a1ab4ceeef8d981c8956a6905f516020612a415f395f51905f529080a4600190565b6001600160a01b0381165f9081525f516020612a615f395f51905f52602052604090205460ff166108d4576001600160a01b03165f8181525f516020612a615f395f51905f5260205260408120805460ff191660011790553391907f7935bd0ae54bc31f548c14dba4d37c5c64b3f8ca900cb468fb8abd54d5894f55905f516020612a415f395f51905f529080a4600190565b6001600160a01b0381165f9081525f516020612aa15f395f51905f52602052604090205460ff166108d4576001600160a01b03165f8181525f516020612aa15f395f51905f5260205260408120805460ff191660011790553391907f65d7a28e3265b37a6474929f336521b332c1681b933f6cb9f3376673440d862a905f516020612a415f395f51905f529080a4600190565b6001600160a01b0316801561059a57610aa9610dcc565b610ab1610dcc565b6002546a295be96e64066972000000810180911161058657600255805f525f60205260405f206a295be96e6406697200000081540190555f5f516020612ac15f395f51905f5260206040516a295be96e640669720000008152a3565b908151602081105f14610b87575090601f815111610b47576020815191015160208210610b38571790565b5f198260200360031b1b161790565b604460209160405192839163305a27a960e01b83528160048401528051918291826024860152018484015e5f828201840152601f01601f19168101030190fd5b6001600160401b03811161072b57600754600181811c91168015610c8a575b602082101461070d57601f8111610c57575b50602092601f8211600114610bf657928192935f92610beb575b50508160011b915f199060031b1c19161760075560ff90565b015190505f80610bd2565b601f1982169360075f52805f20915f5b868110610c3f5750836001959610610c27575b505050811b0160075560ff90565b01515f1960f88460031b161c191690555f8080610c19565b91926020600181928685015181550194019201610c06565b60075f52601f60205f20910160051c810190601f830160051c015b818110610c7f5750610bb8565b5f8155600101610c72565b90607f1690610ba6565b908151602081105f14610cbf575090601f815111610b47576020815191015160208210610b38571790565b6001600160401b03811161072b57600854600181811c91168015610dc2575b602082101461070d57601f8111610d8f575b50602092601f8211600114610d2e57928192935f92610d23575b50508160011b915f199060031b1c19161760085560ff90565b015190505f80610d0a565b601f1982169360085f52805f20915f5b868110610d775750836001959610610d5f575b505050811b0160085560ff90565b01515f1960f88460031b161c191690555f8080610d51565b91926020600181928685015181550194019201610d3e565b60085f52601f60205f20910160051c810190601f830160051c015b818110610db75750610cf0565b5f8155600101610daa565b90607f1690610cde565b60ff60055416610dd857565b63d93c066560e01b5f5260045ffdfe6080806040526004361015610012575f80fd5b5f3560e01c90816301ffc9a714611136575080630483a7f6146110fe57806306fdde0314611059578063095ea7b31461103357806318160ddd146110165780631820cabb14610ff95780631c3859f914610fc157806323b872dd14610f89578063248a9ca314610f5e5780632f2ff15d14610f20578063313ce56714610f055780633272f50514610ee057806332cb6b0c14610eba5780633521268414610da25780633644e51514610d8057806336568abe14610d3c578063372500ab14610c0e5780633f4ba83a14610ba857806340c10f1914610adc57806342966c6814610b8b5780635689141214610b6e5780635c975abb14610b4c5780635e15dd6c14610b2657806366666aa914610b095780636a20de9214610adc57806370a0823114610aa557806375d0abfa1461024257806379cc679014610a755780637ecebe0014610a3d5780638456cb59146109e457806384b0196e146108ec57806391d14854146108a357806395d89b41146107c15780639b4dc3ad146107a6578063a217fddf1461078c578063a2870d9414610754578063a3c2710d14610737578063a80d155614610712578063a9059cbb146106e1578063b9c3a818146106bc578063bc58d79514610690578063ccc5749014610656578063d505accf14610513578063d5391393146104d9578063d547741f14610494578063d9a4759c1461046f578063dd467064146102d5578063dd62ed3e14610285578063e63ab1e9146102475763fb2f665614610242575f80fd5b6111d9565b34610281575f3660031901126102815760206040517f65d7a28e3265b37a6474929f336521b332c1681b933f6cb9f3376673440d862a8152f35b5f80fd5b346102815760403660031901126102815761029e611189565b6102a661119f565b6001600160a01b039182165f908152600160209081526040808320949093168252928352819020549051908152f35b34610281576020366003190112610281576004356102f1611855565b801561043557335f52600f60205260405f20541580156103fe575b156103ca57335f52600e60205260405f2054610396575b61032d8133611976565b335f52600e60205260405f20610344828254611346565b905561035281600b54611346565b600b55335f52600f6020524260405f20556040519081527fac87f20a77d28ee8bbb58ec87ea8fa968b3393efae1a368fd50b767c2847391c60203392a26001600a55005b335f908152600e602052604081208054919055600b546103c591906103bc908290611339565b600b5533611909565b610323565b60405162461bcd60e51b815260206004820152600c60248201526b14dd1a5b1b081b1bd8dad95960a21b6044820152606490fd5b50335f52600f60205260405f20546276a70081018091116104215742101561030c565b634e487b7160e01b5f52601160045260245ffd5b60405162461bcd60e51b81526020600482015260126024820152710416d6f756e74206d757374206265203e20360741b6044820152606490fd5b34610281575f3660031901126102815760206040516a422ca8b0a00a42500000008152f35b34610281576040366003190112610281576104d76004356104b361119f565b906104d26104cd825f526006602052600160405f20015490565b6115ef565b6117d1565b005b34610281575f3660031901126102815760206040517f9f2df0fed2c77648de5860a4cc508cd0818c85b8b8a1ab4ceeef8d981c8956a68152f35b346102815760e03660031901126102815761052c611189565b61053461119f565b604435906064359260843560ff8116810361028157844211610643576106086106119160018060a01b03841696875f52600960205260405f20908154916001830190556040519060208201927f6e71edae12b1b97f4d1f60370fef10105fa2faae0126114a169c64845d6126c984528a604084015260018060a01b038916606084015289608084015260a083015260c082015260c081526105d660e0826112b7565b5190206105e16116b5565b906040519161190160f01b83526002830152602282015260c43591604260a4359220611b22565b90929192611baf565b6001600160a01b031684810361062c57506104d79350611a0a565b84906325c0072360e11b5f5260045260245260445ffd5b8463313c898160e11b5f5260045260245ffd5b34610281575f3660031901126102815760206040517f7935bd0ae54bc31f548c14dba4d37c5c64b3f8ca900cb468fb8abd54d5894f558152f35b34610281576020366003190112610281576106a9611580565b6106b7600435600c54611346565b600c55005b34610281575f3660031901126102815760206040516a6342fd08f00f63780000008152f35b34610281576040366003190112610281576107076106fd611189565b6024359033611444565b602060405160018152f35b34610281575f3660031901126102815760206040516a7c13bc4b2c133c560000008152f35b34610281575f366003190112610281576020600d54604051908152f35b34610281576020366003190112610281576001600160a01b03610775611189565b165f52600f602052602060405f2054604051908152f35b34610281575f3660031901126102815760206040515f8152f35b34610281575f36600319011261028157602060405160328152f35b34610281575f366003190112610281576040515f6004546107e1816111fe565b808452906001811690811561087f5750600114610821575b61081d83610809818503826112b7565b6040519182916020835260208301906111b5565b0390f35b60045f9081527f8a35acfbc15ff81a39ae7d344fd709f28e8600b4aa8c65c6b64bfe7fe36bd19b939250905b808210610865575090915081016020016108096107f9565b91926001816020925483858801015201910190929161084d565b60ff191660208086019190915291151560051b8401909101915061080990506107f9565b34610281576040366003190112610281576108bc61119f565b6004355f52600660205260405f209060018060a01b03165f52602052602060ff60405f2054166040519015158152f35b34610281575f366003190112610281576109886109287f0000000000000000000000000000000000000000000000000000000000000000611a88565b6109517f0000000000000000000000000000000000000000000000000000000000000000611aeb565b60206109966040519261096483856112b7565b5f84525f368137604051958695600f60f81b875260e08588015260e08701906111b5565b9085820360408701526111b5565b4660608501523060808501525f60a085015283810360c08501528180845192838152019301915f5b8281106109cd57505050500390f35b8351855286955093810193928101926001016109be565b34610281575f366003190112610281576109fc611511565b610a04611a6d565b600160ff1960055416176005557f62e78cea01bee320cd4e420270b5ea74000d11b0c9f74754ebdbfc544b05a2586020604051338152a1005b34610281576020366003190112610281576001600160a01b03610a5e611189565b165f526009602052602060405f2054604051908152f35b34610281576040366003190112610281576104d7610a91611189565b60243590610aa082338361137b565b611976565b34610281576020366003190112610281576001600160a01b03610ac6611189565b165f525f602052602060405f2054604051908152f35b34610281576040366003190112610281576104d7610af8611189565b610b00611580565b60243590611353565b34610281575f366003190112610281576020600c54604051908152f35b34610281575f3660031901126102815760206040516b0121836204bc2ce21e0000008152f35b34610281575f36600319011261028157602060ff600554166040519015158152f35b34610281575f366003190112610281576020600b54604051908152f35b34610281576020366003190112610281576104d760043533611976565b34610281575f36600319011261028157610bc0611511565b60055460ff811615610bff5760ff19166005557f5db9ee0a495bf2e6ff9c91a7834c1ba4fdd244a5e8aa4e537bd38aeae4b073aa6020604051338152a1005b638dfc202b60e01b5f5260045ffd5b34610281575f36600319011261028157610c26611855565b610c2f33611888565b335f52601060205260405f20548015610d0a57610c5081600c5410156112ed565b335f5260106020525f6040812055610c6a81600c54611339565b600c55610c78813330611444565b335f52600f60205260405f20546276a700810180911161042157421015610ccd575b6040519081527ffc30cddea38e2bf4d6ea7d3f9ed3b6ad7f176419f4963bd81318067a4aee73fe60203392a26001600a55005b335f52600e60205260405f205480610ce6575b50610c9a565b610d0490335f52600e6020525f60408120556103bc81600b54611339565b81610ce0565b60405162461bcd60e51b815260206004820152600a6024820152694e6f207265776172647360b01b6044820152606490fd5b3461028157604036600319011261028157610d5561119f565b336001600160a01b03821603610d71576104d7906004356117d1565b63334bd91960e11b5f5260045ffd5b34610281575f366003190112610281576020610d9a6116b5565b604051908152f35b346102815760203660031901126102815760043567ffffffffffffffff8111610281573660238201121561028157806004013567ffffffffffffffff811161028157366024828401011161028157335f9081527f4a6162a9be304bcd8fb1be0b72b754cbc9eeb05c4a023952a765ba0a8e355fc2602052604090205460ff1615610e83575f602080601f19601f8501160192610e4160405194856112b7565b80845280602483860196018637830101525190206040519081527f0a2b5bc4e33c60c007afd4ea1db3eb2d29779835a9321b3c27e37af40b636b7260203392a2005b63e2517d3f60e01b5f52336004527f7935bd0ae54bc31f548c14dba4d37c5c64b3f8ca900cb468fb8abd54d5894f5560245260445ffd5b34610281575f3660031901126102815760206040516b033b2e3c9fd0803ce80000008152f35b34610281575f3660031901126102815760206040516aa56fa5b99019a5c80000008152f35b34610281575f36600319011261028157602060405160128152f35b34610281576040366003190112610281576104d7600435610f3f61119f565b90610f596104cd825f526006602052600160405f20015490565b611629565b34610281576020366003190112610281576020610d9a6004355f526006602052600160405f20015490565b3461028157606036600319011261028157610707610fa5611189565b610fad61119f565b60443591610fbc83338361137b565b611444565b34610281576020366003190112610281576001600160a01b03610fe2611189565b165f526010602052602060405f2054604051908152f35b34610281575f3660031901126102815760206040516276a7008152f35b34610281575f366003190112610281576020600254604051908152f35b346102815760403660031901126102815761070761104f611189565b6024359033611a0a565b34610281575f366003190112610281576040515f600354611079816111fe565b808452906001811690811561087f57506001146110a05761081d83610809818503826112b7565b60035f9081527fc2575a0e9e593c00f959f8c92f12db2869c3395a3b0502d05e2516446f71f85b939250905b8082106110e4575090915081016020016108096107f9565b9192600181602092548385880101520191019092916110cc565b34610281576020366003190112610281576001600160a01b0361111f611189565b165f52600e602052602060405f2054604051908152f35b34610281576020366003190112610281576004359063ffffffff60e01b821680920361028157602091637965db0b60e01b8114908115611178575b5015158152f35b6301ffc9a760e01b14905083611171565b600435906001600160a01b038216820361028157565b602435906001600160a01b038216820361028157565b805180835260209291819084018484015e5f828201840152601f01601f1916010190565b34610281575f3660031901126102815760206040516a295be96e640669720000008152f35b90600182811c9216801561122c575b602083101461121857565b634e487b7160e01b5f52602260045260245ffd5b91607f169161120d565b5f9291815491611245836111fe565b808352926001811690811561129a575060011461126157505050565b5f9081526020812093945091925b838310611280575060209250010190565b60018160209294939454838587010152019101919061126f565b915050602093945060ff929192191683830152151560051b010190565b90601f8019910116810190811067ffffffffffffffff8211176112d957604052565b634e487b7160e01b5f52604160045260245ffd5b156112f457565b60405162461bcd60e51b815260206004820152601860248201527f496e73756666696369656e742072657761726420706f6f6c00000000000000006044820152606490fd5b9190820391821161042157565b9190820180921161042157565b906113799161137082600c5461136b828210156112ed565b611339565b600c5530611444565b565b6001600160a01b039081165f818152600160209081526040808320948616835293905291909120549291905f1984106113b5575b50505050565b82841061142157801561140e576001600160a01b038216156113fb575f52600160205260405f209060018060a01b03165f5260205260405f20910390555f8080806113af565b634a1406b160e11b5f525f60045260245ffd5b63e602df0560e01b5f525f60045260245ffd5b508290637dc7a0d960e11b5f5260018060a01b031660045260245260445260645ffd5b6001600160a01b03169081156114fe576001600160a01b03169182156114eb5761146c611a6d565b611474611a6d565b815f525f60205260405f20548181106114d257817fddf252ad1be2c89b69c2b068fc378daa952ba7f163c4a11628f55a4df523b3ef92602092855f525f84520360405f2055845f525f825260405f20818154019055604051908152a3565b8263391434e360e21b5f5260045260245260445260645ffd5b63ec442f0560e01b5f525f60045260245ffd5b634b637e8f60e11b5f525f60045260245ffd5b335f9081527fe09f975e15f8f53f24cbbc282b13c40b84df485fcdb8d3997fa103dc5a4ef841602052604090205460ff161561154957565b63e2517d3f60e01b5f52336004527f65d7a28e3265b37a6474929f336521b332c1681b933f6cb9f3376673440d862a60245260445ffd5b335f9081527f3195c024b2ddd6d9b8f6c836aa52f67fe69376c8903d009b80229b3ce4425f51602052604090205460ff16156115b857565b63e2517d3f60e01b5f52336004527f9f2df0fed2c77648de5860a4cc508cd0818c85b8b8a1ab4ceeef8d981c8956a660245260445ffd5b5f81815260066020908152604080832033845290915290205460ff16156116135750565b63e2517d3f60e01b5f523360045260245260445ffd5b5f8181526006602090815260408083206001600160a01b038616845290915290205460ff166116af575f8181526006602090815260408083206001600160a01b0395909516808452949091528120805460ff19166001179055339291907f2f8788117e7eff1d82e926ec794901d17c78024a50270940304540a733656f0d9080a4600190565b50505f90565b307f00000000000000000000000000000000000000000000000000000000000000006001600160a01b031614806117a8575b15611710577f000000000000000000000000000000000000000000000000000000000000000090565b60405160208101907f8b73c3c69bb8fe3d512ecc4cf759cc79239f7b179b0ffacaa9a75d522b39400f82527f000000000000000000000000000000000000000000000000000000000000000060408201527f000000000000000000000000000000000000000000000000000000000000000060608201524660808201523060a082015260a081526117a260c0826112b7565b51902090565b507f000000000000000000000000000000000000000000000000000000000000000046146116e7565b5f8181526006602090815260408083206001600160a01b038616845290915290205460ff16156116af575f8181526006602090815260408083206001600160a01b0395909516808452949091528120805460ff19169055339291907ff6391f5c32d9c69d2a47ea670b442974b53935d1edc7fd64eb21e047a839171b9080a4600190565b6002600a5414611866576002600a55565b633ee5aeb560e01b5f5260045ffd5b8181029291811591840414171561042157565b600b5480156119055761189d600d5442611339565b600c5490603282029180830460321490151715610421576118c764496cebb800916118e593611875565b049260018060a01b031692835f52600e60205260405f205490611875565b04905f5260106020526118fd60405f20918254611346565b905542600d55565b5050565b6001600160a01b03169081156114eb577fddf252ad1be2c89b69c2b068fc378daa952ba7f163c4a11628f55a4df523b3ef60205f92611946611a6d565b61194e611a6d565b61195a81600254611346565b60025584845283825260408420818154019055604051908152a3565b9091906001600160a01b031680156114fe57611990611a6d565b611998611a6d565b805f525f60205260405f20548381106119f0576020845f94957fddf252ad1be2c89b69c2b068fc378daa952ba7f163c4a11628f55a4df523b3ef938587528684520360408620558060025403600255604051908152a3565b915063391434e360e21b5f5260045260245260445260645ffd5b6001600160a01b031690811561140e576001600160a01b03169182156113fb5760207f8c5be1e5ebec7d5bd14f71427d1e84f3dd0314c0f7b2291e5b200ac8c7c3b92591835f526001825260405f20855f5282528060405f2055604051908152a3565b60ff60055416611a7957565b63d93c066560e01b5f5260045ffd5b60ff8114611ace5760ff811690601f8211611abf5760405191611aac6040846112b7565b6020808452838101919036833783525290565b632cd44ac360e21b5f5260045ffd5b50604051611ae881611ae1816007611236565b03826112b7565b90565b60ff8114611b0f5760ff811690601f8211611abf5760405191611aac6040846112b7565b50604051611ae881611ae1816008611236565b91907f7fffffffffffffffffffffffffffffff5d576e7357a4501ddfe92f46681b20a08411611ba4579160209360809260ff5f9560405194855216868401526040830152606082015282805260015afa15611b99575f516001600160a01b03811615611b8f57905f905f90565b505f906001905f90565b6040513d5f823e3d90fd5b5050505f9160039190565b6004811015611c0f5780611bc1575050565b60018103611bd85763f645eedf60e01b5f5260045ffd5b60028103611bf3575063fce698f760e01b5f5260045260245ffd5b600314611bfd5750565b6335e2f38360e21b5f5260045260245ffd5b634e487b7160e01b5f52602160045260245ffdfea264697066735822122053483feacc3c1420f849331cdca4900ec00af42957d4714990fc4a44776d623264736f6c634300081b00332f8788117e7eff1d82e926ec794901d17c78024a50270940304540a733656f0d4a6162a9be304bcd8fb1be0b72b754cbc9eeb05c4a023952a765ba0a8e355fc23195c024b2ddd6d9b8f6c836aa52f67fe69376c8903d009b80229b3ce4425f51e09f975e15f8f53f24cbbc282b13c40b84df485fcdb8d3997fa103dc5a4ef841ddf252ad1be2c89b69c2b068fc378daa952ba7f163c4a11628f55a4df523b3ef54cdd369e4e8a8515e52ca72ec816c2101831ad1f18bf44102ed171459c9b4f8",
  "linkReferences": {},
  "deployedLinkReferences": {}
}