{
  "_format": "hh-sol-artifact-1",
  "contractName": "PediScreenFHIRChain",
  "sourceName": "contracts/PediScreenFHIRChain.sol",
  "abi": [
    {
      "inputs": [],
      "stateMutability": "nonpayable",
      "type": "constructor"
    },
    {
      "inputs": [],
      "name": "AccessControlBadConfirmation",
      "type": "error"
    },
    {
      "inputs": [
        {
          "internalType": "address",
          "name": "account",
          "type": "address"
        },
        {
          "internalType": "bytes32",
          "name": "neededRole",
          "type": "bytes32"
        }
      ],
      "name": "AccessControlUnauthorizedAccount",
      "type": "error"
    },
    {
      "inputs": [],
      "name": "ECDSAInvalidSignature",
      "type": "error"
    },
    {
      "inputs": [
        {
          "internalType": "uint256",
          "name": "length",
          "type": "uint256"
        }
      ],
      "name": "ECDSAInvalidSignatureLength",
      "type": "error"
    },
    {
      "inputs": [
        {
          "internalType": "bytes32",
          "name": "s",
          "type": "bytes32"
        }
      ],
      "name": "ECDSAInvalidSignatureS",
      "type": "error"
    },
    {
      "anonymous": false,
      "inputs": [
        {
          "indexed": true,
          "internalType": "address",
          "name": "ehrServer",
          "type": "address"
        },
        {
          "indexed": false,
          "internalType": "bool",
          "name": "authorized",
          "type": "bool"
        }
      ],
      "name": "EHRAuthorizationSet",
      "type": "event"
    },
    {
      "anonymous": false,
      "inputs": [
        {
          "indexed": true,
          "internalType": "bytes32",
          "name": "fhirHash",
          "type": "bytes32"
        },
        {
          "indexed": false,
          "internalType": "string",
          "name": "fhirServer",
          "type": "string"
        },
        {
          "indexed": false,
          "internalType": "address",
          "name": "ehrServer",
          "type": "address"
        }
      ],
      "name": "EHRConfirmed",
      "type": "event"
    },
    {
      "anonymous": false,
      "inputs": [
        {
          "indexed": true,
          "internalType": "bytes32",
          "name": "fhirHash",
          "type": "bytes32"
        },
        {
          "indexed": false,
          "internalType": "string",
          "name": "fhirId",
          "type": "string"
        },
        {
          "indexed": false,
          "internalType": "enum PediScreenFHIRChain.FHIRResourceType",
          "name": "resourceType",
          "type": "uint8"
        }
      ],
      "name": "FHIRResourceCreated",
      "type": "event"
    },
    {
      "anonymous": false,
      "inputs": [
        {
          "indexed": true,
          "internalType": "bytes32",
          "name": "role",
          "type": "bytes32"
        },
        {
          "indexed": true,
          "internalType": "bytes32",
          "name": "previousAdminRole",
          "type": "bytes32"
        },
        {
          "indexed": true,
          "internalType": "bytes32",
          "name": "newAdminRole",
          "type": "bytes32"
        }
      ],
      "name": "RoleAdminChanged",
      "type": "event"
    },
    {
      "anonymous": false,
      "inputs": [
        {
          "indexed": true,
          "internalType": "bytes32",
          "name": "role",
          "type": "bytes32"
        },
        {
          "indexed": true,
          "internalType": "address",
          "name": "account",
          "type": "address"
        },
        {
          "indexed": true,
          "internalType": "address",
          "name": "sender",
          "type": "address"
        }
      ],
      "name": "RoleGranted",
      "type": "event"
    },
    {
      "anonymous": false,
      "inputs": [
        {
          "indexed": true,
          "internalType": "bytes32",
          "name": "role",
          "type": "bytes32"
        },
        {
          "indexed": true,
          "internalType": "address",
          "name": "account",
          "type": "address"
        },
        {
          "indexed": true,
          "internalType": "address",
          "name": "sender",
          "type": "address"
        }
      ],
      "name": "RoleRevoked",
      "type": "event"
    },
    {
      "inputs": [],
      "name": "CHW_ROLE",
      "outputs": [
        {
          "internalType": "bytes32",
          "name": "",
          "type": "bytes32"
        }
      ],
      "stateMutability": "view",
      "type": "function"
    },
    {
      "inputs": [],
      "name": "DEFAULT_ADMIN_ROLE",
      "outputs": [
        {
          "internalType": "bytes32",
          "name": "",
          "type": "bytes32"
        }
      ],
      "stateMutability": "view",
      "type": "function"
    },
    {
      "inputs": [],
      "name": "FHIR_SERVER_ROLE",
      "outputs": [
        {
          "internalType": "bytes32",
          "name": "",
          "type": "bytes32"
        }
      ],
      "stateMutability": "view",
      "type": "function"
    },
    {
      "inputs": [
        {
          "internalType": "address",
          "name": "",
          "type": "address"
        }
      ],
      "name": "authorizedEHRs",
      "outputs": [
        {
          "internalType": "bool",
          "name": "",
          "type": "bool"
        }
      ],
      "stateMutability": "view",
      "type": "function"
    },
    {
      "inputs": [
        {
          "internalType": "bytes32",
          "name": "_fhirHash",
          "type": "bytes32"
        },
        {
          "internalType": "bytes",
          "name": "_signature",
          "type": "bytes"
        },
        {
          "internalType": "string",
          "name": "_fhirServer",
          "type": "string"
        }
      ],
      "name": "confirmFHIRResource",
      "outputs": [],
      "stateMutability": "nonpayable",
      "type": "function"
    },
    {
      "inputs": [
        {
          "internalType": "bytes32",
          "name": "_fhirHash",
          "type": "bytes32"
        },
        {
          "internalType": "string",
          "name": "_fhirId",
          "type": "string"
        },
        {
          "internalType": "string",
          "name": "_fhirServer",
          "type": "string"
        },
        {
          "internalType": "enum PediScreenFHIRChain.FHIRResourceType",
          "name": "_resourceType",
          "type": "uint8"
        }
      ],
      "name": "createScreeningObservation",
      "outputs": [],
      "stateMutability": "nonpayable",
      "type": "function"
    },
    {
      "inputs": [
        {
          "internalType": "string",
          "name": "",
          "type": "string"
        }
      ],
      "name": "fhirIdToHash",
      "outputs": [
        {
          "internalType": "bytes32",
          "name": "",
          "type": "bytes32"
        }
      ],
      "stateMutability": "view",
      "type": "function"
    },
    {
      "inputs": [
        {
          "internalType": "bytes32",
          "name": "",
          "type": "bytes32"
        }
      ],
      "name": "fhirResources",
      "outputs": [
        {
          "internalType": "bytes32",
          "name": "fhirHash",
          "type": "bytes32"
        },
        {
          "internalType": "string",
          "name": "fhirId",
          "type": "string"
        },
        {
          "internalType": "string",
          "name": "fhirServer",
          "type": "string"
        },
        {
          "internalType": "enum PediScreenFHIRChain.FHIRResourceType",
          "name": "resourceType",
          "type": "uint8"
        },
        {
          "internalType": "uint256",
          "name": "timestamp",
          "type": "uint256"
        },
        {
          "internalType": "bool",
          "name": "ehrConfirmed",
          "type": "bool"
        },
        {
          "internalType": "bytes",
          "name": "signature",
          "type": "bytes"
        }
      ],
      "stateMutability": "view",
      "type": "function"
    },
    {
      "inputs": [
        {
          "internalType": "uint256",
          "name": "index",
          "type": "uint256"
        }
      ],
      "name": "getLoincCode",
      "outputs": [
        {
          "internalType": "string",
          "name": "",
          "type": "string"
        }
      ],
      "stateMutability": "view",
      "type": "function"
    },
    {
      "inputs": [
        {
          "internalType": "bytes32",
          "name": "role",
          "type": "bytes32"
        }
      ],
      "name": "getRoleAdmin",
      "outputs": [
        {
          "internalType": "bytes32",
          "name": "",
          "type": "bytes32"
        }
      ],
      "stateMutability": "view",
      "type": "function"
    },
    {
      "inputs": [
        {
          "internalType": "bytes32",
          "name": "role",
          "type": "bytes32"
        },
        {
          "internalType": "address",
          "name": "account",
          "type": "address"
        }
      ],
      "name": "grantRole",
      "outputs": [],
      "stateMutability": "nonpayable",
      "type": "function"
    },
    {
      "inputs": [
        {
          "internalType": "bytes32",
          "name": "role",
          "type": "bytes32"
        },
        {
          "internalType": "address",
          "name": "account",
          "type": "address"
        }
      ],
      "name": "hasRole",
      "outputs": [
        {
          "internalType": "bool",
          "name": "",
          "type": "bool"
        }
      ],
      "stateMutability": "view",
      "type": "function"
    },
    {
      "inputs": [
        {
          "internalType": "uint256",
          "name": "",
          "type": "uint256"
        }
      ],
      "name": "loincCodes",
      "outputs": [
        {
          "internalType": "string",
          "name": "",
          "type": "string"
        }
      ],
      "stateMutability": "view",
      "type": "function"
    },
    {
      "inputs": [
        {
          "internalType": "bytes32",
          "name": "role",
          "type": "bytes32"
        },
        {
          "internalType": "address",
          "name": "callerConfirmation",
          "type": "address"
        }
      ],
      "name": "renounceRole",
      "outputs": [],
      "stateMutability": "nonpayable",
      "type": "function"
    },
    {
      "inputs": [
        {
          "internalType": "bytes32",
          "name": "role",
          "type": "bytes32"
        },
        {
          "internalType": "address",
          "name": "account",
          "type": "address"
        }
      ],
      "name": "revokeRole",
      "outputs": [],
      "stateMutability": "nonpayable",
      "type": "function"
    },
    {
      "inputs": [
        {
          "internalType": "address",
          "name": "ehrServer",
          "type": "address"
        },
        {
          "internalType": "bool",
          "name": "authorized",
          "type": "bool"
        }
      ],
      "name": "setAuthorizedEHR",
      "outputs": [],
      "stateMutability": "nonpayable",
      "type": "function"
    },
    {
      "inputs": [
        {
          "internalType": "bytes4",
          "name": "interfaceId",
          "type": "bytes4"
        }
      ],
      "name": "supportsInterface",
      "outputs": [
        {
          "internalType": "bool",
          "name": "",
          "type": "bool"
        }
      ],
      "stateMutability": "view",
      "type": "function"
    },
    {
      "inputs": [
        {
          "internalType": "bytes32",
          "name": "_fhirHash",
          "type": "bytes32"
        }
      ],
      "name": "verifyFHIRResource",
      "outputs": [
        {
          "internalType": "bool",
          "name": "",
          "type": "bool"
        }
      ],
      "stateMutability": "view",
      "type": "function"
    }
  ],
  "bytecode": "0x6080604052346100ed576100123361015c565b5061001c336101d2565b505f8052600460205260405f2061003c61003682546100f1565b82610129565b600e66036393734352d360cc1b01905560015f5260046020527fabd6e7cb50984ff9c2f3e18a2660c3353dadf4e3291deeb275dae2cd1e44fe05805461008590610036906100f1565b600e6606c726e686c5a760cb1b01905560025f5260046020527f91da3fd0782e51c6b3986e9e672fd566868e71f3dbc2d6c2cd6fbb3e361af2a780546100ce90610036906100f1565b600e661b1c9b9a1b969b60c91b01905560405161148a90816102668239f35b5f80fd5b90600182811c9216801561011f575b602083101461010b57565b634e487b7160e01b5f52602260045260245ffd5b91607f1691610100565b601f8211610135575050565b5f52601f60205f20910160051c8101905b818110610151575050565b5f8155600101610146565b6001600160a01b0381165f9081525f5160206117305f395f51905f52602052604090205460ff166101cd576001600160a01b03165f8181525f5160206117305f395f51905f5260205260408120805460ff191660011790553391905f5160206116f05f395f51905f528180a4600190565b505f90565b6001600160a01b0381165f9081525f5160206117105f395f51905f52602052604090205460ff166101cd576001600160a01b03165f8181525f5160206117105f395f51905f5260205260408120805460ff191660011790553391907f9efc0a7fafb21c086158c5f7dcd98228d1a5084171f592f282dee4bd9c546fa6905f5160206116f05f395f51905f529080a460019056fe6080806040526004361015610012575f80fd5b5f3560e01c90816301ffc9a714610df757508063136a845914610d12578063248a9ca314610ce05780632a0d8b7614610cb85780632f2ff15d14610c7b57806336568abe14610c375780633fa239a914610bd15780634596ccba14610acb57806391d1485414610a8357806399861e9a146104e757806399b8e2aa1461058e578063a217fddf14610574578063b93d31241461053a578063bbc0e2db146104e7578063c8a4a6f1146104ad578063d547741f14610469578063e5f1b3d0146101235763fcaed05f146100e2575f80fd5b3461011f57602036600319011261011f576001600160a01b03610103610f97565b165f526003602052602060ff60405f2054166040519015158152f35b5f80fd5b3461011f57606036600319011261011f576004356024356001600160401b03811161011f57610156903690600401610ff2565b91906044356001600160401b03811161011f57610177903690600401610ff2565b9091335f52600360205260ff60405f2054161561043157835f52600160205260405f2054156103f757835f52600160205260405f20600581019081549160ff83166103be576040516020810190888252466040820152604081526101dc606082610f1e565b5190207f19457468657265756d205369676e6564204d6573736167653a0a3332000000005f52601c52610229610220603c5f2061021a368c89610fad565b90611311565b9092919261134b565b336001600160a01b039091160361038557600160069360ff191617905501906001600160401b0386116103715761026a866102648454610e4a565b84611168565b5f90601f87116001146102eb5795806102bb927fa7b62e47da8070f02dd5816dd4fd496cc8a9a8ccff128085ea850d3bf724883797985f926102e0575b50508160011b915f199060031b1c19161790565b90555b6102d56040519283926040845260408401916111b7565b3360208301520390a2005b0135905088806102a7565b601f19871691835f5260205f20925f5b81811061035957509160019391897fa7b62e47da8070f02dd5816dd4fd496cc8a9a8ccff128085ea850d3bf7248837999a9410610340575b505050811b0190556102be565b01355f19600384901b60f8161c19169055878080610333565b919360206001819287870135815501950192016102fb565b634e487b7160e01b5f52604160045260245ffd5b60405162461bcd60e51b8152602060048201526011602482015270496e76616c6964207369676e617475726560781b6044820152606490fd5b60405162461bcd60e51b8152602060048201526011602482015270105b1c9958591e4818dbdb999a5c9b5959607a1b6044820152606490fd5b60405162461bcd60e51b815260206004820152601260248201527114995cdbdd5c98d9481b9bdd08199bdd5b9960721b6044820152606490fd5b60405162461bcd60e51b815260206004820152601060248201526f2ab730baba3437b934bd32b21022a42960811b6044820152606490fd5b3461011f57604036600319011261011f576104ab600435610488610f81565b906104a66104a1825f525f602052600160405f20015490565b6111d7565b611291565b005b3461011f575f36600319011261011f5760206040517f4c32a5263617581445dab6ff0416184498938a7cfca614c52b7d14c8dca3c1698152f35b3461011f57602036600319011261011f576004355f52600460205261053661051b61052260405f2060405192838092610e82565b0382610f1e565b604051918291602083526020830190610f3f565b0390f35b3461011f575f36600319011261011f5760206040517f9efc0a7fafb21c086158c5f7dcd98228d1a5084171f592f282dee4bd9c546fa68152f35b3461011f575f36600319011261011f5760206040515f8152f35b3461011f57608036600319011261011f576004356024356001600160401b03811161011f576105c1903690600401610ff2565b91906044356001600160401b03811161011f576105e2903690600401610ff2565b9390606435600481101561011f57335f9081527fa805411f761e02533bc805c2a6525586c65abf18c4a607ff6e517175e492b7b6602052604090205460ff1615610a4c57845f52600160205260405f2054610a155782156109de5761066a6040519261064d84610f03565b86845261065b368688610fad565b97602085019889523691610fad565b91604081019283526060810161067f83610f63565b8281526080820142815260a08301915f83526020956040519a6106a2888d610f1e565b5f8c5260c086019b8c528a5f526001885260405f20955186556001860190518051906001600160401b038211610371576106e6826106e08554610e4a565b85611168565b8990601f831160011461097b5761071392915f91836109705750508160011b915f199060031b1c19161790565b90555b51805160028601916001600160401b0382116103715761073a826106e08554610e4a565b8890601f831160011461090357826006989795936107b7979593610772935f926108f85750508160011b915f199060031b1c19161790565b90555b60038501905161078481610f63565b61078d81610f63565b60ff80198354169116179055516004840155511515600583019060ff801983541691151516179055565b0195519586516001600160401b038111610371576107d9816102648454610e4a565b83601f8211600114610875579080610828927fca81261404ae4b620c4983497c33ef977ca101473ec5193f8540860f4d35f04f999a5f9261086a5750508160011b915f199060031b1c19161790565b90555b856040518486823783818681016002815203019020556108586040519485946040865260408601916111b7565b9161086282610f63565b8301520390a2005b015190508a806102a7565b601f19821698835f52855f20995f5b8181106108e15750917fca81261404ae4b620c4983497c33ef977ca101473ec5193f8540860f4d35f04f999a918460019594106108c9575b505050811b01905561082b565b01515f1960f88460031b161c191690558980806108bc565b838301518c556001909b019a928701928701610884565b015190505f806102a7565b90601f19831691845f528a5f20925f5b8c82821061095a57505092600192859260069b9a98966107b79a989610610942575b505050811b019055610775565b01515f1960f88460031b161c191690558f8080610935565b6001859682939686015181550195019301610913565b015190508f806102a7565b90601f19831691845f528b5f20925f5b8d8282106109c85750509084600195949392106109b0575b505050811b019055610716565b01515f1960f88460031b161c191690558e80806109a3565b600185968293968601518155019501930161098b565b60405162461bcd60e51b815260206004820152600f60248201526e125b9d985b1a590811921254881251608a1b6044820152606490fd5b60405162461bcd60e51b815260206004820152600f60248201526e5265736f757263652065786973747360881b6044820152606490fd5b63e2517d3f60e01b5f52336004527f9efc0a7fafb21c086158c5f7dcd98228d1a5084171f592f282dee4bd9c546fa660245260445ffd5b3461011f57604036600319011261011f57610a9c610f81565b6004355f525f60205260405f209060018060a01b03165f52602052602060ff60405f2054166040519015158152f35b3461011f57604036600319011261011f57610ae4610f97565b602435908115159081830361011f57335f9081527fad3228b676f7d3cd4284a5443f17f1962b36e491b30a40b2405849e597ba5fb5602052604090205460ff1615610bba576001600160a01b0316918215610b86577f7a5e54f20c6e2e2a66ccd41b5bf28af736fb3e97f46e261f5b623d9db173b8b491610b7d602092855f526003845260405f209060ff801983541691151516179055565b604051908152a2005b60405162461bcd60e51b815260206004820152600c60248201526b5a65726f206164647265737360a01b6044820152606490fd5b63e2517d3f60e01b5f52336004525f60245260445ffd5b3461011f57602036600319011261011f576004356001600160401b03811161011f573660238201121561011f57602080610c1681933690602481600401359101610fad565b604051928184925191829101835e8101600281520301902054604051908152f35b3461011f57604036600319011261011f57610c50610f81565b336001600160a01b03821603610c6c576104ab90600435611291565b63334bd91960e11b5f5260045ffd5b3461011f57604036600319011261011f576104ab600435610c9a610f81565b90610cb36104a1825f525f602052600160405f20015490565b61120f565b3461011f57602036600319011261011f576020610cd660043561101f565b6040519015158152f35b3461011f57602036600319011261011f576020610d0a6004355f525f602052600160405f20015490565b604051908152f35b3461011f57602036600319011261011f576004355f52600160205260405f20805461053660405192610d5284610d4b8160018501610e82565b0385610f1e565b600660405191610d7083610d698160028501610e82565b0384610f1e565b60ff60038201541692610dcf600483015491610da560ff60058601541694610d9e6040518098819301610e82565b0386610f1e565b610dc1604051998a998a5260e060208b015260e08a0190610f3f565b9088820360408a0152610f3f565b93610dd981610f63565b60608701526080860152151560a085015283820360c0850152610f3f565b3461011f57602036600319011261011f576004359063ffffffff60e01b821680920361011f57602091637965db0b60e01b8114908115610e39575b5015158152f35b6301ffc9a760e01b14905083610e32565b90600182811c92168015610e78575b6020831014610e6457565b634e487b7160e01b5f52602260045260245ffd5b91607f1691610e59565b5f9291815491610e9183610e4a565b8083529260018116908115610ee65750600114610ead57505050565b5f9081526020812093945091925b838310610ecc575060209250010190565b600181602092949394548385870101520191019190610ebb565b915050602093945060ff929192191683830152151560051b010190565b60e081019081106001600160401b0382111761037157604052565b90601f801991011681019081106001600160401b0382111761037157604052565b805180835260209291819084018484015e5f828201840152601f01601f1916010190565b60041115610f6d57565b634e487b7160e01b5f52602160045260245ffd5b602435906001600160a01b038216820361011f57565b600435906001600160a01b038216820361011f57565b9291926001600160401b0382116103715760405191610fd6601f8201601f191660200184610f1e565b82948184528183011161011f578281602093845f960137010152565b9181601f8401121561011f578235916001600160401b03831161011f576020838186019501011161011f57565b805f52600160205260405f20906040519161103983610f03565b805483526040516110518161051b8160018601610e82565b602084015260405161106a8161051b8160028601610e82565b604084015260ff60038201541661108081610f63565b60608401526004810154608084015260066110b660ff6005840154169260a08601931515845261051b6040518094819301610e82565b60c0840193818552511591821561115e575b508115611154575b5061114e57611131916102209160405160208101918252466040820152604081526110fc606082610f1e565b5190207f19457468657265756d205369676e6564204d6573736167653a0a3332000000005f52601c52603c5f20905190611311565b6001600160a01b03165f9081526003602052604090205460ff1690565b50505f90565b905051155f6110d0565b511591505f6110c8565b601f821161117557505050565b5f5260205f20906020601f840160051c830193106111ad575b601f0160051c01905b8181106111a2575050565b5f8155600101611197565b909150819061118e565b908060209392818452848401375f828201840152601f01601f1916010190565b5f8181526020818152604080832033845290915290205460ff16156111f95750565b63e2517d3f60e01b5f523360045260245260445ffd5b5f818152602081815260408083206001600160a01b038616845290915290205460ff1661114e575f818152602081815260408083206001600160a01b0395909516808452949091528120805460ff19166001179055339291907f2f8788117e7eff1d82e926ec794901d17c78024a50270940304540a733656f0d9080a4600190565b5f818152602081815260408083206001600160a01b038616845290915290205460ff161561114e575f818152602081815260408083206001600160a01b0395909516808452949091528120805460ff19169055339291907ff6391f5c32d9c69d2a47ea670b442974b53935d1edc7fd64eb21e047a839171b9080a4600190565b81519190604183036113415761133a9250602082015190606060408401519301515f1a906113c7565b9192909190565b50505f9160029190565b61135481610f63565b8061135d575050565b61136681610f63565b6001810361137d5763f645eedf60e01b5f5260045ffd5b61138681610f63565b600281036113a1575063fce698f760e01b5f5260045260245ffd5b6003906113ad81610f63565b146113b55750565b6335e2f38360e21b5f5260045260245ffd5b91907f7fffffffffffffffffffffffffffffff5d576e7357a4501ddfe92f46681b20a08411611449579160209360809260ff5f9560405194855216868401526040830152606082015282805260015afa1561143e575f516001600160a01b0381161561143457905f905f90565b505f906001905f90565b6040513d5f823e3d90fd5b5050505f916003919056fea264697066735822122097fe6ab8e1d68b75a1aef8f118e319a40b921a270f3f64433d48f3100e7056d964736f6c634300081b00332f8788117e7eff1d82e926ec794901d17c78024a50270940304540a733656f0da805411f761e02533bc805c2a6525586c65abf18c4a607ff6e517175e492b7b6ad3228b676f7d3cd4284a5443f17f1962b36e491b30a40b2405849e597ba5fb5",
  "linkReferences": {},
  "deployedLinkReferences": {}
}